{
  "_format": "hh-sol-artifact-1",
  "contractName": "LotteryTest",
  "sourceName": "contracts/Lottery.sol",
  "abi": [
    {
      "inputs": [],
      "stateMutability": "nonpayable",
      "type": "constructor"
    },
    {
      "inputs": [],
      "name": "beginningOfParticipationPeriod",
      "outputs": [
        {
          "internalType": "uint256",
          "name": "",
          "type": "uint256"
        }
      ],
      "stateMutability": "view",
      "type": "function"
    },
    {
      "inputs": [],
      "name": "chainTokenDecimals",
      "outputs": [
        {
          "internalType": "uint8",
          "name": "",
          "type": "uint8"
        }
      ],
      "stateMutability": "view",
      "type": "function"
    },
    {
      "inputs": [],
      "name": "endOfParticipationPeriod",
      "outputs": [
        {
          "internalType": "uint256",
          "name": "",
          "type": "uint256"
        }
      ],
      "stateMutability": "view",
      "type": "function"
    },
    {
      "inputs": [],
      "name": "endOfPreparationPeriod",
      "outputs": [
        {
          "internalType": "uint256",
          "name": "",
          "type": "uint256"
        }
      ],
      "stateMutability": "view",
      "type": "function"
    },
    {
      "inputs": [],
      "name": "entryPriceUsd",
      "outputs": [
        {
          "internalType": "uint256",
          "name": "",
          "type": "uint256"
        }
      ],
      "stateMutability": "view",
      "type": "function"
    },
    {
      "inputs": [
        {
          "internalType": "uint256",
          "name": "",
          "type": "uint256"
        }
      ],
      "name": "events",
      "outputs": [
        {
          "internalType": "uint256",
          "name": "timestamp",
          "type": "uint256"
        },
        {
          "internalType": "string",
          "name": "description",
          "type": "string"
        }
      ],
      "stateMutability": "view",
      "type": "function"
    },
    {
      "inputs": [],
      "name": "fundsReleaseAddress",
      "outputs": [
        {
          "internalType": "address payable",
          "name": "",
          "type": "address"
        }
      ],
      "stateMutability": "view",
      "type": "function"
    },
    {
      "inputs": [],
      "name": "getLINKAmountRequired",
      "outputs": [
        {
          "internalType": "uint256",
          "name": "",
          "type": "uint256"
        }
      ],
      "stateMutability": "view",
      "type": "function"
    },
    {
      "inputs": [],
      "name": "getPriceToParticipate",
      "outputs": [
        {
          "internalType": "uint256",
          "name": "",
          "type": "uint256"
        }
      ],
      "stateMutability": "view",
      "type": "function"
    },
    {
      "inputs": [],
      "name": "getState",
      "outputs": [
        {
          "internalType": "enum Lottery.State",
          "name": "",
          "type": "uint8"
        }
      ],
      "stateMutability": "view",
      "type": "function"
    },
    {
      "inputs": [],
      "name": "isComplete",
      "outputs": [
        {
          "internalType": "bool",
          "name": "",
          "type": "bool"
        }
      ],
      "stateMutability": "view",
      "type": "function"
    },
    {
      "inputs": [
        {
          "internalType": "uint256",
          "name": "tokenId",
          "type": "uint256"
        }
      ],
      "name": "isWinningTicket",
      "outputs": [
        {
          "internalType": "bool",
          "name": "",
          "type": "bool"
        }
      ],
      "stateMutability": "view",
      "type": "function"
    },
    {
      "inputs": [
        {
          "internalType": "uint256",
          "name": "",
          "type": "uint256"
        }
      ],
      "name": "participants",
      "outputs": [
        {
          "internalType": "uint256",
          "name": "tokenId",
          "type": "uint256"
        }
      ],
      "stateMutability": "view",
      "type": "function"
    },
    {
      "inputs": [
        {
          "components": [
            {
              "components": [
                {
                  "internalType": "uint256",
                  "name": "body",
                  "type": "uint256"
                },
                {
                  "internalType": "uint256",
                  "name": "bodySkin",
                  "type": "uint256"
                },
                {
                  "internalType": "uint256",
                  "name": "reactor",
                  "type": "uint256"
                },
                {
                  "internalType": "uint256",
                  "name": "reactorSkin",
                  "type": "uint256"
                },
                {
                  "internalType": "uint256",
                  "name": "weapon",
                  "type": "uint256"
                },
                {
                  "internalType": "uint256",
                  "name": "weaponSkin",
                  "type": "uint256"
                }
              ],
              "internalType": "struct SpaceShips.ShipParts",
              "name": "parts",
              "type": "tuple"
            }
          ],
          "internalType": "struct SpaceShips.Ship",
          "name": "spaceShip",
          "type": "tuple"
        }
      ],
      "name": "participate",
      "outputs": [],
      "stateMutability": "payable",
      "type": "function"
    },
    {
      "inputs": [],
      "name": "priceConsumer",
      "outputs": [
        {
          "internalType": "contract PriceConsumer",
          "name": "",
          "type": "address"
        }
      ],
      "stateMutability": "view",
      "type": "function"
    },
    {
      "inputs": [
        {
          "internalType": "bytes32",
          "name": "requestId",
          "type": "bytes32"
        },
        {
          "internalType": "uint256",
          "name": "randomness",
          "type": "uint256"
        }
      ],
      "name": "rawFulfillRandomness",
      "outputs": [],
      "stateMutability": "nonpayable",
      "type": "function"
    },
    {
      "inputs": [
        {
          "internalType": "uint256",
          "name": "",
          "type": "uint256"
        }
      ],
      "name": "remainingParticipantsRanges",
      "outputs": [
        {
          "internalType": "uint256",
          "name": "min",
          "type": "uint256"
        },
        {
          "internalType": "uint256",
          "name": "max",
          "type": "uint256"
        }
      ],
      "stateMutability": "view",
      "type": "function"
    },
    {
      "inputs": [],
      "name": "token",
      "outputs": [
        {
          "internalType": "contract LotteryToken",
          "name": "",
          "type": "address"
        }
      ],
      "stateMutability": "view",
      "type": "function"
    },
    {
      "inputs": [],
      "name": "totalWinners",
      "outputs": [
        {
          "internalType": "uint8",
          "name": "",
          "type": "uint8"
        }
      ],
      "stateMutability": "view",
      "type": "function"
    },
    {
      "inputs": [],
      "name": "triggerCompletion",
      "outputs": [],
      "stateMutability": "nonpayable",
      "type": "function"
    },
    {
      "inputs": [],
      "name": "triggerNextEvent",
      "outputs": [],
      "stateMutability": "nonpayable",
      "type": "function"
    },
    {
      "inputs": [],
      "name": "vrfFee",
      "outputs": [
        {
          "internalType": "uint256",
          "name": "",
          "type": "uint256"
        }
      ],
      "stateMutability": "view",
      "type": "function"
    },
    {
      "inputs": [],
      "name": "vrfKeyHash",
      "outputs": [
        {
          "internalType": "bytes32",
          "name": "",
          "type": "bytes32"
        }
      ],
      "stateMutability": "view",
      "type": "function"
    },
    {
      "inputs": [
        {
          "internalType": "uint256",
          "name": "",
          "type": "uint256"
        }
      ],
      "name": "winners",
      "outputs": [
        {
          "internalType": "uint256",
          "name": "tokenId",
          "type": "uint256"
        }
      ],
      "stateMutability": "view",
      "type": "function"
    },
    {
      "inputs": [
        {
          "internalType": "uint256",
          "name": "",
          "type": "uint256"
        }
      ],
      "name": "winnersTokenId",
      "outputs": [
        {
          "internalType": "bool",
          "name": "",
          "type": "bool"
        }
      ],
      "stateMutability": "view",
      "type": "function"
    }
  ],
  "bytecode": "0x6102006040523480156200001257600080fd5b50601260006040518060400160405280600e81526020017f54657374353432343234333234330000000000000000000000000000000000008152506040518060400160405280600381526020017f53533100000000000000000000000000000000000000000000000000000000008152506040518060600160405280603b8152602001620089aa603b913973f585378ff2a1decb335b4899250b83f46dc5c01961012c42620000c2919062000885565b61025842620000d2919062000885565b61038442620000e2919062000885565b604051620000f09062000780565b604051809103906000f0801580156200010d573d6000803e3d6000fd5b506040518060800160405280738c7382f9d8f56b33781fe506e897a4f1e2d1725573ffffffffffffffffffffffffffffffffffffffff16815260200173326c977e6efc84e512bb9c30f76e30c160ed06fb73ffffffffffffffffffffffffffffffffffffffff1681526020017f6e75b569a01ef56d18cab6a8e71e6600d6ce853834d4a5748b720d06f878b3a460001b8152602001655af3107a4000815250806000015181602001518173ffffffffffffffffffffffffffffffffffffffff1660a08173ffffffffffffffffffffffffffffffffffffffff16815250508073ffffffffffffffffffffffffffffffffffffffff1660808173ffffffffffffffffffffffffffffffffffffffff16815250505050429450603c8562000232919062000885565b9350603c8462000243919062000885565b9250600060405180604001604052806040518060400160405280603c886200026c919062000885565b81526020016040518060400160405280600681526020017f4576656e7431000000000000000000000000000000000000000000000000000081525081525081526020016040518060400160405280607888620002c9919062000885565b81526020016040518060400160405280600681526020017f4576656e74320000000000000000000000000000000000000000000000000000815250815250815250905042861162000351576040517f08c379a0000000000000000000000000000000000000000000000000000000008152600401620003489062000969565b60405180910390fd5b85851162000396576040517f08c379a00000000000000000000000000000000000000000000000000000000081526004016200038d9062000a01565b60405180910390fd5b848411620003db576040517f08c379a0000000000000000000000000000000000000000000000000000000008152600401620003d29062000a99565b60405180910390fd5b600060021162000422576040517f08c379a0000000000000000000000000000000000000000000000000000000008152600401620004199062000b0b565b60405180910390fd5b83816000600281106200043a576200043962000b2d565b5b602002015160000151101562000487576040517f08c379a00000000000000000000000000000000000000000000000000000000081526004016200047e9062000bac565b60405180910390fd5b60005b6002811015620005a9576000828260028110620004ac57620004ab62000b2d565b5b6020020151602001515111620004f9576040517f08c379a0000000000000000000000000000000000000000000000000000000008152600401620004f09062000c1e565b60405180910390fd5b600081111562000593578160018262000513919062000c40565b6002811062000527576200052662000b2d565b5b60200201516000015182826002811062000546576200054562000b2d565b5b6020020151600001511162000592576040517f08c379a0000000000000000000000000000000000000000000000000000000008152600401620005899062000cf1565b60405180910390fd5b5b8080620005a09062000d13565b9150506200048a565b5060005b60028110156200063e576001828260028110620005cf57620005ce62000b2d565b5b60200201519080600181540180825580915050600190039060005260206000209060020201600090919091909150600082015181600001556020820151816001019080519060200190620006259291906200078e565b5050508080620006359062000d13565b915050620005ad565b50308a8a8a60405162000651906200081f565b62000660949392919062000e7f565b604051809103906000f0801580156200067d573d6000803e3d6000fd5b5073ffffffffffffffffffffffffffffffffffffffff166101208173ffffffffffffffffffffffffffffffffffffffff16815250508b60ff1660c08160ff16815250508a60e081815250508673ffffffffffffffffffffffffffffffffffffffff166101008173ffffffffffffffffffffffffffffffffffffffff16815250508561014081815250508461016081815250508361018081815250508273ffffffffffffffffffffffffffffffffffffffff166101a08173ffffffffffffffffffffffffffffffffffffffff16815250506002808190555081604001516101c0818152505081606001516101e0818152505050505050505050505050505062000f46565b610472806200403183390190565b8280546200079c9062000f10565b90600052602060002090601f016020900481019282620007c057600085556200080c565b82601f10620007db57805160ff19168380011785556200080c565b828001600101855582156200080c579182015b828111156200080b578251825591602001919060010190620007ee565b5b5090506200081b91906200082d565b5090565b61450780620044a383390190565b5b80821115620008485760008160009055506001016200082e565b5090565b6000819050919050565b7f4e487b7100000000000000000000000000000000000000000000000000000000600052601160045260246000fd5b600062000892826200084c565b91506200089f836200084c565b9250827fffffffffffffffffffffffffffffffffffffffffffffffffffffffffffffffff03821115620008d757620008d662000856565b5b828201905092915050565b600082825260208201905092915050565b7f496e76616c69642074696d657374616d703a20626567696e6e696e674f66506160008201527f7274696369706174696f6e506572696f64000000000000000000000000000000602082015250565b600062000951603183620008e2565b91506200095e82620008f3565b604082019050919050565b60006020820190508181036000830152620009848162000942565b9050919050565b7f496e76616c69642074696d657374616d703a20656e644f66506172746963697060008201527f6174696f6e506572696f64000000000000000000000000000000000000000000602082015250565b6000620009e9602b83620008e2565b9150620009f6826200098b565b604082019050919050565b6000602082019050818103600083015262000a1c81620009da565b9050919050565b7f496e76616c69642074696d657374616d703a20656e644f66507265706172617460008201527f696f6e506572696f640000000000000000000000000000000000000000000000602082015250565b600062000a81602983620008e2565b915062000a8e8262000a23565b604082019050919050565b6000602082019050818103600083015262000ab48162000a72565b9050919050565b7f4e6f206576656e74732073706563696669656400000000000000000000000000600082015250565b600062000af3601383620008e2565b915062000b008262000abb565b602082019050919050565b6000602082019050818103600083015262000b268162000ae4565b9050919050565b7f4e487b7100000000000000000000000000000000000000000000000000000000600052603260045260246000fd5b7f496e76616c69642074696d657374616d703a204669727374206576656e740000600082015250565b600062000b94601e83620008e2565b915062000ba18262000b5c565b602082019050919050565b6000602082019050818103600083015262000bc78162000b85565b9050919050565b7f4576656e7420686173206e6f206465736372697074696f6e0000000000000000600082015250565b600062000c06601883620008e2565b915062000c138262000bce565b602082019050919050565b6000602082019050818103600083015262000c398162000bf7565b9050919050565b600062000c4d826200084c565b915062000c5a836200084c565b92508282101562000c705762000c6f62000856565b5b828203905092915050565b7f4576656e74732074696d657374616d7073206e6f7420696e20617363656e646960008201527f6e67206f72646572000000000000000000000000000000000000000000000000602082015250565b600062000cd9602883620008e2565b915062000ce68262000c7b565b604082019050919050565b6000602082019050818103600083015262000d0c8162000cca565b9050919050565b600062000d20826200084c565b91507fffffffffffffffffffffffffffffffffffffffffffffffffffffffffffffffff82141562000d565762000d5562000856565b5b600182019050919050565b600073ffffffffffffffffffffffffffffffffffffffff82169050919050565b6000819050919050565b600062000dac62000da662000da08462000d61565b62000d81565b62000d61565b9050919050565b600062000dc08262000d8b565b9050919050565b600062000dd48262000db3565b9050919050565b62000de68162000dc7565b82525050565b600081519050919050565b60005b8381101562000e1757808201518184015260208101905062000dfa565b8381111562000e27576000848401525b50505050565b6000601f19601f8301169050919050565b600062000e4b8262000dec565b62000e578185620008e2565b935062000e6981856020860162000df7565b62000e748162000e2d565b840191505092915050565b600060808201905062000e96600083018762000ddb565b818103602083015262000eaa818662000e3e565b9050818103604083015262000ec0818562000e3e565b9050818103606083015262000ed6818462000e3e565b905095945050505050565b7f4e487b7100000000000000000000000000000000000000000000000000000000600052602260045260246000fd5b6000600282049050600182168062000f2957607f821691505b6020821081141562000f405762000f3f62000ee1565b5b50919050565b60805160a05160c05160e05161010051610120516101405161016051610180516101a0516101c0516101e051612ff062001041600039600081816106b501528181610cbb0152610da90152600081816105d50152610c9a015260008181610810015281816108c40152610a4d0152600081816107790152610a710152600081816107480152610eaa0152600081816107170152610d7f0152600081816110c101526113d2015260008181610a950152611cba0152600081816107e901526109a90152600081816106d90152818161096201526109cc015260008181610ece015261144e015260008181610dd801526114120152612ff06000f3fe6080604052600436106101665760003560e01c80637572c593116100d1578063bcc941b61161008a578063ce2cf5d911610064578063ce2cf5d914610517578063d84e29ea1461052e578063ed66835b1461056b578063fc0c546a146105a857610166565b8063bcc941b614610492578063bd2d5a1e146104bd578063c013fd1f146104fb57610166565b80637572c5931461038057806377f1b4cc146103ab57806381e77a07146103d657806394985ddd14610401578063a2fb11751461042a578063b2fa1c9e1461046757610166565b80633502791811610123578063350279181461028057806335c1d349146102ab578063461a758c146102e857806346c6dd09146103135780636b48e2db1461033e5780636ee914ef1461036957610166565b8063041d443e1461016b5780630b791430146101965780631017507d146101d4578063115e4380146101ff5780631865c57d1461022a5780631a38489c14610255575b600080fd5b34801561017757600080fd5b506101806105d3565b60405161018d9190611df4565b60405180910390f35b3480156101a257600080fd5b506101bd60048036038101906101b89190611e54565b6105f7565b6040516101cb929190611f29565b60405180910390f35b3480156101e057600080fd5b506101e96106b3565b6040516101f69190611f59565b60405180910390f35b34801561020b57600080fd5b506102146106d7565b6040516102219190611f90565b60405180910390f35b34801561023657600080fd5b5061023f6106fb565b60405161024c9190612022565b60405180910390f35b34801561026157600080fd5b5061026a6107e7565b6040516102779190611f59565b60405180910390f35b34801561028c57600080fd5b5061029561080b565b6040516102a29190611f59565b60405180910390f35b3480156102b757600080fd5b506102d260048036038101906102cd9190611e54565b610a21565b6040516102df9190611f59565b60405180910390f35b3480156102f457600080fd5b506102fd610a4b565b60405161030a91906120bc565b60405180910390f35b34801561031f57600080fd5b50610328610a6f565b6040516103359190611f59565b60405180910390f35b34801561034a57600080fd5b50610353610a93565b60405161036091906120f8565b60405180910390f35b34801561037557600080fd5b5061037e610ab7565b005b34801561038c57600080fd5b50610395610d7d565b6040516103a29190611f59565b60405180910390f35b3480156103b757600080fd5b506103c0610da1565b6040516103cd9190611f59565b60405180910390f35b3480156103e257600080fd5b506103eb610ea8565b6040516103f89190611f59565b60405180910390f35b34801561040d57600080fd5b506104286004803603810190610423919061213f565b610ecc565b005b34801561043657600080fd5b50610451600480360381019061044c9190611e54565b610f68565b60405161045e9190611f59565b60405180910390f35b34801561047357600080fd5b5061047c610f92565b604051610489919061219a565b60405180910390f35b34801561049e57600080fd5b506104a7610fc7565b6040516104b49190611f90565b60405180910390f35b3480156104c957600080fd5b506104e460048036038101906104df9190611e54565b610fcc565b6040516104f29291906121b5565b60405180910390f35b6105156004803603810190610510919061233a565b611000565b005b34801561052357600080fd5b5061052c6111b5565b005b34801561053a57600080fd5b5061055560048036038101906105509190611e54565b611386565b604051610562919061219a565b60405180910390f35b34801561057757600080fd5b50610592600480360381019061058d9190611e54565b6113b0565b60405161059f919061219a565b60405180910390f35b3480156105b457600080fd5b506105bd6113d0565b6040516105ca9190612388565b60405180910390f35b7f000000000000000000000000000000000000000000000000000000000000000081565b6001818154811061060757600080fd5b9060005260206000209060020201600091509050806000015490806001018054610630906123d2565b80601f016020809104026020016040519081016040528092919081815260200182805461065c906123d2565b80156106a95780601f1061067e576101008083540402835291602001916106a9565b820191906000526020600020905b81548152906001019060200180831161068c57829003601f168201915b5050505050905082565b7f000000000000000000000000000000000000000000000000000000000000000081565b7f000000000000000000000000000000000000000000000000000000000000000081565b600080610706610da1565b111561071557600090506107e4565b7f000000000000000000000000000000000000000000000000000000000000000042101561074657600190506107e4565b7f000000000000000000000000000000000000000000000000000000000000000042101561077757600290506107e4565b7f00000000000000000000000000000000000000000000000000000000000000004210156107a857600390506107e4565b60006003805490501180156107bf57506000600254115b156107cd57600490506107e4565b60004711156107df57600590506107e4565b600690505b90565b7f000000000000000000000000000000000000000000000000000000000000000081565b6000807f000000000000000000000000000000000000000000000000000000000000000073ffffffffffffffffffffffffffffffffffffffff16638e15f4736040518163ffffffff1660e01b815260040160206040518083038186803b15801561087457600080fd5b505afa158015610888573d6000803e3d6000fd5b505050506040513d601f19601f820116820180604052508101906108ac919061243a565b9050600081136108c0576000915050610a1e565b60007f000000000000000000000000000000000000000000000000000000000000000073ffffffffffffffffffffffffffffffffffffffff1663313ce5676040518163ffffffff1660e01b815260040160206040518083038186803b15801561092857600080fd5b505afa15801561093c573d6000803e3d6000fd5b505050506040513d601f19601f820116820180604052508101906109609190612493565b7f000000000000000000000000000000000000000000000000000000000000000061098b91906124ef565b600a6109979190612656565b826109a291906126a1565b90506000817f000000000000000000000000000000000000000000000000000000000000000060027f00000000000000000000000000000000000000000000000000000000000000006109f591906126fb565b600a610a019190612656565b610a0b91906126a1565b610a159190612765565b90508093505050505b90565b60038181548110610a3157600080fd5b906000526020600020016000915090508060000154905081565b7f000000000000000000000000000000000000000000000000000000000000000081565b7f000000000000000000000000000000000000000000000000000000000000000081565b7f000000000000000000000000000000000000000000000000000000000000000081565b60046006811115610acb57610aca611fab565b5b610ad36106fb565b6006811115610ae557610ae4611fab565b5b14610b25576040517f08c379a0000000000000000000000000000000000000000000000000000000008152600401610b1c90612808565b60405180910390fd5b6000610b2f6113f4565b9050600060018281548110610b4757610b46612828565b5b906000526020600020906002020160405180604001604052908160008201548152602001600182018054610b7a906123d2565b80601f0160208091040260200160405190810160405280929190818152602001828054610ba6906123d2565b8015610bf35780601f10610bc857610100808354040283529160200191610bf3565b820191906000526020600020905b815481529060010190602001808311610bd657829003601f168201915b50505050508152505090508060000151421015610c45576040517f08c379a0000000000000000000000000000000000000000000000000000000008152600401610c3c906128c9565b60405180910390fd5b600860009054906101000a900460ff1615610c95576040517f08c379a0000000000000000000000000000000000000000000000000000000008152600401610c8c90612935565b60405180910390fd5b610cdf7f00000000000000000000000000000000000000000000000000000000000000007f000000000000000000000000000000000000000000000000000000000000000061140e565b506001600860006101000a81548160ff0219169083151502179055506000821415610d795760038054905060078190555060066040518060400160405280600081526020016001600380549050610d369190612955565b8152509080600181540180825580915050600190039060005260206000209060020201600090919091909150600082015181600001556020820151816001015550505b5050565b7f000000000000000000000000000000000000000000000000000000000000000081565b6000806002547f0000000000000000000000000000000000000000000000000000000000000000610dd291906126a1565b905060007f000000000000000000000000000000000000000000000000000000000000000073ffffffffffffffffffffffffffffffffffffffff166370a08231306040518263ffffffff1660e01b8152600401610e2f91906129aa565b60206040518083038186803b158015610e4757600080fd5b505afa158015610e5b573d6000803e3d6000fd5b505050506040513d601f19601f82011682018060405250810190610e7f91906129da565b905081811015610e9e578082610e959190612955565b92505050610ea5565b6000925050505b90565b7f000000000000000000000000000000000000000000000000000000000000000081565b7f000000000000000000000000000000000000000000000000000000000000000073ffffffffffffffffffffffffffffffffffffffff163373ffffffffffffffffffffffffffffffffffffffff1614610f5a576040517f08c379a0000000000000000000000000000000000000000000000000000000008152600401610f5190612a53565b60405180910390fd5b610f64828261156d565b5050565b60048181548110610f7857600080fd5b906000526020600020016000915090508060000154905081565b6000600680811115610fa757610fa6611fab565b5b610faf6106fb565b6006811115610fc157610fc0611fab565b5b14905090565b600381565b60068181548110610fdc57600080fd5b90600052602060002090600202016000915090508060000154908060010154905082565b6002600681111561101457611013611fab565b5b61101c6106fb565b600681111561102e5761102d611fab565b5b1461106e576040517f08c379a000000000000000000000000000000000000000000000000000000000815260040161106590612ae5565b60405180910390fd5b600061107861080b565b9050803410156110bd576040517f08c379a00000000000000000000000000000000000000000000000000000000081526004016110b490612b77565b60405180910390fd5b60007f000000000000000000000000000000000000000000000000000000000000000073ffffffffffffffffffffffffffffffffffffffff1663c6ab6f4333856040518363ffffffff1660e01b815260040161111a929190612c3d565b602060405180830381600087803b15801561113457600080fd5b505af1158015611148573d6000803e3d6000fd5b505050506040513d601f19601f8201168201806040525081019061116c91906129da565b9050600360405180602001604052808381525090806001815401808255809150506001900390600052602060002001600090919091909150600082015181600001555050505050565b600560068111156111c9576111c8611fab565b5b6111d16106fb565b60068111156111e3576111e2611fab565b5b14611223576040517f08c379a000000000000000000000000000000000000000000000000000000000815260040161121a90612cd8565b60405180910390fd5b61122b611cb8565b60005b6006805490508110801561124a5750600360ff16600480549050105b156113835760006006828154811061126557611264612828565b5b90600052602060002090600202016040518060400160405290816000820154815260200160018201548152505090506000816000015190505b816020015181111580156112ba5750600360ff16600480549050105b1561136e576000600382815481106112d5576112d4612828565b5b906000526020600020016040518060200160405290816000820154815250509050600481908060018154018082558091505060019003906000526020600020016000909190919091506000820151816000015550506001600560008360000151815260200190815260200160002060006101000a81548160ff02191690831515021790555050808061136690612cf8565b91505061129e565b5050808061137b90612cf8565b91505061122e565b50565b60006005600083815260200190815260200160002060009054906101000a900460ff169050919050565b60056020528060005260406000206000915054906101000a900460ff1681565b7f000000000000000000000000000000000000000000000000000000000000000081565b60006002546001805490506114099190612955565b905090565b60007f000000000000000000000000000000000000000000000000000000000000000073ffffffffffffffffffffffffffffffffffffffff16634000aea07f000000000000000000000000000000000000000000000000000000000000000084866000604051602001611482929190612d41565b6040516020818303038152906040526040518463ffffffff1660e01b81526004016114af93929190612dbf565b602060405180830381600087803b1580156114c957600080fd5b505af11580156114dd573d6000803e3d6000fd5b505050506040513d601f19601f820116820180604052508101906115019190612e29565b5060006115238460003060008089815260200190815260200160002054611d21565b90506001600080868152602001908152602001600020546115449190612e56565b600080868152602001908152602001600020819055506115648482611d5d565b91505092915050565b60006006805480602002602001604051908101604052809291908181526020016000905b828210156115d757838290600052602060002090600202016040518060400160405290816000820154815260200160018201548152505081526020019060010190611591565b505050509050600060069050600660006115f19190611d90565b6002600760008282546116049190612765565b92505081905550600360ff16600754101561162557600360ff166007819055505b6001825114156118d85760008260008151811061164557611644612828565b5b60200260200101516000015160018460008151811061166757611666612828565b5b6020026020010151600001518560008151811061168757611686612828565b5b60200260200101516020015161169d9190612955565b6116a79190612e56565b856116b29190612eac565b6116bc9190612e56565b9050826000815181106116d2576116d1612828565b5b6020026020010151602001516001600754836116ee9190612e56565b6116f89190612955565b116117705781604051806040016040528083815260200160016007548561171f9190612e56565b6117299190612955565b8152509080600181540180825580915050600190039060005260206000209060020201600090919091909150600082015181600001556020820151816001015550506118d2565b8160405180604001604052808381526020018560008151811061179657611795612828565b5b6020026020010151602001518152509080600181540180825580915050600190039060005260206000209060020201600090919091909150600082015181600001556020820151816001015550508160405180604001604052808560008151811061180457611803612828565b5b60200260200101516000015181526020016001848760008151811061182c5761182b612828565b5b6020026020010151602001516118429190612955565b61184c9190612e56565b600160075461185b9190612955565b8760008151811061186f5761186e612828565b5b6020026020010151600001516118859190612e56565b61188f9190612955565b8152509080600181540180825580915050600190039060005260206000209060020201600090919091909150600082015181600001556020820151816001015550505b50611c6b565b60006002846118e79190612eac565b905060008382815181106118fe576118fd612828565b5b602002602001015160000151600185848151811061191f5761191e612828565b5b60200260200101516000015186858151811061193e5761193d612828565b5b6020026020010151602001516119549190612955565b61195e9190612e56565b866119699190612eac565b6119739190612e56565b905083828151811061198857611987612828565b5b6020026020010151602001516001600754836119a49190612e56565b6119ae9190612955565b11611a26578260405180604001604052808381526020016001600754856119d59190612e56565b6119df9190612955565b815250908060018154018082558091505060019003906000526020600020906002020160009091909190915060008201518160000155602082015181600101555050611c68565b60006002600184611a379190612e56565b611a419190612eac565b90506000600183878681518110611a5b57611a5a612828565b5b602002602001015160200151611a719190612955565b611a7b9190612e56565b9050600081600754611a8d9190612955565b90506000600182898681518110611aa757611aa6612828565b5b602002602001015160000151611abd9190612e56565b611ac79190612955565b90506003805490508110611b06576000600380549050600183611aea9190612e56565b611af49190612955565b90508086611b029190612955565b9550505b8660405180604001604052808781526020018a8981518110611b2b57611b2a612828565b5b6020026020010151602001518152509080600181540180825580915050600190039060005260206000209060020201600090919091909150600082015181600001556020820151816001015550508660405180604001604052808a8781518110611b9857611b97612828565b5b60200260200101516000015181526020016001888c8b81518110611bbf57611bbe612828565b5b602002602001015160200151611bd59190612955565b611bdf9190612e56565b6001600754611bee9190612955565b8c8981518110611c0157611c00612828565b5b602002602001015160000151611c179190612e56565b611c219190612955565b815250908060018154018082558091505060019003906000526020600020906002020160009091909190915060008201518160000155602082015181600101555050505050505b50505b6000600860006101000a81548160ff02191690831515021790555060026000815480929190611c9990612edd565b919050555060006002541415611cb257611cb16111b5565b5b50505050565b7f000000000000000000000000000000000000000000000000000000000000000073ffffffffffffffffffffffffffffffffffffffff166108fc479081150290604051600060405180830381858888f19350505050158015611d1e573d6000803e3d6000fd5b50565b600084848484604051602001611d3a9493929190612f07565b6040516020818303038152906040528051906020012060001c9050949350505050565b60008282604051602001611d72929190612f8e565b60405160208183030381529060405280519060200120905092915050565b5080546000825560020290600052602060002090810190611db19190611db4565b50565b5b80821115611dd757600080820160009055600182016000905550600201611db5565b5090565b6000819050919050565b611dee81611ddb565b82525050565b6000602082019050611e096000830184611de5565b92915050565b6000604051905090565b600080fd5b6000819050919050565b611e3181611e1e565b8114611e3c57600080fd5b50565b600081359050611e4e81611e28565b92915050565b600060208284031215611e6a57611e69611e19565b5b6000611e7884828501611e3f565b91505092915050565b611e8a81611e1e565b82525050565b600081519050919050565b600082825260208201905092915050565b60005b83811015611eca578082015181840152602081019050611eaf565b83811115611ed9576000848401525b50505050565b6000601f19601f8301169050919050565b6000611efb82611e90565b611f058185611e9b565b9350611f15818560208601611eac565b611f1e81611edf565b840191505092915050565b6000604082019050611f3e6000830185611e81565b8181036020830152611f508184611ef0565b90509392505050565b6000602082019050611f6e6000830184611e81565b92915050565b600060ff82169050919050565b611f8a81611f74565b82525050565b6000602082019050611fa56000830184611f81565b92915050565b7f4e487b7100000000000000000000000000000000000000000000000000000000600052602160045260246000fd5b60078110611feb57611fea611fab565b5b50565b6000819050611ffc82611fda565b919050565b600061200c82611fee565b9050919050565b61201c81612001565b82525050565b60006020820190506120376000830184612013565b92915050565b600073ffffffffffffffffffffffffffffffffffffffff82169050919050565b6000819050919050565b600061208261207d6120788461203d565b61205d565b61203d565b9050919050565b600061209482612067565b9050919050565b60006120a682612089565b9050919050565b6120b68161209b565b82525050565b60006020820190506120d160008301846120ad565b92915050565b60006120e28261203d565b9050919050565b6120f2816120d7565b82525050565b600060208201905061210d60008301846120e9565b92915050565b61211c81611ddb565b811461212757600080fd5b50565b60008135905061213981612113565b92915050565b6000806040838503121561215657612155611e19565b5b60006121648582860161212a565b925050602061217585828601611e3f565b9150509250929050565b60008115159050919050565b6121948161217f565b82525050565b60006020820190506121af600083018461218b565b92915050565b60006040820190506121ca6000830185611e81565b6121d76020830184611e81565b9392505050565b600080fd5b7f4e487b7100000000000000000000000000000000000000000000000000000000600052604160045260246000fd5b61221b82611edf565b810181811067ffffffffffffffff8211171561223a576122396121e3565b5b80604052505050565b600061224d611e0f565b90506122598282612212565b919050565b600060c08284031215612274576122736121de565b5b61227e60c0612243565b9050600061228e84828501611e3f565b60008301525060206122a284828501611e3f565b60208301525060406122b684828501611e3f565b60408301525060606122ca84828501611e3f565b60608301525060806122de84828501611e3f565b60808301525060a06122f284828501611e3f565b60a08301525092915050565b600060c08284031215612314576123136121de565b5b61231e6020612243565b9050600061232e8482850161225e565b60008301525092915050565b600060c082840312156123505761234f611e19565b5b600061235e848285016122fe565b91505092915050565b600061237282612089565b9050919050565b61238281612367565b82525050565b600060208201905061239d6000830184612379565b92915050565b7f4e487b7100000000000000000000000000000000000000000000000000000000600052602260045260246000fd5b600060028204905060018216806123ea57607f821691505b602082108114156123fe576123fd6123a3565b5b50919050565b6000819050919050565b61241781612404565b811461242257600080fd5b50565b6000815190506124348161240e565b92915050565b6000602082840312156124505761244f611e19565b5b600061245e84828501612425565b91505092915050565b61247081611f74565b811461247b57600080fd5b50565b60008151905061248d81612467565b92915050565b6000602082840312156124a9576124a8611e19565b5b60006124b78482850161247e565b91505092915050565b7f4e487b7100000000000000000000000000000000000000000000000000000000600052601160045260246000fd5b60006124fa82611f74565b915061250583611f74565b925082821015612518576125176124c0565b5b828203905092915050565b60008160011c9050919050565b6000808291508390505b600185111561257a57808604811115612556576125556124c0565b5b60018516156125655780820291505b808102905061257385612523565b945061253a565b94509492505050565b600082612593576001905061264f565b816125a1576000905061264f565b81600181146125b757600281146125c1576125f0565b600191505061264f565b60ff8411156125d3576125d26124c0565b5b8360020a9150848211156125ea576125e96124c0565b5b5061264f565b5060208310610133831016604e8410600b84101617156126255782820a9050838111156126205761261f6124c0565b5b61264f565b6126328484846001612530565b92509050818404811115612649576126486124c0565b5b81810290505b9392505050565b600061266182611e1e565b915061266c83611f74565b92506126997fffffffffffffffffffffffffffffffffffffffffffffffffffffffffffffffff8484612583565b905092915050565b60006126ac82611e1e565b91506126b783611e1e565b9250817fffffffffffffffffffffffffffffffffffffffffffffffffffffffffffffffff04831182151516156126f0576126ef6124c0565b5b828202905092915050565b600061270682611f74565b915061271183611f74565b92508160ff048311821515161561272b5761272a6124c0565b5b828202905092915050565b7f4e487b7100000000000000000000000000000000000000000000000000000000600052601260045260246000fd5b600061277082611e1e565b915061277b83611e1e565b92508261278b5761278a612736565b5b828204905092915050565b7f4e6f742063757272656e746c792077616974696e6720666f7220746865206e6560008201527f7874206576656e74000000000000000000000000000000000000000000000000602082015250565b60006127f2602883611e9b565b91506127fd82612796565b604082019050919050565b60006020820190508181036000830152612821816127e5565b9050919050565b7f4e487b7100000000000000000000000000000000000000000000000000000000600052603260045260246000fd5b7f546f6f206561726c7920746f207472696767657220746865206e65787420657660008201527f656e740000000000000000000000000000000000000000000000000000000000602082015250565b60006128b3602383611e9b565b91506128be82612857565b604082019050919050565b600060208201905081810360008301526128e2816128a6565b9050919050565b7f416c72656164792072657175657374696e672072616e646f6d6e657373000000600082015250565b600061291f601d83611e9b565b915061292a826128e9565b602082019050919050565b6000602082019050818103600083015261294e81612912565b9050919050565b600061296082611e1e565b915061296b83611e1e565b92508282101561297e5761297d6124c0565b5b828203905092915050565b60006129948261203d565b9050919050565b6129a481612989565b82525050565b60006020820190506129bf600083018461299b565b92915050565b6000815190506129d481611e28565b92915050565b6000602082840312156129f0576129ef611e19565b5b60006129fe848285016129c5565b91505092915050565b7f4f6e6c7920565246436f6f7264696e61746f722063616e2066756c66696c6c00600082015250565b6000612a3d601f83611e9b565b9150612a4882612a07565b602082019050919050565b60006020820190508181036000830152612a6c81612a30565b9050919050565b7f4e6f742063757272656e746c7920616363657074696e6720706172746963697060008201527f616e747300000000000000000000000000000000000000000000000000000000602082015250565b6000612acf602483611e9b565b9150612ada82612a73565b604082019050919050565b60006020820190508181036000830152612afe81612ac2565b9050919050565b7f4e6f7420656e6f7567682066756e647320746f2070617274696369706174652e60008201527f20536565206765745072696365546f5061727469636970617465282900000000602082015250565b6000612b61603c83611e9b565b9150612b6c82612b05565b604082019050919050565b60006020820190508181036000830152612b9081612b54565b9050919050565b612ba081611e1e565b82525050565b60c082016000820151612bbc6000850182612b97565b506020820151612bcf6020850182612b97565b506040820151612be26040850182612b97565b506060820151612bf56060850182612b97565b506080820151612c086080850182612b97565b5060a0820151612c1b60a0850182612b97565b50505050565b60c082016000820151612c376000850182612ba6565b50505050565b600060e082019050612c52600083018561299b565b612c5f6020830184612c21565b9392505050565b7f4e6f742063757272656e746c792077616974696e6720666f722066756e64732060008201527f72656c6561736500000000000000000000000000000000000000000000000000602082015250565b6000612cc2602783611e9b565b9150612ccd82612c66565b604082019050919050565b60006020820190508181036000830152612cf181612cb5565b9050919050565b6000612d0382611e1e565b91507fffffffffffffffffffffffffffffffffffffffffffffffffffffffffffffffff821415612d3657612d356124c0565b5b600182019050919050565b6000604082019050612d566000830185611de5565b612d636020830184611e81565b9392505050565b600081519050919050565b600082825260208201905092915050565b6000612d9182612d6a565b612d9b8185612d75565b9350612dab818560208601611eac565b612db481611edf565b840191505092915050565b6000606082019050612dd4600083018661299b565b612de16020830185611e81565b8181036040830152612df38184612d86565b9050949350505050565b612e068161217f565b8114612e1157600080fd5b50565b600081519050612e2381612dfd565b92915050565b600060208284031215612e3f57612e3e611e19565b5b6000612e4d84828501612e14565b91505092915050565b6000612e6182611e1e565b9150612e6c83611e1e565b9250827fffffffffffffffffffffffffffffffffffffffffffffffffffffffffffffffff03821115612ea157612ea06124c0565b5b828201905092915050565b6000612eb782611e1e565b9150612ec283611e1e565b925082612ed257612ed1612736565b5b828206905092915050565b6000612ee882611e1e565b91506000821415612efc57612efb6124c0565b5b600182039050919050565b6000608082019050612f1c6000830187611de5565b612f296020830186611e81565b612f36604083018561299b565b612f436060830184611e81565b95945050505050565b6000819050919050565b612f67612f6282611ddb565b612f4c565b82525050565b6000819050919050565b612f88612f8382611e1e565b612f6d565b82525050565b6000612f9a8285612f56565b602082019150612faa8284612f77565b602082019150819050939250505056fea26469706673582212208db99267554e6d55103e12df890d54ea02dc6f6c729ceedfe0b570c21e3e3ca764736f6c6343000809003360a060405234801561001057600080fd5b5073d0d5e3db44de05e9f294bb0a3beeaf030de24ada8073ffffffffffffffffffffffffffffffffffffffff1660808173ffffffffffffffffffffffffffffffffffffffff1681525050506080516103f661007c60003960008181607b015261012701526103f66000f3fe608060405234801561001057600080fd5b50600436106100365760003560e01c8063313ce5671461003b5780638e15f47314610059575b600080fd5b610043610077565b60405161005091906101f4565b60405180910390f35b61006161011c565b60405161006e9190610228565b60405180910390f35b60007f000000000000000000000000000000000000000000000000000000000000000073ffffffffffffffffffffffffffffffffffffffff1663313ce5676040518163ffffffff1660e01b815260040160206040518083038186803b1580156100df57600080fd5b505afa1580156100f3573d6000803e3d6000fd5b505050506040513d601f19601f820116820180604052508101906101179190610274565b905090565b6000806000806000807f000000000000000000000000000000000000000000000000000000000000000073ffffffffffffffffffffffffffffffffffffffff1663feaf968c6040518163ffffffff1660e01b815260040160a06040518083038186803b15801561018b57600080fd5b505afa15801561019f573d6000803e3d6000fd5b505050506040513d601f19601f820116820180604052508101906101c39190610345565b94509450945094509450839550505050505090565b600060ff82169050919050565b6101ee816101d8565b82525050565b600060208201905061020960008301846101e5565b92915050565b6000819050919050565b6102228161020f565b82525050565b600060208201905061023d6000830184610219565b92915050565b600080fd5b610251816101d8565b811461025c57600080fd5b50565b60008151905061026e81610248565b92915050565b60006020828403121561028a57610289610243565b5b60006102988482850161025f565b91505092915050565b600069ffffffffffffffffffff82169050919050565b6102c0816102a1565b81146102cb57600080fd5b50565b6000815190506102dd816102b7565b92915050565b6102ec8161020f565b81146102f757600080fd5b50565b600081519050610309816102e3565b92915050565b6000819050919050565b6103228161030f565b811461032d57600080fd5b50565b60008151905061033f81610319565b92915050565b600080600080600060a0868803121561036157610360610243565b5b600061036f888289016102ce565b9550506020610380888289016102fa565b945050604061039188828901610330565b93505060606103a288828901610330565b92505060806103b3888289016102ce565b915050929550929590935056fea2646970667358221220fdcf449e6b9a874a9f7a8c1093e03819b5dccf06a66192bfdfd69b7f27f9e30364736f6c6343000809003360806040523480156200001157600080fd5b5060405162004507380380620045078339818101604052810190620000379190620004cc565b828281600090805190602001906200005192919062000206565b5080600190805190602001906200006a92919062000206565b5050506200008d620000816200013860201b60201c565b6200014060201b60201c565b6000815111620000d4576040517f08c379a0000000000000000000000000000000000000000000000000000000008152600401620000cb90620005fc565b60405180910390fd5b80600b9080519060200190620000ec92919062000206565b5083600c60006101000a81548173ffffffffffffffffffffffffffffffffffffffff021916908373ffffffffffffffffffffffffffffffffffffffff1602179055505050505062000683565b600033905090565b6000600a60009054906101000a900473ffffffffffffffffffffffffffffffffffffffff16905081600a60006101000a81548173ffffffffffffffffffffffffffffffffffffffff021916908373ffffffffffffffffffffffffffffffffffffffff1602179055508173ffffffffffffffffffffffffffffffffffffffff168173ffffffffffffffffffffffffffffffffffffffff167f8be0079c531659141344cd1fd0a4f28419497f9722a3daafe3b4186f6b6457e060405160405180910390a35050565b82805462000214906200064d565b90600052602060002090601f01602090048101928262000238576000855562000284565b82601f106200025357805160ff191683800117855562000284565b8280016001018555821562000284579182015b828111156200028357825182559160200191906001019062000266565b5b50905062000293919062000297565b5090565b5b80821115620002b257600081600090555060010162000298565b5090565b6000604051905090565b600080fd5b600080fd5b600073ffffffffffffffffffffffffffffffffffffffff82169050919050565b6000620002f782620002ca565b9050919050565b60006200030b82620002ea565b9050919050565b6200031d81620002fe565b81146200032957600080fd5b50565b6000815190506200033d8162000312565b92915050565b600080fd5b600080fd5b6000601f19601f8301169050919050565b7f4e487b7100000000000000000000000000000000000000000000000000000000600052604160045260246000fd5b62000398826200034d565b810181811067ffffffffffffffff82111715620003ba57620003b96200035e565b5b80604052505050565b6000620003cf620002b6565b9050620003dd82826200038d565b919050565b600067ffffffffffffffff8211156200040057620003ff6200035e565b5b6200040b826200034d565b9050602081019050919050565b60005b83811015620004385780820151818401526020810190506200041b565b8381111562000448576000848401525b50505050565b6000620004656200045f84620003e2565b620003c3565b90508281526020810184848401111562000484576200048362000348565b5b6200049184828562000418565b509392505050565b600082601f830112620004b157620004b062000343565b5b8151620004c38482602086016200044e565b91505092915050565b60008060008060808587031215620004e957620004e8620002c0565b5b6000620004f9878288016200032c565b945050602085015167ffffffffffffffff8111156200051d576200051c620002c5565b5b6200052b8782880162000499565b935050604085015167ffffffffffffffff8111156200054f576200054e620002c5565b5b6200055d8782880162000499565b925050606085015167ffffffffffffffff811115620005815762000580620002c5565b5b6200058f8782880162000499565b91505092959194509250565b600082825260208201905092915050565b7f4e6f204349442070726f76696465640000000000000000000000000000000000600082015250565b6000620005e4600f836200059b565b9150620005f182620005ac565b602082019050919050565b600060208201905081810360008301526200061781620005d5565b9050919050565b7f4e487b7100000000000000000000000000000000000000000000000000000000600052602260045260246000fd5b600060028204905060018216806200066657607f821691505b602082108114156200067d576200067c6200061e565b5b50919050565b613e7480620006936000396000f3fe608060405234801561001057600080fd5b50600436106101585760003560e01c8063715018a6116100c3578063c098004c1161007c578063c098004c146103d9578063c6ab6f43146103f7578063c87b56dd14610427578063e8a3d48514610457578063e985e9c514610475578063f2fde38b146104a557610158565b8063715018a61461033d5780638da5cb5b1461034757806395d89b4114610365578063a22cb46514610383578063b88d4fde1461039f578063ba13a572146103bb57610158565b80632f745c59116101155780632f745c59146102315780634025b22d1461026157806342842e0e146102915780634f6ccce7146102ad5780636352211e146102dd57806370a082311461030d57610158565b806301ffc9a71461015d57806306fdde031461018d578063081812fc146101ab578063095ea7b3146101db57806318160ddd146101f757806323b872dd14610215575b600080fd5b610177600480360381019061017291906125cf565b6104c1565b6040516101849190612617565b60405180910390f35b61019561053b565b6040516101a291906126cb565b60405180910390f35b6101c560048036038101906101c09190612723565b6105cd565b6040516101d29190612791565b60405180910390f35b6101f560048036038101906101f091906127d8565b610652565b005b6101ff61076a565b60405161020c9190612827565b60405180910390f35b61022f600480360381019061022a9190612842565b610777565b005b61024b600480360381019061024691906127d8565b6107d7565b6040516102589190612827565b60405180910390f35b61027b60048036038101906102769190612723565b61087c565b604051610288919061293b565b60405180910390f35b6102ab60048036038101906102a69190612842565b6108f9565b005b6102c760048036038101906102c29190612723565b610919565b6040516102d49190612827565b60405180910390f35b6102f760048036038101906102f29190612723565b61098a565b6040516103049190612791565b60405180910390f35b61032760048036038101906103229190612956565b610a3c565b6040516103349190612827565b60405180910390f35b610345610af4565b005b61034f610b7c565b60405161035c9190612791565b60405180910390f35b61036d610ba6565b60405161037a91906126cb565b60405180910390f35b61039d600480360381019061039891906129af565b610c38565b005b6103b960048036038101906103b49190612b24565b610db9565b005b6103c3610e1b565b6040516103d09190612c06565b60405180910390f35b6103e1610e41565b6040516103ee91906126cb565b60405180910390f35b610411600480360381019061040c9190612d02565b610ecf565b60405161041e9190612827565b60405180910390f35b610441600480360381019061043c9190612723565b610fd7565b60405161044e91906126cb565b60405180910390f35b61045f611263565b60405161046c91906126cb565b60405180910390f35b61048f600480360381019061048a9190612d42565b61128b565b60405161049c9190612617565b60405180910390f35b6104bf60048036038101906104ba9190612956565b61131f565b005b60007f780e9d63000000000000000000000000000000000000000000000000000000007bffffffffffffffffffffffffffffffffffffffffffffffffffffffff1916827bffffffffffffffffffffffffffffffffffffffffffffffffffffffff19161480610534575061053382611417565b5b9050919050565b60606000805461054a90612db1565b80601f016020809104026020016040519081016040528092919081815260200182805461057690612db1565b80156105c35780601f10610598576101008083540402835291602001916105c3565b820191906000526020600020905b8154815290600101906020018083116105a657829003601f168201915b5050505050905090565b60006105d8826114f9565b610617576040517f08c379a000000000000000000000000000000000000000000000000000000000815260040161060e90612e55565b60405180910390fd5b6004600083815260200190815260200160002060009054906101000a900473ffffffffffffffffffffffffffffffffffffffff169050919050565b600061065d8261098a565b90508073ffffffffffffffffffffffffffffffffffffffff168373ffffffffffffffffffffffffffffffffffffffff1614156106ce576040517f08c379a00000000000000000000000000000000000000000000000000000000081526004016106c590612ee7565b60405180910390fd5b8073ffffffffffffffffffffffffffffffffffffffff166106ed611565565b73ffffffffffffffffffffffffffffffffffffffff16148061071c575061071b81610716611565565b61128b565b5b61075b576040517f08c379a000000000000000000000000000000000000000000000000000000000815260040161075290612f79565b60405180910390fd5b610765838361156d565b505050565b6000600880549050905090565b610788610782611565565b82611626565b6107c7576040517f08c379a00000000000000000000000000000000000000000000000000000000081526004016107be9061300b565b60405180910390fd5b6107d2838383611704565b505050565b60006107e283610a3c565b8210610823576040517f08c379a000000000000000000000000000000000000000000000000000000000815260040161081a9061309d565b60405180910390fd5b600660008473ffffffffffffffffffffffffffffffffffffffff1673ffffffffffffffffffffffffffffffffffffffff168152602001908152602001600020600083815260200190815260200160002054905092915050565b610884612514565b600e6000838152602001908152602001600020604051806020016040529081600082016040518060c00160405290816000820154815260200160018201548152602001600282015481526020016003820154815260200160048201548152602001600582015481525050815250509050919050565b61091483838360405180602001604052806000815250610db9565b505050565b600061092361076a565b8210610964576040517f08c379a000000000000000000000000000000000000000000000000000000000815260040161095b9061312f565b60405180910390fd5b600882815481106109785761097761314f565b5b90600052602060002001549050919050565b6000806002600084815260200190815260200160002060009054906101000a900473ffffffffffffffffffffffffffffffffffffffff169050600073ffffffffffffffffffffffffffffffffffffffff168173ffffffffffffffffffffffffffffffffffffffff161415610a33576040517f08c379a0000000000000000000000000000000000000000000000000000000008152600401610a2a906131f0565b60405180910390fd5b80915050919050565b60008073ffffffffffffffffffffffffffffffffffffffff168273ffffffffffffffffffffffffffffffffffffffff161415610aad576040517f08c379a0000000000000000000000000000000000000000000000000000000008152600401610aa490613282565b60405180910390fd5b600360008373ffffffffffffffffffffffffffffffffffffffff1673ffffffffffffffffffffffffffffffffffffffff168152602001908152602001600020549050919050565b610afc611565565b73ffffffffffffffffffffffffffffffffffffffff16610b1a610b7c565b73ffffffffffffffffffffffffffffffffffffffff1614610b70576040517f08c379a0000000000000000000000000000000000000000000000000000000008152600401610b67906132ee565b60405180910390fd5b610b7a6000611960565b565b6000600a60009054906101000a900473ffffffffffffffffffffffffffffffffffffffff16905090565b606060018054610bb590612db1565b80601f0160208091040260200160405190810160405280929190818152602001828054610be190612db1565b8015610c2e5780601f10610c0357610100808354040283529160200191610c2e565b820191906000526020600020905b815481529060010190602001808311610c1157829003601f168201915b5050505050905090565b610c40611565565b73ffffffffffffffffffffffffffffffffffffffff168273ffffffffffffffffffffffffffffffffffffffff161415610cae576040517f08c379a0000000000000000000000000000000000000000000000000000000008152600401610ca59061335a565b60405180910390fd5b8060056000610cbb611565565b73ffffffffffffffffffffffffffffffffffffffff1673ffffffffffffffffffffffffffffffffffffffff16815260200190815260200160002060008473ffffffffffffffffffffffffffffffffffffffff1673ffffffffffffffffffffffffffffffffffffffff16815260200190815260200160002060006101000a81548160ff0219169083151502179055508173ffffffffffffffffffffffffffffffffffffffff16610d68611565565b73ffffffffffffffffffffffffffffffffffffffff167f17307eab39ab6107e8899845ad3d59bd9653f200f220920489ca2b5937696c3183604051610dad9190612617565b60405180910390a35050565b610dca610dc4611565565b83611626565b610e09576040517f08c379a0000000000000000000000000000000000000000000000000000000008152600401610e009061300b565b60405180910390fd5b610e1584848484611a26565b50505050565b600c60009054906101000a900473ffffffffffffffffffffffffffffffffffffffff1681565b600b8054610e4e90612db1565b80601f0160208091040260200160405190810160405280929190818152602001828054610e7a90612db1565b8015610ec75780601f10610e9c57610100808354040283529160200191610ec7565b820191906000526020600020905b815481529060010190602001808311610eaa57829003601f168201915b505050505081565b6000610ed9611565565b73ffffffffffffffffffffffffffffffffffffffff16610ef7610b7c565b73ffffffffffffffffffffffffffffffffffffffff1614610f4d576040517f08c379a0000000000000000000000000000000000000000000000000000000008152600401610f44906132ee565b60405180910390fd5b6000610f59600d611a82565b9050610f658482611a90565b82600e6000838152602001908152602001600020600082015181600001600082015181600001556020820151816001015560408201518160020155606082015181600301556080820151816004015560a082015181600501555050905050610fcd600d611aae565b8091505092915050565b6060610fe2826114f9565b611021576040517f08c379a0000000000000000000000000000000000000000000000000000000008152600401611018906133ec565b60405180910390fd5b6060600c60009054906101000a900473ffffffffffffffffffffffffffffffffffffffff1673ffffffffffffffffffffffffffffffffffffffff1663b2fa1c9e6040518163ffffffff1660e01b815260040160206040518083038186803b15801561108b57600080fd5b505afa15801561109f573d6000803e3d6000fd5b505050506040513d601f19601f820116820180604052508101906110c39190613421565b80156111775750600c60009054906101000a900473ffffffffffffffffffffffffffffffffffffffff1673ffffffffffffffffffffffffffffffffffffffff1663d84e29ea846040518263ffffffff1660e01b81526004016111259190612827565b60206040518083038186803b15801561113d57600080fd5b505afa158015611151573d6000803e3d6000fd5b505050506040513d601f19601f820116820180604052508101906111759190613421565b155b156111b9576040518060400160405280600981526020017f64657374726f79656400000000000000000000000000000000000000000000008152509050611238565b6000600e6000858152602001908152602001600020604051806020016040529081600082016040518060c0016040529081600082015481526020016001820154815260200160028201548152602001600382015481526020016004820154815260200160058201548152505081525050905061123481611ac4565b9150505b600b8160405160200161124c929190613602565b604051602081830303815290604052915050919050565b6060600b6040516020016112779190613693565b604051602081830303815290604052905090565b6000600560008473ffffffffffffffffffffffffffffffffffffffff1673ffffffffffffffffffffffffffffffffffffffff16815260200190815260200160002060008373ffffffffffffffffffffffffffffffffffffffff1673ffffffffffffffffffffffffffffffffffffffff16815260200190815260200160002060009054906101000a900460ff16905092915050565b611327611565565b73ffffffffffffffffffffffffffffffffffffffff16611345610b7c565b73ffffffffffffffffffffffffffffffffffffffff161461139b576040517f08c379a0000000000000000000000000000000000000000000000000000000008152600401611392906132ee565b60405180910390fd5b600073ffffffffffffffffffffffffffffffffffffffff168173ffffffffffffffffffffffffffffffffffffffff16141561140b576040517f08c379a000000000000000000000000000000000000000000000000000000000815260040161140290613732565b60405180910390fd5b61141481611960565b50565b60007f80ac58cd000000000000000000000000000000000000000000000000000000007bffffffffffffffffffffffffffffffffffffffffffffffffffffffff1916827bffffffffffffffffffffffffffffffffffffffffffffffffffffffff191614806114e257507f5b5e139f000000000000000000000000000000000000000000000000000000007bffffffffffffffffffffffffffffffffffffffffffffffffffffffff1916827bffffffffffffffffffffffffffffffffffffffffffffffffffffffff1916145b806114f257506114f182611b57565b5b9050919050565b60008073ffffffffffffffffffffffffffffffffffffffff166002600084815260200190815260200160002060009054906101000a900473ffffffffffffffffffffffffffffffffffffffff1673ffffffffffffffffffffffffffffffffffffffff1614159050919050565b600033905090565b816004600083815260200190815260200160002060006101000a81548173ffffffffffffffffffffffffffffffffffffffff021916908373ffffffffffffffffffffffffffffffffffffffff160217905550808273ffffffffffffffffffffffffffffffffffffffff166115e08361098a565b73ffffffffffffffffffffffffffffffffffffffff167f8c5be1e5ebec7d5bd14f71427d1e84f3dd0314c0f7b2291e5b200ac8c7c3b92560405160405180910390a45050565b6000611631826114f9565b611670576040517f08c379a0000000000000000000000000000000000000000000000000000000008152600401611667906137c4565b60405180910390fd5b600061167b8361098a565b90508073ffffffffffffffffffffffffffffffffffffffff168473ffffffffffffffffffffffffffffffffffffffff1614806116ea57508373ffffffffffffffffffffffffffffffffffffffff166116d2846105cd565b73ffffffffffffffffffffffffffffffffffffffff16145b806116fb57506116fa818561128b565b5b91505092915050565b8273ffffffffffffffffffffffffffffffffffffffff166117248261098a565b73ffffffffffffffffffffffffffffffffffffffff161461177a576040517f08c379a000000000000000000000000000000000000000000000000000000000815260040161177190613856565b60405180910390fd5b600073ffffffffffffffffffffffffffffffffffffffff168273ffffffffffffffffffffffffffffffffffffffff1614156117ea576040517f08c379a00000000000000000000000000000000000000000000000000000000081526004016117e1906138e8565b60405180910390fd5b6117f5838383611bc1565b61180060008261156d565b6001600360008573ffffffffffffffffffffffffffffffffffffffff1673ffffffffffffffffffffffffffffffffffffffff16815260200190815260200160002060008282546118509190613937565b925050819055506001600360008473ffffffffffffffffffffffffffffffffffffffff1673ffffffffffffffffffffffffffffffffffffffff16815260200190815260200160002060008282546118a7919061396b565b92505081905550816002600083815260200190815260200160002060006101000a81548173ffffffffffffffffffffffffffffffffffffffff021916908373ffffffffffffffffffffffffffffffffffffffff160217905550808273ffffffffffffffffffffffffffffffffffffffff168473ffffffffffffffffffffffffffffffffffffffff167fddf252ad1be2c89b69c2b068fc378daa952ba7f163c4a11628f55a4df523b3ef60405160405180910390a4505050565b6000600a60009054906101000a900473ffffffffffffffffffffffffffffffffffffffff16905081600a60006101000a81548173ffffffffffffffffffffffffffffffffffffffff021916908373ffffffffffffffffffffffffffffffffffffffff1602179055508173ffffffffffffffffffffffffffffffffffffffff168173ffffffffffffffffffffffffffffffffffffffff167f8be0079c531659141344cd1fd0a4f28419497f9722a3daafe3b4186f6b6457e060405160405180910390a35050565b611a31848484611704565b611a3d84848484611cd5565b611a7c576040517f08c379a0000000000000000000000000000000000000000000000000000000008152600401611a7390613a33565b60405180910390fd5b50505050565b600081600001549050919050565b611aaa828260405180602001604052806000815250611e6c565b5050565b6001816000016000828254019250508190555050565b6060611ad7826000015160000151611ec7565b611ae8836000015160200151611ec7565b611af9846000015160400151611ec7565b611b0a856000015160600151611ec7565b611b1b866000015160800151611ec7565b611b2c876000015160a00151611ec7565b604051602001611b4196959493929190613aeb565b6040516020818303038152906040529050919050565b60007f01ffc9a7000000000000000000000000000000000000000000000000000000007bffffffffffffffffffffffffffffffffffffffffffffffffffffffff1916827bffffffffffffffffffffffffffffffffffffffffffffffffffffffff1916149050919050565b611bcc838383612028565b600073ffffffffffffffffffffffffffffffffffffffff168373ffffffffffffffffffffffffffffffffffffffff161415611c0f57611c0a8161202d565b611c4e565b8173ffffffffffffffffffffffffffffffffffffffff168373ffffffffffffffffffffffffffffffffffffffff1614611c4d57611c4c8382612076565b5b5b600073ffffffffffffffffffffffffffffffffffffffff168273ffffffffffffffffffffffffffffffffffffffff161415611c9157611c8c816121e3565b611cd0565b8273ffffffffffffffffffffffffffffffffffffffff168273ffffffffffffffffffffffffffffffffffffffff1614611ccf57611cce82826122b4565b5b5b505050565b6000611cf68473ffffffffffffffffffffffffffffffffffffffff16612333565b15611e5f578373ffffffffffffffffffffffffffffffffffffffff1663150b7a02611d1f611565565b8786866040518563ffffffff1660e01b8152600401611d419493929190613bcf565b602060405180830381600087803b158015611d5b57600080fd5b505af1925050508015611d8c57506040513d601f19601f82011682018060405250810190611d899190613c30565b60015b611e0f573d8060008114611dbc576040519150601f19603f3d011682016040523d82523d6000602084013e611dc1565b606091505b50600081511415611e07576040517f08c379a0000000000000000000000000000000000000000000000000000000008152600401611dfe90613a33565b60405180910390fd5b805181602001fd5b63150b7a0260e01b7bffffffffffffffffffffffffffffffffffffffffffffffffffffffff1916817bffffffffffffffffffffffffffffffffffffffffffffffffffffffff191614915050611e64565b600190505b949350505050565b611e768383612346565b611e836000848484611cd5565b611ec2576040517f08c379a0000000000000000000000000000000000000000000000000000000008152600401611eb990613a33565b60405180910390fd5b505050565b60606000821415611f0f576040518060400160405280600181526020017f30000000000000000000000000000000000000000000000000000000000000008152509050612023565b600082905060005b60008214611f41578080611f2a90613c5d565b915050600a82611f3a9190613cd5565b9150611f17565b60008167ffffffffffffffff811115611f5d57611f5c6129f9565b5b6040519080825280601f01601f191660200182016040528015611f8f5781602001600182028036833780820191505090505b5090505b6000851461201c57600182611fa89190613937565b9150600a85611fb79190613d06565b6030611fc3919061396b565b60f81b818381518110611fd957611fd861314f565b5b60200101907effffffffffffffffffffffffffffffffffffffffffffffffffffffffffffff1916908160001a905350600a856120159190613cd5565b9450611f93565b8093505050505b919050565b505050565b6008805490506009600083815260200190815260200160002081905550600881908060018154018082558091505060019003906000526020600020016000909190919091505550565b6000600161208384610a3c565b61208d9190613937565b9050600060076000848152602001908152602001600020549050818114612172576000600660008673ffffffffffffffffffffffffffffffffffffffff1673ffffffffffffffffffffffffffffffffffffffff168152602001908152602001600020600084815260200190815260200160002054905080600660008773ffffffffffffffffffffffffffffffffffffffff1673ffffffffffffffffffffffffffffffffffffffff168152602001908152602001600020600084815260200190815260200160002081905550816007600083815260200190815260200160002081905550505b6007600084815260200190815260200160002060009055600660008573ffffffffffffffffffffffffffffffffffffffff1673ffffffffffffffffffffffffffffffffffffffff16815260200190815260200160002060008381526020019081526020016000206000905550505050565b600060016008805490506121f79190613937565b90506000600960008481526020019081526020016000205490506000600883815481106122275761222661314f565b5b9060005260206000200154905080600883815481106122495761224861314f565b5b90600052602060002001819055508160096000838152602001908152602001600020819055506009600085815260200190815260200160002060009055600880548061229857612297613d37565b5b6001900381819060005260206000200160009055905550505050565b60006122bf83610a3c565b905081600660008573ffffffffffffffffffffffffffffffffffffffff1673ffffffffffffffffffffffffffffffffffffffff168152602001908152602001600020600083815260200190815260200160002081905550806007600084815260200190815260200160002081905550505050565b600080823b905060008111915050919050565b600073ffffffffffffffffffffffffffffffffffffffff168273ffffffffffffffffffffffffffffffffffffffff1614156123b6576040517f08c379a00000000000000000000000000000000000000000000000000000000081526004016123ad90613db2565b60405180910390fd5b6123bf816114f9565b156123ff576040517f08c379a00000000000000000000000000000000000000000000000000000000081526004016123f690613e1e565b60405180910390fd5b61240b60008383611bc1565b6001600360008473ffffffffffffffffffffffffffffffffffffffff1673ffffffffffffffffffffffffffffffffffffffff168152602001908152602001600020600082825461245b919061396b565b92505081905550816002600083815260200190815260200160002060006101000a81548173ffffffffffffffffffffffffffffffffffffffff021916908373ffffffffffffffffffffffffffffffffffffffff160217905550808273ffffffffffffffffffffffffffffffffffffffff16600073ffffffffffffffffffffffffffffffffffffffff167fddf252ad1be2c89b69c2b068fc378daa952ba7f163c4a11628f55a4df523b3ef60405160405180910390a45050565b604051806020016040528061252761252d565b81525090565b6040518060c001604052806000815260200160008152602001600081526020016000815260200160008152602001600081525090565b6000604051905090565b600080fd5b600080fd5b60007fffffffff0000000000000000000000000000000000000000000000000000000082169050919050565b6125ac81612577565b81146125b757600080fd5b50565b6000813590506125c9816125a3565b92915050565b6000602082840312156125e5576125e461256d565b5b60006125f3848285016125ba565b91505092915050565b60008115159050919050565b612611816125fc565b82525050565b600060208201905061262c6000830184612608565b92915050565b600081519050919050565b600082825260208201905092915050565b60005b8381101561266c578082015181840152602081019050612651565b8381111561267b576000848401525b50505050565b6000601f19601f8301169050919050565b600061269d82612632565b6126a7818561263d565b93506126b781856020860161264e565b6126c081612681565b840191505092915050565b600060208201905081810360008301526126e58184612692565b905092915050565b6000819050919050565b612700816126ed565b811461270b57600080fd5b50565b60008135905061271d816126f7565b92915050565b6000602082840312156127395761273861256d565b5b60006127478482850161270e565b91505092915050565b600073ffffffffffffffffffffffffffffffffffffffff82169050919050565b600061277b82612750565b9050919050565b61278b81612770565b82525050565b60006020820190506127a66000830184612782565b92915050565b6127b581612770565b81146127c057600080fd5b50565b6000813590506127d2816127ac565b92915050565b600080604083850312156127ef576127ee61256d565b5b60006127fd858286016127c3565b925050602061280e8582860161270e565b9150509250929050565b612821816126ed565b82525050565b600060208201905061283c6000830184612818565b92915050565b60008060006060848603121561285b5761285a61256d565b5b6000612869868287016127c3565b935050602061287a868287016127c3565b925050604061288b8682870161270e565b9150509250925092565b61289e816126ed565b82525050565b60c0820160008201516128ba6000850182612895565b5060208201516128cd6020850182612895565b5060408201516128e06040850182612895565b5060608201516128f36060850182612895565b5060808201516129066080850182612895565b5060a082015161291960a0850182612895565b50505050565b60c08201600082015161293560008501826128a4565b50505050565b600060c082019050612950600083018461291f565b92915050565b60006020828403121561296c5761296b61256d565b5b600061297a848285016127c3565b91505092915050565b61298c816125fc565b811461299757600080fd5b50565b6000813590506129a981612983565b92915050565b600080604083850312156129c6576129c561256d565b5b60006129d4858286016127c3565b92505060206129e58582860161299a565b9150509250929050565b600080fd5b600080fd5b7f4e487b7100000000000000000000000000000000000000000000000000000000600052604160045260246000fd5b612a3182612681565b810181811067ffffffffffffffff82111715612a5057612a4f6129f9565b5b80604052505050565b6000612a63612563565b9050612a6f8282612a28565b919050565b600067ffffffffffffffff821115612a8f57612a8e6129f9565b5b612a9882612681565b9050602081019050919050565b82818337600083830152505050565b6000612ac7612ac284612a74565b612a59565b905082815260208101848484011115612ae357612ae26129f4565b5b612aee848285612aa5565b509392505050565b600082601f830112612b0b57612b0a6129ef565b5b8135612b1b848260208601612ab4565b91505092915050565b60008060008060808587031215612b3e57612b3d61256d565b5b6000612b4c878288016127c3565b9450506020612b5d878288016127c3565b9350506040612b6e8782880161270e565b925050606085013567ffffffffffffffff811115612b8f57612b8e612572565b5b612b9b87828801612af6565b91505092959194509250565b6000819050919050565b6000612bcc612bc7612bc284612750565b612ba7565b612750565b9050919050565b6000612bde82612bb1565b9050919050565b6000612bf082612bd3565b9050919050565b612c0081612be5565b82525050565b6000602082019050612c1b6000830184612bf7565b92915050565b600080fd5b600060c08284031215612c3c57612c3b612c21565b5b612c4660c0612a59565b90506000612c568482850161270e565b6000830152506020612c6a8482850161270e565b6020830152506040612c7e8482850161270e565b6040830152506060612c928482850161270e565b6060830152506080612ca68482850161270e565b60808301525060a0612cba8482850161270e565b60a08301525092915050565b600060c08284031215612cdc57612cdb612c21565b5b612ce66020612a59565b90506000612cf684828501612c26565b60008301525092915050565b60008060e08385031215612d1957612d1861256d565b5b6000612d27858286016127c3565b9250506020612d3885828601612cc6565b9150509250929050565b60008060408385031215612d5957612d5861256d565b5b6000612d67858286016127c3565b9250506020612d78858286016127c3565b9150509250929050565b7f4e487b7100000000000000000000000000000000000000000000000000000000600052602260045260246000fd5b60006002820490506001821680612dc957607f821691505b60208210811415612ddd57612ddc612d82565b5b50919050565b7f4552433732313a20617070726f76656420717565727920666f72206e6f6e657860008201527f697374656e7420746f6b656e0000000000000000000000000000000000000000602082015250565b6000612e3f602c8361263d565b9150612e4a82612de3565b604082019050919050565b60006020820190508181036000830152612e6e81612e32565b9050919050565b7f4552433732313a20617070726f76616c20746f2063757272656e74206f776e6560008201527f7200000000000000000000000000000000000000000000000000000000000000602082015250565b6000612ed160218361263d565b9150612edc82612e75565b604082019050919050565b60006020820190508181036000830152612f0081612ec4565b9050919050565b7f4552433732313a20617070726f76652063616c6c6572206973206e6f74206f7760008201527f6e6572206e6f7220617070726f76656420666f7220616c6c0000000000000000602082015250565b6000612f6360388361263d565b9150612f6e82612f07565b604082019050919050565b60006020820190508181036000830152612f9281612f56565b9050919050565b7f4552433732313a207472616e736665722063616c6c6572206973206e6f74206f60008201527f776e6572206e6f7220617070726f766564000000000000000000000000000000602082015250565b6000612ff560318361263d565b915061300082612f99565b604082019050919050565b6000602082019050818103600083015261302481612fe8565b9050919050565b7f455243373231456e756d657261626c653a206f776e657220696e646578206f7560008201527f74206f6620626f756e6473000000000000000000000000000000000000000000602082015250565b6000613087602b8361263d565b91506130928261302b565b604082019050919050565b600060208201905081810360008301526130b68161307a565b9050919050565b7f455243373231456e756d657261626c653a20676c6f62616c20696e646578206f60008201527f7574206f6620626f756e64730000000000000000000000000000000000000000602082015250565b6000613119602c8361263d565b9150613124826130bd565b604082019050919050565b600060208201905081810360008301526131488161310c565b9050919050565b7f4e487b7100000000000000000000000000000000000000000000000000000000600052603260045260246000fd5b7f4552433732313a206f776e657220717565727920666f72206e6f6e657869737460008201527f656e7420746f6b656e0000000000000000000000000000000000000000000000602082015250565b60006131da60298361263d565b91506131e58261317e565b604082019050919050565b60006020820190508181036000830152613209816131cd565b9050919050565b7f4552433732313a2062616c616e636520717565727920666f7220746865207a6560008201527f726f206164647265737300000000000000000000000000000000000000000000602082015250565b600061326c602a8361263d565b915061327782613210565b604082019050919050565b6000602082019050818103600083015261329b8161325f565b9050919050565b7f4f776e61626c653a2063616c6c6572206973206e6f7420746865206f776e6572600082015250565b60006132d860208361263d565b91506132e3826132a2565b602082019050919050565b60006020820190508181036000830152613307816132cb565b9050919050565b7f4552433732313a20617070726f766520746f2063616c6c657200000000000000600082015250565b600061334460198361263d565b915061334f8261330e565b602082019050919050565b6000602082019050818103600083015261337381613337565b9050919050565b7f45524337323155524953746f726167653a2055524920717565727920666f722060008201527f6e6f6e6578697374656e7420746f6b656e000000000000000000000000000000602082015250565b60006133d660318361263d565b91506133e18261337a565b604082019050919050565b60006020820190508181036000830152613405816133c9565b9050919050565b60008151905061341b81612983565b92915050565b6000602082840312156134375761343661256d565b5b60006134458482850161340c565b91505092915050565b600081905092915050565b7f697066733a2f2f00000000000000000000000000000000000000000000000000600082015250565b600061348f60078361344e565b915061349a82613459565b600782019050919050565b60008190508160005260206000209050919050565b600081546134c781612db1565b6134d1818661344e565b945060018216600081146134ec57600181146134fd57613530565b60ff19831686528186019350613530565b613506856134a5565b60005b8381101561352857815481890152600182019150602081019050613509565b838801955050505b50505092915050565b7f2f00000000000000000000000000000000000000000000000000000000000000600082015250565b600061356f60018361344e565b915061357a82613539565b600182019050919050565b600061359082612632565b61359a818561344e565b93506135aa81856020860161264e565b80840191505092915050565b7f2e6a736f6e000000000000000000000000000000000000000000000000000000600082015250565b60006135ec60058361344e565b91506135f7826135b6565b600582019050919050565b600061360d82613482565b915061361982856134ba565b915061362482613562565b91506136308284613585565b915061363b826135df565b91508190509392505050565b7f2f636f6c6c656374696f6e2d6d657461646174612e6a736f6e00000000000000600082015250565b600061367d60198361344e565b915061368882613647565b601982019050919050565b600061369e82613482565b91506136aa82846134ba565b91506136b582613670565b915081905092915050565b7f4f776e61626c653a206e6577206f776e657220697320746865207a65726f206160008201527f6464726573730000000000000000000000000000000000000000000000000000602082015250565b600061371c60268361263d565b9150613727826136c0565b604082019050919050565b6000602082019050818103600083015261374b8161370f565b9050919050565b7f4552433732313a206f70657261746f7220717565727920666f72206e6f6e657860008201527f697374656e7420746f6b656e0000000000000000000000000000000000000000602082015250565b60006137ae602c8361263d565b91506137b982613752565b604082019050919050565b600060208201905081810360008301526137dd816137a1565b9050919050565b7f4552433732313a207472616e73666572206f6620746f6b656e2074686174206960008201527f73206e6f74206f776e0000000000000000000000000000000000000000000000602082015250565b600061384060298361263d565b915061384b826137e4565b604082019050919050565b6000602082019050818103600083015261386f81613833565b9050919050565b7f4552433732313a207472616e7366657220746f20746865207a65726f2061646460008201527f7265737300000000000000000000000000000000000000000000000000000000602082015250565b60006138d260248361263d565b91506138dd82613876565b604082019050919050565b60006020820190508181036000830152613901816138c5565b9050919050565b7f4e487b7100000000000000000000000000000000000000000000000000000000600052601160045260246000fd5b6000613942826126ed565b915061394d836126ed565b9250828210156139605761395f613908565b5b828203905092915050565b6000613976826126ed565b9150613981836126ed565b9250827fffffffffffffffffffffffffffffffffffffffffffffffffffffffffffffffff038211156139b6576139b5613908565b5b828201905092915050565b7f4552433732313a207472616e7366657220746f206e6f6e20455243373231526560008201527f63656976657220696d706c656d656e7465720000000000000000000000000000602082015250565b6000613a1d60328361263d565b9150613a28826139c1565b604082019050919050565b60006020820190508181036000830152613a4c81613a10565b9050919050565b7f2d00000000000000000000000000000000000000000000000000000000000000600082015250565b6000613a8960018361344e565b9150613a9482613a53565b600182019050919050565b7f5f00000000000000000000000000000000000000000000000000000000000000600082015250565b6000613ad560018361344e565b9150613ae082613a9f565b600182019050919050565b6000613af78289613585565b9150613b0282613a7c565b9150613b0e8288613585565b9150613b1982613ac8565b9150613b258287613585565b9150613b3082613a7c565b9150613b3c8286613585565b9150613b4782613ac8565b9150613b538285613585565b9150613b5e82613a7c565b9150613b6a8284613585565b9150819050979650505050505050565b600081519050919050565b600082825260208201905092915050565b6000613ba182613b7a565b613bab8185613b85565b9350613bbb81856020860161264e565b613bc481612681565b840191505092915050565b6000608082019050613be46000830187612782565b613bf16020830186612782565b613bfe6040830185612818565b8181036060830152613c108184613b96565b905095945050505050565b600081519050613c2a816125a3565b92915050565b600060208284031215613c4657613c4561256d565b5b6000613c5484828501613c1b565b91505092915050565b6000613c68826126ed565b91507fffffffffffffffffffffffffffffffffffffffffffffffffffffffffffffffff821415613c9b57613c9a613908565b5b600182019050919050565b7f4e487b7100000000000000000000000000000000000000000000000000000000600052601260045260246000fd5b6000613ce0826126ed565b9150613ceb836126ed565b925082613cfb57613cfa613ca6565b5b828204905092915050565b6000613d11826126ed565b9150613d1c836126ed565b925082613d2c57613d2b613ca6565b5b828206905092915050565b7f4e487b7100000000000000000000000000000000000000000000000000000000600052603160045260246000fd5b7f4552433732313a206d696e7420746f20746865207a65726f2061646472657373600082015250565b6000613d9c60208361263d565b9150613da782613d66565b602082019050919050565b60006020820190508181036000830152613dcb81613d8f565b9050919050565b7f4552433732313a20746f6b656e20616c7265616479206d696e74656400000000600082015250565b6000613e08601c8361263d565b9150613e1382613dd2565b602082019050919050565b60006020820190508181036000830152613e3781613dfb565b905091905056fea26469706673582212204be45416603a3c278d16d67f1fb5052b200981202dbbd8e649c26f7d990131a664736f6c634300080900336261667962656964696e617a753372717661706e6432717935356b7061356b6a32743332786235647133627973726237366363637a763772647365",
  "linkReferences": {},
  "deployedLinkReferences": {}
}