{
  "_format": "hh-sol-artifact-1",
  "contractName": "LotteryTest",
  "sourceName": "contracts/Lottery.sol",
  "abi": [
    {
      "inputs": [],
      "stateMutability": "nonpayable",
      "type": "constructor"
    },
    {
      "inputs": [],
      "name": "beginningOfParticipationPeriod",
      "outputs": [
        {
          "internalType": "uint256",
          "name": "",
          "type": "uint256"
        }
      ],
      "stateMutability": "view",
      "type": "function"
    },
    {
      "inputs": [],
      "name": "chainTokenDecimals",
      "outputs": [
        {
          "internalType": "uint8",
          "name": "",
          "type": "uint8"
        }
      ],
      "stateMutability": "view",
      "type": "function"
    },
    {
      "inputs": [],
      "name": "endOfParticipationPeriod",
      "outputs": [
        {
          "internalType": "uint256",
          "name": "",
          "type": "uint256"
        }
      ],
      "stateMutability": "view",
      "type": "function"
    },
    {
      "inputs": [],
      "name": "endOfPreparationPeriod",
      "outputs": [
        {
          "internalType": "uint256",
          "name": "",
          "type": "uint256"
        }
      ],
      "stateMutability": "view",
      "type": "function"
    },
    {
      "inputs": [],
      "name": "entryPriceUsd",
      "outputs": [
        {
          "internalType": "uint256",
          "name": "",
          "type": "uint256"
        }
      ],
      "stateMutability": "view",
      "type": "function"
    },
    {
      "inputs": [
        {
          "internalType": "uint256",
          "name": "",
          "type": "uint256"
        }
      ],
      "name": "events",
      "outputs": [
        {
          "internalType": "uint256",
          "name": "timestamp",
          "type": "uint256"
        },
        {
          "internalType": "string",
          "name": "description",
          "type": "string"
        }
      ],
      "stateMutability": "view",
      "type": "function"
    },
    {
      "inputs": [],
      "name": "fundsReleaseAddress",
      "outputs": [
        {
          "internalType": "address payable",
          "name": "",
          "type": "address"
        }
      ],
      "stateMutability": "view",
      "type": "function"
    },
    {
      "inputs": [],
      "name": "getLINKAmountRequired",
      "outputs": [
        {
          "internalType": "uint256",
          "name": "",
          "type": "uint256"
        }
      ],
      "stateMutability": "view",
      "type": "function"
    },
    {
      "inputs": [],
      "name": "getPriceToParticipate",
      "outputs": [
        {
          "internalType": "uint256",
          "name": "",
          "type": "uint256"
        }
      ],
      "stateMutability": "view",
      "type": "function"
    },
    {
      "inputs": [],
      "name": "getState",
      "outputs": [
        {
          "internalType": "enum Lottery.State",
          "name": "",
          "type": "uint8"
        }
      ],
      "stateMutability": "view",
      "type": "function"
    },
    {
      "inputs": [],
      "name": "isComplete",
      "outputs": [
        {
          "internalType": "bool",
          "name": "",
          "type": "bool"
        }
      ],
      "stateMutability": "view",
      "type": "function"
    },
    {
      "inputs": [
        {
          "internalType": "uint256",
          "name": "tokenId",
          "type": "uint256"
        }
      ],
      "name": "isWinningTicket",
      "outputs": [
        {
          "internalType": "bool",
          "name": "",
          "type": "bool"
        }
      ],
      "stateMutability": "view",
      "type": "function"
    },
    {
      "inputs": [
        {
          "internalType": "uint256",
          "name": "",
          "type": "uint256"
        }
      ],
      "name": "participants",
      "outputs": [
        {
          "internalType": "uint256",
          "name": "tokenId",
          "type": "uint256"
        }
      ],
      "stateMutability": "view",
      "type": "function"
    },
    {
      "inputs": [
        {
          "components": [
            {
              "components": [
                {
                  "internalType": "string",
                  "name": "body",
                  "type": "string"
                },
                {
                  "internalType": "string",
                  "name": "skin",
                  "type": "string"
                },
                {
                  "internalType": "string",
                  "name": "weapon",
                  "type": "string"
                },
                {
                  "internalType": "string",
                  "name": "booster",
                  "type": "string"
                }
              ],
              "internalType": "struct SpaceShips.ShipParts",
              "name": "parts",
              "type": "tuple"
            }
          ],
          "internalType": "struct SpaceShips.Ship",
          "name": "spaceShip",
          "type": "tuple"
        }
      ],
      "name": "participate",
      "outputs": [],
      "stateMutability": "payable",
      "type": "function"
    },
    {
      "inputs": [],
      "name": "priceConsumer",
      "outputs": [
        {
          "internalType": "contract PriceConsumer",
          "name": "",
          "type": "address"
        }
      ],
      "stateMutability": "view",
      "type": "function"
    },
    {
      "inputs": [
        {
          "internalType": "bytes32",
          "name": "requestId",
          "type": "bytes32"
        },
        {
          "internalType": "uint256",
          "name": "randomness",
          "type": "uint256"
        }
      ],
      "name": "rawFulfillRandomness",
      "outputs": [],
      "stateMutability": "nonpayable",
      "type": "function"
    },
    {
      "inputs": [
        {
          "internalType": "uint256",
          "name": "",
          "type": "uint256"
        }
      ],
      "name": "remainingParticipantsRanges",
      "outputs": [
        {
          "internalType": "uint256",
          "name": "min",
          "type": "uint256"
        },
        {
          "internalType": "uint256",
          "name": "max",
          "type": "uint256"
        }
      ],
      "stateMutability": "view",
      "type": "function"
    },
    {
      "inputs": [
        {
          "internalType": "uint256",
          "name": "value",
          "type": "uint256"
        }
      ],
      "name": "testFunc",
      "outputs": [],
      "stateMutability": "nonpayable",
      "type": "function"
    },
    {
      "inputs": [],
      "name": "token",
      "outputs": [
        {
          "internalType": "contract LotteryToken",
          "name": "",
          "type": "address"
        }
      ],
      "stateMutability": "view",
      "type": "function"
    },
    {
      "inputs": [],
      "name": "totalWinners",
      "outputs": [
        {
          "internalType": "uint8",
          "name": "",
          "type": "uint8"
        }
      ],
      "stateMutability": "view",
      "type": "function"
    },
    {
      "inputs": [],
      "name": "triggerCompletion",
      "outputs": [],
      "stateMutability": "nonpayable",
      "type": "function"
    },
    {
      "inputs": [],
      "name": "triggerNextEvent",
      "outputs": [],
      "stateMutability": "nonpayable",
      "type": "function"
    },
    {
      "inputs": [],
      "name": "valueTest",
      "outputs": [
        {
          "internalType": "uint256",
          "name": "",
          "type": "uint256"
        }
      ],
      "stateMutability": "view",
      "type": "function"
    },
    {
      "inputs": [],
      "name": "vrfFee",
      "outputs": [
        {
          "internalType": "uint256",
          "name": "",
          "type": "uint256"
        }
      ],
      "stateMutability": "view",
      "type": "function"
    },
    {
      "inputs": [],
      "name": "vrfKeyHash",
      "outputs": [
        {
          "internalType": "bytes32",
          "name": "",
          "type": "bytes32"
        }
      ],
      "stateMutability": "view",
      "type": "function"
    },
    {
      "inputs": [
        {
          "internalType": "uint256",
          "name": "",
          "type": "uint256"
        }
      ],
      "name": "winners",
      "outputs": [
        {
          "internalType": "uint256",
          "name": "tokenId",
          "type": "uint256"
        }
      ],
      "stateMutability": "view",
      "type": "function"
    },
    {
      "inputs": [
        {
          "internalType": "uint256",
          "name": "",
          "type": "uint256"
        }
      ],
      "name": "winnersTokenId",
      "outputs": [
        {
          "internalType": "bool",
          "name": "",
          "type": "bool"
        }
      ],
      "stateMutability": "view",
      "type": "function"
    }
  ],
  "bytecode": "0x6102006040523480156200001257600080fd5b50601260136040518060400160405280600e81526020017f54657374353432343234333234330000000000000000000000000000000000008152506040518060400160405280600381526020017f53533100000000000000000000000000000000000000000000000000000000008152506040518060600160405280603b815260200162008f0f603b913973f585378ff2a1decb335b4899250b83f46dc5c01961012c42620000c2919062000860565b61025842620000d2919062000860565b61038442620000e2919062000860565b604051620000f0906200075b565b604051809103906000f0801580156200010d573d6000803e3d6000fd5b506040518060800160405280738c7382f9d8f56b33781fe506e897a4f1e2d1725573ffffffffffffffffffffffffffffffffffffffff16815260200173326c977e6efc84e512bb9c30f76e30c160ed06fb73ffffffffffffffffffffffffffffffffffffffff1681526020017f6e75b569a01ef56d18cab6a8e71e6600d6ce853834d4a5748b720d06f878b3a460001b8152602001655af3107a4000815250806000015181602001518173ffffffffffffffffffffffffffffffffffffffff1660a08173ffffffffffffffffffffffffffffffffffffffff16815250508073ffffffffffffffffffffffffffffffffffffffff1660808173ffffffffffffffffffffffffffffffffffffffff16815250505050600060405180604001604052806040518060400160405280603c8862000247919062000860565b81526020016040518060400160405280600681526020017f4576656e7431000000000000000000000000000000000000000000000000000081525081525081526020016040518060400160405280607888620002a4919062000860565b81526020016040518060400160405280600681526020017f4576656e7432000000000000000000000000000000000000000000000000000081525081525081525090504286116200032c576040517f08c379a0000000000000000000000000000000000000000000000000000000008152600401620003239062000944565b60405180910390fd5b85851162000371576040517f08c379a00000000000000000000000000000000000000000000000000000000081526004016200036890620009dc565b60405180910390fd5b848411620003b6576040517f08c379a0000000000000000000000000000000000000000000000000000000008152600401620003ad9062000a74565b60405180910390fd5b6000600211620003fd576040517f08c379a0000000000000000000000000000000000000000000000000000000008152600401620003f49062000ae6565b60405180910390fd5b838160006002811062000415576200041462000b08565b5b602002015160000151101562000462576040517f08c379a0000000000000000000000000000000000000000000000000000000008152600401620004599062000b87565b60405180910390fd5b60005b60028110156200058457600082826002811062000487576200048662000b08565b5b6020020151602001515111620004d4576040517f08c379a0000000000000000000000000000000000000000000000000000000008152600401620004cb9062000bf9565b60405180910390fd5b60008111156200056e5781600182620004ee919062000c1b565b6002811062000502576200050162000b08565b5b60200201516000015182826002811062000521576200052062000b08565b5b602002015160000151116200056d576040517f08c379a0000000000000000000000000000000000000000000000000000000008152600401620005649062000ccc565b60405180910390fd5b5b80806200057b9062000cee565b91505062000465565b5060005b600281101562000619576001828260028110620005aa57620005a962000b08565b5b602002015190806001815401808255809150506001900390600052602060002090600202016000909190919091506000820151816000015560208201518160010190805190602001906200060092919062000769565b5050508080620006109062000cee565b91505062000588565b50308a8a8a6040516200062c90620007fa565b6200063b949392919062000e5a565b604051809103906000f08015801562000658573d6000803e3d6000fd5b5073ffffffffffffffffffffffffffffffffffffffff166101208173ffffffffffffffffffffffffffffffffffffffff16815250508b60ff1660c08160ff16815250508a60e081815250508673ffffffffffffffffffffffffffffffffffffffff166101008173ffffffffffffffffffffffffffffffffffffffff16815250508561014081815250508461016081815250508361018081815250508273ffffffffffffffffffffffffffffffffffffffff166101a08173ffffffffffffffffffffffffffffffffffffffff16815250506002808190555081604001516101c0818152505081606001516101e0818152505050505050505050505050505062000f21565b610472806200423783390190565b828054620007779062000eeb565b90600052602060002090601f0160209004810192826200079b5760008555620007e7565b82601f10620007b657805160ff1916838001178555620007e7565b82800160010185558215620007e7579182015b82811115620007e6578251825591602001919060010190620007c9565b5b509050620007f6919062000808565b5090565b61486680620046a983390190565b5b808211156200082357600081600090555060010162000809565b5090565b6000819050919050565b7f4e487b7100000000000000000000000000000000000000000000000000000000600052601160045260246000fd5b60006200086d8262000827565b91506200087a8362000827565b9250827fffffffffffffffffffffffffffffffffffffffffffffffffffffffffffffffff03821115620008b257620008b162000831565b5b828201905092915050565b600082825260208201905092915050565b7f496e76616c69642074696d657374616d703a20626567696e6e696e674f66506160008201527f7274696369706174696f6e506572696f64000000000000000000000000000000602082015250565b60006200092c603183620008bd565b91506200093982620008ce565b604082019050919050565b600060208201905081810360008301526200095f816200091d565b9050919050565b7f496e76616c69642074696d657374616d703a20656e644f66506172746963697060008201527f6174696f6e506572696f64000000000000000000000000000000000000000000602082015250565b6000620009c4602b83620008bd565b9150620009d18262000966565b604082019050919050565b60006020820190508181036000830152620009f781620009b5565b9050919050565b7f496e76616c69642074696d657374616d703a20656e644f66507265706172617460008201527f696f6e506572696f640000000000000000000000000000000000000000000000602082015250565b600062000a5c602983620008bd565b915062000a6982620009fe565b604082019050919050565b6000602082019050818103600083015262000a8f8162000a4d565b9050919050565b7f4e6f206576656e74732073706563696669656400000000000000000000000000600082015250565b600062000ace601383620008bd565b915062000adb8262000a96565b602082019050919050565b6000602082019050818103600083015262000b018162000abf565b9050919050565b7f4e487b7100000000000000000000000000000000000000000000000000000000600052603260045260246000fd5b7f496e76616c69642074696d657374616d703a204669727374206576656e740000600082015250565b600062000b6f601e83620008bd565b915062000b7c8262000b37565b602082019050919050565b6000602082019050818103600083015262000ba28162000b60565b9050919050565b7f4576656e7420686173206e6f206465736372697074696f6e0000000000000000600082015250565b600062000be1601883620008bd565b915062000bee8262000ba9565b602082019050919050565b6000602082019050818103600083015262000c148162000bd2565b9050919050565b600062000c288262000827565b915062000c358362000827565b92508282101562000c4b5762000c4a62000831565b5b828203905092915050565b7f4576656e74732074696d657374616d7073206e6f7420696e20617363656e646960008201527f6e67206f72646572000000000000000000000000000000000000000000000000602082015250565b600062000cb4602883620008bd565b915062000cc18262000c56565b604082019050919050565b6000602082019050818103600083015262000ce78162000ca5565b9050919050565b600062000cfb8262000827565b91507fffffffffffffffffffffffffffffffffffffffffffffffffffffffffffffffff82141562000d315762000d3062000831565b5b600182019050919050565b600073ffffffffffffffffffffffffffffffffffffffff82169050919050565b6000819050919050565b600062000d8762000d8162000d7b8462000d3c565b62000d5c565b62000d3c565b9050919050565b600062000d9b8262000d66565b9050919050565b600062000daf8262000d8e565b9050919050565b62000dc18162000da2565b82525050565b600081519050919050565b60005b8381101562000df257808201518184015260208101905062000dd5565b8381111562000e02576000848401525b50505050565b6000601f19601f8301169050919050565b600062000e268262000dc7565b62000e328185620008bd565b935062000e4481856020860162000dd2565b62000e4f8162000e08565b840191505092915050565b600060808201905062000e71600083018762000db6565b818103602083015262000e85818662000e19565b9050818103604083015262000e9b818562000e19565b9050818103606083015262000eb1818462000e19565b905095945050505050565b7f4e487b7100000000000000000000000000000000000000000000000000000000600052602260045260246000fd5b6000600282049050600182168062000f0457607f821691505b6020821081141562000f1b5762000f1a62000ebc565b5b50919050565b60805160a05160c05160e05161010051610120516101405161016051610180516101a0516101c0516101e05161321b6200101c6000396000818161073f01528181610f040152610ff201526000818161065f0152610ee301526000818161089a0152818161094e0152610ad70152600081816108030152610afb0152600081816107d201526110f30152600081816107a10152610fc8015260008181610bde015261146c015260008181610cde0152611d540152600081816108730152610a33015260008181610763015281816109ec0152610a5601526000818161111701526114e801526000818161102101526114ac015261321b6000f3fe60806040526004361061019c5760003560e01c80636ee914ef116100ec578063b2fa1c9e1161008a578063ce2cf5d911610064578063ce2cf5d9146105a1578063d84e29ea146105b8578063ed66835b146105f5578063fc0c546a146106325761019c565b8063b2fa1c9e1461050d578063bcc941b614610538578063bd2d5a1e146105635761019c565b806381e77a07116100c657806381e77a071461045157806394985ddd1461047c57806398d16407146104a5578063a2fb1175146104d05761019c565b80636ee914ef146103e45780637572c593146103fb57806377f1b4cc146104265761019c565b8063350279181161015957806346c6dd091161013357806346c6dd091461034957806362dd7528146103745780636a3d9d35146103905780636b48e2db146103b95761019c565b806335027918146102b657806335c1d349146102e1578063461a758c1461031e5761019c565b8063041d443e146101a15780630b791430146101cc5780631017507d1461020a578063115e4380146102355780631865c57d146102605780631a38489c1461028b575b600080fd5b3480156101ad57600080fd5b506101b661065d565b6040516101c39190611e8e565b60405180910390f35b3480156101d857600080fd5b506101f360048036038101906101ee9190611ef3565b610681565b604051610201929190611fc8565b60405180910390f35b34801561021657600080fd5b5061021f61073d565b60405161022c9190611ff8565b60405180910390f35b34801561024157600080fd5b5061024a610761565b604051610257919061202f565b60405180910390f35b34801561026c57600080fd5b50610275610785565b60405161028291906120c1565b60405180910390f35b34801561029757600080fd5b506102a0610871565b6040516102ad9190611ff8565b60405180910390f35b3480156102c257600080fd5b506102cb610895565b6040516102d89190611ff8565b60405180910390f35b3480156102ed57600080fd5b5061030860048036038101906103039190611ef3565b610aab565b6040516103159190611ff8565b60405180910390f35b34801561032a57600080fd5b50610333610ad5565b604051610340919061215b565b60405180910390f35b34801561035557600080fd5b5061035e610af9565b60405161036b9190611ff8565b60405180910390f35b61038e600480360381019061038991906123f5565b610b1d565b005b34801561039c57600080fd5b506103b760048036038101906103b29190611ef3565b610cd2565b005b3480156103c557600080fd5b506103ce610cdc565b6040516103db919061245f565b60405180910390f35b3480156103f057600080fd5b506103f9610d00565b005b34801561040757600080fd5b50610410610fc6565b60405161041d9190611ff8565b60405180910390f35b34801561043257600080fd5b5061043b610fea565b6040516104489190611ff8565b60405180910390f35b34801561045d57600080fd5b506104666110f1565b6040516104739190611ff8565b60405180910390f35b34801561048857600080fd5b506104a3600480360381019061049e91906124a6565b611115565b005b3480156104b157600080fd5b506104ba6111b1565b6040516104c79190611ff8565b60405180910390f35b3480156104dc57600080fd5b506104f760048036038101906104f29190611ef3565b6111b7565b6040516105049190611ff8565b60405180910390f35b34801561051957600080fd5b506105226111e1565b60405161052f9190612501565b60405180910390f35b34801561054457600080fd5b5061054d611216565b60405161055a919061202f565b60405180910390f35b34801561056f57600080fd5b5061058a60048036038101906105859190611ef3565b61121b565b60405161059892919061251c565b60405180910390f35b3480156105ad57600080fd5b506105b661124f565b005b3480156105c457600080fd5b506105df60048036038101906105da9190611ef3565b611420565b6040516105ec9190612501565b60405180910390f35b34801561060157600080fd5b5061061c60048036038101906106179190611ef3565b61144a565b6040516106299190612501565b60405180910390f35b34801561063e57600080fd5b5061064761146a565b6040516106549190612566565b60405180910390f35b7f000000000000000000000000000000000000000000000000000000000000000081565b6001818154811061069157600080fd5b90600052602060002090600202016000915090508060000154908060010180546106ba906125b0565b80601f01602080910402602001604051908101604052809291908181526020018280546106e6906125b0565b80156107335780601f1061070857610100808354040283529160200191610733565b820191906000526020600020905b81548152906001019060200180831161071657829003601f168201915b5050505050905082565b7f000000000000000000000000000000000000000000000000000000000000000081565b7f000000000000000000000000000000000000000000000000000000000000000081565b600080610790610fea565b111561079f576000905061086e565b7f00000000000000000000000000000000000000000000000000000000000000004210156107d0576001905061086e565b7f0000000000000000000000000000000000000000000000000000000000000000421015610801576002905061086e565b7f0000000000000000000000000000000000000000000000000000000000000000421015610832576003905061086e565b600060038054905011801561084957506000600254115b15610857576004905061086e565b6000471115610869576005905061086e565b600690505b90565b7f000000000000000000000000000000000000000000000000000000000000000081565b6000807f000000000000000000000000000000000000000000000000000000000000000073ffffffffffffffffffffffffffffffffffffffff16638e15f4736040518163ffffffff1660e01b815260040160206040518083038186803b1580156108fe57600080fd5b505afa158015610912573d6000803e3d6000fd5b505050506040513d601f19601f820116820180604052508101906109369190612618565b90506000811361094a576000915050610aa8565b60007f000000000000000000000000000000000000000000000000000000000000000073ffffffffffffffffffffffffffffffffffffffff1663313ce5676040518163ffffffff1660e01b815260040160206040518083038186803b1580156109b257600080fd5b505afa1580156109c6573d6000803e3d6000fd5b505050506040513d601f19601f820116820180604052508101906109ea9190612671565b7f0000000000000000000000000000000000000000000000000000000000000000610a1591906126cd565b600a610a219190612834565b82610a2c919061287f565b90506000817f000000000000000000000000000000000000000000000000000000000000000060027f0000000000000000000000000000000000000000000000000000000000000000610a7f91906128d9565b600a610a8b9190612834565b610a95919061287f565b610a9f9190612943565b90508093505050505b90565b60038181548110610abb57600080fd5b906000526020600020016000915090508060000154905081565b7f000000000000000000000000000000000000000000000000000000000000000081565b7f000000000000000000000000000000000000000000000000000000000000000081565b60026006811115610b3157610b3061204a565b5b610b39610785565b6006811115610b4b57610b4a61204a565b5b14610b8b576040517f08c379a0000000000000000000000000000000000000000000000000000000008152600401610b82906129e6565b60405180910390fd5b6000610b95610895565b905080341015610bda576040517f08c379a0000000000000000000000000000000000000000000000000000000008152600401610bd190612a78565b60405180910390fd5b60007f000000000000000000000000000000000000000000000000000000000000000073ffffffffffffffffffffffffffffffffffffffff16638476e14033856040518363ffffffff1660e01b8152600401610c37929190612ba5565b602060405180830381600087803b158015610c5157600080fd5b505af1158015610c65573d6000803e3d6000fd5b505050506040513d601f19601f82011682018060405250810190610c899190612bea565b9050600360405180602001604052808381525090806001815401808255809150506001900390600052602060002001600090919091909150600082015181600001555050505050565b8060098190555050565b7f000000000000000000000000000000000000000000000000000000000000000081565b60046006811115610d1457610d1361204a565b5b610d1c610785565b6006811115610d2e57610d2d61204a565b5b14610d6e576040517f08c379a0000000000000000000000000000000000000000000000000000000008152600401610d6590612c89565b60405180910390fd5b6000610d7861148e565b9050600060018281548110610d9057610d8f612ca9565b5b906000526020600020906002020160405180604001604052908160008201548152602001600182018054610dc3906125b0565b80601f0160208091040260200160405190810160405280929190818152602001828054610def906125b0565b8015610e3c5780601f10610e1157610100808354040283529160200191610e3c565b820191906000526020600020905b815481529060010190602001808311610e1f57829003601f168201915b50505050508152505090508060000151421015610e8e576040517f08c379a0000000000000000000000000000000000000000000000000000000008152600401610e8590612d4a565b60405180910390fd5b600860009054906101000a900460ff1615610ede576040517f08c379a0000000000000000000000000000000000000000000000000000000008152600401610ed590612db6565b60405180910390fd5b610f287f00000000000000000000000000000000000000000000000000000000000000007f00000000000000000000000000000000000000000000000000000000000000006114a8565b506001600860006101000a81548160ff0219169083151502179055506000821415610fc25760038054905060078190555060066040518060400160405280600081526020016001600380549050610f7f9190612dd6565b8152509080600181540180825580915050600190039060005260206000209060020201600090919091909150600082015181600001556020820151816001015550505b5050565b7f000000000000000000000000000000000000000000000000000000000000000081565b6000806002547f000000000000000000000000000000000000000000000000000000000000000061101b919061287f565b905060007f000000000000000000000000000000000000000000000000000000000000000073ffffffffffffffffffffffffffffffffffffffff166370a08231306040518263ffffffff1660e01b81526004016110789190612e0a565b60206040518083038186803b15801561109057600080fd5b505afa1580156110a4573d6000803e3d6000fd5b505050506040513d601f19601f820116820180604052508101906110c89190612bea565b9050818110156110e75780826110de9190612dd6565b925050506110ee565b6000925050505b90565b7f000000000000000000000000000000000000000000000000000000000000000081565b7f000000000000000000000000000000000000000000000000000000000000000073ffffffffffffffffffffffffffffffffffffffff163373ffffffffffffffffffffffffffffffffffffffff16146111a3576040517f08c379a000000000000000000000000000000000000000000000000000000000815260040161119a90612e71565b60405180910390fd5b6111ad8282611607565b5050565b60095481565b600481815481106111c757600080fd5b906000526020600020016000915090508060000154905081565b60006006808111156111f6576111f561204a565b5b6111fe610785565b60068111156112105761120f61204a565b5b14905090565b600381565b6006818154811061122b57600080fd5b90600052602060002090600202016000915090508060000154908060010154905082565b600560068111156112635761126261204a565b5b61126b610785565b600681111561127d5761127c61204a565b5b146112bd576040517f08c379a00000000000000000000000000000000000000000000000000000000081526004016112b490612f03565b60405180910390fd5b6112c5611d52565b60005b600680549050811080156112e45750600360ff16600480549050105b1561141d576000600682815481106112ff576112fe612ca9565b5b90600052602060002090600202016040518060400160405290816000820154815260200160018201548152505090506000816000015190505b816020015181111580156113545750600360ff16600480549050105b156114085760006003828154811061136f5761136e612ca9565b5b906000526020600020016040518060200160405290816000820154815250509050600481908060018154018082558091505060019003906000526020600020016000909190919091506000820151816000015550506001600560008360000151815260200190815260200160002060006101000a81548160ff02191690831515021790555050808061140090612f23565b915050611338565b5050808061141590612f23565b9150506112c8565b50565b60006005600083815260200190815260200160002060009054906101000a900460ff169050919050565b60056020528060005260406000206000915054906101000a900460ff1681565b7f000000000000000000000000000000000000000000000000000000000000000081565b60006002546001805490506114a39190612dd6565b905090565b60007f000000000000000000000000000000000000000000000000000000000000000073ffffffffffffffffffffffffffffffffffffffff16634000aea07f00000000000000000000000000000000000000000000000000000000000000008486600060405160200161151c929190612f6c565b6040516020818303038152906040526040518463ffffffff1660e01b815260040161154993929190612fea565b602060405180830381600087803b15801561156357600080fd5b505af1158015611577573d6000803e3d6000fd5b505050506040513d601f19601f8201168201806040525081019061159b9190613054565b5060006115bd8460003060008089815260200190815260200160002054611dbb565b90506001600080868152602001908152602001600020546115de9190613081565b600080868152602001908152602001600020819055506115fe8482611df7565b91505092915050565b60006006805480602002602001604051908101604052809291908181526020016000905b828210156116715783829060005260206000209060020201604051806040016040529081600082015481526020016001820154815250508152602001906001019061162b565b5050505090506000600690506006600061168b9190611e2a565b60026007600082825461169e9190612943565b92505081905550600360ff1660075410156116bf57600360ff166007819055505b600182511415611972576000826000815181106116df576116de612ca9565b5b60200260200101516000015160018460008151811061170157611700612ca9565b5b6020026020010151600001518560008151811061172157611720612ca9565b5b6020026020010151602001516117379190612dd6565b6117419190613081565b8561174c91906130d7565b6117569190613081565b90508260008151811061176c5761176b612ca9565b5b6020026020010151602001516001600754836117889190613081565b6117929190612dd6565b1161180a578160405180604001604052808381526020016001600754856117b99190613081565b6117c39190612dd6565b81525090806001815401808255809150506001900390600052602060002090600202016000909190919091506000820151816000015560208201518160010155505061196c565b816040518060400160405280838152602001856000815181106118305761182f612ca9565b5b6020026020010151602001518152509080600181540180825580915050600190039060005260206000209060020201600090919091909150600082015181600001556020820151816001015550508160405180604001604052808560008151811061189e5761189d612ca9565b5b6020026020010151600001518152602001600184876000815181106118c6576118c5612ca9565b5b6020026020010151602001516118dc9190612dd6565b6118e69190613081565b60016007546118f59190612dd6565b8760008151811061190957611908612ca9565b5b60200260200101516000015161191f9190613081565b6119299190612dd6565b8152509080600181540180825580915050600190039060005260206000209060020201600090919091909150600082015181600001556020820151816001015550505b50611d05565b600060028461198191906130d7565b9050600083828151811061199857611997612ca9565b5b60200260200101516000015160018584815181106119b9576119b8612ca9565b5b6020026020010151600001518685815181106119d8576119d7612ca9565b5b6020026020010151602001516119ee9190612dd6565b6119f89190613081565b86611a0391906130d7565b611a0d9190613081565b9050838281518110611a2257611a21612ca9565b5b602002602001015160200151600160075483611a3e9190613081565b611a489190612dd6565b11611ac057826040518060400160405280838152602001600160075485611a6f9190613081565b611a799190612dd6565b815250908060018154018082558091505060019003906000526020600020906002020160009091909190915060008201518160000155602082015181600101555050611d02565b60006002600184611ad19190613081565b611adb91906130d7565b90506000600183878681518110611af557611af4612ca9565b5b602002602001015160200151611b0b9190612dd6565b611b159190613081565b9050600081600754611b279190612dd6565b90506000600182898681518110611b4157611b40612ca9565b5b602002602001015160000151611b579190613081565b611b619190612dd6565b90506003805490508110611ba0576000600380549050600183611b849190613081565b611b8e9190612dd6565b90508086611b9c9190612dd6565b9550505b8660405180604001604052808781526020018a8981518110611bc557611bc4612ca9565b5b6020026020010151602001518152509080600181540180825580915050600190039060005260206000209060020201600090919091909150600082015181600001556020820151816001015550508660405180604001604052808a8781518110611c3257611c31612ca9565b5b60200260200101516000015181526020016001888c8b81518110611c5957611c58612ca9565b5b602002602001015160200151611c6f9190612dd6565b611c799190613081565b6001600754611c889190612dd6565b8c8981518110611c9b57611c9a612ca9565b5b602002602001015160000151611cb19190613081565b611cbb9190612dd6565b815250908060018154018082558091505060019003906000526020600020906002020160009091909190915060008201518160000155602082015181600101555050505050505b50505b6000600860006101000a81548160ff02191690831515021790555060026000815480929190611d3390613108565b919050555060006002541415611d4c57611d4b61124f565b5b50505050565b7f000000000000000000000000000000000000000000000000000000000000000073ffffffffffffffffffffffffffffffffffffffff166108fc479081150290604051600060405180830381858888f19350505050158015611db8573d6000803e3d6000fd5b50565b600084848484604051602001611dd49493929190613132565b6040516020818303038152906040528051906020012060001c9050949350505050565b60008282604051602001611e0c9291906131b9565b60405160208183030381529060405280519060200120905092915050565b5080546000825560020290600052602060002090810190611e4b9190611e4e565b50565b5b80821115611e7157600080820160009055600182016000905550600201611e4f565b5090565b6000819050919050565b611e8881611e75565b82525050565b6000602082019050611ea36000830184611e7f565b92915050565b6000604051905090565b600080fd5b600080fd5b6000819050919050565b611ed081611ebd565b8114611edb57600080fd5b50565b600081359050611eed81611ec7565b92915050565b600060208284031215611f0957611f08611eb3565b5b6000611f1784828501611ede565b91505092915050565b611f2981611ebd565b82525050565b600081519050919050565b600082825260208201905092915050565b60005b83811015611f69578082015181840152602081019050611f4e565b83811115611f78576000848401525b50505050565b6000601f19601f8301169050919050565b6000611f9a82611f2f565b611fa48185611f3a565b9350611fb4818560208601611f4b565b611fbd81611f7e565b840191505092915050565b6000604082019050611fdd6000830185611f20565b8181036020830152611fef8184611f8f565b90509392505050565b600060208201905061200d6000830184611f20565b92915050565b600060ff82169050919050565b61202981612013565b82525050565b60006020820190506120446000830184612020565b92915050565b7f4e487b7100000000000000000000000000000000000000000000000000000000600052602160045260246000fd5b6007811061208a5761208961204a565b5b50565b600081905061209b82612079565b919050565b60006120ab8261208d565b9050919050565b6120bb816120a0565b82525050565b60006020820190506120d660008301846120b2565b92915050565b600073ffffffffffffffffffffffffffffffffffffffff82169050919050565b6000819050919050565b600061212161211c612117846120dc565b6120fc565b6120dc565b9050919050565b600061213382612106565b9050919050565b600061214582612128565b9050919050565b6121558161213a565b82525050565b6000602082019050612170600083018461214c565b92915050565b600080fd5b7f4e487b7100000000000000000000000000000000000000000000000000000000600052604160045260246000fd5b6121b382611f7e565b810181811067ffffffffffffffff821117156121d2576121d161217b565b5b80604052505050565b60006121e5611ea9565b90506121f182826121aa565b919050565b600080fd5b600080fd5b600080fd5b600067ffffffffffffffff8211156122205761221f61217b565b5b61222982611f7e565b9050602081019050919050565b82818337600083830152505050565b600061225861225384612205565b6121db565b90508281526020810184848401111561227457612273612200565b5b61227f848285612236565b509392505050565b600082601f83011261229c5761229b6121fb565b5b81356122ac848260208601612245565b91505092915050565b6000608082840312156122cb576122ca612176565b5b6122d560806121db565b9050600082013567ffffffffffffffff8111156122f5576122f46121f6565b5b61230184828501612287565b600083015250602082013567ffffffffffffffff811115612325576123246121f6565b5b61233184828501612287565b602083015250604082013567ffffffffffffffff811115612355576123546121f6565b5b61236184828501612287565b604083015250606082013567ffffffffffffffff811115612385576123846121f6565b5b61239184828501612287565b60608301525092915050565b6000602082840312156123b3576123b2612176565b5b6123bd60206121db565b9050600082013567ffffffffffffffff8111156123dd576123dc6121f6565b5b6123e9848285016122b5565b60008301525092915050565b60006020828403121561240b5761240a611eb3565b5b600082013567ffffffffffffffff81111561242957612428611eb8565b5b6124358482850161239d565b91505092915050565b6000612449826120dc565b9050919050565b6124598161243e565b82525050565b60006020820190506124746000830184612450565b92915050565b61248381611e75565b811461248e57600080fd5b50565b6000813590506124a08161247a565b92915050565b600080604083850312156124bd576124bc611eb3565b5b60006124cb85828601612491565b92505060206124dc85828601611ede565b9150509250929050565b60008115159050919050565b6124fb816124e6565b82525050565b600060208201905061251660008301846124f2565b92915050565b60006040820190506125316000830185611f20565b61253e6020830184611f20565b9392505050565b600061255082612128565b9050919050565b61256081612545565b82525050565b600060208201905061257b6000830184612557565b92915050565b7f4e487b7100000000000000000000000000000000000000000000000000000000600052602260045260246000fd5b600060028204905060018216806125c857607f821691505b602082108114156125dc576125db612581565b5b50919050565b6000819050919050565b6125f5816125e2565b811461260057600080fd5b50565b600081519050612612816125ec565b92915050565b60006020828403121561262e5761262d611eb3565b5b600061263c84828501612603565b91505092915050565b61264e81612013565b811461265957600080fd5b50565b60008151905061266b81612645565b92915050565b60006020828403121561268757612686611eb3565b5b60006126958482850161265c565b91505092915050565b7f4e487b7100000000000000000000000000000000000000000000000000000000600052601160045260246000fd5b60006126d882612013565b91506126e383612013565b9250828210156126f6576126f561269e565b5b828203905092915050565b60008160011c9050919050565b6000808291508390505b6001851115612758578086048111156127345761273361269e565b5b60018516156127435780820291505b808102905061275185612701565b9450612718565b94509492505050565b600082612771576001905061282d565b8161277f576000905061282d565b8160018114612795576002811461279f576127ce565b600191505061282d565b60ff8411156127b1576127b061269e565b5b8360020a9150848211156127c8576127c761269e565b5b5061282d565b5060208310610133831016604e8410600b84101617156128035782820a9050838111156127fe576127fd61269e565b5b61282d565b612810848484600161270e565b925090508184048111156128275761282661269e565b5b81810290505b9392505050565b600061283f82611ebd565b915061284a83612013565b92506128777fffffffffffffffffffffffffffffffffffffffffffffffffffffffffffffffff8484612761565b905092915050565b600061288a82611ebd565b915061289583611ebd565b9250817fffffffffffffffffffffffffffffffffffffffffffffffffffffffffffffffff04831182151516156128ce576128cd61269e565b5b828202905092915050565b60006128e482612013565b91506128ef83612013565b92508160ff04831182151516156129095761290861269e565b5b828202905092915050565b7f4e487b7100000000000000000000000000000000000000000000000000000000600052601260045260246000fd5b600061294e82611ebd565b915061295983611ebd565b92508261296957612968612914565b5b828204905092915050565b7f4e6f742063757272656e746c7920616363657074696e6720706172746963697060008201527f616e747300000000000000000000000000000000000000000000000000000000602082015250565b60006129d0602483611f3a565b91506129db82612974565b604082019050919050565b600060208201905081810360008301526129ff816129c3565b9050919050565b7f4e6f7420656e6f7567682066756e647320746f2070617274696369706174652e60008201527f20536565206765745072696365546f5061727469636970617465282900000000602082015250565b6000612a62603c83611f3a565b9150612a6d82612a06565b604082019050919050565b60006020820190508181036000830152612a9181612a55565b9050919050565b6000612aa3826120dc565b9050919050565b612ab381612a98565b82525050565b600082825260208201905092915050565b6000612ad582611f2f565b612adf8185612ab9565b9350612aef818560208601611f4b565b612af881611f7e565b840191505092915050565b60006080830160008301518482036000860152612b208282612aca565b91505060208301518482036020860152612b3a8282612aca565b91505060408301518482036040860152612b548282612aca565b91505060608301518482036060860152612b6e8282612aca565b9150508091505092915050565b60006020830160008301518482036000860152612b988282612b03565b9150508091505092915050565b6000604082019050612bba6000830185612aaa565b8181036020830152612bcc8184612b7b565b90509392505050565b600081519050612be481611ec7565b92915050565b600060208284031215612c0057612bff611eb3565b5b6000612c0e84828501612bd5565b91505092915050565b7f4e6f742063757272656e746c792077616974696e6720666f7220746865206e6560008201527f7874206576656e74000000000000000000000000000000000000000000000000602082015250565b6000612c73602883611f3a565b9150612c7e82612c17565b604082019050919050565b60006020820190508181036000830152612ca281612c66565b9050919050565b7f4e487b7100000000000000000000000000000000000000000000000000000000600052603260045260246000fd5b7f546f6f206561726c7920746f207472696767657220746865206e65787420657660008201527f656e740000000000000000000000000000000000000000000000000000000000602082015250565b6000612d34602383611f3a565b9150612d3f82612cd8565b604082019050919050565b60006020820190508181036000830152612d6381612d27565b9050919050565b7f416c72656164792072657175657374696e672072616e646f6d6e657373000000600082015250565b6000612da0601d83611f3a565b9150612dab82612d6a565b602082019050919050565b60006020820190508181036000830152612dcf81612d93565b9050919050565b6000612de182611ebd565b9150612dec83611ebd565b925082821015612dff57612dfe61269e565b5b828203905092915050565b6000602082019050612e1f6000830184612aaa565b92915050565b7f4f6e6c7920565246436f6f7264696e61746f722063616e2066756c66696c6c00600082015250565b6000612e5b601f83611f3a565b9150612e6682612e25565b602082019050919050565b60006020820190508181036000830152612e8a81612e4e565b9050919050565b7f4e6f742063757272656e746c792077616974696e6720666f722066756e64732060008201527f72656c6561736500000000000000000000000000000000000000000000000000602082015250565b6000612eed602783611f3a565b9150612ef882612e91565b604082019050919050565b60006020820190508181036000830152612f1c81612ee0565b9050919050565b6000612f2e82611ebd565b91507fffffffffffffffffffffffffffffffffffffffffffffffffffffffffffffffff821415612f6157612f6061269e565b5b600182019050919050565b6000604082019050612f816000830185611e7f565b612f8e6020830184611f20565b9392505050565b600081519050919050565b600082825260208201905092915050565b6000612fbc82612f95565b612fc68185612fa0565b9350612fd6818560208601611f4b565b612fdf81611f7e565b840191505092915050565b6000606082019050612fff6000830186612aaa565b61300c6020830185611f20565b818103604083015261301e8184612fb1565b9050949350505050565b613031816124e6565b811461303c57600080fd5b50565b60008151905061304e81613028565b92915050565b60006020828403121561306a57613069611eb3565b5b60006130788482850161303f565b91505092915050565b600061308c82611ebd565b915061309783611ebd565b9250827fffffffffffffffffffffffffffffffffffffffffffffffffffffffffffffffff038211156130cc576130cb61269e565b5b828201905092915050565b60006130e282611ebd565b91506130ed83611ebd565b9250826130fd576130fc612914565b5b828206905092915050565b600061311382611ebd565b915060008214156131275761312661269e565b5b600182039050919050565b60006080820190506131476000830187611e7f565b6131546020830186611f20565b6131616040830185612aaa565b61316e6060830184611f20565b95945050505050565b6000819050919050565b61319261318d82611e75565b613177565b82525050565b6000819050919050565b6131b36131ae82611ebd565b613198565b82525050565b60006131c58285613181565b6020820191506131d582846131a2565b602082019150819050939250505056fea2646970667358221220b47ebad1a3027dc67ee33202905b2c81e5046fd7293bd7eb00d31c95e9c74fce64736f6c6343000809003360a060405234801561001057600080fd5b5073d0d5e3db44de05e9f294bb0a3beeaf030de24ada8073ffffffffffffffffffffffffffffffffffffffff1660808173ffffffffffffffffffffffffffffffffffffffff1681525050506080516103f661007c60003960008181607b015261012701526103f66000f3fe608060405234801561001057600080fd5b50600436106100365760003560e01c8063313ce5671461003b5780638e15f47314610059575b600080fd5b610043610077565b60405161005091906101f4565b60405180910390f35b61006161011c565b60405161006e9190610228565b60405180910390f35b60007f000000000000000000000000000000000000000000000000000000000000000073ffffffffffffffffffffffffffffffffffffffff1663313ce5676040518163ffffffff1660e01b815260040160206040518083038186803b1580156100df57600080fd5b505afa1580156100f3573d6000803e3d6000fd5b505050506040513d601f19601f820116820180604052508101906101179190610274565b905090565b6000806000806000807f000000000000000000000000000000000000000000000000000000000000000073ffffffffffffffffffffffffffffffffffffffff1663feaf968c6040518163ffffffff1660e01b815260040160a06040518083038186803b15801561018b57600080fd5b505afa15801561019f573d6000803e3d6000fd5b505050506040513d601f19601f820116820180604052508101906101c39190610345565b94509450945094509450839550505050505090565b600060ff82169050919050565b6101ee816101d8565b82525050565b600060208201905061020960008301846101e5565b92915050565b6000819050919050565b6102228161020f565b82525050565b600060208201905061023d6000830184610219565b92915050565b600080fd5b610251816101d8565b811461025c57600080fd5b50565b60008151905061026e81610248565b92915050565b60006020828403121561028a57610289610243565b5b60006102988482850161025f565b91505092915050565b600069ffffffffffffffffffff82169050919050565b6102c0816102a1565b81146102cb57600080fd5b50565b6000815190506102dd816102b7565b92915050565b6102ec8161020f565b81146102f757600080fd5b50565b600081519050610309816102e3565b92915050565b6000819050919050565b6103228161030f565b811461032d57600080fd5b50565b60008151905061033f81610319565b92915050565b600080600080600060a0868803121561036157610360610243565b5b600061036f888289016102ce565b9550506020610380888289016102fa565b945050604061039188828901610330565b93505060606103a288828901610330565b92505060806103b3888289016102ce565b915050929550929590935056fea2646970667358221220fdcf449e6b9a874a9f7a8c1093e03819b5dccf06a66192bfdfd69b7f27f9e30364736f6c6343000809003360806040523480156200001157600080fd5b5060405162004866380380620048668339818101604052810190620000379190620004cc565b828281600090805190602001906200005192919062000206565b5080600190805190602001906200006a92919062000206565b5050506200008d620000816200013860201b60201c565b6200014060201b60201c565b6000815111620000d4576040517f08c379a0000000000000000000000000000000000000000000000000000000008152600401620000cb90620005fc565b60405180910390fd5b80600b9080519060200190620000ec92919062000206565b5083600c60006101000a81548173ffffffffffffffffffffffffffffffffffffffff021916908373ffffffffffffffffffffffffffffffffffffffff1602179055505050505062000683565b600033905090565b6000600a60009054906101000a900473ffffffffffffffffffffffffffffffffffffffff16905081600a60006101000a81548173ffffffffffffffffffffffffffffffffffffffff021916908373ffffffffffffffffffffffffffffffffffffffff1602179055508173ffffffffffffffffffffffffffffffffffffffff168173ffffffffffffffffffffffffffffffffffffffff167f8be0079c531659141344cd1fd0a4f28419497f9722a3daafe3b4186f6b6457e060405160405180910390a35050565b82805462000214906200064d565b90600052602060002090601f01602090048101928262000238576000855562000284565b82601f106200025357805160ff191683800117855562000284565b8280016001018555821562000284579182015b828111156200028357825182559160200191906001019062000266565b5b50905062000293919062000297565b5090565b5b80821115620002b257600081600090555060010162000298565b5090565b6000604051905090565b600080fd5b600080fd5b600073ffffffffffffffffffffffffffffffffffffffff82169050919050565b6000620002f782620002ca565b9050919050565b60006200030b82620002ea565b9050919050565b6200031d81620002fe565b81146200032957600080fd5b50565b6000815190506200033d8162000312565b92915050565b600080fd5b600080fd5b6000601f19601f8301169050919050565b7f4e487b7100000000000000000000000000000000000000000000000000000000600052604160045260246000fd5b62000398826200034d565b810181811067ffffffffffffffff82111715620003ba57620003b96200035e565b5b80604052505050565b6000620003cf620002b6565b9050620003dd82826200038d565b919050565b600067ffffffffffffffff8211156200040057620003ff6200035e565b5b6200040b826200034d565b9050602081019050919050565b60005b83811015620004385780820151818401526020810190506200041b565b8381111562000448576000848401525b50505050565b6000620004656200045f84620003e2565b620003c3565b90508281526020810184848401111562000484576200048362000348565b5b6200049184828562000418565b509392505050565b600082601f830112620004b157620004b062000343565b5b8151620004c38482602086016200044e565b91505092915050565b60008060008060808587031215620004e957620004e8620002c0565b5b6000620004f9878288016200032c565b945050602085015167ffffffffffffffff8111156200051d576200051c620002c5565b5b6200052b8782880162000499565b935050604085015167ffffffffffffffff8111156200054f576200054e620002c5565b5b6200055d8782880162000499565b925050606085015167ffffffffffffffff811115620005815762000580620002c5565b5b6200058f8782880162000499565b91505092959194509250565b600082825260208201905092915050565b7f4e6f204349442070726f76696465640000000000000000000000000000000000600082015250565b6000620005e4600f836200059b565b9150620005f182620005ac565b602082019050919050565b600060208201905081810360008301526200061781620005d5565b9050919050565b7f4e487b7100000000000000000000000000000000000000000000000000000000600052602260045260246000fd5b600060028204905060018216806200066657607f821691505b602082108114156200067d576200067c6200061e565b5b50919050565b6141d380620006936000396000f3fe608060405234801561001057600080fd5b50600436106101585760003560e01c8063715018a6116100c3578063ba13a5721161007c578063ba13a572146103eb578063c098004c14610409578063c87b56dd14610427578063e8a3d48514610457578063e985e9c514610475578063f2fde38b146104a557610158565b8063715018a61461033d5780638476e140146103475780638da5cb5b1461037757806395d89b4114610395578063a22cb465146103b3578063b88d4fde146103cf57610158565b80632f745c59116101155780632f745c59146102315780634025b22d1461026157806342842e0e146102915780634f6ccce7146102ad5780636352211e146102dd57806370a082311461030d57610158565b806301ffc9a71461015d57806306fdde031461018d578063081812fc146101ab578063095ea7b3146101db57806318160ddd146101f757806323b872dd14610215575b600080fd5b61017760048036038101906101729190612911565b6104c1565b6040516101849190612959565b60405180910390f35b61019561053b565b6040516101a29190612a0d565b60405180910390f35b6101c560048036038101906101c09190612a65565b6105cd565b6040516101d29190612ad3565b60405180910390f35b6101f560048036038101906101f09190612b1a565b610652565b005b6101ff61076a565b60405161020c9190612b69565b60405180910390f35b61022f600480360381019061022a9190612b84565b610777565b005b61024b60048036038101906102469190612b1a565b6107d7565b6040516102589190612b69565b60405180910390f35b61027b60048036038101906102769190612a65565b61087c565b6040516102889190612cc3565b60405180910390f35b6102ab60048036038101906102a69190612b84565b610b05565b005b6102c760048036038101906102c29190612a65565b610b25565b6040516102d49190612b69565b60405180910390f35b6102f760048036038101906102f29190612a65565b610b96565b6040516103049190612ad3565b60405180910390f35b61032760048036038101906103229190612ce5565b610c48565b6040516103349190612b69565b60405180910390f35b610345610d00565b005b610361600480360381019061035c9190612f91565b610d88565b60405161036e9190612b69565b60405180910390f35b61037f610ec8565b60405161038c9190612ad3565b60405180910390f35b61039d610ef2565b6040516103aa9190612a0d565b60405180910390f35b6103cd60048036038101906103c89190613019565b610f84565b005b6103e960048036038101906103e491906130fa565b610f9a565b005b6103f3610ffc565b60405161040091906131dc565b60405180910390f35b610411611022565b60405161041e9190612a0d565b60405180910390f35b610441600480360381019061043c9190612a65565b6110b0565b60405161044e9190612a0d565b60405180910390f35b61045f611548565b60405161046c9190612a0d565b60405180910390f35b61048f600480360381019061048a91906131f7565b611570565b60405161049c9190612959565b60405180910390f35b6104bf60048036038101906104ba9190612ce5565b611604565b005b60007f780e9d63000000000000000000000000000000000000000000000000000000007bffffffffffffffffffffffffffffffffffffffffffffffffffffffff1916827bffffffffffffffffffffffffffffffffffffffffffffffffffffffff191614806105345750610533826116fc565b5b9050919050565b60606000805461054a90613266565b80601f016020809104026020016040519081016040528092919081815260200182805461057690613266565b80156105c35780601f10610598576101008083540402835291602001916105c3565b820191906000526020600020905b8154815290600101906020018083116105a657829003601f168201915b5050505050905090565b60006105d8826117de565b610617576040517f08c379a000000000000000000000000000000000000000000000000000000000815260040161060e9061330a565b60405180910390fd5b6004600083815260200190815260200160002060009054906101000a900473ffffffffffffffffffffffffffffffffffffffff169050919050565b600061065d82610b96565b90508073ffffffffffffffffffffffffffffffffffffffff168373ffffffffffffffffffffffffffffffffffffffff1614156106ce576040517f08c379a00000000000000000000000000000000000000000000000000000000081526004016106c59061339c565b60405180910390fd5b8073ffffffffffffffffffffffffffffffffffffffff166106ed61184a565b73ffffffffffffffffffffffffffffffffffffffff16148061071c575061071b8161071661184a565b611570565b5b61075b576040517f08c379a00000000000000000000000000000000000000000000000000000000081526004016107529061342e565b60405180910390fd5b6107658383611852565b505050565b6000600880549050905090565b61078861078261184a565b8261190b565b6107c7576040517f08c379a00000000000000000000000000000000000000000000000000000000081526004016107be906134c0565b60405180910390fd5b6107d28383836119e9565b505050565b60006107e283610c48565b8210610823576040517f08c379a000000000000000000000000000000000000000000000000000000000815260040161081a90613552565b60405180910390fd5b600660008473ffffffffffffffffffffffffffffffffffffffff1673ffffffffffffffffffffffffffffffffffffffff168152602001908152602001600020600083815260200190815260200160002054905092915050565b6108846127c1565b600e6000838152602001908152602001600020604051806020016040529081600082016040518060800160405290816000820180546108c290613266565b80601f01602080910402602001604051908101604052809291908181526020018280546108ee90613266565b801561093b5780601f106109105761010080835404028352916020019161093b565b820191906000526020600020905b81548152906001019060200180831161091e57829003601f168201915b5050505050815260200160018201805461095490613266565b80601f016020809104026020016040519081016040528092919081815260200182805461098090613266565b80156109cd5780601f106109a2576101008083540402835291602001916109cd565b820191906000526020600020905b8154815290600101906020018083116109b057829003601f168201915b505050505081526020016002820180546109e690613266565b80601f0160208091040260200160405190810160405280929190818152602001828054610a1290613266565b8015610a5f5780601f10610a3457610100808354040283529160200191610a5f565b820191906000526020600020905b815481529060010190602001808311610a4257829003601f168201915b50505050508152602001600382018054610a7890613266565b80601f0160208091040260200160405190810160405280929190818152602001828054610aa490613266565b8015610af15780601f10610ac657610100808354040283529160200191610af1565b820191906000526020600020905b815481529060010190602001808311610ad457829003601f168201915b505050505081525050815250509050919050565b610b2083838360405180602001604052806000815250610f9a565b505050565b6000610b2f61076a565b8210610b70576040517f08c379a0000000000000000000000000000000000000000000000000000000008152600401610b67906135e4565b60405180910390fd5b60088281548110610b8457610b83613604565b5b90600052602060002001549050919050565b6000806002600084815260200190815260200160002060009054906101000a900473ffffffffffffffffffffffffffffffffffffffff169050600073ffffffffffffffffffffffffffffffffffffffff168173ffffffffffffffffffffffffffffffffffffffff161415610c3f576040517f08c379a0000000000000000000000000000000000000000000000000000000008152600401610c36906136a5565b60405180910390fd5b80915050919050565b60008073ffffffffffffffffffffffffffffffffffffffff168273ffffffffffffffffffffffffffffffffffffffff161415610cb9576040517f08c379a0000000000000000000000000000000000000000000000000000000008152600401610cb090613737565b60405180910390fd5b600360008373ffffffffffffffffffffffffffffffffffffffff1673ffffffffffffffffffffffffffffffffffffffff168152602001908152602001600020549050919050565b610d0861184a565b73ffffffffffffffffffffffffffffffffffffffff16610d26610ec8565b73ffffffffffffffffffffffffffffffffffffffff1614610d7c576040517f08c379a0000000000000000000000000000000000000000000000000000000008152600401610d73906137a3565b60405180910390fd5b610d866000611c45565b565b6000610d9261184a565b73ffffffffffffffffffffffffffffffffffffffff16610db0610ec8565b73ffffffffffffffffffffffffffffffffffffffff1614610e06576040517f08c379a0000000000000000000000000000000000000000000000000000000008152600401610dfd906137a3565b60405180910390fd5b6000610e12600d611d0b565b9050610e1e8482611d19565b82600e60008381526020019081526020016000206000820151816000016000820151816000019080519060200190610e579291906127da565b506020820151816001019080519060200190610e749291906127da565b506040820151816002019080519060200190610e919291906127da565b506060820151816003019080519060200190610eae9291906127da565b505050905050610ebe600d611d37565b8091505092915050565b6000600a60009054906101000a900473ffffffffffffffffffffffffffffffffffffffff16905090565b606060018054610f0190613266565b80601f0160208091040260200160405190810160405280929190818152602001828054610f2d90613266565b8015610f7a5780601f10610f4f57610100808354040283529160200191610f7a565b820191906000526020600020905b815481529060010190602001808311610f5d57829003601f168201915b5050505050905090565b610f96610f8f61184a565b8383611d4d565b5050565b610fab610fa561184a565b8361190b565b610fea576040517f08c379a0000000000000000000000000000000000000000000000000000000008152600401610fe1906134c0565b60405180910390fd5b610ff684848484611eba565b50505050565b600c60009054906101000a900473ffffffffffffffffffffffffffffffffffffffff1681565b600b805461102f90613266565b80601f016020809104026020016040519081016040528092919081815260200182805461105b90613266565b80156110a85780601f1061107d576101008083540402835291602001916110a8565b820191906000526020600020905b81548152906001019060200180831161108b57829003601f168201915b505050505081565b60606110bb826117de565b6110fa576040517f08c379a00000000000000000000000000000000000000000000000000000000081526004016110f190613835565b60405180910390fd5b6060600c60009054906101000a900473ffffffffffffffffffffffffffffffffffffffff1673ffffffffffffffffffffffffffffffffffffffff1663b2fa1c9e6040518163ffffffff1660e01b815260040160206040518083038186803b15801561116457600080fd5b505afa158015611178573d6000803e3d6000fd5b505050506040513d601f19601f8201168201806040525081019061119c919061386a565b80156112505750600c60009054906101000a900473ffffffffffffffffffffffffffffffffffffffff1673ffffffffffffffffffffffffffffffffffffffff1663d84e29ea846040518263ffffffff1660e01b81526004016111fe9190612b69565b60206040518083038186803b15801561121657600080fd5b505afa15801561122a573d6000803e3d6000fd5b505050506040513d601f19601f8201168201806040525081019061124e919061386a565b155b15611292576040518060400160405280600981526020017f64657374726f7965640000000000000000000000000000000000000000000000815250905061151d565b6000600e6000858152602001908152602001600020604051806020016040529081600082016040518060800160405290816000820180546112d290613266565b80601f01602080910402602001604051908101604052809291908181526020018280546112fe90613266565b801561134b5780601f106113205761010080835404028352916020019161134b565b820191906000526020600020905b81548152906001019060200180831161132e57829003601f168201915b5050505050815260200160018201805461136490613266565b80601f016020809104026020016040519081016040528092919081815260200182805461139090613266565b80156113dd5780601f106113b2576101008083540402835291602001916113dd565b820191906000526020600020905b8154815290600101906020018083116113c057829003601f168201915b505050505081526020016002820180546113f690613266565b80601f016020809104026020016040519081016040528092919081815260200182805461142290613266565b801561146f5780601f106114445761010080835404028352916020019161146f565b820191906000526020600020905b81548152906001019060200180831161145257829003601f168201915b5050505050815260200160038201805461148890613266565b80601f01602080910402602001604051908101604052809291908181526020018280546114b490613266565b80156115015780601f106114d657610100808354040283529160200191611501565b820191906000526020600020905b8154815290600101906020018083116114e457829003601f168201915b50505050508152505081525050905061151981611f16565b9150505b600b81604051602001611531929190613a4b565b604051602081830303815290604052915050919050565b6060600b60405160200161155c9190613adc565b604051602081830303815290604052905090565b6000600560008473ffffffffffffffffffffffffffffffffffffffff1673ffffffffffffffffffffffffffffffffffffffff16815260200190815260200160002060008373ffffffffffffffffffffffffffffffffffffffff1673ffffffffffffffffffffffffffffffffffffffff16815260200190815260200160002060009054906101000a900460ff16905092915050565b61160c61184a565b73ffffffffffffffffffffffffffffffffffffffff1661162a610ec8565b73ffffffffffffffffffffffffffffffffffffffff1614611680576040517f08c379a0000000000000000000000000000000000000000000000000000000008152600401611677906137a3565b60405180910390fd5b600073ffffffffffffffffffffffffffffffffffffffff168173ffffffffffffffffffffffffffffffffffffffff1614156116f0576040517f08c379a00000000000000000000000000000000000000000000000000000000081526004016116e790613b7b565b60405180910390fd5b6116f981611c45565b50565b60007f80ac58cd000000000000000000000000000000000000000000000000000000007bffffffffffffffffffffffffffffffffffffffffffffffffffffffff1916827bffffffffffffffffffffffffffffffffffffffffffffffffffffffff191614806117c757507f5b5e139f000000000000000000000000000000000000000000000000000000007bffffffffffffffffffffffffffffffffffffffffffffffffffffffff1916827bffffffffffffffffffffffffffffffffffffffffffffffffffffffff1916145b806117d757506117d682611f65565b5b9050919050565b60008073ffffffffffffffffffffffffffffffffffffffff166002600084815260200190815260200160002060009054906101000a900473ffffffffffffffffffffffffffffffffffffffff1673ffffffffffffffffffffffffffffffffffffffff1614159050919050565b600033905090565b816004600083815260200190815260200160002060006101000a81548173ffffffffffffffffffffffffffffffffffffffff021916908373ffffffffffffffffffffffffffffffffffffffff160217905550808273ffffffffffffffffffffffffffffffffffffffff166118c583610b96565b73ffffffffffffffffffffffffffffffffffffffff167f8c5be1e5ebec7d5bd14f71427d1e84f3dd0314c0f7b2291e5b200ac8c7c3b92560405160405180910390a45050565b6000611916826117de565b611955576040517f08c379a000000000000000000000000000000000000000000000000000000000815260040161194c90613c0d565b60405180910390fd5b600061196083610b96565b90508073ffffffffffffffffffffffffffffffffffffffff168473ffffffffffffffffffffffffffffffffffffffff1614806119cf57508373ffffffffffffffffffffffffffffffffffffffff166119b7846105cd565b73ffffffffffffffffffffffffffffffffffffffff16145b806119e057506119df8185611570565b5b91505092915050565b8273ffffffffffffffffffffffffffffffffffffffff16611a0982610b96565b73ffffffffffffffffffffffffffffffffffffffff1614611a5f576040517f08c379a0000000000000000000000000000000000000000000000000000000008152600401611a5690613c9f565b60405180910390fd5b600073ffffffffffffffffffffffffffffffffffffffff168273ffffffffffffffffffffffffffffffffffffffff161415611acf576040517f08c379a0000000000000000000000000000000000000000000000000000000008152600401611ac690613d31565b60405180910390fd5b611ada838383611fcf565b611ae5600082611852565b6001600360008573ffffffffffffffffffffffffffffffffffffffff1673ffffffffffffffffffffffffffffffffffffffff1681526020019081526020016000206000828254611b359190613d80565b925050819055506001600360008473ffffffffffffffffffffffffffffffffffffffff1673ffffffffffffffffffffffffffffffffffffffff1681526020019081526020016000206000828254611b8c9190613db4565b92505081905550816002600083815260200190815260200160002060006101000a81548173ffffffffffffffffffffffffffffffffffffffff021916908373ffffffffffffffffffffffffffffffffffffffff160217905550808273ffffffffffffffffffffffffffffffffffffffff168473ffffffffffffffffffffffffffffffffffffffff167fddf252ad1be2c89b69c2b068fc378daa952ba7f163c4a11628f55a4df523b3ef60405160405180910390a4505050565b6000600a60009054906101000a900473ffffffffffffffffffffffffffffffffffffffff16905081600a60006101000a81548173ffffffffffffffffffffffffffffffffffffffff021916908373ffffffffffffffffffffffffffffffffffffffff1602179055508173ffffffffffffffffffffffffffffffffffffffff168173ffffffffffffffffffffffffffffffffffffffff167f8be0079c531659141344cd1fd0a4f28419497f9722a3daafe3b4186f6b6457e060405160405180910390a35050565b600081600001549050919050565b611d338282604051806020016040528060008152506120e3565b5050565b6001816000016000828254019250508190555050565b8173ffffffffffffffffffffffffffffffffffffffff168373ffffffffffffffffffffffffffffffffffffffff161415611dbc576040517f08c379a0000000000000000000000000000000000000000000000000000000008152600401611db390613e56565b60405180910390fd5b80600560008573ffffffffffffffffffffffffffffffffffffffff1673ffffffffffffffffffffffffffffffffffffffff16815260200190815260200160002060008473ffffffffffffffffffffffffffffffffffffffff1673ffffffffffffffffffffffffffffffffffffffff16815260200190815260200160002060006101000a81548160ff0219169083151502179055508173ffffffffffffffffffffffffffffffffffffffff168373ffffffffffffffffffffffffffffffffffffffff167f17307eab39ab6107e8899845ad3d59bd9653f200f220920489ca2b5937696c3183604051611ead9190612959565b60405180910390a3505050565b611ec58484846119e9565b611ed18484848461213e565b611f10576040517f08c379a0000000000000000000000000000000000000000000000000000000008152600401611f0790613ee8565b60405180910390fd5b50505050565b6060816000015160000151826000015160200151836000015160400151846000015160600151604051602001611f4f9493929190613f54565b6040516020818303038152906040529050919050565b60007f01ffc9a7000000000000000000000000000000000000000000000000000000007bffffffffffffffffffffffffffffffffffffffffffffffffffffffff1916827bffffffffffffffffffffffffffffffffffffffffffffffffffffffff1916149050919050565b611fda8383836122d5565b600073ffffffffffffffffffffffffffffffffffffffff168373ffffffffffffffffffffffffffffffffffffffff16141561201d57612018816122da565b61205c565b8173ffffffffffffffffffffffffffffffffffffffff168373ffffffffffffffffffffffffffffffffffffffff161461205b5761205a8382612323565b5b5b600073ffffffffffffffffffffffffffffffffffffffff168273ffffffffffffffffffffffffffffffffffffffff16141561209f5761209a81612490565b6120de565b8273ffffffffffffffffffffffffffffffffffffffff168273ffffffffffffffffffffffffffffffffffffffff16146120dd576120dc8282612561565b5b5b505050565b6120ed83836125e0565b6120fa600084848461213e565b612139576040517f08c379a000000000000000000000000000000000000000000000000000000000815260040161213090613ee8565b60405180910390fd5b505050565b600061215f8473ffffffffffffffffffffffffffffffffffffffff166127ae565b156122c8578373ffffffffffffffffffffffffffffffffffffffff1663150b7a0261218861184a565b8786866040518563ffffffff1660e01b81526004016121aa9493929190614008565b602060405180830381600087803b1580156121c457600080fd5b505af19250505080156121f557506040513d601f19601f820116820180604052508101906121f29190614069565b60015b612278573d8060008114612225576040519150601f19603f3d011682016040523d82523d6000602084013e61222a565b606091505b50600081511415612270576040517f08c379a000000000000000000000000000000000000000000000000000000000815260040161226790613ee8565b60405180910390fd5b805181602001fd5b63150b7a0260e01b7bffffffffffffffffffffffffffffffffffffffffffffffffffffffff1916817bffffffffffffffffffffffffffffffffffffffffffffffffffffffff1916149150506122cd565b600190505b949350505050565b505050565b6008805490506009600083815260200190815260200160002081905550600881908060018154018082558091505060019003906000526020600020016000909190919091505550565b6000600161233084610c48565b61233a9190613d80565b905060006007600084815260200190815260200160002054905081811461241f576000600660008673ffffffffffffffffffffffffffffffffffffffff1673ffffffffffffffffffffffffffffffffffffffff168152602001908152602001600020600084815260200190815260200160002054905080600660008773ffffffffffffffffffffffffffffffffffffffff1673ffffffffffffffffffffffffffffffffffffffff168152602001908152602001600020600084815260200190815260200160002081905550816007600083815260200190815260200160002081905550505b6007600084815260200190815260200160002060009055600660008573ffffffffffffffffffffffffffffffffffffffff1673ffffffffffffffffffffffffffffffffffffffff16815260200190815260200160002060008381526020019081526020016000206000905550505050565b600060016008805490506124a49190613d80565b90506000600960008481526020019081526020016000205490506000600883815481106124d4576124d3613604565b5b9060005260206000200154905080600883815481106124f6576124f5613604565b5b90600052602060002001819055508160096000838152602001908152602001600020819055506009600085815260200190815260200160002060009055600880548061254557612544614096565b5b6001900381819060005260206000200160009055905550505050565b600061256c83610c48565b905081600660008573ffffffffffffffffffffffffffffffffffffffff1673ffffffffffffffffffffffffffffffffffffffff168152602001908152602001600020600083815260200190815260200160002081905550806007600084815260200190815260200160002081905550505050565b600073ffffffffffffffffffffffffffffffffffffffff168273ffffffffffffffffffffffffffffffffffffffff161415612650576040517f08c379a000000000000000000000000000000000000000000000000000000000815260040161264790614111565b60405180910390fd5b612659816117de565b15612699576040517f08c379a00000000000000000000000000000000000000000000000000000000081526004016126909061417d565b60405180910390fd5b6126a560008383611fcf565b6001600360008473ffffffffffffffffffffffffffffffffffffffff1673ffffffffffffffffffffffffffffffffffffffff16815260200190815260200160002060008282546126f59190613db4565b92505081905550816002600083815260200190815260200160002060006101000a81548173ffffffffffffffffffffffffffffffffffffffff021916908373ffffffffffffffffffffffffffffffffffffffff160217905550808273ffffffffffffffffffffffffffffffffffffffff16600073ffffffffffffffffffffffffffffffffffffffff167fddf252ad1be2c89b69c2b068fc378daa952ba7f163c4a11628f55a4df523b3ef60405160405180910390a45050565b600080823b905060008111915050919050565b60405180602001604052806127d4612860565b81525090565b8280546127e690613266565b90600052602060002090601f016020900481019282612808576000855561284f565b82601f1061282157805160ff191683800117855561284f565b8280016001018555821561284f579182015b8281111561284e578251825591602001919060010190612833565b5b50905061285c9190612888565b5090565b6040518060800160405280606081526020016060815260200160608152602001606081525090565b5b808211156128a1576000816000905550600101612889565b5090565b6000604051905090565b600080fd5b600080fd5b60007fffffffff0000000000000000000000000000000000000000000000000000000082169050919050565b6128ee816128b9565b81146128f957600080fd5b50565b60008135905061290b816128e5565b92915050565b600060208284031215612927576129266128af565b5b6000612935848285016128fc565b91505092915050565b60008115159050919050565b6129538161293e565b82525050565b600060208201905061296e600083018461294a565b92915050565b600081519050919050565b600082825260208201905092915050565b60005b838110156129ae578082015181840152602081019050612993565b838111156129bd576000848401525b50505050565b6000601f19601f8301169050919050565b60006129df82612974565b6129e9818561297f565b93506129f9818560208601612990565b612a02816129c3565b840191505092915050565b60006020820190508181036000830152612a2781846129d4565b905092915050565b6000819050919050565b612a4281612a2f565b8114612a4d57600080fd5b50565b600081359050612a5f81612a39565b92915050565b600060208284031215612a7b57612a7a6128af565b5b6000612a8984828501612a50565b91505092915050565b600073ffffffffffffffffffffffffffffffffffffffff82169050919050565b6000612abd82612a92565b9050919050565b612acd81612ab2565b82525050565b6000602082019050612ae86000830184612ac4565b92915050565b612af781612ab2565b8114612b0257600080fd5b50565b600081359050612b1481612aee565b92915050565b60008060408385031215612b3157612b306128af565b5b6000612b3f85828601612b05565b9250506020612b5085828601612a50565b9150509250929050565b612b6381612a2f565b82525050565b6000602082019050612b7e6000830184612b5a565b92915050565b600080600060608486031215612b9d57612b9c6128af565b5b6000612bab86828701612b05565b9350506020612bbc86828701612b05565b9250506040612bcd86828701612a50565b9150509250925092565b600082825260208201905092915050565b6000612bf382612974565b612bfd8185612bd7565b9350612c0d818560208601612990565b612c16816129c3565b840191505092915050565b60006080830160008301518482036000860152612c3e8282612be8565b91505060208301518482036020860152612c588282612be8565b91505060408301518482036040860152612c728282612be8565b91505060608301518482036060860152612c8c8282612be8565b9150508091505092915050565b60006020830160008301518482036000860152612cb68282612c21565b9150508091505092915050565b60006020820190508181036000830152612cdd8184612c99565b905092915050565b600060208284031215612cfb57612cfa6128af565b5b6000612d0984828501612b05565b91505092915050565b600080fd5b7f4e487b7100000000000000000000000000000000000000000000000000000000600052604160045260246000fd5b612d4f826129c3565b810181811067ffffffffffffffff82111715612d6e57612d6d612d17565b5b80604052505050565b6000612d816128a5565b9050612d8d8282612d46565b919050565b600080fd5b600080fd5b600080fd5b600067ffffffffffffffff821115612dbc57612dbb612d17565b5b612dc5826129c3565b9050602081019050919050565b82818337600083830152505050565b6000612df4612def84612da1565b612d77565b905082815260208101848484011115612e1057612e0f612d9c565b5b612e1b848285612dd2565b509392505050565b600082601f830112612e3857612e37612d97565b5b8135612e48848260208601612de1565b91505092915050565b600060808284031215612e6757612e66612d12565b5b612e716080612d77565b9050600082013567ffffffffffffffff811115612e9157612e90612d92565b5b612e9d84828501612e23565b600083015250602082013567ffffffffffffffff811115612ec157612ec0612d92565b5b612ecd84828501612e23565b602083015250604082013567ffffffffffffffff811115612ef157612ef0612d92565b5b612efd84828501612e23565b604083015250606082013567ffffffffffffffff811115612f2157612f20612d92565b5b612f2d84828501612e23565b60608301525092915050565b600060208284031215612f4f57612f4e612d12565b5b612f596020612d77565b9050600082013567ffffffffffffffff811115612f7957612f78612d92565b5b612f8584828501612e51565b60008301525092915050565b60008060408385031215612fa857612fa76128af565b5b6000612fb685828601612b05565b925050602083013567ffffffffffffffff811115612fd757612fd66128b4565b5b612fe385828601612f39565b9150509250929050565b612ff68161293e565b811461300157600080fd5b50565b60008135905061301381612fed565b92915050565b600080604083850312156130305761302f6128af565b5b600061303e85828601612b05565b925050602061304f85828601613004565b9150509250929050565b600067ffffffffffffffff82111561307457613073612d17565b5b61307d826129c3565b9050602081019050919050565b600061309d61309884613059565b612d77565b9050828152602081018484840111156130b9576130b8612d9c565b5b6130c4848285612dd2565b509392505050565b600082601f8301126130e1576130e0612d97565b5b81356130f184826020860161308a565b91505092915050565b60008060008060808587031215613114576131136128af565b5b600061312287828801612b05565b945050602061313387828801612b05565b935050604061314487828801612a50565b925050606085013567ffffffffffffffff811115613165576131646128b4565b5b613171878288016130cc565b91505092959194509250565b6000819050919050565b60006131a261319d61319884612a92565b61317d565b612a92565b9050919050565b60006131b482613187565b9050919050565b60006131c6826131a9565b9050919050565b6131d6816131bb565b82525050565b60006020820190506131f160008301846131cd565b92915050565b6000806040838503121561320e5761320d6128af565b5b600061321c85828601612b05565b925050602061322d85828601612b05565b9150509250929050565b7f4e487b7100000000000000000000000000000000000000000000000000000000600052602260045260246000fd5b6000600282049050600182168061327e57607f821691505b6020821081141561329257613291613237565b5b50919050565b7f4552433732313a20617070726f76656420717565727920666f72206e6f6e657860008201527f697374656e7420746f6b656e0000000000000000000000000000000000000000602082015250565b60006132f4602c8361297f565b91506132ff82613298565b604082019050919050565b60006020820190508181036000830152613323816132e7565b9050919050565b7f4552433732313a20617070726f76616c20746f2063757272656e74206f776e6560008201527f7200000000000000000000000000000000000000000000000000000000000000602082015250565b600061338660218361297f565b91506133918261332a565b604082019050919050565b600060208201905081810360008301526133b581613379565b9050919050565b7f4552433732313a20617070726f76652063616c6c6572206973206e6f74206f7760008201527f6e6572206e6f7220617070726f76656420666f7220616c6c0000000000000000602082015250565b600061341860388361297f565b9150613423826133bc565b604082019050919050565b600060208201905081810360008301526134478161340b565b9050919050565b7f4552433732313a207472616e736665722063616c6c6572206973206e6f74206f60008201527f776e6572206e6f7220617070726f766564000000000000000000000000000000602082015250565b60006134aa60318361297f565b91506134b58261344e565b604082019050919050565b600060208201905081810360008301526134d98161349d565b9050919050565b7f455243373231456e756d657261626c653a206f776e657220696e646578206f7560008201527f74206f6620626f756e6473000000000000000000000000000000000000000000602082015250565b600061353c602b8361297f565b9150613547826134e0565b604082019050919050565b6000602082019050818103600083015261356b8161352f565b9050919050565b7f455243373231456e756d657261626c653a20676c6f62616c20696e646578206f60008201527f7574206f6620626f756e64730000000000000000000000000000000000000000602082015250565b60006135ce602c8361297f565b91506135d982613572565b604082019050919050565b600060208201905081810360008301526135fd816135c1565b9050919050565b7f4e487b7100000000000000000000000000000000000000000000000000000000600052603260045260246000fd5b7f4552433732313a206f776e657220717565727920666f72206e6f6e657869737460008201527f656e7420746f6b656e0000000000000000000000000000000000000000000000602082015250565b600061368f60298361297f565b915061369a82613633565b604082019050919050565b600060208201905081810360008301526136be81613682565b9050919050565b7f4552433732313a2062616c616e636520717565727920666f7220746865207a6560008201527f726f206164647265737300000000000000000000000000000000000000000000602082015250565b6000613721602a8361297f565b915061372c826136c5565b604082019050919050565b6000602082019050818103600083015261375081613714565b9050919050565b7f4f776e61626c653a2063616c6c6572206973206e6f7420746865206f776e6572600082015250565b600061378d60208361297f565b915061379882613757565b602082019050919050565b600060208201905081810360008301526137bc81613780565b9050919050565b7f45524337323155524953746f726167653a2055524920717565727920666f722060008201527f6e6f6e6578697374656e7420746f6b656e000000000000000000000000000000602082015250565b600061381f60318361297f565b915061382a826137c3565b604082019050919050565b6000602082019050818103600083015261384e81613812565b9050919050565b60008151905061386481612fed565b92915050565b6000602082840312156138805761387f6128af565b5b600061388e84828501613855565b91505092915050565b600081905092915050565b7f697066733a2f2f00000000000000000000000000000000000000000000000000600082015250565b60006138d8600783613897565b91506138e3826138a2565b600782019050919050565b60008190508160005260206000209050919050565b6000815461391081613266565b61391a8186613897565b94506001821660008114613935576001811461394657613979565b60ff19831686528186019350613979565b61394f856138ee565b60005b8381101561397157815481890152600182019150602081019050613952565b838801955050505b50505092915050565b7f2f00000000000000000000000000000000000000000000000000000000000000600082015250565b60006139b8600183613897565b91506139c382613982565b600182019050919050565b60006139d982612974565b6139e38185613897565b93506139f3818560208601612990565b80840191505092915050565b7f2e6a736f6e000000000000000000000000000000000000000000000000000000600082015250565b6000613a35600583613897565b9150613a40826139ff565b600582019050919050565b6000613a56826138cb565b9150613a628285613903565b9150613a6d826139ab565b9150613a7982846139ce565b9150613a8482613a28565b91508190509392505050565b7f2f636f6c6c656374696f6e2d6d657461646174612e6a736f6e00000000000000600082015250565b6000613ac6601983613897565b9150613ad182613a90565b601982019050919050565b6000613ae7826138cb565b9150613af38284613903565b9150613afe82613ab9565b915081905092915050565b7f4f776e61626c653a206e6577206f776e657220697320746865207a65726f206160008201527f6464726573730000000000000000000000000000000000000000000000000000602082015250565b6000613b6560268361297f565b9150613b7082613b09565b604082019050919050565b60006020820190508181036000830152613b9481613b58565b9050919050565b7f4552433732313a206f70657261746f7220717565727920666f72206e6f6e657860008201527f697374656e7420746f6b656e0000000000000000000000000000000000000000602082015250565b6000613bf7602c8361297f565b9150613c0282613b9b565b604082019050919050565b60006020820190508181036000830152613c2681613bea565b9050919050565b7f4552433732313a207472616e73666572206f6620746f6b656e2074686174206960008201527f73206e6f74206f776e0000000000000000000000000000000000000000000000602082015250565b6000613c8960298361297f565b9150613c9482613c2d565b604082019050919050565b60006020820190508181036000830152613cb881613c7c565b9050919050565b7f4552433732313a207472616e7366657220746f20746865207a65726f2061646460008201527f7265737300000000000000000000000000000000000000000000000000000000602082015250565b6000613d1b60248361297f565b9150613d2682613cbf565b604082019050919050565b60006020820190508181036000830152613d4a81613d0e565b9050919050565b7f4e487b7100000000000000000000000000000000000000000000000000000000600052601160045260246000fd5b6000613d8b82612a2f565b9150613d9683612a2f565b925082821015613da957613da8613d51565b5b828203905092915050565b6000613dbf82612a2f565b9150613dca83612a2f565b9250827fffffffffffffffffffffffffffffffffffffffffffffffffffffffffffffffff03821115613dff57613dfe613d51565b5b828201905092915050565b7f4552433732313a20617070726f766520746f2063616c6c657200000000000000600082015250565b6000613e4060198361297f565b9150613e4b82613e0a565b602082019050919050565b60006020820190508181036000830152613e6f81613e33565b9050919050565b7f4552433732313a207472616e7366657220746f206e6f6e20455243373231526560008201527f63656976657220696d706c656d656e7465720000000000000000000000000000602082015250565b6000613ed260328361297f565b9150613edd82613e76565b604082019050919050565b60006020820190508181036000830152613f0181613ec5565b9050919050565b7f5f00000000000000000000000000000000000000000000000000000000000000600082015250565b6000613f3e600183613897565b9150613f4982613f08565b600182019050919050565b6000613f6082876139ce565b9150613f6b82613f31565b9150613f7782866139ce565b9150613f8282613f31565b9150613f8e82856139ce565b9150613f9982613f31565b9150613fa582846139ce565b915081905095945050505050565b600081519050919050565b600082825260208201905092915050565b6000613fda82613fb3565b613fe48185613fbe565b9350613ff4818560208601612990565b613ffd816129c3565b840191505092915050565b600060808201905061401d6000830187612ac4565b61402a6020830186612ac4565b6140376040830185612b5a565b81810360608301526140498184613fcf565b905095945050505050565b600081519050614063816128e5565b92915050565b60006020828403121561407f5761407e6128af565b5b600061408d84828501614054565b91505092915050565b7f4e487b7100000000000000000000000000000000000000000000000000000000600052603160045260246000fd5b7f4552433732313a206d696e7420746f20746865207a65726f2061646472657373600082015250565b60006140fb60208361297f565b9150614106826140c5565b602082019050919050565b6000602082019050818103600083015261412a816140ee565b9050919050565b7f4552433732313a20746f6b656e20616c7265616479206d696e74656400000000600082015250565b6000614167601c8361297f565b915061417282614131565b602082019050919050565b600060208201905081810360008301526141968161415a565b905091905056fea2646970667358221220acdc032786b3c7f752c303419b7da2f567b3f22f7ab9bd0a5da672d23fc854d864736f6c634300080900336261667962656964696e617a753372717661706e6432717935356b7061356b6a32743332786235647133627973726237366363637a763772647365",
  "linkReferences": {},
  "deployedLinkReferences": {}
}