{
  "_format": "hh-sol-artifact-1",
  "contractName": "Lottery",
  "sourceName": "contracts/Lottery.sol",
  "abi": [
    {
      "inputs": [
        {
          "internalType": "uint8",
          "name": "_chainTokenDecimals",
          "type": "uint8"
        },
        {
          "internalType": "uint256",
          "name": "_ticketPriceUsd",
          "type": "uint256"
        },
        {
          "internalType": "string",
          "name": "_tokenName",
          "type": "string"
        },
        {
          "internalType": "string",
          "name": "_tokenSymbol",
          "type": "string"
        },
        {
          "internalType": "string",
          "name": "_CID",
          "type": "string"
        },
        {
          "internalType": "address payable",
          "name": "_fundsReleaseAddress",
          "type": "address"
        },
        {
          "components": [
            {
              "internalType": "uint256",
              "name": "beginningOfParticipationPeriod",
              "type": "uint256"
            },
            {
              "internalType": "uint256",
              "name": "endOfParticipationPeriod",
              "type": "uint256"
            },
            {
              "internalType": "uint256",
              "name": "endOfPreparationPeriod",
              "type": "uint256"
            }
          ],
          "internalType": "struct Periods",
          "name": "_periods",
          "type": "tuple"
        },
        {
          "internalType": "uint256",
          "name": "_maxWinners",
          "type": "uint256"
        },
        {
          "internalType": "contract PriceConsumer",
          "name": "_priceConsumer",
          "type": "address"
        },
        {
          "components": [
            {
              "internalType": "address",
              "name": "coordinator",
              "type": "address"
            },
            {
              "internalType": "address",
              "name": "link",
              "type": "address"
            },
            {
              "internalType": "bytes32",
              "name": "keyHash",
              "type": "bytes32"
            },
            {
              "internalType": "uint256",
              "name": "fee",
              "type": "uint256"
            }
          ],
          "internalType": "struct ChainlinkVRFData",
          "name": "_vrfData",
          "type": "tuple"
        }
      ],
      "stateMutability": "nonpayable",
      "type": "constructor"
    },
    {
      "inputs": [],
      "name": "chainTokenDecimals",
      "outputs": [
        {
          "internalType": "uint8",
          "name": "",
          "type": "uint8"
        }
      ],
      "stateMutability": "view",
      "type": "function"
    },
    {
      "inputs": [
        {
          "internalType": "uint256",
          "name": "",
          "type": "uint256"
        }
      ],
      "name": "events",
      "outputs": [
        {
          "internalType": "uint256",
          "name": "timestamp",
          "type": "uint256"
        },
        {
          "internalType": "string",
          "name": "description",
          "type": "string"
        }
      ],
      "stateMutability": "view",
      "type": "function"
    },
    {
      "inputs": [],
      "name": "fundsReleaseAddress",
      "outputs": [
        {
          "internalType": "address payable",
          "name": "",
          "type": "address"
        }
      ],
      "stateMutability": "view",
      "type": "function"
    },
    {
      "inputs": [],
      "name": "getLINKAmountRequired",
      "outputs": [
        {
          "internalType": "uint256",
          "name": "",
          "type": "uint256"
        }
      ],
      "stateMutability": "view",
      "type": "function"
    },
    {
      "inputs": [],
      "name": "getPriceToParticipate",
      "outputs": [
        {
          "internalType": "uint256",
          "name": "",
          "type": "uint256"
        }
      ],
      "stateMutability": "view",
      "type": "function"
    },
    {
      "inputs": [],
      "name": "getState",
      "outputs": [
        {
          "internalType": "enum Lottery.State",
          "name": "",
          "type": "uint8"
        }
      ],
      "stateMutability": "view",
      "type": "function"
    },
    {
      "inputs": [],
      "name": "isComplete",
      "outputs": [
        {
          "internalType": "bool",
          "name": "",
          "type": "bool"
        }
      ],
      "stateMutability": "view",
      "type": "function"
    },
    {
      "inputs": [
        {
          "internalType": "uint256",
          "name": "tokenId",
          "type": "uint256"
        }
      ],
      "name": "isWinningTicket",
      "outputs": [
        {
          "internalType": "bool",
          "name": "",
          "type": "bool"
        }
      ],
      "stateMutability": "view",
      "type": "function"
    },
    {
      "inputs": [],
      "name": "maxWinners",
      "outputs": [
        {
          "internalType": "uint256",
          "name": "",
          "type": "uint256"
        }
      ],
      "stateMutability": "view",
      "type": "function"
    },
    {
      "inputs": [
        {
          "internalType": "uint256",
          "name": "",
          "type": "uint256"
        }
      ],
      "name": "participants",
      "outputs": [
        {
          "internalType": "uint256",
          "name": "tokenId",
          "type": "uint256"
        }
      ],
      "stateMutability": "view",
      "type": "function"
    },
    {
      "inputs": [
        {
          "components": [
            {
              "components": [
                {
                  "internalType": "uint256",
                  "name": "body",
                  "type": "uint256"
                },
                {
                  "internalType": "uint256",
                  "name": "skin",
                  "type": "uint256"
                },
                {
                  "internalType": "uint256",
                  "name": "weapon",
                  "type": "uint256"
                },
                {
                  "internalType": "uint256",
                  "name": "booster",
                  "type": "uint256"
                }
              ],
              "internalType": "struct SpaceShips.ShipParts",
              "name": "parts",
              "type": "tuple"
            }
          ],
          "internalType": "struct SpaceShips.Ship",
          "name": "spaceShip",
          "type": "tuple"
        }
      ],
      "name": "participate",
      "outputs": [],
      "stateMutability": "payable",
      "type": "function"
    },
    {
      "inputs": [],
      "name": "periods",
      "outputs": [
        {
          "internalType": "uint256",
          "name": "beginningOfParticipationPeriod",
          "type": "uint256"
        },
        {
          "internalType": "uint256",
          "name": "endOfParticipationPeriod",
          "type": "uint256"
        },
        {
          "internalType": "uint256",
          "name": "endOfPreparationPeriod",
          "type": "uint256"
        }
      ],
      "stateMutability": "view",
      "type": "function"
    },
    {
      "inputs": [],
      "name": "priceConsumer",
      "outputs": [
        {
          "internalType": "contract PriceConsumer",
          "name": "",
          "type": "address"
        }
      ],
      "stateMutability": "view",
      "type": "function"
    },
    {
      "inputs": [
        {
          "internalType": "bytes32",
          "name": "requestId",
          "type": "bytes32"
        },
        {
          "internalType": "uint256",
          "name": "randomness",
          "type": "uint256"
        }
      ],
      "name": "rawFulfillRandomness",
      "outputs": [],
      "stateMutability": "nonpayable",
      "type": "function"
    },
    {
      "inputs": [
        {
          "internalType": "uint256",
          "name": "",
          "type": "uint256"
        }
      ],
      "name": "remainingParticipantsRanges",
      "outputs": [
        {
          "internalType": "uint256",
          "name": "min",
          "type": "uint256"
        },
        {
          "internalType": "uint256",
          "name": "max",
          "type": "uint256"
        }
      ],
      "stateMutability": "view",
      "type": "function"
    },
    {
      "inputs": [],
      "name": "ticketPriceUsd",
      "outputs": [
        {
          "internalType": "uint256",
          "name": "",
          "type": "uint256"
        }
      ],
      "stateMutability": "view",
      "type": "function"
    },
    {
      "inputs": [],
      "name": "token",
      "outputs": [
        {
          "internalType": "contract LotteryToken",
          "name": "",
          "type": "address"
        }
      ],
      "stateMutability": "view",
      "type": "function"
    },
    {
      "inputs": [],
      "name": "triggerCompletion",
      "outputs": [],
      "stateMutability": "nonpayable",
      "type": "function"
    },
    {
      "inputs": [],
      "name": "triggerNextEvent",
      "outputs": [],
      "stateMutability": "nonpayable",
      "type": "function"
    },
    {
      "inputs": [],
      "name": "vrfFee",
      "outputs": [
        {
          "internalType": "uint256",
          "name": "",
          "type": "uint256"
        }
      ],
      "stateMutability": "view",
      "type": "function"
    },
    {
      "inputs": [],
      "name": "vrfKeyHash",
      "outputs": [
        {
          "internalType": "bytes32",
          "name": "",
          "type": "bytes32"
        }
      ],
      "stateMutability": "view",
      "type": "function"
    },
    {
      "inputs": [
        {
          "internalType": "uint256",
          "name": "",
          "type": "uint256"
        }
      ],
      "name": "winners",
      "outputs": [
        {
          "internalType": "uint256",
          "name": "tokenId",
          "type": "uint256"
        }
      ],
      "stateMutability": "view",
      "type": "function"
    },
    {
      "inputs": [
        {
          "internalType": "uint256",
          "name": "",
          "type": "uint256"
        }
      ],
      "name": "winnersTokenId",
      "outputs": [
        {
          "internalType": "bool",
          "name": "",
          "type": "bool"
        }
      ],
      "stateMutability": "view",
      "type": "function"
    }
  ],
  "bytecode": "0x6101a06040523480156200001257600080fd5b506040516200879138038062008791833981810160405281019062000038919062000b55565b806000015181602001518173ffffffffffffffffffffffffffffffffffffffff1660a08173ffffffffffffffffffffffffffffffffffffffff16815250508073ffffffffffffffffffffffffffffffffffffffff1660808173ffffffffffffffffffffffffffffffffffffffff16815250505050600060405180604001604052806040518060400160405280603c8960400151620000d7919062000cd8565b81526020016040518060400160405280600681526020017f4576656e74310000000000000000000000000000000000000000000000000000815250815250815260200160405180604001604052806078896040015162000138919062000cd8565b81526020016040518060400160405280600681526020017f4576656e74320000000000000000000000000000000000000000000000000000815250815250815250905042856000015111620001c4576040517f08c379a0000000000000000000000000000000000000000000000000000000008152600401620001bb9062000dbc565b60405180910390fd5b846000015185602001511162000211576040517f08c379a0000000000000000000000000000000000000000000000000000000008152600401620002089062000e54565b60405180910390fd5b84602001518560400151116200025e576040517f08c379a0000000000000000000000000000000000000000000000000000000008152600401620002559062000eec565b60405180910390fd5b6000600211620002a5576040517f08c379a00000000000000000000000000000000000000000000000000000000081526004016200029c9062000f5e565b60405180910390fd5b846040015181600060028110620002c157620002c062000f80565b5b60200201516000015110156200030e576040517f08c379a0000000000000000000000000000000000000000000000000000000008152600401620003059062000fff565b60405180910390fd5b60005b60028110156200043057600082826002811062000333576200033262000f80565b5b602002015160200151511162000380576040517f08c379a0000000000000000000000000000000000000000000000000000000008152600401620003779062001071565b60405180910390fd5b60008111156200041a57816001826200039a919062001093565b60028110620003ae57620003ad62000f80565b5b602002015160000151828260028110620003cd57620003cc62000f80565b5b6020020151600001511162000419576040517f08c379a0000000000000000000000000000000000000000000000000000000008152600401620004109062001144565b60405180910390fd5b5b8080620004279062001166565b91505062000311565b5060005b6002811015620004c557600482826002811062000456576200045562000f80565b5b60200201519080600181540180825580915050600190039060005260206000209060020201600090919091909150600082015181600001556020820151816001019080519060200190620004ac9291906200065e565b5050508080620004bc9062001166565b91505062000434565b5060018410156200050d576040517f08c379a000000000000000000000000000000000000000000000000000000000815260040162000504906200122a565b60405180910390fd5b308989896040516200051f90620006ef565b6200052e949392919062001303565b604051809103906000f0801580156200054b573d6000803e3d6000fd5b5073ffffffffffffffffffffffffffffffffffffffff166101008173ffffffffffffffffffffffffffffffffffffffff16815250508a60ff1660c08160ff16815250508961012081815250508573ffffffffffffffffffffffffffffffffffffffff1660e08173ffffffffffffffffffffffffffffffffffffffff168152505084600160008201518160000155602082015181600101556040820151816002015590505083600a819055508273ffffffffffffffffffffffffffffffffffffffff166101408173ffffffffffffffffffffffffffffffffffffffff1681525050600260058190555081604001516101608181525050816060015161018081815250505050505050505050505050620013ca565b8280546200066c9062001394565b90600052602060002090601f016020900481019282620006905760008555620006dc565b82601f10620006ab57805160ff1916838001178555620006dc565b82800160010185558215620006dc579182015b82811115620006db578251825591602001919060010190620006be565b5b509050620006eb9190620006fd565b5090565b6143d180620043c083390190565b5b8082111562000718576000816000905550600101620006fe565b5090565b6000604051905090565b600080fd5b600080fd5b600060ff82169050919050565b620007488162000730565b81146200075457600080fd5b50565b60008151905062000768816200073d565b92915050565b6000819050919050565b62000783816200076e565b81146200078f57600080fd5b50565b600081519050620007a38162000778565b92915050565b600080fd5b600080fd5b6000601f19601f8301169050919050565b7f4e487b7100000000000000000000000000000000000000000000000000000000600052604160045260246000fd5b620007fe82620007b3565b810181811067ffffffffffffffff8211171562000820576200081f620007c4565b5b80604052505050565b6000620008356200071c565b9050620008438282620007f3565b919050565b600067ffffffffffffffff821115620008665762000865620007c4565b5b6200087182620007b3565b9050602081019050919050565b60005b838110156200089e57808201518184015260208101905062000881565b83811115620008ae576000848401525b50505050565b6000620008cb620008c58462000848565b62000829565b905082815260208101848484011115620008ea57620008e9620007ae565b5b620008f78482856200087e565b509392505050565b600082601f830112620009175762000916620007a9565b5b815162000929848260208601620008b4565b91505092915050565b600073ffffffffffffffffffffffffffffffffffffffff82169050919050565b60006200095f8262000932565b9050919050565b620009718162000952565b81146200097d57600080fd5b50565b600081519050620009918162000966565b92915050565b600080fd5b600060608284031215620009b557620009b462000997565b5b620009c1606062000829565b90506000620009d38482850162000792565b6000830152506020620009e98482850162000792565b6020830152506040620009ff8482850162000792565b60408301525092915050565b600062000a188262000932565b9050919050565b600062000a2c8262000a0b565b9050919050565b62000a3e8162000a1f565b811462000a4a57600080fd5b50565b60008151905062000a5e8162000a33565b92915050565b62000a6f8162000a0b565b811462000a7b57600080fd5b50565b60008151905062000a8f8162000a64565b92915050565b6000819050919050565b62000aaa8162000a95565b811462000ab657600080fd5b50565b60008151905062000aca8162000a9f565b92915050565b60006080828403121562000ae95762000ae862000997565b5b62000af5608062000829565b9050600062000b078482850162000a7e565b600083015250602062000b1d8482850162000a7e565b602083015250604062000b338482850162000ab9565b604083015250606062000b498482850162000792565b60608301525092915050565b6000806000806000806000806000806101e08b8d03121562000b7c5762000b7b62000726565b5b600062000b8c8d828e0162000757565b9a5050602062000b9f8d828e0162000792565b99505060408b015167ffffffffffffffff81111562000bc35762000bc26200072b565b5b62000bd18d828e01620008ff565b98505060608b015167ffffffffffffffff81111562000bf55762000bf46200072b565b5b62000c038d828e01620008ff565b97505060808b015167ffffffffffffffff81111562000c275762000c266200072b565b5b62000c358d828e01620008ff565b96505060a062000c488d828e0162000980565b95505060c062000c5b8d828e016200099c565b94505061012062000c6f8d828e0162000792565b93505061014062000c838d828e0162000a4d565b92505061016062000c978d828e0162000ad0565b9150509295989b9194979a5092959850565b7f4e487b7100000000000000000000000000000000000000000000000000000000600052601160045260246000fd5b600062000ce5826200076e565b915062000cf2836200076e565b9250827fffffffffffffffffffffffffffffffffffffffffffffffffffffffffffffffff0382111562000d2a5762000d2962000ca9565b5b828201905092915050565b600082825260208201905092915050565b7f496e76616c69642074696d657374616d703a20626567696e6e696e674f66506160008201527f7274696369706174696f6e506572696f64000000000000000000000000000000602082015250565b600062000da460318362000d35565b915062000db18262000d46565b604082019050919050565b6000602082019050818103600083015262000dd78162000d95565b9050919050565b7f496e76616c69642074696d657374616d703a20656e644f66506172746963697060008201527f6174696f6e506572696f64000000000000000000000000000000000000000000602082015250565b600062000e3c602b8362000d35565b915062000e498262000dde565b604082019050919050565b6000602082019050818103600083015262000e6f8162000e2d565b9050919050565b7f496e76616c69642074696d657374616d703a20656e644f66507265706172617460008201527f696f6e506572696f640000000000000000000000000000000000000000000000602082015250565b600062000ed460298362000d35565b915062000ee18262000e76565b604082019050919050565b6000602082019050818103600083015262000f078162000ec5565b9050919050565b7f4e6f206576656e74732073706563696669656400000000000000000000000000600082015250565b600062000f4660138362000d35565b915062000f538262000f0e565b602082019050919050565b6000602082019050818103600083015262000f798162000f37565b9050919050565b7f4e487b7100000000000000000000000000000000000000000000000000000000600052603260045260246000fd5b7f496e76616c69642074696d657374616d703a204669727374206576656e740000600082015250565b600062000fe7601e8362000d35565b915062000ff48262000faf565b602082019050919050565b600060208201905081810360008301526200101a8162000fd8565b9050919050565b7f4576656e7420686173206e6f206465736372697074696f6e0000000000000000600082015250565b60006200105960188362000d35565b9150620010668262001021565b602082019050919050565b600060208201905081810360008301526200108c816200104a565b9050919050565b6000620010a0826200076e565b9150620010ad836200076e565b925082821015620010c357620010c262000ca9565b5b828203905092915050565b7f4576656e74732074696d657374616d7073206e6f7420696e20617363656e646960008201527f6e67206f72646572000000000000000000000000000000000000000000000000602082015250565b60006200112c60288362000d35565b91506200113982620010ce565b604082019050919050565b600060208201905081810360008301526200115f816200111d565b9050919050565b600062001173826200076e565b91507fffffffffffffffffffffffffffffffffffffffffffffffffffffffffffffffff821415620011a957620011a862000ca9565b5b600182019050919050565b7f546865206e756d626572206f662077696e6e657273206d75737420626520657160008201527f75616c20746f206f722067726561746572207468616e20310000000000000000602082015250565b60006200121260388362000d35565b91506200121f82620011b4565b604082019050919050565b60006020820190508181036000830152620012458162001203565b9050919050565b6000819050919050565b600062001277620012716200126b8462000932565b6200124c565b62000932565b9050919050565b60006200128b8262001256565b9050919050565b60006200129f826200127e565b9050919050565b620012b18162001292565b82525050565b600081519050919050565b6000620012cf82620012b7565b620012db818562000d35565b9350620012ed8185602086016200087e565b620012f881620007b3565b840191505092915050565b60006080820190506200131a6000830187620012a6565b81810360208301526200132e8186620012c2565b90508181036040830152620013448185620012c2565b905081810360608301526200135a8184620012c2565b905095945050505050565b7f4e487b7100000000000000000000000000000000000000000000000000000000600052602260045260246000fd5b60006002820490506001821680620013ad57607f821691505b60208210811415620013c457620013c362001365565b5b50919050565b60805160a05160c05160e0516101005161012051610140516101605161018051612f316200148f6000396000818161063b01528181610d740152610e7e01526000818161055b0152610d53015260008181610720015281816107d401526109750152600081816108c70152610e54015260008181610a5801526112e3015260008181610b4e0152611bc701526000818161065f0152818161087201526108ea015260008181610f7f015261135f015260008181610ead01526113230152612f316000f3fe6080604052600436106101405760003560e01c806371c13c6d116100b6578063bd2d5a1e1161006f578063bd2d5a1e14610434578063cde8e5d314610472578063ce2cf5d91461049d578063d84e29ea146104b4578063ed66835b146104f1578063fc0c546a1461052e57610140565b806371c13c6d1461032057806377f1b4cc1461034b57806394985ddd14610376578063a2fb11751461039f578063a4caeb42146103dc578063b2fa1c9e1461040957610140565b80633502791811610108578063350279181461022f57806335c1d3491461025a578063461a758c1461029757806368bac018146102c25780636b48e2db146102de5780636ee914ef1461030957610140565b8063041d443e146101455780630b791430146101705780631017507d146101ae578063115e4380146101d95780631865c57d14610204575b600080fd5b34801561015157600080fd5b5061015a610559565b6040516101679190611d01565b60405180910390f35b34801561017c57600080fd5b5061019760048036038101906101929190611d61565b61057d565b6040516101a5929190611e36565b60405180910390f35b3480156101ba57600080fd5b506101c3610639565b6040516101d09190611e66565b60405180910390f35b3480156101e557600080fd5b506101ee61065d565b6040516101fb9190611e9d565b60405180910390f35b34801561021057600080fd5b50610219610681565b6040516102269190611f2f565b60405180910390f35b34801561023b57600080fd5b5061024461071b565b6040516102519190611e66565b60405180910390f35b34801561026657600080fd5b50610281600480360381019061027c9190611d61565b610949565b60405161028e9190611e66565b60405180910390f35b3480156102a357600080fd5b506102ac610973565b6040516102b99190611fc9565b60405180910390f35b6102dc60048036038101906102d79190612118565b610997565b005b3480156102ea57600080fd5b506102f3610b4c565b6040516103009190612166565b60405180910390f35b34801561031557600080fd5b5061031e610b70565b005b34801561032c57600080fd5b50610335610e52565b6040516103429190611e66565b60405180910390f35b34801561035757600080fd5b50610360610e76565b60405161036d9190611e66565b60405180910390f35b34801561038257600080fd5b5061039d600480360381019061039891906121ad565b610f7d565b005b3480156103ab57600080fd5b506103c660048036038101906103c19190611d61565b611019565b6040516103d39190611e66565b60405180910390f35b3480156103e857600080fd5b506103f1611043565b604051610400939291906121ed565b60405180910390f35b34801561041557600080fd5b5061041e61105b565b60405161042b919061223f565b60405180910390f35b34801561044057600080fd5b5061045b60048036038101906104569190611d61565b611090565b60405161046992919061225a565b60405180910390f35b34801561047e57600080fd5b506104876110c4565b6040516104949190611e66565b60405180910390f35b3480156104a957600080fd5b506104b26110ca565b005b3480156104c057600080fd5b506104db60048036038101906104d69190611d61565b611297565b6040516104e8919061223f565b60405180910390f35b3480156104fd57600080fd5b5061051860048036038101906105139190611d61565b6112c1565b604051610525919061223f565b60405180910390f35b34801561053a57600080fd5b506105436112e1565b60405161055091906122a4565b60405180910390f35b7f000000000000000000000000000000000000000000000000000000000000000081565b6004818154811061058d57600080fd5b90600052602060002090600202016000915090508060000154908060010180546105b6906122ee565b80601f01602080910402602001604051908101604052809291908181526020018280546105e2906122ee565b801561062f5780601f106106045761010080835404028352916020019161062f565b820191906000526020600020905b81548152906001019060200180831161061257829003601f168201915b5050505050905082565b7f000000000000000000000000000000000000000000000000000000000000000081565b7f000000000000000000000000000000000000000000000000000000000000000081565b60008061068c610e76565b111561069b5760009050610718565b6001600001544210156106b15760019050610718565b60018001544210156106c65760029050610718565b6001600201544210156106dc5760039050610718565b60006006805490501180156106f357506000600554115b156107015760049050610718565b60004711156107135760059050610718565b600690505b90565b6000807f000000000000000000000000000000000000000000000000000000000000000073ffffffffffffffffffffffffffffffffffffffff16638e15f4736040518163ffffffff1660e01b815260040160206040518083038186803b15801561078457600080fd5b505afa158015610798573d6000803e3d6000fd5b505050506040513d601f19601f820116820180604052508101906107bc9190612356565b9050600081136107d0576000915050610946565b60007f000000000000000000000000000000000000000000000000000000000000000073ffffffffffffffffffffffffffffffffffffffff1663313ce5676040518163ffffffff1660e01b815260040160206040518083038186803b15801561083857600080fd5b505afa15801561084c573d6000803e3d6000fd5b505050506040513d601f19601f8201168201806040525081019061087091906123af565b7f000000000000000000000000000000000000000000000000000000000000000061089b919061240b565b600a6108a79190612572565b826108b291906125bd565b905060006002600a6108c49190612617565b827f000000000000000000000000000000000000000000000000000000000000000060027f00000000000000000000000000000000000000000000000000000000000000006109139190612662565b600a61091f9190612572565b61092991906125bd565b61093391906126cc565b61093d91906126cc565b90508093505050505b90565b6006818154811061095957600080fd5b906000526020600020016000915090508060000154905081565b7f000000000000000000000000000000000000000000000000000000000000000081565b600260068111156109ab576109aa611eb8565b5b6109b3610681565b60068111156109c5576109c4611eb8565b5b14610a05576040517f08c379a00000000000000000000000000000000000000000000000000000000081526004016109fc9061276f565b60405180910390fd5b6000610a0f61071b565b905080341015610a54576040517f08c379a0000000000000000000000000000000000000000000000000000000008152600401610a4b90612801565b60405180910390fd5b60007f000000000000000000000000000000000000000000000000000000000000000073ffffffffffffffffffffffffffffffffffffffff16635720a07c33856040518363ffffffff1660e01b8152600401610ab19291906128c2565b602060405180830381600087803b158015610acb57600080fd5b505af1158015610adf573d6000803e3d6000fd5b505050506040513d601f19601f82011682018060405250810190610b039190612900565b9050600660405180602001604052808381525090806001815401808255809150506001900390600052602060002001600090919091909150600082015181600001555050505050565b7f000000000000000000000000000000000000000000000000000000000000000081565b60046006811115610b8457610b83611eb8565b5b610b8c610681565b6006811115610b9e57610b9d611eb8565b5b14610bde576040517f08c379a0000000000000000000000000000000000000000000000000000000008152600401610bd59061299f565b60405180910390fd5b6000610be8611305565b9050600060048281548110610c0057610bff6129bf565b5b906000526020600020906002020160405180604001604052908160008201548152602001600182018054610c33906122ee565b80601f0160208091040260200160405190810160405280929190818152602001828054610c5f906122ee565b8015610cac5780601f10610c8157610100808354040283529160200191610cac565b820191906000526020600020905b815481529060010190602001808311610c8f57829003601f168201915b50505050508152505090508060000151421015610cfe576040517f08c379a0000000000000000000000000000000000000000000000000000000008152600401610cf590612a60565b60405180910390fd5b600c60009054906101000a900460ff1615610d4e576040517f08c379a0000000000000000000000000000000000000000000000000000000008152600401610d4590612acc565b60405180910390fd5b610d987f00000000000000000000000000000000000000000000000000000000000000007f000000000000000000000000000000000000000000000000000000000000000061131f565b506001600c60006101000a81548160ff0219169083151502179055506000821415610e4e57600680549050600a541115610dd957600680549050600a819055505b600680549050600b8190555060096040518060400160405280600081526020016001600680549050610e0b9190612aec565b8152509080600181540180825580915050600190039060005260206000209060020201600090919091909150600082015181600001556020820151816001015550505b5050565b7f000000000000000000000000000000000000000000000000000000000000000081565b6000806005547f0000000000000000000000000000000000000000000000000000000000000000610ea791906125bd565b905060007f000000000000000000000000000000000000000000000000000000000000000073ffffffffffffffffffffffffffffffffffffffff166370a08231306040518263ffffffff1660e01b8152600401610f049190612b20565b60206040518083038186803b158015610f1c57600080fd5b505afa158015610f30573d6000803e3d6000fd5b505050506040513d601f19601f82011682018060405250810190610f549190612900565b905081811015610f73578082610f6a9190612aec565b92505050610f7a565b6000925050505b90565b7f000000000000000000000000000000000000000000000000000000000000000073ffffffffffffffffffffffffffffffffffffffff163373ffffffffffffffffffffffffffffffffffffffff161461100b576040517f08c379a000000000000000000000000000000000000000000000000000000000815260040161100290612b87565b60405180910390fd5b611015828261147e565b5050565b6007818154811061102957600080fd5b906000526020600020016000915090508060000154905081565b60018060000154908060010154908060020154905083565b60006006808111156110705761106f611eb8565b5b611078610681565b600681111561108a57611089611eb8565b5b14905090565b600981815481106110a057600080fd5b90600052602060002090600202016000915090508060000154908060010154905082565b600a5481565b600560068111156110de576110dd611eb8565b5b6110e6610681565b60068111156110f8576110f7611eb8565b5b14611138576040517f08c379a000000000000000000000000000000000000000000000000000000000815260040161112f90612c19565b60405180910390fd5b611140611bc5565b60005b6009805490508110801561115d5750600a54600780549050105b1561129457600060098281548110611178576111776129bf565b5b90600052602060002090600202016040518060400160405290816000820154815260200160018201548152505090506000816000015190505b816020015181111580156111cb5750600a54600780549050105b1561127f576000600682815481106111e6576111e56129bf565b5b906000526020600020016040518060200160405290816000820154815250509050600781908060018154018082558091505060019003906000526020600020016000909190919091506000820151816000015550506001600860008360000151815260200190815260200160002060006101000a81548160ff02191690831515021790555050808061127790612c39565b9150506111b1565b5050808061128c90612c39565b915050611143565b50565b60006008600083815260200190815260200160002060009054906101000a900460ff169050919050565b60086020528060005260406000206000915054906101000a900460ff1681565b7f000000000000000000000000000000000000000000000000000000000000000081565b600060055460048054905061131a9190612aec565b905090565b60007f000000000000000000000000000000000000000000000000000000000000000073ffffffffffffffffffffffffffffffffffffffff16634000aea07f000000000000000000000000000000000000000000000000000000000000000084866000604051602001611393929190612c82565b6040516020818303038152906040526040518463ffffffff1660e01b81526004016113c093929190612d00565b602060405180830381600087803b1580156113da57600080fd5b505af11580156113ee573d6000803e3d6000fd5b505050506040513d601f19601f820116820180604052508101906114129190612d6a565b5060006114348460003060008089815260200190815260200160002054611c2e565b90506001600080868152602001908152602001600020546114559190612d97565b600080868152602001908152602001600020819055506114758482611c6a565b91505092915050565b60006009805480602002602001604051908101604052809291908181526020016000905b828210156114e8578382906000526020600020906002020160405180604001604052908160008201548152602001600182015481525050815260200190600101906114a2565b505050509050600060099050600960006115029190611c9d565b6002600b600082825461151591906126cc565b92505081905550600a54600b54101561153257600a54600b819055505b6001825114156117e557600082600081518110611552576115516129bf565b5b602002602001015160000151600184600081518110611574576115736129bf565b5b60200260200101516000015185600081518110611594576115936129bf565b5b6020026020010151602001516115aa9190612aec565b6115b49190612d97565b856115bf9190612ded565b6115c99190612d97565b9050826000815181106115df576115de6129bf565b5b6020026020010151602001516001600b54836115fb9190612d97565b6116059190612aec565b1161167d578160405180604001604052808381526020016001600b548561162c9190612d97565b6116369190612aec565b8152509080600181540180825580915050600190039060005260206000209060020201600090919091909150600082015181600001556020820151816001015550506117df565b816040518060400160405280838152602001856000815181106116a3576116a26129bf565b5b60200260200101516020015181525090806001815401808255809150506001900390600052602060002090600202016000909190919091506000820151816000015560208201518160010155505081604051806040016040528085600081518110611711576117106129bf565b5b602002602001015160000151815260200160018487600081518110611739576117386129bf565b5b60200260200101516020015161174f9190612aec565b6117599190612d97565b6001600b546117689190612aec565b8760008151811061177c5761177b6129bf565b5b6020026020010151600001516117929190612d97565b61179c9190612aec565b8152509080600181540180825580915050600190039060005260206000209060020201600090919091909150600082015181600001556020820151816001015550505b50611b78565b60006002846117f49190612ded565b9050600083828151811061180b5761180a6129bf565b5b602002602001015160000151600185848151811061182c5761182b6129bf565b5b60200260200101516000015186858151811061184b5761184a6129bf565b5b6020026020010151602001516118619190612aec565b61186b9190612d97565b866118769190612ded565b6118809190612d97565b9050838281518110611895576118946129bf565b5b6020026020010151602001516001600b54836118b19190612d97565b6118bb9190612aec565b11611933578260405180604001604052808381526020016001600b54856118e29190612d97565b6118ec9190612aec565b815250908060018154018082558091505060019003906000526020600020906002020160009091909190915060008201518160000155602082015181600101555050611b75565b600060026001846119449190612d97565b61194e9190612ded565b90506000600183878681518110611968576119676129bf565b5b60200260200101516020015161197e9190612aec565b6119889190612d97565b9050600081600b5461199a9190612aec565b905060006001828986815181106119b4576119b36129bf565b5b6020026020010151600001516119ca9190612d97565b6119d49190612aec565b90506006805490508110611a135760006006805490506001836119f79190612d97565b611a019190612aec565b90508086611a0f9190612aec565b9550505b8660405180604001604052808781526020018a8981518110611a3857611a376129bf565b5b6020026020010151602001518152509080600181540180825580915050600190039060005260206000209060020201600090919091909150600082015181600001556020820151816001015550508660405180604001604052808a8781518110611aa557611aa46129bf565b5b60200260200101516000015181526020016001888c8b81518110611acc57611acb6129bf565b5b602002602001015160200151611ae29190612aec565b611aec9190612d97565b6001600b54611afb9190612aec565b8c8981518110611b0e57611b0d6129bf565b5b602002602001015160000151611b249190612d97565b611b2e9190612aec565b815250908060018154018082558091505060019003906000526020600020906002020160009091909190915060008201518160000155602082015181600101555050505050505b50505b6000600c60006101000a81548160ff02191690831515021790555060056000815480929190611ba690612e1e565b919050555060006005541415611bbf57611bbe6110ca565b5b50505050565b7f000000000000000000000000000000000000000000000000000000000000000073ffffffffffffffffffffffffffffffffffffffff166108fc479081150290604051600060405180830381858888f19350505050158015611c2b573d6000803e3d6000fd5b50565b600084848484604051602001611c479493929190612e48565b6040516020818303038152906040528051906020012060001c9050949350505050565b60008282604051602001611c7f929190612ecf565b60405160208183030381529060405280519060200120905092915050565b5080546000825560020290600052602060002090810190611cbe9190611cc1565b50565b5b80821115611ce457600080820160009055600182016000905550600201611cc2565b5090565b6000819050919050565b611cfb81611ce8565b82525050565b6000602082019050611d166000830184611cf2565b92915050565b6000604051905090565b600080fd5b6000819050919050565b611d3e81611d2b565b8114611d4957600080fd5b50565b600081359050611d5b81611d35565b92915050565b600060208284031215611d7757611d76611d26565b5b6000611d8584828501611d4c565b91505092915050565b611d9781611d2b565b82525050565b600081519050919050565b600082825260208201905092915050565b60005b83811015611dd7578082015181840152602081019050611dbc565b83811115611de6576000848401525b50505050565b6000601f19601f8301169050919050565b6000611e0882611d9d565b611e128185611da8565b9350611e22818560208601611db9565b611e2b81611dec565b840191505092915050565b6000604082019050611e4b6000830185611d8e565b8181036020830152611e5d8184611dfd565b90509392505050565b6000602082019050611e7b6000830184611d8e565b92915050565b600060ff82169050919050565b611e9781611e81565b82525050565b6000602082019050611eb26000830184611e8e565b92915050565b7f4e487b7100000000000000000000000000000000000000000000000000000000600052602160045260246000fd5b60078110611ef857611ef7611eb8565b5b50565b6000819050611f0982611ee7565b919050565b6000611f1982611efb565b9050919050565b611f2981611f0e565b82525050565b6000602082019050611f446000830184611f20565b92915050565b600073ffffffffffffffffffffffffffffffffffffffff82169050919050565b6000819050919050565b6000611f8f611f8a611f8584611f4a565b611f6a565b611f4a565b9050919050565b6000611fa182611f74565b9050919050565b6000611fb382611f96565b9050919050565b611fc381611fa8565b82525050565b6000602082019050611fde6000830184611fba565b92915050565b600080fd5b7f4e487b7100000000000000000000000000000000000000000000000000000000600052604160045260246000fd5b61202182611dec565b810181811067ffffffffffffffff821117156120405761203f611fe9565b5b80604052505050565b6000612053611d1c565b905061205f8282612018565b919050565b60006080828403121561207a57612079611fe4565b5b6120846080612049565b9050600061209484828501611d4c565b60008301525060206120a884828501611d4c565b60208301525060406120bc84828501611d4c565b60408301525060606120d084828501611d4c565b60608301525092915050565b6000608082840312156120f2576120f1611fe4565b5b6120fc6020612049565b9050600061210c84828501612064565b60008301525092915050565b60006080828403121561212e5761212d611d26565b5b600061213c848285016120dc565b91505092915050565b600061215082611f4a565b9050919050565b61216081612145565b82525050565b600060208201905061217b6000830184612157565b92915050565b61218a81611ce8565b811461219557600080fd5b50565b6000813590506121a781612181565b92915050565b600080604083850312156121c4576121c3611d26565b5b60006121d285828601612198565b92505060206121e385828601611d4c565b9150509250929050565b60006060820190506122026000830186611d8e565b61220f6020830185611d8e565b61221c6040830184611d8e565b949350505050565b60008115159050919050565b61223981612224565b82525050565b60006020820190506122546000830184612230565b92915050565b600060408201905061226f6000830185611d8e565b61227c6020830184611d8e565b9392505050565b600061228e82611f96565b9050919050565b61229e81612283565b82525050565b60006020820190506122b96000830184612295565b92915050565b7f4e487b7100000000000000000000000000000000000000000000000000000000600052602260045260246000fd5b6000600282049050600182168061230657607f821691505b6020821081141561231a576123196122bf565b5b50919050565b6000819050919050565b61233381612320565b811461233e57600080fd5b50565b6000815190506123508161232a565b92915050565b60006020828403121561236c5761236b611d26565b5b600061237a84828501612341565b91505092915050565b61238c81611e81565b811461239757600080fd5b50565b6000815190506123a981612383565b92915050565b6000602082840312156123c5576123c4611d26565b5b60006123d38482850161239a565b91505092915050565b7f4e487b7100000000000000000000000000000000000000000000000000000000600052601160045260246000fd5b600061241682611e81565b915061242183611e81565b925082821015612434576124336123dc565b5b828203905092915050565b60008160011c9050919050565b6000808291508390505b600185111561249657808604811115612472576124716123dc565b5b60018516156124815780820291505b808102905061248f8561243f565b9450612456565b94509492505050565b6000826124af576001905061256b565b816124bd576000905061256b565b81600181146124d357600281146124dd5761250c565b600191505061256b565b60ff8411156124ef576124ee6123dc565b5b8360020a915084821115612506576125056123dc565b5b5061256b565b5060208310610133831016604e8410600b84101617156125415782820a90508381111561253c5761253b6123dc565b5b61256b565b61254e848484600161244c565b92509050818404811115612565576125646123dc565b5b81810290505b9392505050565b600061257d82611d2b565b915061258883611e81565b92506125b57fffffffffffffffffffffffffffffffffffffffffffffffffffffffffffffffff848461249f565b905092915050565b60006125c882611d2b565b91506125d383611d2b565b9250817fffffffffffffffffffffffffffffffffffffffffffffffffffffffffffffffff048311821515161561260c5761260b6123dc565b5b828202905092915050565b600061262282611d2b565b915061262d83611d2b565b925061265a7fffffffffffffffffffffffffffffffffffffffffffffffffffffffffffffffff848461249f565b905092915050565b600061266d82611e81565b915061267883611e81565b92508160ff0483118215151615612692576126916123dc565b5b828202905092915050565b7f4e487b7100000000000000000000000000000000000000000000000000000000600052601260045260246000fd5b60006126d782611d2b565b91506126e283611d2b565b9250826126f2576126f161269d565b5b828204905092915050565b7f4e6f742063757272656e746c7920616363657074696e6720706172746963697060008201527f616e747300000000000000000000000000000000000000000000000000000000602082015250565b6000612759602483611da8565b9150612764826126fd565b604082019050919050565b600060208201905081810360008301526127888161274c565b9050919050565b7f4e6f7420656e6f7567682066756e647320746f2070617274696369706174652e60008201527f20536565206765745072696365546f5061727469636970617465282900000000602082015250565b60006127eb603c83611da8565b91506127f68261278f565b604082019050919050565b6000602082019050818103600083015261281a816127de565b9050919050565b600061282c82611f4a565b9050919050565b61283c81612821565b82525050565b61284b81611d2b565b82525050565b6080820160008201516128676000850182612842565b50602082015161287a6020850182612842565b50604082015161288d6040850182612842565b5060608201516128a06060850182612842565b50505050565b6080820160008201516128bc6000850182612851565b50505050565b600060a0820190506128d76000830185612833565b6128e460208301846128a6565b9392505050565b6000815190506128fa81611d35565b92915050565b60006020828403121561291657612915611d26565b5b6000612924848285016128eb565b91505092915050565b7f4e6f742063757272656e746c792077616974696e6720666f7220746865206e6560008201527f7874206576656e74000000000000000000000000000000000000000000000000602082015250565b6000612989602883611da8565b91506129948261292d565b604082019050919050565b600060208201905081810360008301526129b88161297c565b9050919050565b7f4e487b7100000000000000000000000000000000000000000000000000000000600052603260045260246000fd5b7f546f6f206561726c7920746f207472696767657220746865206e65787420657660008201527f656e740000000000000000000000000000000000000000000000000000000000602082015250565b6000612a4a602383611da8565b9150612a55826129ee565b604082019050919050565b60006020820190508181036000830152612a7981612a3d565b9050919050565b7f416c72656164792072657175657374696e672072616e646f6d6e657373000000600082015250565b6000612ab6601d83611da8565b9150612ac182612a80565b602082019050919050565b60006020820190508181036000830152612ae581612aa9565b9050919050565b6000612af782611d2b565b9150612b0283611d2b565b925082821015612b1557612b146123dc565b5b828203905092915050565b6000602082019050612b356000830184612833565b92915050565b7f4f6e6c7920565246436f6f7264696e61746f722063616e2066756c66696c6c00600082015250565b6000612b71601f83611da8565b9150612b7c82612b3b565b602082019050919050565b60006020820190508181036000830152612ba081612b64565b9050919050565b7f4e6f742063757272656e746c792077616974696e6720666f722066756e64732060008201527f72656c6561736500000000000000000000000000000000000000000000000000602082015250565b6000612c03602783611da8565b9150612c0e82612ba7565b604082019050919050565b60006020820190508181036000830152612c3281612bf6565b9050919050565b6000612c4482611d2b565b91507fffffffffffffffffffffffffffffffffffffffffffffffffffffffffffffffff821415612c7757612c766123dc565b5b600182019050919050565b6000604082019050612c976000830185611cf2565b612ca46020830184611d8e565b9392505050565b600081519050919050565b600082825260208201905092915050565b6000612cd282612cab565b612cdc8185612cb6565b9350612cec818560208601611db9565b612cf581611dec565b840191505092915050565b6000606082019050612d156000830186612833565b612d226020830185611d8e565b8181036040830152612d348184612cc7565b9050949350505050565b612d4781612224565b8114612d5257600080fd5b50565b600081519050612d6481612d3e565b92915050565b600060208284031215612d8057612d7f611d26565b5b6000612d8e84828501612d55565b91505092915050565b6000612da282611d2b565b9150612dad83611d2b565b9250827fffffffffffffffffffffffffffffffffffffffffffffffffffffffffffffffff03821115612de257612de16123dc565b5b828201905092915050565b6000612df882611d2b565b9150612e0383611d2b565b925082612e1357612e1261269d565b5b828206905092915050565b6000612e2982611d2b565b91506000821415612e3d57612e3c6123dc565b5b600182039050919050565b6000608082019050612e5d6000830187611cf2565b612e6a6020830186611d8e565b612e776040830185612833565b612e846060830184611d8e565b95945050505050565b6000819050919050565b612ea8612ea382611ce8565b612e8d565b82525050565b6000819050919050565b612ec9612ec482611d2b565b612eae565b82525050565b6000612edb8285612e97565b602082019150612eeb8284612eb8565b602082019150819050939250505056fea2646970667358221220a980e81c504a6c7c0fccae33b1bf7116580792e6394c5dc248e970dcf22a8bb764736f6c6343000809003360806040523480156200001157600080fd5b50604051620043d1380380620043d18339818101604052810190620000379190620004cc565b828281600090805190602001906200005192919062000206565b5080600190805190602001906200006a92919062000206565b5050506200008d620000816200013860201b60201c565b6200014060201b60201c565b6000815111620000d4576040517f08c379a0000000000000000000000000000000000000000000000000000000008152600401620000cb90620005fc565b60405180910390fd5b80600b9080519060200190620000ec92919062000206565b5083600c60006101000a81548173ffffffffffffffffffffffffffffffffffffffff021916908373ffffffffffffffffffffffffffffffffffffffff1602179055505050505062000683565b600033905090565b6000600a60009054906101000a900473ffffffffffffffffffffffffffffffffffffffff16905081600a60006101000a81548173ffffffffffffffffffffffffffffffffffffffff021916908373ffffffffffffffffffffffffffffffffffffffff1602179055508173ffffffffffffffffffffffffffffffffffffffff168173ffffffffffffffffffffffffffffffffffffffff167f8be0079c531659141344cd1fd0a4f28419497f9722a3daafe3b4186f6b6457e060405160405180910390a35050565b82805462000214906200064d565b90600052602060002090601f01602090048101928262000238576000855562000284565b82601f106200025357805160ff191683800117855562000284565b8280016001018555821562000284579182015b828111156200028357825182559160200191906001019062000266565b5b50905062000293919062000297565b5090565b5b80821115620002b257600081600090555060010162000298565b5090565b6000604051905090565b600080fd5b600080fd5b600073ffffffffffffffffffffffffffffffffffffffff82169050919050565b6000620002f782620002ca565b9050919050565b60006200030b82620002ea565b9050919050565b6200031d81620002fe565b81146200032957600080fd5b50565b6000815190506200033d8162000312565b92915050565b600080fd5b600080fd5b6000601f19601f8301169050919050565b7f4e487b7100000000000000000000000000000000000000000000000000000000600052604160045260246000fd5b62000398826200034d565b810181811067ffffffffffffffff82111715620003ba57620003b96200035e565b5b80604052505050565b6000620003cf620002b6565b9050620003dd82826200038d565b919050565b600067ffffffffffffffff8211156200040057620003ff6200035e565b5b6200040b826200034d565b9050602081019050919050565b60005b83811015620004385780820151818401526020810190506200041b565b8381111562000448576000848401525b50505050565b6000620004656200045f84620003e2565b620003c3565b90508281526020810184848401111562000484576200048362000348565b5b6200049184828562000418565b509392505050565b600082601f830112620004b157620004b062000343565b5b8151620004c38482602086016200044e565b91505092915050565b60008060008060808587031215620004e957620004e8620002c0565b5b6000620004f9878288016200032c565b945050602085015167ffffffffffffffff8111156200051d576200051c620002c5565b5b6200052b8782880162000499565b935050604085015167ffffffffffffffff8111156200054f576200054e620002c5565b5b6200055d8782880162000499565b925050606085015167ffffffffffffffff811115620005815762000580620002c5565b5b6200058f8782880162000499565b91505092959194509250565b600082825260208201905092915050565b7f4e6f204349442070726f76696465640000000000000000000000000000000000600082015250565b6000620005e4600f836200059b565b9150620005f182620005ac565b602082019050919050565b600060208201905081810360008301526200061781620005d5565b9050919050565b7f4e487b7100000000000000000000000000000000000000000000000000000000600052602260045260246000fd5b600060028204905060018216806200066657607f821691505b602082108114156200067d576200067c6200061e565b5b50919050565b613d3e80620006936000396000f3fe608060405234801561001057600080fd5b50600436106101585760003560e01c806370a08231116100c3578063ba13a5721161007c578063ba13a572146103eb578063c098004c14610409578063c87b56dd14610427578063e8a3d48514610457578063e985e9c514610475578063f2fde38b146104a557610158565b806370a082311461033d578063715018a61461036d5780638da5cb5b1461037757806395d89b4114610395578063a22cb465146103b3578063b88d4fde146103cf57610158565b80632f745c59116101155780632f745c59146102315780634025b22d1461026157806342842e0e146102915780634f6ccce7146102ad5780635720a07c146102dd5780636352211e1461030d57610158565b806301ffc9a71461015d57806306fdde031461018d578063081812fc146101ab578063095ea7b3146101db57806318160ddd146101f757806323b872dd14610215575b600080fd5b61017760048036038101906101729190612563565b6104c1565b60405161018491906125ab565b60405180910390f35b61019561053b565b6040516101a2919061265f565b60405180910390f35b6101c560048036038101906101c091906126b7565b6105cd565b6040516101d29190612725565b60405180910390f35b6101f560048036038101906101f0919061276c565b610652565b005b6101ff61076a565b60405161020c91906127bb565b60405180910390f35b61022f600480360381019061022a91906127d6565b610777565b005b61024b6004803603810190610246919061276c565b6107d7565b60405161025891906127bb565b60405180910390f35b61027b600480360381019061027691906126b7565b61087c565b60405161028891906128a9565b60405180910390f35b6102ab60048036038101906102a691906127d6565b6108e5565b005b6102c760048036038101906102c291906126b7565b610905565b6040516102d491906127bb565b60405180910390f35b6102f760048036038101906102f291906129f8565b610976565b60405161030491906127bb565b60405180910390f35b610327600480360381019061032291906126b7565b610a6a565b6040516103349190612725565b60405180910390f35b61035760048036038101906103529190612a38565b610b1c565b60405161036491906127bb565b60405180910390f35b610375610bd4565b005b61037f610c5c565b60405161038c9190612725565b60405180910390f35b61039d610c86565b6040516103aa919061265f565b60405180910390f35b6103cd60048036038101906103c89190612a91565b610d18565b005b6103e960048036038101906103e49190612b8b565b610d2e565b005b6103f3610d90565b6040516104009190612c6d565b60405180910390f35b610411610db6565b60405161041e919061265f565b60405180910390f35b610441600480360381019061043c91906126b7565b610e44565b60405161044e919061265f565b60405180910390f35b61045f6110bc565b60405161046c919061265f565b60405180910390f35b61048f600480360381019061048a9190612c88565b6110e4565b60405161049c91906125ab565b60405180910390f35b6104bf60048036038101906104ba9190612a38565b611178565b005b60007f780e9d63000000000000000000000000000000000000000000000000000000007bffffffffffffffffffffffffffffffffffffffffffffffffffffffff1916827bffffffffffffffffffffffffffffffffffffffffffffffffffffffff19161480610534575061053382611270565b5b9050919050565b60606000805461054a90612cf7565b80601f016020809104026020016040519081016040528092919081815260200182805461057690612cf7565b80156105c35780601f10610598576101008083540402835291602001916105c3565b820191906000526020600020905b8154815290600101906020018083116105a657829003601f168201915b5050505050905090565b60006105d882611352565b610617576040517f08c379a000000000000000000000000000000000000000000000000000000000815260040161060e90612d9b565b60405180910390fd5b6004600083815260200190815260200160002060009054906101000a900473ffffffffffffffffffffffffffffffffffffffff169050919050565b600061065d82610a6a565b90508073ffffffffffffffffffffffffffffffffffffffff168373ffffffffffffffffffffffffffffffffffffffff1614156106ce576040517f08c379a00000000000000000000000000000000000000000000000000000000081526004016106c590612e2d565b60405180910390fd5b8073ffffffffffffffffffffffffffffffffffffffff166106ed6113be565b73ffffffffffffffffffffffffffffffffffffffff16148061071c575061071b816107166113be565b6110e4565b5b61075b576040517f08c379a000000000000000000000000000000000000000000000000000000000815260040161075290612ebf565b60405180910390fd5b61076583836113c6565b505050565b6000600880549050905090565b6107886107826113be565b8261147f565b6107c7576040517f08c379a00000000000000000000000000000000000000000000000000000000081526004016107be90612f51565b60405180910390fd5b6107d283838361155d565b505050565b60006107e283610b1c565b8210610823576040517f08c379a000000000000000000000000000000000000000000000000000000000815260040161081a90612fe3565b60405180910390fd5b600660008473ffffffffffffffffffffffffffffffffffffffff1673ffffffffffffffffffffffffffffffffffffffff168152602001908152602001600020600083815260200190815260200160002054905092915050565b6108846124b6565b600e600083815260200190815260200160002060405180602001604052908160008201604051806080016040529081600082015481526020016001820154815260200160028201548152602001600382015481525050815250509050919050565b61090083838360405180602001604052806000815250610d2e565b505050565b600061090f61076a565b8210610950576040517f08c379a000000000000000000000000000000000000000000000000000000000815260040161094790613075565b60405180910390fd5b6008828154811061096457610963613095565b5b90600052602060002001549050919050565b60006109806113be565b73ffffffffffffffffffffffffffffffffffffffff1661099e610c5c565b73ffffffffffffffffffffffffffffffffffffffff16146109f4576040517f08c379a00000000000000000000000000000000000000000000000000000000081526004016109eb90613110565b60405180910390fd5b6000610a00600d6117b9565b9050610a0c84826117c7565b82600e6000838152602001908152602001600020600082015181600001600082015181600001556020820151816001015560408201518160020155606082015181600301555050905050610a60600d6117e5565b8091505092915050565b6000806002600084815260200190815260200160002060009054906101000a900473ffffffffffffffffffffffffffffffffffffffff169050600073ffffffffffffffffffffffffffffffffffffffff168173ffffffffffffffffffffffffffffffffffffffff161415610b13576040517f08c379a0000000000000000000000000000000000000000000000000000000008152600401610b0a906131a2565b60405180910390fd5b80915050919050565b60008073ffffffffffffffffffffffffffffffffffffffff168273ffffffffffffffffffffffffffffffffffffffff161415610b8d576040517f08c379a0000000000000000000000000000000000000000000000000000000008152600401610b8490613234565b60405180910390fd5b600360008373ffffffffffffffffffffffffffffffffffffffff1673ffffffffffffffffffffffffffffffffffffffff168152602001908152602001600020549050919050565b610bdc6113be565b73ffffffffffffffffffffffffffffffffffffffff16610bfa610c5c565b73ffffffffffffffffffffffffffffffffffffffff1614610c50576040517f08c379a0000000000000000000000000000000000000000000000000000000008152600401610c4790613110565b60405180910390fd5b610c5a60006117fb565b565b6000600a60009054906101000a900473ffffffffffffffffffffffffffffffffffffffff16905090565b606060018054610c9590612cf7565b80601f0160208091040260200160405190810160405280929190818152602001828054610cc190612cf7565b8015610d0e5780601f10610ce357610100808354040283529160200191610d0e565b820191906000526020600020905b815481529060010190602001808311610cf157829003601f168201915b5050505050905090565b610d2a610d236113be565b83836118c1565b5050565b610d3f610d396113be565b8361147f565b610d7e576040517f08c379a0000000000000000000000000000000000000000000000000000000008152600401610d7590612f51565b60405180910390fd5b610d8a84848484611a2e565b50505050565b600c60009054906101000a900473ffffffffffffffffffffffffffffffffffffffff1681565b600b8054610dc390612cf7565b80601f0160208091040260200160405190810160405280929190818152602001828054610def90612cf7565b8015610e3c5780601f10610e1157610100808354040283529160200191610e3c565b820191906000526020600020905b815481529060010190602001808311610e1f57829003601f168201915b505050505081565b6060610e4f82611352565b610e8e576040517f08c379a0000000000000000000000000000000000000000000000000000000008152600401610e85906132c6565b60405180910390fd5b6060600c60009054906101000a900473ffffffffffffffffffffffffffffffffffffffff1673ffffffffffffffffffffffffffffffffffffffff1663b2fa1c9e6040518163ffffffff1660e01b815260040160206040518083038186803b158015610ef857600080fd5b505afa158015610f0c573d6000803e3d6000fd5b505050506040513d601f19601f82011682018060405250810190610f3091906132fb565b8015610fe45750600c60009054906101000a900473ffffffffffffffffffffffffffffffffffffffff1673ffffffffffffffffffffffffffffffffffffffff1663d84e29ea846040518263ffffffff1660e01b8152600401610f9291906127bb565b60206040518083038186803b158015610faa57600080fd5b505afa158015610fbe573d6000803e3d6000fd5b505050506040513d601f19601f82011682018060405250810190610fe291906132fb565b155b15611026576040518060400160405280600981526020017f64657374726f79656400000000000000000000000000000000000000000000008152509050611091565b6000600e60008581526020019081526020016000206040518060200160405290816000820160405180608001604052908160008201548152602001600182015481526020016002820154815260200160038201548152505081525050905061108d81611a8a565b9150505b600b816040516020016110a59291906134dc565b604051602081830303815290604052915050919050565b6060600b6040516020016110d0919061356d565b604051602081830303815290604052905090565b6000600560008473ffffffffffffffffffffffffffffffffffffffff1673ffffffffffffffffffffffffffffffffffffffff16815260200190815260200160002060008373ffffffffffffffffffffffffffffffffffffffff1673ffffffffffffffffffffffffffffffffffffffff16815260200190815260200160002060009054906101000a900460ff16905092915050565b6111806113be565b73ffffffffffffffffffffffffffffffffffffffff1661119e610c5c565b73ffffffffffffffffffffffffffffffffffffffff16146111f4576040517f08c379a00000000000000000000000000000000000000000000000000000000081526004016111eb90613110565b60405180910390fd5b600073ffffffffffffffffffffffffffffffffffffffff168173ffffffffffffffffffffffffffffffffffffffff161415611264576040517f08c379a000000000000000000000000000000000000000000000000000000000815260040161125b9061360c565b60405180910390fd5b61126d816117fb565b50565b60007f80ac58cd000000000000000000000000000000000000000000000000000000007bffffffffffffffffffffffffffffffffffffffffffffffffffffffff1916827bffffffffffffffffffffffffffffffffffffffffffffffffffffffff1916148061133b57507f5b5e139f000000000000000000000000000000000000000000000000000000007bffffffffffffffffffffffffffffffffffffffffffffffffffffffff1916827bffffffffffffffffffffffffffffffffffffffffffffffffffffffff1916145b8061134b575061134a82611af9565b5b9050919050565b60008073ffffffffffffffffffffffffffffffffffffffff166002600084815260200190815260200160002060009054906101000a900473ffffffffffffffffffffffffffffffffffffffff1673ffffffffffffffffffffffffffffffffffffffff1614159050919050565b600033905090565b816004600083815260200190815260200160002060006101000a81548173ffffffffffffffffffffffffffffffffffffffff021916908373ffffffffffffffffffffffffffffffffffffffff160217905550808273ffffffffffffffffffffffffffffffffffffffff1661143983610a6a565b73ffffffffffffffffffffffffffffffffffffffff167f8c5be1e5ebec7d5bd14f71427d1e84f3dd0314c0f7b2291e5b200ac8c7c3b92560405160405180910390a45050565b600061148a82611352565b6114c9576040517f08c379a00000000000000000000000000000000000000000000000000000000081526004016114c09061369e565b60405180910390fd5b60006114d483610a6a565b90508073ffffffffffffffffffffffffffffffffffffffff168473ffffffffffffffffffffffffffffffffffffffff16148061154357508373ffffffffffffffffffffffffffffffffffffffff1661152b846105cd565b73ffffffffffffffffffffffffffffffffffffffff16145b80611554575061155381856110e4565b5b91505092915050565b8273ffffffffffffffffffffffffffffffffffffffff1661157d82610a6a565b73ffffffffffffffffffffffffffffffffffffffff16146115d3576040517f08c379a00000000000000000000000000000000000000000000000000000000081526004016115ca90613730565b60405180910390fd5b600073ffffffffffffffffffffffffffffffffffffffff168273ffffffffffffffffffffffffffffffffffffffff161415611643576040517f08c379a000000000000000000000000000000000000000000000000000000000815260040161163a906137c2565b60405180910390fd5b61164e838383611b63565b6116596000826113c6565b6001600360008573ffffffffffffffffffffffffffffffffffffffff1673ffffffffffffffffffffffffffffffffffffffff16815260200190815260200160002060008282546116a99190613811565b925050819055506001600360008473ffffffffffffffffffffffffffffffffffffffff1673ffffffffffffffffffffffffffffffffffffffff16815260200190815260200160002060008282546117009190613845565b92505081905550816002600083815260200190815260200160002060006101000a81548173ffffffffffffffffffffffffffffffffffffffff021916908373ffffffffffffffffffffffffffffffffffffffff160217905550808273ffffffffffffffffffffffffffffffffffffffff168473ffffffffffffffffffffffffffffffffffffffff167fddf252ad1be2c89b69c2b068fc378daa952ba7f163c4a11628f55a4df523b3ef60405160405180910390a4505050565b600081600001549050919050565b6117e1828260405180602001604052806000815250611c77565b5050565b6001816000016000828254019250508190555050565b6000600a60009054906101000a900473ffffffffffffffffffffffffffffffffffffffff16905081600a60006101000a81548173ffffffffffffffffffffffffffffffffffffffff021916908373ffffffffffffffffffffffffffffffffffffffff1602179055508173ffffffffffffffffffffffffffffffffffffffff168173ffffffffffffffffffffffffffffffffffffffff167f8be0079c531659141344cd1fd0a4f28419497f9722a3daafe3b4186f6b6457e060405160405180910390a35050565b8173ffffffffffffffffffffffffffffffffffffffff168373ffffffffffffffffffffffffffffffffffffffff161415611930576040517f08c379a0000000000000000000000000000000000000000000000000000000008152600401611927906138e7565b60405180910390fd5b80600560008573ffffffffffffffffffffffffffffffffffffffff1673ffffffffffffffffffffffffffffffffffffffff16815260200190815260200160002060008473ffffffffffffffffffffffffffffffffffffffff1673ffffffffffffffffffffffffffffffffffffffff16815260200190815260200160002060006101000a81548160ff0219169083151502179055508173ffffffffffffffffffffffffffffffffffffffff168373ffffffffffffffffffffffffffffffffffffffff167f17307eab39ab6107e8899845ad3d59bd9653f200f220920489ca2b5937696c3183604051611a2191906125ab565b60405180910390a3505050565b611a3984848461155d565b611a4584848484611cd2565b611a84576040517f08c379a0000000000000000000000000000000000000000000000000000000008152600401611a7b90613979565b60405180910390fd5b50505050565b6060611a9d826000015160000151611e69565b611aae836000015160200151611e69565b611abf846000015160400151611e69565b611ad0856000015160600151611e69565b604051602001611ae394939291906139e5565b6040516020818303038152906040529050919050565b60007f01ffc9a7000000000000000000000000000000000000000000000000000000007bffffffffffffffffffffffffffffffffffffffffffffffffffffffff1916827bffffffffffffffffffffffffffffffffffffffffffffffffffffffff1916149050919050565b611b6e838383611fca565b600073ffffffffffffffffffffffffffffffffffffffff168373ffffffffffffffffffffffffffffffffffffffff161415611bb157611bac81611fcf565b611bf0565b8173ffffffffffffffffffffffffffffffffffffffff168373ffffffffffffffffffffffffffffffffffffffff1614611bef57611bee8382612018565b5b5b600073ffffffffffffffffffffffffffffffffffffffff168273ffffffffffffffffffffffffffffffffffffffff161415611c3357611c2e81612185565b611c72565b8273ffffffffffffffffffffffffffffffffffffffff168273ffffffffffffffffffffffffffffffffffffffff1614611c7157611c708282612256565b5b5b505050565b611c8183836122d5565b611c8e6000848484611cd2565b611ccd576040517f08c379a0000000000000000000000000000000000000000000000000000000008152600401611cc490613979565b60405180910390fd5b505050565b6000611cf38473ffffffffffffffffffffffffffffffffffffffff166124a3565b15611e5c578373ffffffffffffffffffffffffffffffffffffffff1663150b7a02611d1c6113be565b8786866040518563ffffffff1660e01b8152600401611d3e9493929190613a99565b602060405180830381600087803b158015611d5857600080fd5b505af1925050508015611d8957506040513d601f19601f82011682018060405250810190611d869190613afa565b60015b611e0c573d8060008114611db9576040519150601f19603f3d011682016040523d82523d6000602084013e611dbe565b606091505b50600081511415611e04576040517f08c379a0000000000000000000000000000000000000000000000000000000008152600401611dfb90613979565b60405180910390fd5b805181602001fd5b63150b7a0260e01b7bffffffffffffffffffffffffffffffffffffffffffffffffffffffff1916817bffffffffffffffffffffffffffffffffffffffffffffffffffffffff191614915050611e61565b600190505b949350505050565b60606000821415611eb1576040518060400160405280600181526020017f30000000000000000000000000000000000000000000000000000000000000008152509050611fc5565b600082905060005b60008214611ee3578080611ecc90613b27565b915050600a82611edc9190613b9f565b9150611eb9565b60008167ffffffffffffffff811115611eff57611efe6128c9565b5b6040519080825280601f01601f191660200182016040528015611f315781602001600182028036833780820191505090505b5090505b60008514611fbe57600182611f4a9190613811565b9150600a85611f599190613bd0565b6030611f659190613845565b60f81b818381518110611f7b57611f7a613095565b5b60200101907effffffffffffffffffffffffffffffffffffffffffffffffffffffffffffff1916908160001a905350600a85611fb79190613b9f565b9450611f35565b8093505050505b919050565b505050565b6008805490506009600083815260200190815260200160002081905550600881908060018154018082558091505060019003906000526020600020016000909190919091505550565b6000600161202584610b1c565b61202f9190613811565b9050600060076000848152602001908152602001600020549050818114612114576000600660008673ffffffffffffffffffffffffffffffffffffffff1673ffffffffffffffffffffffffffffffffffffffff168152602001908152602001600020600084815260200190815260200160002054905080600660008773ffffffffffffffffffffffffffffffffffffffff1673ffffffffffffffffffffffffffffffffffffffff168152602001908152602001600020600084815260200190815260200160002081905550816007600083815260200190815260200160002081905550505b6007600084815260200190815260200160002060009055600660008573ffffffffffffffffffffffffffffffffffffffff1673ffffffffffffffffffffffffffffffffffffffff16815260200190815260200160002060008381526020019081526020016000206000905550505050565b600060016008805490506121999190613811565b90506000600960008481526020019081526020016000205490506000600883815481106121c9576121c8613095565b5b9060005260206000200154905080600883815481106121eb576121ea613095565b5b90600052602060002001819055508160096000838152602001908152602001600020819055506009600085815260200190815260200160002060009055600880548061223a57612239613c01565b5b6001900381819060005260206000200160009055905550505050565b600061226183610b1c565b905081600660008573ffffffffffffffffffffffffffffffffffffffff1673ffffffffffffffffffffffffffffffffffffffff168152602001908152602001600020600083815260200190815260200160002081905550806007600084815260200190815260200160002081905550505050565b600073ffffffffffffffffffffffffffffffffffffffff168273ffffffffffffffffffffffffffffffffffffffff161415612345576040517f08c379a000000000000000000000000000000000000000000000000000000000815260040161233c90613c7c565b60405180910390fd5b61234e81611352565b1561238e576040517f08c379a000000000000000000000000000000000000000000000000000000000815260040161238590613ce8565b60405180910390fd5b61239a60008383611b63565b6001600360008473ffffffffffffffffffffffffffffffffffffffff1673ffffffffffffffffffffffffffffffffffffffff16815260200190815260200160002060008282546123ea9190613845565b92505081905550816002600083815260200190815260200160002060006101000a81548173ffffffffffffffffffffffffffffffffffffffff021916908373ffffffffffffffffffffffffffffffffffffffff160217905550808273ffffffffffffffffffffffffffffffffffffffff16600073ffffffffffffffffffffffffffffffffffffffff167fddf252ad1be2c89b69c2b068fc378daa952ba7f163c4a11628f55a4df523b3ef60405160405180910390a45050565b600080823b905060008111915050919050565b60405180602001604052806124c96124cf565b81525090565b6040518060800160405280600081526020016000815260200160008152602001600081525090565b6000604051905090565b600080fd5b600080fd5b60007fffffffff0000000000000000000000000000000000000000000000000000000082169050919050565b6125408161250b565b811461254b57600080fd5b50565b60008135905061255d81612537565b92915050565b60006020828403121561257957612578612501565b5b60006125878482850161254e565b91505092915050565b60008115159050919050565b6125a581612590565b82525050565b60006020820190506125c0600083018461259c565b92915050565b600081519050919050565b600082825260208201905092915050565b60005b838110156126005780820151818401526020810190506125e5565b8381111561260f576000848401525b50505050565b6000601f19601f8301169050919050565b6000612631826125c6565b61263b81856125d1565b935061264b8185602086016125e2565b61265481612615565b840191505092915050565b600060208201905081810360008301526126798184612626565b905092915050565b6000819050919050565b61269481612681565b811461269f57600080fd5b50565b6000813590506126b18161268b565b92915050565b6000602082840312156126cd576126cc612501565b5b60006126db848285016126a2565b91505092915050565b600073ffffffffffffffffffffffffffffffffffffffff82169050919050565b600061270f826126e4565b9050919050565b61271f81612704565b82525050565b600060208201905061273a6000830184612716565b92915050565b61274981612704565b811461275457600080fd5b50565b60008135905061276681612740565b92915050565b6000806040838503121561278357612782612501565b5b600061279185828601612757565b92505060206127a2858286016126a2565b9150509250929050565b6127b581612681565b82525050565b60006020820190506127d060008301846127ac565b92915050565b6000806000606084860312156127ef576127ee612501565b5b60006127fd86828701612757565b935050602061280e86828701612757565b925050604061281f868287016126a2565b9150509250925092565b61283281612681565b82525050565b60808201600082015161284e6000850182612829565b5060208201516128616020850182612829565b5060408201516128746040850182612829565b5060608201516128876060850182612829565b50505050565b6080820160008201516128a36000850182612838565b50505050565b60006080820190506128be600083018461288d565b92915050565b600080fd5b7f4e487b7100000000000000000000000000000000000000000000000000000000600052604160045260246000fd5b61290182612615565b810181811067ffffffffffffffff821117156129205761291f6128c9565b5b80604052505050565b60006129336124f7565b905061293f82826128f8565b919050565b60006080828403121561295a576129596128c4565b5b6129646080612929565b90506000612974848285016126a2565b6000830152506020612988848285016126a2565b602083015250604061299c848285016126a2565b60408301525060606129b0848285016126a2565b60608301525092915050565b6000608082840312156129d2576129d16128c4565b5b6129dc6020612929565b905060006129ec84828501612944565b60008301525092915050565b60008060a08385031215612a0f57612a0e612501565b5b6000612a1d85828601612757565b9250506020612a2e858286016129bc565b9150509250929050565b600060208284031215612a4e57612a4d612501565b5b6000612a5c84828501612757565b91505092915050565b612a6e81612590565b8114612a7957600080fd5b50565b600081359050612a8b81612a65565b92915050565b60008060408385031215612aa857612aa7612501565b5b6000612ab685828601612757565b9250506020612ac785828601612a7c565b9150509250929050565b600080fd5b600080fd5b600067ffffffffffffffff821115612af657612af56128c9565b5b612aff82612615565b9050602081019050919050565b82818337600083830152505050565b6000612b2e612b2984612adb565b612929565b905082815260208101848484011115612b4a57612b49612ad6565b5b612b55848285612b0c565b509392505050565b600082601f830112612b7257612b71612ad1565b5b8135612b82848260208601612b1b565b91505092915050565b60008060008060808587031215612ba557612ba4612501565b5b6000612bb387828801612757565b9450506020612bc487828801612757565b9350506040612bd5878288016126a2565b925050606085013567ffffffffffffffff811115612bf657612bf5612506565b5b612c0287828801612b5d565b91505092959194509250565b6000819050919050565b6000612c33612c2e612c29846126e4565b612c0e565b6126e4565b9050919050565b6000612c4582612c18565b9050919050565b6000612c5782612c3a565b9050919050565b612c6781612c4c565b82525050565b6000602082019050612c826000830184612c5e565b92915050565b60008060408385031215612c9f57612c9e612501565b5b6000612cad85828601612757565b9250506020612cbe85828601612757565b9150509250929050565b7f4e487b7100000000000000000000000000000000000000000000000000000000600052602260045260246000fd5b60006002820490506001821680612d0f57607f821691505b60208210811415612d2357612d22612cc8565b5b50919050565b7f4552433732313a20617070726f76656420717565727920666f72206e6f6e657860008201527f697374656e7420746f6b656e0000000000000000000000000000000000000000602082015250565b6000612d85602c836125d1565b9150612d9082612d29565b604082019050919050565b60006020820190508181036000830152612db481612d78565b9050919050565b7f4552433732313a20617070726f76616c20746f2063757272656e74206f776e6560008201527f7200000000000000000000000000000000000000000000000000000000000000602082015250565b6000612e176021836125d1565b9150612e2282612dbb565b604082019050919050565b60006020820190508181036000830152612e4681612e0a565b9050919050565b7f4552433732313a20617070726f76652063616c6c6572206973206e6f74206f7760008201527f6e6572206e6f7220617070726f76656420666f7220616c6c0000000000000000602082015250565b6000612ea96038836125d1565b9150612eb482612e4d565b604082019050919050565b60006020820190508181036000830152612ed881612e9c565b9050919050565b7f4552433732313a207472616e736665722063616c6c6572206973206e6f74206f60008201527f776e6572206e6f7220617070726f766564000000000000000000000000000000602082015250565b6000612f3b6031836125d1565b9150612f4682612edf565b604082019050919050565b60006020820190508181036000830152612f6a81612f2e565b9050919050565b7f455243373231456e756d657261626c653a206f776e657220696e646578206f7560008201527f74206f6620626f756e6473000000000000000000000000000000000000000000602082015250565b6000612fcd602b836125d1565b9150612fd882612f71565b604082019050919050565b60006020820190508181036000830152612ffc81612fc0565b9050919050565b7f455243373231456e756d657261626c653a20676c6f62616c20696e646578206f60008201527f7574206f6620626f756e64730000000000000000000000000000000000000000602082015250565b600061305f602c836125d1565b915061306a82613003565b604082019050919050565b6000602082019050818103600083015261308e81613052565b9050919050565b7f4e487b7100000000000000000000000000000000000000000000000000000000600052603260045260246000fd5b7f4f776e61626c653a2063616c6c6572206973206e6f7420746865206f776e6572600082015250565b60006130fa6020836125d1565b9150613105826130c4565b602082019050919050565b60006020820190508181036000830152613129816130ed565b9050919050565b7f4552433732313a206f776e657220717565727920666f72206e6f6e657869737460008201527f656e7420746f6b656e0000000000000000000000000000000000000000000000602082015250565b600061318c6029836125d1565b915061319782613130565b604082019050919050565b600060208201905081810360008301526131bb8161317f565b9050919050565b7f4552433732313a2062616c616e636520717565727920666f7220746865207a6560008201527f726f206164647265737300000000000000000000000000000000000000000000602082015250565b600061321e602a836125d1565b9150613229826131c2565b604082019050919050565b6000602082019050818103600083015261324d81613211565b9050919050565b7f45524337323155524953746f726167653a2055524920717565727920666f722060008201527f6e6f6e6578697374656e7420746f6b656e000000000000000000000000000000602082015250565b60006132b06031836125d1565b91506132bb82613254565b604082019050919050565b600060208201905081810360008301526132df816132a3565b9050919050565b6000815190506132f581612a65565b92915050565b60006020828403121561331157613310612501565b5b600061331f848285016132e6565b91505092915050565b600081905092915050565b7f697066733a2f2f00000000000000000000000000000000000000000000000000600082015250565b6000613369600783613328565b915061337482613333565b600782019050919050565b60008190508160005260206000209050919050565b600081546133a181612cf7565b6133ab8186613328565b945060018216600081146133c657600181146133d75761340a565b60ff1983168652818601935061340a565b6133e08561337f565b60005b83811015613402578154818901526001820191506020810190506133e3565b838801955050505b50505092915050565b7f2f00000000000000000000000000000000000000000000000000000000000000600082015250565b6000613449600183613328565b915061345482613413565b600182019050919050565b600061346a826125c6565b6134748185613328565b93506134848185602086016125e2565b80840191505092915050565b7f2e6a736f6e000000000000000000000000000000000000000000000000000000600082015250565b60006134c6600583613328565b91506134d182613490565b600582019050919050565b60006134e78261335c565b91506134f38285613394565b91506134fe8261343c565b915061350a828461345f565b9150613515826134b9565b91508190509392505050565b7f2f636f6c6c656374696f6e2d6d657461646174612e6a736f6e00000000000000600082015250565b6000613557601983613328565b915061356282613521565b601982019050919050565b60006135788261335c565b91506135848284613394565b915061358f8261354a565b915081905092915050565b7f4f776e61626c653a206e6577206f776e657220697320746865207a65726f206160008201527f6464726573730000000000000000000000000000000000000000000000000000602082015250565b60006135f66026836125d1565b91506136018261359a565b604082019050919050565b60006020820190508181036000830152613625816135e9565b9050919050565b7f4552433732313a206f70657261746f7220717565727920666f72206e6f6e657860008201527f697374656e7420746f6b656e0000000000000000000000000000000000000000602082015250565b6000613688602c836125d1565b91506136938261362c565b604082019050919050565b600060208201905081810360008301526136b78161367b565b9050919050565b7f4552433732313a207472616e73666572206f6620746f6b656e2074686174206960008201527f73206e6f74206f776e0000000000000000000000000000000000000000000000602082015250565b600061371a6029836125d1565b9150613725826136be565b604082019050919050565b600060208201905081810360008301526137498161370d565b9050919050565b7f4552433732313a207472616e7366657220746f20746865207a65726f2061646460008201527f7265737300000000000000000000000000000000000000000000000000000000602082015250565b60006137ac6024836125d1565b91506137b782613750565b604082019050919050565b600060208201905081810360008301526137db8161379f565b9050919050565b7f4e487b7100000000000000000000000000000000000000000000000000000000600052601160045260246000fd5b600061381c82612681565b915061382783612681565b92508282101561383a576138396137e2565b5b828203905092915050565b600061385082612681565b915061385b83612681565b9250827fffffffffffffffffffffffffffffffffffffffffffffffffffffffffffffffff038211156138905761388f6137e2565b5b828201905092915050565b7f4552433732313a20617070726f766520746f2063616c6c657200000000000000600082015250565b60006138d16019836125d1565b91506138dc8261389b565b602082019050919050565b60006020820190508181036000830152613900816138c4565b9050919050565b7f4552433732313a207472616e7366657220746f206e6f6e20455243373231526560008201527f63656976657220696d706c656d656e7465720000000000000000000000000000602082015250565b60006139636032836125d1565b915061396e82613907565b604082019050919050565b6000602082019050818103600083015261399281613956565b9050919050565b7f5f00000000000000000000000000000000000000000000000000000000000000600082015250565b60006139cf600183613328565b91506139da82613999565b600182019050919050565b60006139f1828761345f565b91506139fc826139c2565b9150613a08828661345f565b9150613a13826139c2565b9150613a1f828561345f565b9150613a2a826139c2565b9150613a36828461345f565b915081905095945050505050565b600081519050919050565b600082825260208201905092915050565b6000613a6b82613a44565b613a758185613a4f565b9350613a858185602086016125e2565b613a8e81612615565b840191505092915050565b6000608082019050613aae6000830187612716565b613abb6020830186612716565b613ac860408301856127ac565b8181036060830152613ada8184613a60565b905095945050505050565b600081519050613af481612537565b92915050565b600060208284031215613b1057613b0f612501565b5b6000613b1e84828501613ae5565b91505092915050565b6000613b3282612681565b91507fffffffffffffffffffffffffffffffffffffffffffffffffffffffffffffffff821415613b6557613b646137e2565b5b600182019050919050565b7f4e487b7100000000000000000000000000000000000000000000000000000000600052601260045260246000fd5b6000613baa82612681565b9150613bb583612681565b925082613bc557613bc4613b70565b5b828204905092915050565b6000613bdb82612681565b9150613be683612681565b925082613bf657613bf5613b70565b5b828206905092915050565b7f4e487b7100000000000000000000000000000000000000000000000000000000600052603160045260246000fd5b7f4552433732313a206d696e7420746f20746865207a65726f2061646472657373600082015250565b6000613c666020836125d1565b9150613c7182613c30565b602082019050919050565b60006020820190508181036000830152613c9581613c59565b9050919050565b7f4552433732313a20746f6b656e20616c7265616479206d696e74656400000000600082015250565b6000613cd2601c836125d1565b9150613cdd82613c9c565b602082019050919050565b60006020820190508181036000830152613d0181613cc5565b905091905056fea2646970667358221220c822322801fa7aeb70d28f55740b338ff31fe71fc56c12e745ed758f141b3f5f64736f6c63430008090033",
  "linkReferences": {},
  "deployedLinkReferences": {}
}