{
  "_format": "hh-sol-artifact-1",
  "contractName": "LotteryTest",
  "sourceName": "contracts/Lottery.sol",
  "abi": [
    {
      "inputs": [],
      "stateMutability": "nonpayable",
      "type": "constructor"
    },
    {
      "inputs": [],
      "name": "beginningOfParticipationPeriod",
      "outputs": [
        {
          "internalType": "uint256",
          "name": "",
          "type": "uint256"
        }
      ],
      "stateMutability": "view",
      "type": "function"
    },
    {
      "inputs": [],
      "name": "chainTokenDecimals",
      "outputs": [
        {
          "internalType": "uint8",
          "name": "",
          "type": "uint8"
        }
      ],
      "stateMutability": "view",
      "type": "function"
    },
    {
      "inputs": [],
      "name": "endOfParticipationPeriod",
      "outputs": [
        {
          "internalType": "uint256",
          "name": "",
          "type": "uint256"
        }
      ],
      "stateMutability": "view",
      "type": "function"
    },
    {
      "inputs": [],
      "name": "endOfPreparationPeriod",
      "outputs": [
        {
          "internalType": "uint256",
          "name": "",
          "type": "uint256"
        }
      ],
      "stateMutability": "view",
      "type": "function"
    },
    {
      "inputs": [],
      "name": "entryPriceUsd",
      "outputs": [
        {
          "internalType": "uint256",
          "name": "",
          "type": "uint256"
        }
      ],
      "stateMutability": "view",
      "type": "function"
    },
    {
      "inputs": [
        {
          "internalType": "uint256",
          "name": "",
          "type": "uint256"
        }
      ],
      "name": "events",
      "outputs": [
        {
          "internalType": "uint256",
          "name": "timestamp",
          "type": "uint256"
        },
        {
          "internalType": "string",
          "name": "description",
          "type": "string"
        }
      ],
      "stateMutability": "view",
      "type": "function"
    },
    {
      "inputs": [],
      "name": "fundsReleaseAddress",
      "outputs": [
        {
          "internalType": "address payable",
          "name": "",
          "type": "address"
        }
      ],
      "stateMutability": "view",
      "type": "function"
    },
    {
      "inputs": [],
      "name": "getLINKAmountRequired",
      "outputs": [
        {
          "internalType": "uint256",
          "name": "",
          "type": "uint256"
        }
      ],
      "stateMutability": "view",
      "type": "function"
    },
    {
      "inputs": [],
      "name": "getPriceToParticipate",
      "outputs": [
        {
          "internalType": "uint256",
          "name": "",
          "type": "uint256"
        }
      ],
      "stateMutability": "view",
      "type": "function"
    },
    {
      "inputs": [],
      "name": "getState",
      "outputs": [
        {
          "internalType": "enum Lottery.State",
          "name": "",
          "type": "uint8"
        }
      ],
      "stateMutability": "view",
      "type": "function"
    },
    {
      "inputs": [],
      "name": "isComplete",
      "outputs": [
        {
          "internalType": "bool",
          "name": "",
          "type": "bool"
        }
      ],
      "stateMutability": "view",
      "type": "function"
    },
    {
      "inputs": [
        {
          "internalType": "uint256",
          "name": "tokenId",
          "type": "uint256"
        }
      ],
      "name": "isWinningTicket",
      "outputs": [
        {
          "internalType": "bool",
          "name": "",
          "type": "bool"
        }
      ],
      "stateMutability": "view",
      "type": "function"
    },
    {
      "inputs": [
        {
          "internalType": "uint256",
          "name": "",
          "type": "uint256"
        }
      ],
      "name": "participants",
      "outputs": [
        {
          "internalType": "uint256",
          "name": "tokenId",
          "type": "uint256"
        }
      ],
      "stateMutability": "view",
      "type": "function"
    },
    {
      "inputs": [
        {
          "components": [
            {
              "components": [
                {
                  "internalType": "uint256",
                  "name": "body",
                  "type": "uint256"
                },
                {
                  "internalType": "uint256",
                  "name": "skin",
                  "type": "uint256"
                },
                {
                  "internalType": "uint256",
                  "name": "weapon",
                  "type": "uint256"
                },
                {
                  "internalType": "uint256",
                  "name": "booster",
                  "type": "uint256"
                }
              ],
              "internalType": "struct SpaceShips.ShipParts",
              "name": "parts",
              "type": "tuple"
            }
          ],
          "internalType": "struct SpaceShips.Ship",
          "name": "spaceShip",
          "type": "tuple"
        }
      ],
      "name": "participate",
      "outputs": [],
      "stateMutability": "payable",
      "type": "function"
    },
    {
      "inputs": [],
      "name": "priceConsumer",
      "outputs": [
        {
          "internalType": "contract PriceConsumer",
          "name": "",
          "type": "address"
        }
      ],
      "stateMutability": "view",
      "type": "function"
    },
    {
      "inputs": [
        {
          "internalType": "bytes32",
          "name": "requestId",
          "type": "bytes32"
        },
        {
          "internalType": "uint256",
          "name": "randomness",
          "type": "uint256"
        }
      ],
      "name": "rawFulfillRandomness",
      "outputs": [],
      "stateMutability": "nonpayable",
      "type": "function"
    },
    {
      "inputs": [
        {
          "internalType": "uint256",
          "name": "",
          "type": "uint256"
        }
      ],
      "name": "remainingParticipantsRanges",
      "outputs": [
        {
          "internalType": "uint256",
          "name": "min",
          "type": "uint256"
        },
        {
          "internalType": "uint256",
          "name": "max",
          "type": "uint256"
        }
      ],
      "stateMutability": "view",
      "type": "function"
    },
    {
      "inputs": [
        {
          "internalType": "uint256",
          "name": "value",
          "type": "uint256"
        }
      ],
      "name": "testFunc",
      "outputs": [],
      "stateMutability": "nonpayable",
      "type": "function"
    },
    {
      "inputs": [],
      "name": "token",
      "outputs": [
        {
          "internalType": "contract LotteryToken",
          "name": "",
          "type": "address"
        }
      ],
      "stateMutability": "view",
      "type": "function"
    },
    {
      "inputs": [],
      "name": "totalWinners",
      "outputs": [
        {
          "internalType": "uint8",
          "name": "",
          "type": "uint8"
        }
      ],
      "stateMutability": "view",
      "type": "function"
    },
    {
      "inputs": [],
      "name": "triggerCompletion",
      "outputs": [],
      "stateMutability": "nonpayable",
      "type": "function"
    },
    {
      "inputs": [],
      "name": "triggerNextEvent",
      "outputs": [],
      "stateMutability": "nonpayable",
      "type": "function"
    },
    {
      "inputs": [],
      "name": "valueTest",
      "outputs": [
        {
          "internalType": "uint256",
          "name": "",
          "type": "uint256"
        }
      ],
      "stateMutability": "view",
      "type": "function"
    },
    {
      "inputs": [],
      "name": "vrfFee",
      "outputs": [
        {
          "internalType": "uint256",
          "name": "",
          "type": "uint256"
        }
      ],
      "stateMutability": "view",
      "type": "function"
    },
    {
      "inputs": [],
      "name": "vrfKeyHash",
      "outputs": [
        {
          "internalType": "bytes32",
          "name": "",
          "type": "bytes32"
        }
      ],
      "stateMutability": "view",
      "type": "function"
    },
    {
      "inputs": [
        {
          "internalType": "uint256",
          "name": "",
          "type": "uint256"
        }
      ],
      "name": "winners",
      "outputs": [
        {
          "internalType": "uint256",
          "name": "tokenId",
          "type": "uint256"
        }
      ],
      "stateMutability": "view",
      "type": "function"
    },
    {
      "inputs": [
        {
          "internalType": "uint256",
          "name": "",
          "type": "uint256"
        }
      ],
      "name": "winnersTokenId",
      "outputs": [
        {
          "internalType": "bool",
          "name": "",
          "type": "bool"
        }
      ],
      "stateMutability": "view",
      "type": "function"
    }
  ],
  "bytecode": "0x6102006040523480156200001257600080fd5b50601260136040518060400160405280600e81526020017f54657374353432343234333234330000000000000000000000000000000000008152506040518060400160405280600381526020017f53533100000000000000000000000000000000000000000000000000000000008152506040518060600160405280603b81526020016200889b603b913973f585378ff2a1decb335b4899250b83f46dc5c01961012c42620000c2919062000860565b61025842620000d2919062000860565b61038442620000e2919062000860565b604051620000f0906200075b565b604051809103906000f0801580156200010d573d6000803e3d6000fd5b506040518060800160405280738c7382f9d8f56b33781fe506e897a4f1e2d1725573ffffffffffffffffffffffffffffffffffffffff16815260200173326c977e6efc84e512bb9c30f76e30c160ed06fb73ffffffffffffffffffffffffffffffffffffffff1681526020017f6e75b569a01ef56d18cab6a8e71e6600d6ce853834d4a5748b720d06f878b3a460001b8152602001655af3107a4000815250806000015181602001518173ffffffffffffffffffffffffffffffffffffffff1660a08173ffffffffffffffffffffffffffffffffffffffff16815250508073ffffffffffffffffffffffffffffffffffffffff1660808173ffffffffffffffffffffffffffffffffffffffff16815250505050600060405180604001604052806040518060400160405280603c8862000247919062000860565b81526020016040518060400160405280600681526020017f4576656e7431000000000000000000000000000000000000000000000000000081525081525081526020016040518060400160405280607888620002a4919062000860565b81526020016040518060400160405280600681526020017f4576656e7432000000000000000000000000000000000000000000000000000081525081525081525090504286116200032c576040517f08c379a0000000000000000000000000000000000000000000000000000000008152600401620003239062000944565b60405180910390fd5b85851162000371576040517f08c379a00000000000000000000000000000000000000000000000000000000081526004016200036890620009dc565b60405180910390fd5b848411620003b6576040517f08c379a0000000000000000000000000000000000000000000000000000000008152600401620003ad9062000a74565b60405180910390fd5b6000600211620003fd576040517f08c379a0000000000000000000000000000000000000000000000000000000008152600401620003f49062000ae6565b60405180910390fd5b838160006002811062000415576200041462000b08565b5b602002015160000151101562000462576040517f08c379a0000000000000000000000000000000000000000000000000000000008152600401620004599062000b87565b60405180910390fd5b60005b60028110156200058457600082826002811062000487576200048662000b08565b5b6020020151602001515111620004d4576040517f08c379a0000000000000000000000000000000000000000000000000000000008152600401620004cb9062000bf9565b60405180910390fd5b60008111156200056e5781600182620004ee919062000c1b565b6002811062000502576200050162000b08565b5b60200201516000015182826002811062000521576200052062000b08565b5b602002015160000151116200056d576040517f08c379a0000000000000000000000000000000000000000000000000000000008152600401620005649062000ccc565b60405180910390fd5b5b80806200057b9062000cee565b91505062000465565b5060005b600281101562000619576001828260028110620005aa57620005a962000b08565b5b602002015190806001815401808255809150506001900390600052602060002090600202016000909190919091506000820151816000015560208201518160010190805190602001906200060092919062000769565b5050508080620006109062000cee565b91505062000588565b50308a8a8a6040516200062c90620007fa565b6200063b949392919062000e5a565b604051809103906000f08015801562000658573d6000803e3d6000fd5b5073ffffffffffffffffffffffffffffffffffffffff166101208173ffffffffffffffffffffffffffffffffffffffff16815250508b60ff1660c08160ff16815250508a60e081815250508673ffffffffffffffffffffffffffffffffffffffff166101008173ffffffffffffffffffffffffffffffffffffffff16815250508561014081815250508461016081815250508361018081815250508273ffffffffffffffffffffffffffffffffffffffff166101a08173ffffffffffffffffffffffffffffffffffffffff16815250506002808190555081604001516101c0818152505081606001516101e0818152505050505050505050505050505062000f21565b610472806200405883390190565b828054620007779062000eeb565b90600052602060002090601f0160209004810192826200079b5760008555620007e7565b82601f10620007b657805160ff1916838001178555620007e7565b82800160010185558215620007e7579182015b82811115620007e6578251825591602001919060010190620007c9565b5b509050620007f6919062000808565b5090565b6143d180620044ca83390190565b5b808211156200082357600081600090555060010162000809565b5090565b6000819050919050565b7f4e487b7100000000000000000000000000000000000000000000000000000000600052601160045260246000fd5b60006200086d8262000827565b91506200087a8362000827565b9250827fffffffffffffffffffffffffffffffffffffffffffffffffffffffffffffffff03821115620008b257620008b162000831565b5b828201905092915050565b600082825260208201905092915050565b7f496e76616c69642074696d657374616d703a20626567696e6e696e674f66506160008201527f7274696369706174696f6e506572696f64000000000000000000000000000000602082015250565b60006200092c603183620008bd565b91506200093982620008ce565b604082019050919050565b600060208201905081810360008301526200095f816200091d565b9050919050565b7f496e76616c69642074696d657374616d703a20656e644f66506172746963697060008201527f6174696f6e506572696f64000000000000000000000000000000000000000000602082015250565b6000620009c4602b83620008bd565b9150620009d18262000966565b604082019050919050565b60006020820190508181036000830152620009f781620009b5565b9050919050565b7f496e76616c69642074696d657374616d703a20656e644f66507265706172617460008201527f696f6e506572696f640000000000000000000000000000000000000000000000602082015250565b600062000a5c602983620008bd565b915062000a6982620009fe565b604082019050919050565b6000602082019050818103600083015262000a8f8162000a4d565b9050919050565b7f4e6f206576656e74732073706563696669656400000000000000000000000000600082015250565b600062000ace601383620008bd565b915062000adb8262000a96565b602082019050919050565b6000602082019050818103600083015262000b018162000abf565b9050919050565b7f4e487b7100000000000000000000000000000000000000000000000000000000600052603260045260246000fd5b7f496e76616c69642074696d657374616d703a204669727374206576656e740000600082015250565b600062000b6f601e83620008bd565b915062000b7c8262000b37565b602082019050919050565b6000602082019050818103600083015262000ba28162000b60565b9050919050565b7f4576656e7420686173206e6f206465736372697074696f6e0000000000000000600082015250565b600062000be1601883620008bd565b915062000bee8262000ba9565b602082019050919050565b6000602082019050818103600083015262000c148162000bd2565b9050919050565b600062000c288262000827565b915062000c358362000827565b92508282101562000c4b5762000c4a62000831565b5b828203905092915050565b7f4576656e74732074696d657374616d7073206e6f7420696e20617363656e646960008201527f6e67206f72646572000000000000000000000000000000000000000000000000602082015250565b600062000cb4602883620008bd565b915062000cc18262000c56565b604082019050919050565b6000602082019050818103600083015262000ce78162000ca5565b9050919050565b600062000cfb8262000827565b91507fffffffffffffffffffffffffffffffffffffffffffffffffffffffffffffffff82141562000d315762000d3062000831565b5b600182019050919050565b600073ffffffffffffffffffffffffffffffffffffffff82169050919050565b6000819050919050565b600062000d8762000d8162000d7b8462000d3c565b62000d5c565b62000d3c565b9050919050565b600062000d9b8262000d66565b9050919050565b600062000daf8262000d8e565b9050919050565b62000dc18162000da2565b82525050565b600081519050919050565b60005b8381101562000df257808201518184015260208101905062000dd5565b8381111562000e02576000848401525b50505050565b6000601f19601f8301169050919050565b600062000e268262000dc7565b62000e328185620008bd565b935062000e4481856020860162000dd2565b62000e4f8162000e08565b840191505092915050565b600060808201905062000e71600083018762000db6565b818103602083015262000e85818662000e19565b9050818103604083015262000e9b818562000e19565b9050818103606083015262000eb1818462000e19565b905095945050505050565b7f4e487b7100000000000000000000000000000000000000000000000000000000600052602260045260246000fd5b6000600282049050600182168062000f0457607f821691505b6020821081141562000f1b5762000f1a62000ebc565b5b50919050565b60805160a05160c05160e05161010051610120516101405161016051610180516101a0516101c0516101e05161303c6200101c6000396000818161073f01528181610f040152610ff201526000818161065f0152610ee301526000818161089a0152818161094e0152610ad70152600081816108030152610afb0152600081816107d201526110f30152600081816107a10152610fc8015260008181610bde015261146c015260008181610cde0152611d540152600081816108730152610a33015260008181610763015281816109ec0152610a5601526000818161111701526114e801526000818161102101526114ac015261303c6000f3fe60806040526004361061019c5760003560e01c80636ee914ef116100ec578063b2fa1c9e1161008a578063ce2cf5d911610064578063ce2cf5d9146105a1578063d84e29ea146105b8578063ed66835b146105f5578063fc0c546a146106325761019c565b8063b2fa1c9e1461050d578063bcc941b614610538578063bd2d5a1e146105635761019c565b806381e77a07116100c657806381e77a071461045157806394985ddd1461047c57806398d16407146104a5578063a2fb1175146104d05761019c565b80636ee914ef146103e45780637572c593146103fb57806377f1b4cc146104265761019c565b8063350279181161015957806346c6dd091161013357806346c6dd091461034957806368bac018146103745780636a3d9d35146103905780636b48e2db146103b95761019c565b806335027918146102b657806335c1d349146102e1578063461a758c1461031e5761019c565b8063041d443e146101a15780630b791430146101cc5780631017507d1461020a578063115e4380146102355780631865c57d146102605780631a38489c1461028b575b600080fd5b3480156101ad57600080fd5b506101b661065d565b6040516101c39190611e8e565b60405180910390f35b3480156101d857600080fd5b506101f360048036038101906101ee9190611eee565b610681565b604051610201929190611fc3565b60405180910390f35b34801561021657600080fd5b5061021f61073d565b60405161022c9190611ff3565b60405180910390f35b34801561024157600080fd5b5061024a610761565b604051610257919061202a565b60405180910390f35b34801561026c57600080fd5b50610275610785565b60405161028291906120bc565b60405180910390f35b34801561029757600080fd5b506102a0610871565b6040516102ad9190611ff3565b60405180910390f35b3480156102c257600080fd5b506102cb610895565b6040516102d89190611ff3565b60405180910390f35b3480156102ed57600080fd5b5061030860048036038101906103039190611eee565b610aab565b6040516103159190611ff3565b60405180910390f35b34801561032a57600080fd5b50610333610ad5565b6040516103409190612156565b60405180910390f35b34801561035557600080fd5b5061035e610af9565b60405161036b9190611ff3565b60405180910390f35b61038e600480360381019061038991906122a5565b610b1d565b005b34801561039c57600080fd5b506103b760048036038101906103b29190611eee565b610cd2565b005b3480156103c557600080fd5b506103ce610cdc565b6040516103db91906122f3565b60405180910390f35b3480156103f057600080fd5b506103f9610d00565b005b34801561040757600080fd5b50610410610fc6565b60405161041d9190611ff3565b60405180910390f35b34801561043257600080fd5b5061043b610fea565b6040516104489190611ff3565b60405180910390f35b34801561045d57600080fd5b506104666110f1565b6040516104739190611ff3565b60405180910390f35b34801561048857600080fd5b506104a3600480360381019061049e919061233a565b611115565b005b3480156104b157600080fd5b506104ba6111b1565b6040516104c79190611ff3565b60405180910390f35b3480156104dc57600080fd5b506104f760048036038101906104f29190611eee565b6111b7565b6040516105049190611ff3565b60405180910390f35b34801561051957600080fd5b506105226111e1565b60405161052f9190612395565b60405180910390f35b34801561054457600080fd5b5061054d611216565b60405161055a919061202a565b60405180910390f35b34801561056f57600080fd5b5061058a60048036038101906105859190611eee565b61121b565b6040516105989291906123b0565b60405180910390f35b3480156105ad57600080fd5b506105b661124f565b005b3480156105c457600080fd5b506105df60048036038101906105da9190611eee565b611420565b6040516105ec9190612395565b60405180910390f35b34801561060157600080fd5b5061061c60048036038101906106179190611eee565b61144a565b6040516106299190612395565b60405180910390f35b34801561063e57600080fd5b5061064761146a565b60405161065491906123fa565b60405180910390f35b7f000000000000000000000000000000000000000000000000000000000000000081565b6001818154811061069157600080fd5b90600052602060002090600202016000915090508060000154908060010180546106ba90612444565b80601f01602080910402602001604051908101604052809291908181526020018280546106e690612444565b80156107335780601f1061070857610100808354040283529160200191610733565b820191906000526020600020905b81548152906001019060200180831161071657829003601f168201915b5050505050905082565b7f000000000000000000000000000000000000000000000000000000000000000081565b7f000000000000000000000000000000000000000000000000000000000000000081565b600080610790610fea565b111561079f576000905061086e565b7f00000000000000000000000000000000000000000000000000000000000000004210156107d0576001905061086e565b7f0000000000000000000000000000000000000000000000000000000000000000421015610801576002905061086e565b7f0000000000000000000000000000000000000000000000000000000000000000421015610832576003905061086e565b600060038054905011801561084957506000600254115b15610857576004905061086e565b6000471115610869576005905061086e565b600690505b90565b7f000000000000000000000000000000000000000000000000000000000000000081565b6000807f000000000000000000000000000000000000000000000000000000000000000073ffffffffffffffffffffffffffffffffffffffff16638e15f4736040518163ffffffff1660e01b815260040160206040518083038186803b1580156108fe57600080fd5b505afa158015610912573d6000803e3d6000fd5b505050506040513d601f19601f8201168201806040525081019061093691906124ac565b90506000811361094a576000915050610aa8565b60007f000000000000000000000000000000000000000000000000000000000000000073ffffffffffffffffffffffffffffffffffffffff1663313ce5676040518163ffffffff1660e01b815260040160206040518083038186803b1580156109b257600080fd5b505afa1580156109c6573d6000803e3d6000fd5b505050506040513d601f19601f820116820180604052508101906109ea9190612505565b7f0000000000000000000000000000000000000000000000000000000000000000610a159190612561565b600a610a2191906126c8565b82610a2c9190612713565b90506000817f000000000000000000000000000000000000000000000000000000000000000060027f0000000000000000000000000000000000000000000000000000000000000000610a7f919061276d565b600a610a8b91906126c8565b610a959190612713565b610a9f91906127d7565b90508093505050505b90565b60038181548110610abb57600080fd5b906000526020600020016000915090508060000154905081565b7f000000000000000000000000000000000000000000000000000000000000000081565b7f000000000000000000000000000000000000000000000000000000000000000081565b60026006811115610b3157610b30612045565b5b610b39610785565b6006811115610b4b57610b4a612045565b5b14610b8b576040517f08c379a0000000000000000000000000000000000000000000000000000000008152600401610b829061287a565b60405180910390fd5b6000610b95610895565b905080341015610bda576040517f08c379a0000000000000000000000000000000000000000000000000000000008152600401610bd19061290c565b60405180910390fd5b60007f000000000000000000000000000000000000000000000000000000000000000073ffffffffffffffffffffffffffffffffffffffff16635720a07c33856040518363ffffffff1660e01b8152600401610c379291906129cd565b602060405180830381600087803b158015610c5157600080fd5b505af1158015610c65573d6000803e3d6000fd5b505050506040513d601f19601f82011682018060405250810190610c899190612a0b565b9050600360405180602001604052808381525090806001815401808255809150506001900390600052602060002001600090919091909150600082015181600001555050505050565b8060098190555050565b7f000000000000000000000000000000000000000000000000000000000000000081565b60046006811115610d1457610d13612045565b5b610d1c610785565b6006811115610d2e57610d2d612045565b5b14610d6e576040517f08c379a0000000000000000000000000000000000000000000000000000000008152600401610d6590612aaa565b60405180910390fd5b6000610d7861148e565b9050600060018281548110610d9057610d8f612aca565b5b906000526020600020906002020160405180604001604052908160008201548152602001600182018054610dc390612444565b80601f0160208091040260200160405190810160405280929190818152602001828054610def90612444565b8015610e3c5780601f10610e1157610100808354040283529160200191610e3c565b820191906000526020600020905b815481529060010190602001808311610e1f57829003601f168201915b50505050508152505090508060000151421015610e8e576040517f08c379a0000000000000000000000000000000000000000000000000000000008152600401610e8590612b6b565b60405180910390fd5b600860009054906101000a900460ff1615610ede576040517f08c379a0000000000000000000000000000000000000000000000000000000008152600401610ed590612bd7565b60405180910390fd5b610f287f00000000000000000000000000000000000000000000000000000000000000007f00000000000000000000000000000000000000000000000000000000000000006114a8565b506001600860006101000a81548160ff0219169083151502179055506000821415610fc25760038054905060078190555060066040518060400160405280600081526020016001600380549050610f7f9190612bf7565b8152509080600181540180825580915050600190039060005260206000209060020201600090919091909150600082015181600001556020820151816001015550505b5050565b7f000000000000000000000000000000000000000000000000000000000000000081565b6000806002547f000000000000000000000000000000000000000000000000000000000000000061101b9190612713565b905060007f000000000000000000000000000000000000000000000000000000000000000073ffffffffffffffffffffffffffffffffffffffff166370a08231306040518263ffffffff1660e01b81526004016110789190612c2b565b60206040518083038186803b15801561109057600080fd5b505afa1580156110a4573d6000803e3d6000fd5b505050506040513d601f19601f820116820180604052508101906110c89190612a0b565b9050818110156110e75780826110de9190612bf7565b925050506110ee565b6000925050505b90565b7f000000000000000000000000000000000000000000000000000000000000000081565b7f000000000000000000000000000000000000000000000000000000000000000073ffffffffffffffffffffffffffffffffffffffff163373ffffffffffffffffffffffffffffffffffffffff16146111a3576040517f08c379a000000000000000000000000000000000000000000000000000000000815260040161119a90612c92565b60405180910390fd5b6111ad8282611607565b5050565b60095481565b600481815481106111c757600080fd5b906000526020600020016000915090508060000154905081565b60006006808111156111f6576111f5612045565b5b6111fe610785565b60068111156112105761120f612045565b5b14905090565b600381565b6006818154811061122b57600080fd5b90600052602060002090600202016000915090508060000154908060010154905082565b6005600681111561126357611262612045565b5b61126b610785565b600681111561127d5761127c612045565b5b146112bd576040517f08c379a00000000000000000000000000000000000000000000000000000000081526004016112b490612d24565b60405180910390fd5b6112c5611d52565b60005b600680549050811080156112e45750600360ff16600480549050105b1561141d576000600682815481106112ff576112fe612aca565b5b90600052602060002090600202016040518060400160405290816000820154815260200160018201548152505090506000816000015190505b816020015181111580156113545750600360ff16600480549050105b156114085760006003828154811061136f5761136e612aca565b5b906000526020600020016040518060200160405290816000820154815250509050600481908060018154018082558091505060019003906000526020600020016000909190919091506000820151816000015550506001600560008360000151815260200190815260200160002060006101000a81548160ff02191690831515021790555050808061140090612d44565b915050611338565b5050808061141590612d44565b9150506112c8565b50565b60006005600083815260200190815260200160002060009054906101000a900460ff169050919050565b60056020528060005260406000206000915054906101000a900460ff1681565b7f000000000000000000000000000000000000000000000000000000000000000081565b60006002546001805490506114a39190612bf7565b905090565b60007f000000000000000000000000000000000000000000000000000000000000000073ffffffffffffffffffffffffffffffffffffffff16634000aea07f00000000000000000000000000000000000000000000000000000000000000008486600060405160200161151c929190612d8d565b6040516020818303038152906040526040518463ffffffff1660e01b815260040161154993929190612e0b565b602060405180830381600087803b15801561156357600080fd5b505af1158015611577573d6000803e3d6000fd5b505050506040513d601f19601f8201168201806040525081019061159b9190612e75565b5060006115bd8460003060008089815260200190815260200160002054611dbb565b90506001600080868152602001908152602001600020546115de9190612ea2565b600080868152602001908152602001600020819055506115fe8482611df7565b91505092915050565b60006006805480602002602001604051908101604052809291908181526020016000905b828210156116715783829060005260206000209060020201604051806040016040529081600082015481526020016001820154815250508152602001906001019061162b565b5050505090506000600690506006600061168b9190611e2a565b60026007600082825461169e91906127d7565b92505081905550600360ff1660075410156116bf57600360ff166007819055505b600182511415611972576000826000815181106116df576116de612aca565b5b60200260200101516000015160018460008151811061170157611700612aca565b5b6020026020010151600001518560008151811061172157611720612aca565b5b6020026020010151602001516117379190612bf7565b6117419190612ea2565b8561174c9190612ef8565b6117569190612ea2565b90508260008151811061176c5761176b612aca565b5b6020026020010151602001516001600754836117889190612ea2565b6117929190612bf7565b1161180a578160405180604001604052808381526020016001600754856117b99190612ea2565b6117c39190612bf7565b81525090806001815401808255809150506001900390600052602060002090600202016000909190919091506000820151816000015560208201518160010155505061196c565b816040518060400160405280838152602001856000815181106118305761182f612aca565b5b6020026020010151602001518152509080600181540180825580915050600190039060005260206000209060020201600090919091909150600082015181600001556020820151816001015550508160405180604001604052808560008151811061189e5761189d612aca565b5b6020026020010151600001518152602001600184876000815181106118c6576118c5612aca565b5b6020026020010151602001516118dc9190612bf7565b6118e69190612ea2565b60016007546118f59190612bf7565b8760008151811061190957611908612aca565b5b60200260200101516000015161191f9190612ea2565b6119299190612bf7565b8152509080600181540180825580915050600190039060005260206000209060020201600090919091909150600082015181600001556020820151816001015550505b50611d05565b60006002846119819190612ef8565b9050600083828151811061199857611997612aca565b5b60200260200101516000015160018584815181106119b9576119b8612aca565b5b6020026020010151600001518685815181106119d8576119d7612aca565b5b6020026020010151602001516119ee9190612bf7565b6119f89190612ea2565b86611a039190612ef8565b611a0d9190612ea2565b9050838281518110611a2257611a21612aca565b5b602002602001015160200151600160075483611a3e9190612ea2565b611a489190612bf7565b11611ac057826040518060400160405280838152602001600160075485611a6f9190612ea2565b611a799190612bf7565b815250908060018154018082558091505060019003906000526020600020906002020160009091909190915060008201518160000155602082015181600101555050611d02565b60006002600184611ad19190612ea2565b611adb9190612ef8565b90506000600183878681518110611af557611af4612aca565b5b602002602001015160200151611b0b9190612bf7565b611b159190612ea2565b9050600081600754611b279190612bf7565b90506000600182898681518110611b4157611b40612aca565b5b602002602001015160000151611b579190612ea2565b611b619190612bf7565b90506003805490508110611ba0576000600380549050600183611b849190612ea2565b611b8e9190612bf7565b90508086611b9c9190612bf7565b9550505b8660405180604001604052808781526020018a8981518110611bc557611bc4612aca565b5b6020026020010151602001518152509080600181540180825580915050600190039060005260206000209060020201600090919091909150600082015181600001556020820151816001015550508660405180604001604052808a8781518110611c3257611c31612aca565b5b60200260200101516000015181526020016001888c8b81518110611c5957611c58612aca565b5b602002602001015160200151611c6f9190612bf7565b611c799190612ea2565b6001600754611c889190612bf7565b8c8981518110611c9b57611c9a612aca565b5b602002602001015160000151611cb19190612ea2565b611cbb9190612bf7565b815250908060018154018082558091505060019003906000526020600020906002020160009091909190915060008201518160000155602082015181600101555050505050505b50505b6000600860006101000a81548160ff02191690831515021790555060026000815480929190611d3390612f29565b919050555060006002541415611d4c57611d4b61124f565b5b50505050565b7f000000000000000000000000000000000000000000000000000000000000000073ffffffffffffffffffffffffffffffffffffffff166108fc479081150290604051600060405180830381858888f19350505050158015611db8573d6000803e3d6000fd5b50565b600084848484604051602001611dd49493929190612f53565b6040516020818303038152906040528051906020012060001c9050949350505050565b60008282604051602001611e0c929190612fda565b60405160208183030381529060405280519060200120905092915050565b5080546000825560020290600052602060002090810190611e4b9190611e4e565b50565b5b80821115611e7157600080820160009055600182016000905550600201611e4f565b5090565b6000819050919050565b611e8881611e75565b82525050565b6000602082019050611ea36000830184611e7f565b92915050565b6000604051905090565b600080fd5b6000819050919050565b611ecb81611eb8565b8114611ed657600080fd5b50565b600081359050611ee881611ec2565b92915050565b600060208284031215611f0457611f03611eb3565b5b6000611f1284828501611ed9565b91505092915050565b611f2481611eb8565b82525050565b600081519050919050565b600082825260208201905092915050565b60005b83811015611f64578082015181840152602081019050611f49565b83811115611f73576000848401525b50505050565b6000601f19601f8301169050919050565b6000611f9582611f2a565b611f9f8185611f35565b9350611faf818560208601611f46565b611fb881611f79565b840191505092915050565b6000604082019050611fd86000830185611f1b565b8181036020830152611fea8184611f8a565b90509392505050565b60006020820190506120086000830184611f1b565b92915050565b600060ff82169050919050565b6120248161200e565b82525050565b600060208201905061203f600083018461201b565b92915050565b7f4e487b7100000000000000000000000000000000000000000000000000000000600052602160045260246000fd5b6007811061208557612084612045565b5b50565b600081905061209682612074565b919050565b60006120a682612088565b9050919050565b6120b68161209b565b82525050565b60006020820190506120d160008301846120ad565b92915050565b600073ffffffffffffffffffffffffffffffffffffffff82169050919050565b6000819050919050565b600061211c612117612112846120d7565b6120f7565b6120d7565b9050919050565b600061212e82612101565b9050919050565b600061214082612123565b9050919050565b61215081612135565b82525050565b600060208201905061216b6000830184612147565b92915050565b600080fd5b7f4e487b7100000000000000000000000000000000000000000000000000000000600052604160045260246000fd5b6121ae82611f79565b810181811067ffffffffffffffff821117156121cd576121cc612176565b5b80604052505050565b60006121e0611ea9565b90506121ec82826121a5565b919050565b60006080828403121561220757612206612171565b5b61221160806121d6565b9050600061222184828501611ed9565b600083015250602061223584828501611ed9565b602083015250604061224984828501611ed9565b604083015250606061225d84828501611ed9565b60608301525092915050565b60006080828403121561227f5761227e612171565b5b61228960206121d6565b90506000612299848285016121f1565b60008301525092915050565b6000608082840312156122bb576122ba611eb3565b5b60006122c984828501612269565b91505092915050565b60006122dd826120d7565b9050919050565b6122ed816122d2565b82525050565b600060208201905061230860008301846122e4565b92915050565b61231781611e75565b811461232257600080fd5b50565b6000813590506123348161230e565b92915050565b6000806040838503121561235157612350611eb3565b5b600061235f85828601612325565b925050602061237085828601611ed9565b9150509250929050565b60008115159050919050565b61238f8161237a565b82525050565b60006020820190506123aa6000830184612386565b92915050565b60006040820190506123c56000830185611f1b565b6123d26020830184611f1b565b9392505050565b60006123e482612123565b9050919050565b6123f4816123d9565b82525050565b600060208201905061240f60008301846123eb565b92915050565b7f4e487b7100000000000000000000000000000000000000000000000000000000600052602260045260246000fd5b6000600282049050600182168061245c57607f821691505b602082108114156124705761246f612415565b5b50919050565b6000819050919050565b61248981612476565b811461249457600080fd5b50565b6000815190506124a681612480565b92915050565b6000602082840312156124c2576124c1611eb3565b5b60006124d084828501612497565b91505092915050565b6124e28161200e565b81146124ed57600080fd5b50565b6000815190506124ff816124d9565b92915050565b60006020828403121561251b5761251a611eb3565b5b6000612529848285016124f0565b91505092915050565b7f4e487b7100000000000000000000000000000000000000000000000000000000600052601160045260246000fd5b600061256c8261200e565b91506125778361200e565b92508282101561258a57612589612532565b5b828203905092915050565b60008160011c9050919050565b6000808291508390505b60018511156125ec578086048111156125c8576125c7612532565b5b60018516156125d75780820291505b80810290506125e585612595565b94506125ac565b94509492505050565b60008261260557600190506126c1565b8161261357600090506126c1565b8160018114612629576002811461263357612662565b60019150506126c1565b60ff84111561264557612644612532565b5b8360020a91508482111561265c5761265b612532565b5b506126c1565b5060208310610133831016604e8410600b84101617156126975782820a90508381111561269257612691612532565b5b6126c1565b6126a484848460016125a2565b925090508184048111156126bb576126ba612532565b5b81810290505b9392505050565b60006126d382611eb8565b91506126de8361200e565b925061270b7fffffffffffffffffffffffffffffffffffffffffffffffffffffffffffffffff84846125f5565b905092915050565b600061271e82611eb8565b915061272983611eb8565b9250817fffffffffffffffffffffffffffffffffffffffffffffffffffffffffffffffff048311821515161561276257612761612532565b5b828202905092915050565b60006127788261200e565b91506127838361200e565b92508160ff048311821515161561279d5761279c612532565b5b828202905092915050565b7f4e487b7100000000000000000000000000000000000000000000000000000000600052601260045260246000fd5b60006127e282611eb8565b91506127ed83611eb8565b9250826127fd576127fc6127a8565b5b828204905092915050565b7f4e6f742063757272656e746c7920616363657074696e6720706172746963697060008201527f616e747300000000000000000000000000000000000000000000000000000000602082015250565b6000612864602483611f35565b915061286f82612808565b604082019050919050565b6000602082019050818103600083015261289381612857565b9050919050565b7f4e6f7420656e6f7567682066756e647320746f2070617274696369706174652e60008201527f20536565206765745072696365546f5061727469636970617465282900000000602082015250565b60006128f6603c83611f35565b91506129018261289a565b604082019050919050565b60006020820190508181036000830152612925816128e9565b9050919050565b6000612937826120d7565b9050919050565b6129478161292c565b82525050565b61295681611eb8565b82525050565b608082016000820151612972600085018261294d565b506020820151612985602085018261294d565b506040820151612998604085018261294d565b5060608201516129ab606085018261294d565b50505050565b6080820160008201516129c7600085018261295c565b50505050565b600060a0820190506129e2600083018561293e565b6129ef60208301846129b1565b9392505050565b600081519050612a0581611ec2565b92915050565b600060208284031215612a2157612a20611eb3565b5b6000612a2f848285016129f6565b91505092915050565b7f4e6f742063757272656e746c792077616974696e6720666f7220746865206e6560008201527f7874206576656e74000000000000000000000000000000000000000000000000602082015250565b6000612a94602883611f35565b9150612a9f82612a38565b604082019050919050565b60006020820190508181036000830152612ac381612a87565b9050919050565b7f4e487b7100000000000000000000000000000000000000000000000000000000600052603260045260246000fd5b7f546f6f206561726c7920746f207472696767657220746865206e65787420657660008201527f656e740000000000000000000000000000000000000000000000000000000000602082015250565b6000612b55602383611f35565b9150612b6082612af9565b604082019050919050565b60006020820190508181036000830152612b8481612b48565b9050919050565b7f416c72656164792072657175657374696e672072616e646f6d6e657373000000600082015250565b6000612bc1601d83611f35565b9150612bcc82612b8b565b602082019050919050565b60006020820190508181036000830152612bf081612bb4565b9050919050565b6000612c0282611eb8565b9150612c0d83611eb8565b925082821015612c2057612c1f612532565b5b828203905092915050565b6000602082019050612c40600083018461293e565b92915050565b7f4f6e6c7920565246436f6f7264696e61746f722063616e2066756c66696c6c00600082015250565b6000612c7c601f83611f35565b9150612c8782612c46565b602082019050919050565b60006020820190508181036000830152612cab81612c6f565b9050919050565b7f4e6f742063757272656e746c792077616974696e6720666f722066756e64732060008201527f72656c6561736500000000000000000000000000000000000000000000000000602082015250565b6000612d0e602783611f35565b9150612d1982612cb2565b604082019050919050565b60006020820190508181036000830152612d3d81612d01565b9050919050565b6000612d4f82611eb8565b91507fffffffffffffffffffffffffffffffffffffffffffffffffffffffffffffffff821415612d8257612d81612532565b5b600182019050919050565b6000604082019050612da26000830185611e7f565b612daf6020830184611f1b565b9392505050565b600081519050919050565b600082825260208201905092915050565b6000612ddd82612db6565b612de78185612dc1565b9350612df7818560208601611f46565b612e0081611f79565b840191505092915050565b6000606082019050612e20600083018661293e565b612e2d6020830185611f1b565b8181036040830152612e3f8184612dd2565b9050949350505050565b612e528161237a565b8114612e5d57600080fd5b50565b600081519050612e6f81612e49565b92915050565b600060208284031215612e8b57612e8a611eb3565b5b6000612e9984828501612e60565b91505092915050565b6000612ead82611eb8565b9150612eb883611eb8565b9250827fffffffffffffffffffffffffffffffffffffffffffffffffffffffffffffffff03821115612eed57612eec612532565b5b828201905092915050565b6000612f0382611eb8565b9150612f0e83611eb8565b925082612f1e57612f1d6127a8565b5b828206905092915050565b6000612f3482611eb8565b91506000821415612f4857612f47612532565b5b600182039050919050565b6000608082019050612f686000830187611e7f565b612f756020830186611f1b565b612f82604083018561293e565b612f8f6060830184611f1b565b95945050505050565b6000819050919050565b612fb3612fae82611e75565b612f98565b82525050565b6000819050919050565b612fd4612fcf82611eb8565b612fb9565b82525050565b6000612fe68285612fa2565b602082019150612ff68284612fc3565b602082019150819050939250505056fea26469706673582212201df797a4adf5aede773aedfe6828f6f76be80a1bce248932cc58071c68cf3cef64736f6c6343000809003360a060405234801561001057600080fd5b5073d0d5e3db44de05e9f294bb0a3beeaf030de24ada8073ffffffffffffffffffffffffffffffffffffffff1660808173ffffffffffffffffffffffffffffffffffffffff1681525050506080516103f661007c60003960008181607b015261012701526103f66000f3fe608060405234801561001057600080fd5b50600436106100365760003560e01c8063313ce5671461003b5780638e15f47314610059575b600080fd5b610043610077565b60405161005091906101f4565b60405180910390f35b61006161011c565b60405161006e9190610228565b60405180910390f35b60007f000000000000000000000000000000000000000000000000000000000000000073ffffffffffffffffffffffffffffffffffffffff1663313ce5676040518163ffffffff1660e01b815260040160206040518083038186803b1580156100df57600080fd5b505afa1580156100f3573d6000803e3d6000fd5b505050506040513d601f19601f820116820180604052508101906101179190610274565b905090565b6000806000806000807f000000000000000000000000000000000000000000000000000000000000000073ffffffffffffffffffffffffffffffffffffffff1663feaf968c6040518163ffffffff1660e01b815260040160a06040518083038186803b15801561018b57600080fd5b505afa15801561019f573d6000803e3d6000fd5b505050506040513d601f19601f820116820180604052508101906101c39190610345565b94509450945094509450839550505050505090565b600060ff82169050919050565b6101ee816101d8565b82525050565b600060208201905061020960008301846101e5565b92915050565b6000819050919050565b6102228161020f565b82525050565b600060208201905061023d6000830184610219565b92915050565b600080fd5b610251816101d8565b811461025c57600080fd5b50565b60008151905061026e81610248565b92915050565b60006020828403121561028a57610289610243565b5b60006102988482850161025f565b91505092915050565b600069ffffffffffffffffffff82169050919050565b6102c0816102a1565b81146102cb57600080fd5b50565b6000815190506102dd816102b7565b92915050565b6102ec8161020f565b81146102f757600080fd5b50565b600081519050610309816102e3565b92915050565b6000819050919050565b6103228161030f565b811461032d57600080fd5b50565b60008151905061033f81610319565b92915050565b600080600080600060a0868803121561036157610360610243565b5b600061036f888289016102ce565b9550506020610380888289016102fa565b945050604061039188828901610330565b93505060606103a288828901610330565b92505060806103b3888289016102ce565b915050929550929590935056fea2646970667358221220fdcf449e6b9a874a9f7a8c1093e03819b5dccf06a66192bfdfd69b7f27f9e30364736f6c6343000809003360806040523480156200001157600080fd5b50604051620043d1380380620043d18339818101604052810190620000379190620004cc565b828281600090805190602001906200005192919062000206565b5080600190805190602001906200006a92919062000206565b5050506200008d620000816200013860201b60201c565b6200014060201b60201c565b6000815111620000d4576040517f08c379a0000000000000000000000000000000000000000000000000000000008152600401620000cb90620005fc565b60405180910390fd5b80600b9080519060200190620000ec92919062000206565b5083600c60006101000a81548173ffffffffffffffffffffffffffffffffffffffff021916908373ffffffffffffffffffffffffffffffffffffffff1602179055505050505062000683565b600033905090565b6000600a60009054906101000a900473ffffffffffffffffffffffffffffffffffffffff16905081600a60006101000a81548173ffffffffffffffffffffffffffffffffffffffff021916908373ffffffffffffffffffffffffffffffffffffffff1602179055508173ffffffffffffffffffffffffffffffffffffffff168173ffffffffffffffffffffffffffffffffffffffff167f8be0079c531659141344cd1fd0a4f28419497f9722a3daafe3b4186f6b6457e060405160405180910390a35050565b82805462000214906200064d565b90600052602060002090601f01602090048101928262000238576000855562000284565b82601f106200025357805160ff191683800117855562000284565b8280016001018555821562000284579182015b828111156200028357825182559160200191906001019062000266565b5b50905062000293919062000297565b5090565b5b80821115620002b257600081600090555060010162000298565b5090565b6000604051905090565b600080fd5b600080fd5b600073ffffffffffffffffffffffffffffffffffffffff82169050919050565b6000620002f782620002ca565b9050919050565b60006200030b82620002ea565b9050919050565b6200031d81620002fe565b81146200032957600080fd5b50565b6000815190506200033d8162000312565b92915050565b600080fd5b600080fd5b6000601f19601f8301169050919050565b7f4e487b7100000000000000000000000000000000000000000000000000000000600052604160045260246000fd5b62000398826200034d565b810181811067ffffffffffffffff82111715620003ba57620003b96200035e565b5b80604052505050565b6000620003cf620002b6565b9050620003dd82826200038d565b919050565b600067ffffffffffffffff8211156200040057620003ff6200035e565b5b6200040b826200034d565b9050602081019050919050565b60005b83811015620004385780820151818401526020810190506200041b565b8381111562000448576000848401525b50505050565b6000620004656200045f84620003e2565b620003c3565b90508281526020810184848401111562000484576200048362000348565b5b6200049184828562000418565b509392505050565b600082601f830112620004b157620004b062000343565b5b8151620004c38482602086016200044e565b91505092915050565b60008060008060808587031215620004e957620004e8620002c0565b5b6000620004f9878288016200032c565b945050602085015167ffffffffffffffff8111156200051d576200051c620002c5565b5b6200052b8782880162000499565b935050604085015167ffffffffffffffff8111156200054f576200054e620002c5565b5b6200055d8782880162000499565b925050606085015167ffffffffffffffff811115620005815762000580620002c5565b5b6200058f8782880162000499565b91505092959194509250565b600082825260208201905092915050565b7f4e6f204349442070726f76696465640000000000000000000000000000000000600082015250565b6000620005e4600f836200059b565b9150620005f182620005ac565b602082019050919050565b600060208201905081810360008301526200061781620005d5565b9050919050565b7f4e487b7100000000000000000000000000000000000000000000000000000000600052602260045260246000fd5b600060028204905060018216806200066657607f821691505b602082108114156200067d576200067c6200061e565b5b50919050565b613d3e80620006936000396000f3fe608060405234801561001057600080fd5b50600436106101585760003560e01c806370a08231116100c3578063ba13a5721161007c578063ba13a572146103eb578063c098004c14610409578063c87b56dd14610427578063e8a3d48514610457578063e985e9c514610475578063f2fde38b146104a557610158565b806370a082311461033d578063715018a61461036d5780638da5cb5b1461037757806395d89b4114610395578063a22cb465146103b3578063b88d4fde146103cf57610158565b80632f745c59116101155780632f745c59146102315780634025b22d1461026157806342842e0e146102915780634f6ccce7146102ad5780635720a07c146102dd5780636352211e1461030d57610158565b806301ffc9a71461015d57806306fdde031461018d578063081812fc146101ab578063095ea7b3146101db57806318160ddd146101f757806323b872dd14610215575b600080fd5b61017760048036038101906101729190612563565b6104c1565b60405161018491906125ab565b60405180910390f35b61019561053b565b6040516101a2919061265f565b60405180910390f35b6101c560048036038101906101c091906126b7565b6105cd565b6040516101d29190612725565b60405180910390f35b6101f560048036038101906101f0919061276c565b610652565b005b6101ff61076a565b60405161020c91906127bb565b60405180910390f35b61022f600480360381019061022a91906127d6565b610777565b005b61024b6004803603810190610246919061276c565b6107d7565b60405161025891906127bb565b60405180910390f35b61027b600480360381019061027691906126b7565b61087c565b60405161028891906128a9565b60405180910390f35b6102ab60048036038101906102a691906127d6565b6108e5565b005b6102c760048036038101906102c291906126b7565b610905565b6040516102d491906127bb565b60405180910390f35b6102f760048036038101906102f291906129f8565b610976565b60405161030491906127bb565b60405180910390f35b610327600480360381019061032291906126b7565b610a6a565b6040516103349190612725565b60405180910390f35b61035760048036038101906103529190612a38565b610b1c565b60405161036491906127bb565b60405180910390f35b610375610bd4565b005b61037f610c5c565b60405161038c9190612725565b60405180910390f35b61039d610c86565b6040516103aa919061265f565b60405180910390f35b6103cd60048036038101906103c89190612a91565b610d18565b005b6103e960048036038101906103e49190612b8b565b610d2e565b005b6103f3610d90565b6040516104009190612c6d565b60405180910390f35b610411610db6565b60405161041e919061265f565b60405180910390f35b610441600480360381019061043c91906126b7565b610e44565b60405161044e919061265f565b60405180910390f35b61045f6110bc565b60405161046c919061265f565b60405180910390f35b61048f600480360381019061048a9190612c88565b6110e4565b60405161049c91906125ab565b60405180910390f35b6104bf60048036038101906104ba9190612a38565b611178565b005b60007f780e9d63000000000000000000000000000000000000000000000000000000007bffffffffffffffffffffffffffffffffffffffffffffffffffffffff1916827bffffffffffffffffffffffffffffffffffffffffffffffffffffffff19161480610534575061053382611270565b5b9050919050565b60606000805461054a90612cf7565b80601f016020809104026020016040519081016040528092919081815260200182805461057690612cf7565b80156105c35780601f10610598576101008083540402835291602001916105c3565b820191906000526020600020905b8154815290600101906020018083116105a657829003601f168201915b5050505050905090565b60006105d882611352565b610617576040517f08c379a000000000000000000000000000000000000000000000000000000000815260040161060e90612d9b565b60405180910390fd5b6004600083815260200190815260200160002060009054906101000a900473ffffffffffffffffffffffffffffffffffffffff169050919050565b600061065d82610a6a565b90508073ffffffffffffffffffffffffffffffffffffffff168373ffffffffffffffffffffffffffffffffffffffff1614156106ce576040517f08c379a00000000000000000000000000000000000000000000000000000000081526004016106c590612e2d565b60405180910390fd5b8073ffffffffffffffffffffffffffffffffffffffff166106ed6113be565b73ffffffffffffffffffffffffffffffffffffffff16148061071c575061071b816107166113be565b6110e4565b5b61075b576040517f08c379a000000000000000000000000000000000000000000000000000000000815260040161075290612ebf565b60405180910390fd5b61076583836113c6565b505050565b6000600880549050905090565b6107886107826113be565b8261147f565b6107c7576040517f08c379a00000000000000000000000000000000000000000000000000000000081526004016107be90612f51565b60405180910390fd5b6107d283838361155d565b505050565b60006107e283610b1c565b8210610823576040517f08c379a000000000000000000000000000000000000000000000000000000000815260040161081a90612fe3565b60405180910390fd5b600660008473ffffffffffffffffffffffffffffffffffffffff1673ffffffffffffffffffffffffffffffffffffffff168152602001908152602001600020600083815260200190815260200160002054905092915050565b6108846124b6565b600e600083815260200190815260200160002060405180602001604052908160008201604051806080016040529081600082015481526020016001820154815260200160028201548152602001600382015481525050815250509050919050565b61090083838360405180602001604052806000815250610d2e565b505050565b600061090f61076a565b8210610950576040517f08c379a000000000000000000000000000000000000000000000000000000000815260040161094790613075565b60405180910390fd5b6008828154811061096457610963613095565b5b90600052602060002001549050919050565b60006109806113be565b73ffffffffffffffffffffffffffffffffffffffff1661099e610c5c565b73ffffffffffffffffffffffffffffffffffffffff16146109f4576040517f08c379a00000000000000000000000000000000000000000000000000000000081526004016109eb90613110565b60405180910390fd5b6000610a00600d6117b9565b9050610a0c84826117c7565b82600e6000838152602001908152602001600020600082015181600001600082015181600001556020820151816001015560408201518160020155606082015181600301555050905050610a60600d6117e5565b8091505092915050565b6000806002600084815260200190815260200160002060009054906101000a900473ffffffffffffffffffffffffffffffffffffffff169050600073ffffffffffffffffffffffffffffffffffffffff168173ffffffffffffffffffffffffffffffffffffffff161415610b13576040517f08c379a0000000000000000000000000000000000000000000000000000000008152600401610b0a906131a2565b60405180910390fd5b80915050919050565b60008073ffffffffffffffffffffffffffffffffffffffff168273ffffffffffffffffffffffffffffffffffffffff161415610b8d576040517f08c379a0000000000000000000000000000000000000000000000000000000008152600401610b8490613234565b60405180910390fd5b600360008373ffffffffffffffffffffffffffffffffffffffff1673ffffffffffffffffffffffffffffffffffffffff168152602001908152602001600020549050919050565b610bdc6113be565b73ffffffffffffffffffffffffffffffffffffffff16610bfa610c5c565b73ffffffffffffffffffffffffffffffffffffffff1614610c50576040517f08c379a0000000000000000000000000000000000000000000000000000000008152600401610c4790613110565b60405180910390fd5b610c5a60006117fb565b565b6000600a60009054906101000a900473ffffffffffffffffffffffffffffffffffffffff16905090565b606060018054610c9590612cf7565b80601f0160208091040260200160405190810160405280929190818152602001828054610cc190612cf7565b8015610d0e5780601f10610ce357610100808354040283529160200191610d0e565b820191906000526020600020905b815481529060010190602001808311610cf157829003601f168201915b5050505050905090565b610d2a610d236113be565b83836118c1565b5050565b610d3f610d396113be565b8361147f565b610d7e576040517f08c379a0000000000000000000000000000000000000000000000000000000008152600401610d7590612f51565b60405180910390fd5b610d8a84848484611a2e565b50505050565b600c60009054906101000a900473ffffffffffffffffffffffffffffffffffffffff1681565b600b8054610dc390612cf7565b80601f0160208091040260200160405190810160405280929190818152602001828054610def90612cf7565b8015610e3c5780601f10610e1157610100808354040283529160200191610e3c565b820191906000526020600020905b815481529060010190602001808311610e1f57829003601f168201915b505050505081565b6060610e4f82611352565b610e8e576040517f08c379a0000000000000000000000000000000000000000000000000000000008152600401610e85906132c6565b60405180910390fd5b6060600c60009054906101000a900473ffffffffffffffffffffffffffffffffffffffff1673ffffffffffffffffffffffffffffffffffffffff1663b2fa1c9e6040518163ffffffff1660e01b815260040160206040518083038186803b158015610ef857600080fd5b505afa158015610f0c573d6000803e3d6000fd5b505050506040513d601f19601f82011682018060405250810190610f3091906132fb565b8015610fe45750600c60009054906101000a900473ffffffffffffffffffffffffffffffffffffffff1673ffffffffffffffffffffffffffffffffffffffff1663d84e29ea846040518263ffffffff1660e01b8152600401610f9291906127bb565b60206040518083038186803b158015610faa57600080fd5b505afa158015610fbe573d6000803e3d6000fd5b505050506040513d601f19601f82011682018060405250810190610fe291906132fb565b155b15611026576040518060400160405280600981526020017f64657374726f79656400000000000000000000000000000000000000000000008152509050611091565b6000600e60008581526020019081526020016000206040518060200160405290816000820160405180608001604052908160008201548152602001600182015481526020016002820154815260200160038201548152505081525050905061108d81611a8a565b9150505b600b816040516020016110a59291906134dc565b604051602081830303815290604052915050919050565b6060600b6040516020016110d0919061356d565b604051602081830303815290604052905090565b6000600560008473ffffffffffffffffffffffffffffffffffffffff1673ffffffffffffffffffffffffffffffffffffffff16815260200190815260200160002060008373ffffffffffffffffffffffffffffffffffffffff1673ffffffffffffffffffffffffffffffffffffffff16815260200190815260200160002060009054906101000a900460ff16905092915050565b6111806113be565b73ffffffffffffffffffffffffffffffffffffffff1661119e610c5c565b73ffffffffffffffffffffffffffffffffffffffff16146111f4576040517f08c379a00000000000000000000000000000000000000000000000000000000081526004016111eb90613110565b60405180910390fd5b600073ffffffffffffffffffffffffffffffffffffffff168173ffffffffffffffffffffffffffffffffffffffff161415611264576040517f08c379a000000000000000000000000000000000000000000000000000000000815260040161125b9061360c565b60405180910390fd5b61126d816117fb565b50565b60007f80ac58cd000000000000000000000000000000000000000000000000000000007bffffffffffffffffffffffffffffffffffffffffffffffffffffffff1916827bffffffffffffffffffffffffffffffffffffffffffffffffffffffff1916148061133b57507f5b5e139f000000000000000000000000000000000000000000000000000000007bffffffffffffffffffffffffffffffffffffffffffffffffffffffff1916827bffffffffffffffffffffffffffffffffffffffffffffffffffffffff1916145b8061134b575061134a82611af9565b5b9050919050565b60008073ffffffffffffffffffffffffffffffffffffffff166002600084815260200190815260200160002060009054906101000a900473ffffffffffffffffffffffffffffffffffffffff1673ffffffffffffffffffffffffffffffffffffffff1614159050919050565b600033905090565b816004600083815260200190815260200160002060006101000a81548173ffffffffffffffffffffffffffffffffffffffff021916908373ffffffffffffffffffffffffffffffffffffffff160217905550808273ffffffffffffffffffffffffffffffffffffffff1661143983610a6a565b73ffffffffffffffffffffffffffffffffffffffff167f8c5be1e5ebec7d5bd14f71427d1e84f3dd0314c0f7b2291e5b200ac8c7c3b92560405160405180910390a45050565b600061148a82611352565b6114c9576040517f08c379a00000000000000000000000000000000000000000000000000000000081526004016114c09061369e565b60405180910390fd5b60006114d483610a6a565b90508073ffffffffffffffffffffffffffffffffffffffff168473ffffffffffffffffffffffffffffffffffffffff16148061154357508373ffffffffffffffffffffffffffffffffffffffff1661152b846105cd565b73ffffffffffffffffffffffffffffffffffffffff16145b80611554575061155381856110e4565b5b91505092915050565b8273ffffffffffffffffffffffffffffffffffffffff1661157d82610a6a565b73ffffffffffffffffffffffffffffffffffffffff16146115d3576040517f08c379a00000000000000000000000000000000000000000000000000000000081526004016115ca90613730565b60405180910390fd5b600073ffffffffffffffffffffffffffffffffffffffff168273ffffffffffffffffffffffffffffffffffffffff161415611643576040517f08c379a000000000000000000000000000000000000000000000000000000000815260040161163a906137c2565b60405180910390fd5b61164e838383611b63565b6116596000826113c6565b6001600360008573ffffffffffffffffffffffffffffffffffffffff1673ffffffffffffffffffffffffffffffffffffffff16815260200190815260200160002060008282546116a99190613811565b925050819055506001600360008473ffffffffffffffffffffffffffffffffffffffff1673ffffffffffffffffffffffffffffffffffffffff16815260200190815260200160002060008282546117009190613845565b92505081905550816002600083815260200190815260200160002060006101000a81548173ffffffffffffffffffffffffffffffffffffffff021916908373ffffffffffffffffffffffffffffffffffffffff160217905550808273ffffffffffffffffffffffffffffffffffffffff168473ffffffffffffffffffffffffffffffffffffffff167fddf252ad1be2c89b69c2b068fc378daa952ba7f163c4a11628f55a4df523b3ef60405160405180910390a4505050565b600081600001549050919050565b6117e1828260405180602001604052806000815250611c77565b5050565b6001816000016000828254019250508190555050565b6000600a60009054906101000a900473ffffffffffffffffffffffffffffffffffffffff16905081600a60006101000a81548173ffffffffffffffffffffffffffffffffffffffff021916908373ffffffffffffffffffffffffffffffffffffffff1602179055508173ffffffffffffffffffffffffffffffffffffffff168173ffffffffffffffffffffffffffffffffffffffff167f8be0079c531659141344cd1fd0a4f28419497f9722a3daafe3b4186f6b6457e060405160405180910390a35050565b8173ffffffffffffffffffffffffffffffffffffffff168373ffffffffffffffffffffffffffffffffffffffff161415611930576040517f08c379a0000000000000000000000000000000000000000000000000000000008152600401611927906138e7565b60405180910390fd5b80600560008573ffffffffffffffffffffffffffffffffffffffff1673ffffffffffffffffffffffffffffffffffffffff16815260200190815260200160002060008473ffffffffffffffffffffffffffffffffffffffff1673ffffffffffffffffffffffffffffffffffffffff16815260200190815260200160002060006101000a81548160ff0219169083151502179055508173ffffffffffffffffffffffffffffffffffffffff168373ffffffffffffffffffffffffffffffffffffffff167f17307eab39ab6107e8899845ad3d59bd9653f200f220920489ca2b5937696c3183604051611a2191906125ab565b60405180910390a3505050565b611a3984848461155d565b611a4584848484611cd2565b611a84576040517f08c379a0000000000000000000000000000000000000000000000000000000008152600401611a7b90613979565b60405180910390fd5b50505050565b6060611a9d826000015160000151611e69565b611aae836000015160200151611e69565b611abf846000015160400151611e69565b611ad0856000015160600151611e69565b604051602001611ae394939291906139e5565b6040516020818303038152906040529050919050565b60007f01ffc9a7000000000000000000000000000000000000000000000000000000007bffffffffffffffffffffffffffffffffffffffffffffffffffffffff1916827bffffffffffffffffffffffffffffffffffffffffffffffffffffffff1916149050919050565b611b6e838383611fca565b600073ffffffffffffffffffffffffffffffffffffffff168373ffffffffffffffffffffffffffffffffffffffff161415611bb157611bac81611fcf565b611bf0565b8173ffffffffffffffffffffffffffffffffffffffff168373ffffffffffffffffffffffffffffffffffffffff1614611bef57611bee8382612018565b5b5b600073ffffffffffffffffffffffffffffffffffffffff168273ffffffffffffffffffffffffffffffffffffffff161415611c3357611c2e81612185565b611c72565b8273ffffffffffffffffffffffffffffffffffffffff168273ffffffffffffffffffffffffffffffffffffffff1614611c7157611c708282612256565b5b5b505050565b611c8183836122d5565b611c8e6000848484611cd2565b611ccd576040517f08c379a0000000000000000000000000000000000000000000000000000000008152600401611cc490613979565b60405180910390fd5b505050565b6000611cf38473ffffffffffffffffffffffffffffffffffffffff166124a3565b15611e5c578373ffffffffffffffffffffffffffffffffffffffff1663150b7a02611d1c6113be565b8786866040518563ffffffff1660e01b8152600401611d3e9493929190613a99565b602060405180830381600087803b158015611d5857600080fd5b505af1925050508015611d8957506040513d601f19601f82011682018060405250810190611d869190613afa565b60015b611e0c573d8060008114611db9576040519150601f19603f3d011682016040523d82523d6000602084013e611dbe565b606091505b50600081511415611e04576040517f08c379a0000000000000000000000000000000000000000000000000000000008152600401611dfb90613979565b60405180910390fd5b805181602001fd5b63150b7a0260e01b7bffffffffffffffffffffffffffffffffffffffffffffffffffffffff1916817bffffffffffffffffffffffffffffffffffffffffffffffffffffffff191614915050611e61565b600190505b949350505050565b60606000821415611eb1576040518060400160405280600181526020017f30000000000000000000000000000000000000000000000000000000000000008152509050611fc5565b600082905060005b60008214611ee3578080611ecc90613b27565b915050600a82611edc9190613b9f565b9150611eb9565b60008167ffffffffffffffff811115611eff57611efe6128c9565b5b6040519080825280601f01601f191660200182016040528015611f315781602001600182028036833780820191505090505b5090505b60008514611fbe57600182611f4a9190613811565b9150600a85611f599190613bd0565b6030611f659190613845565b60f81b818381518110611f7b57611f7a613095565b5b60200101907effffffffffffffffffffffffffffffffffffffffffffffffffffffffffffff1916908160001a905350600a85611fb79190613b9f565b9450611f35565b8093505050505b919050565b505050565b6008805490506009600083815260200190815260200160002081905550600881908060018154018082558091505060019003906000526020600020016000909190919091505550565b6000600161202584610b1c565b61202f9190613811565b9050600060076000848152602001908152602001600020549050818114612114576000600660008673ffffffffffffffffffffffffffffffffffffffff1673ffffffffffffffffffffffffffffffffffffffff168152602001908152602001600020600084815260200190815260200160002054905080600660008773ffffffffffffffffffffffffffffffffffffffff1673ffffffffffffffffffffffffffffffffffffffff168152602001908152602001600020600084815260200190815260200160002081905550816007600083815260200190815260200160002081905550505b6007600084815260200190815260200160002060009055600660008573ffffffffffffffffffffffffffffffffffffffff1673ffffffffffffffffffffffffffffffffffffffff16815260200190815260200160002060008381526020019081526020016000206000905550505050565b600060016008805490506121999190613811565b90506000600960008481526020019081526020016000205490506000600883815481106121c9576121c8613095565b5b9060005260206000200154905080600883815481106121eb576121ea613095565b5b90600052602060002001819055508160096000838152602001908152602001600020819055506009600085815260200190815260200160002060009055600880548061223a57612239613c01565b5b6001900381819060005260206000200160009055905550505050565b600061226183610b1c565b905081600660008573ffffffffffffffffffffffffffffffffffffffff1673ffffffffffffffffffffffffffffffffffffffff168152602001908152602001600020600083815260200190815260200160002081905550806007600084815260200190815260200160002081905550505050565b600073ffffffffffffffffffffffffffffffffffffffff168273ffffffffffffffffffffffffffffffffffffffff161415612345576040517f08c379a000000000000000000000000000000000000000000000000000000000815260040161233c90613c7c565b60405180910390fd5b61234e81611352565b1561238e576040517f08c379a000000000000000000000000000000000000000000000000000000000815260040161238590613ce8565b60405180910390fd5b61239a60008383611b63565b6001600360008473ffffffffffffffffffffffffffffffffffffffff1673ffffffffffffffffffffffffffffffffffffffff16815260200190815260200160002060008282546123ea9190613845565b92505081905550816002600083815260200190815260200160002060006101000a81548173ffffffffffffffffffffffffffffffffffffffff021916908373ffffffffffffffffffffffffffffffffffffffff160217905550808273ffffffffffffffffffffffffffffffffffffffff16600073ffffffffffffffffffffffffffffffffffffffff167fddf252ad1be2c89b69c2b068fc378daa952ba7f163c4a11628f55a4df523b3ef60405160405180910390a45050565b600080823b905060008111915050919050565b60405180602001604052806124c96124cf565b81525090565b6040518060800160405280600081526020016000815260200160008152602001600081525090565b6000604051905090565b600080fd5b600080fd5b60007fffffffff0000000000000000000000000000000000000000000000000000000082169050919050565b6125408161250b565b811461254b57600080fd5b50565b60008135905061255d81612537565b92915050565b60006020828403121561257957612578612501565b5b60006125878482850161254e565b91505092915050565b60008115159050919050565b6125a581612590565b82525050565b60006020820190506125c0600083018461259c565b92915050565b600081519050919050565b600082825260208201905092915050565b60005b838110156126005780820151818401526020810190506125e5565b8381111561260f576000848401525b50505050565b6000601f19601f8301169050919050565b6000612631826125c6565b61263b81856125d1565b935061264b8185602086016125e2565b61265481612615565b840191505092915050565b600060208201905081810360008301526126798184612626565b905092915050565b6000819050919050565b61269481612681565b811461269f57600080fd5b50565b6000813590506126b18161268b565b92915050565b6000602082840312156126cd576126cc612501565b5b60006126db848285016126a2565b91505092915050565b600073ffffffffffffffffffffffffffffffffffffffff82169050919050565b600061270f826126e4565b9050919050565b61271f81612704565b82525050565b600060208201905061273a6000830184612716565b92915050565b61274981612704565b811461275457600080fd5b50565b60008135905061276681612740565b92915050565b6000806040838503121561278357612782612501565b5b600061279185828601612757565b92505060206127a2858286016126a2565b9150509250929050565b6127b581612681565b82525050565b60006020820190506127d060008301846127ac565b92915050565b6000806000606084860312156127ef576127ee612501565b5b60006127fd86828701612757565b935050602061280e86828701612757565b925050604061281f868287016126a2565b9150509250925092565b61283281612681565b82525050565b60808201600082015161284e6000850182612829565b5060208201516128616020850182612829565b5060408201516128746040850182612829565b5060608201516128876060850182612829565b50505050565b6080820160008201516128a36000850182612838565b50505050565b60006080820190506128be600083018461288d565b92915050565b600080fd5b7f4e487b7100000000000000000000000000000000000000000000000000000000600052604160045260246000fd5b61290182612615565b810181811067ffffffffffffffff821117156129205761291f6128c9565b5b80604052505050565b60006129336124f7565b905061293f82826128f8565b919050565b60006080828403121561295a576129596128c4565b5b6129646080612929565b90506000612974848285016126a2565b6000830152506020612988848285016126a2565b602083015250604061299c848285016126a2565b60408301525060606129b0848285016126a2565b60608301525092915050565b6000608082840312156129d2576129d16128c4565b5b6129dc6020612929565b905060006129ec84828501612944565b60008301525092915050565b60008060a08385031215612a0f57612a0e612501565b5b6000612a1d85828601612757565b9250506020612a2e858286016129bc565b9150509250929050565b600060208284031215612a4e57612a4d612501565b5b6000612a5c84828501612757565b91505092915050565b612a6e81612590565b8114612a7957600080fd5b50565b600081359050612a8b81612a65565b92915050565b60008060408385031215612aa857612aa7612501565b5b6000612ab685828601612757565b9250506020612ac785828601612a7c565b9150509250929050565b600080fd5b600080fd5b600067ffffffffffffffff821115612af657612af56128c9565b5b612aff82612615565b9050602081019050919050565b82818337600083830152505050565b6000612b2e612b2984612adb565b612929565b905082815260208101848484011115612b4a57612b49612ad6565b5b612b55848285612b0c565b509392505050565b600082601f830112612b7257612b71612ad1565b5b8135612b82848260208601612b1b565b91505092915050565b60008060008060808587031215612ba557612ba4612501565b5b6000612bb387828801612757565b9450506020612bc487828801612757565b9350506040612bd5878288016126a2565b925050606085013567ffffffffffffffff811115612bf657612bf5612506565b5b612c0287828801612b5d565b91505092959194509250565b6000819050919050565b6000612c33612c2e612c29846126e4565b612c0e565b6126e4565b9050919050565b6000612c4582612c18565b9050919050565b6000612c5782612c3a565b9050919050565b612c6781612c4c565b82525050565b6000602082019050612c826000830184612c5e565b92915050565b60008060408385031215612c9f57612c9e612501565b5b6000612cad85828601612757565b9250506020612cbe85828601612757565b9150509250929050565b7f4e487b7100000000000000000000000000000000000000000000000000000000600052602260045260246000fd5b60006002820490506001821680612d0f57607f821691505b60208210811415612d2357612d22612cc8565b5b50919050565b7f4552433732313a20617070726f76656420717565727920666f72206e6f6e657860008201527f697374656e7420746f6b656e0000000000000000000000000000000000000000602082015250565b6000612d85602c836125d1565b9150612d9082612d29565b604082019050919050565b60006020820190508181036000830152612db481612d78565b9050919050565b7f4552433732313a20617070726f76616c20746f2063757272656e74206f776e6560008201527f7200000000000000000000000000000000000000000000000000000000000000602082015250565b6000612e176021836125d1565b9150612e2282612dbb565b604082019050919050565b60006020820190508181036000830152612e4681612e0a565b9050919050565b7f4552433732313a20617070726f76652063616c6c6572206973206e6f74206f7760008201527f6e6572206e6f7220617070726f76656420666f7220616c6c0000000000000000602082015250565b6000612ea96038836125d1565b9150612eb482612e4d565b604082019050919050565b60006020820190508181036000830152612ed881612e9c565b9050919050565b7f4552433732313a207472616e736665722063616c6c6572206973206e6f74206f60008201527f776e6572206e6f7220617070726f766564000000000000000000000000000000602082015250565b6000612f3b6031836125d1565b9150612f4682612edf565b604082019050919050565b60006020820190508181036000830152612f6a81612f2e565b9050919050565b7f455243373231456e756d657261626c653a206f776e657220696e646578206f7560008201527f74206f6620626f756e6473000000000000000000000000000000000000000000602082015250565b6000612fcd602b836125d1565b9150612fd882612f71565b604082019050919050565b60006020820190508181036000830152612ffc81612fc0565b9050919050565b7f455243373231456e756d657261626c653a20676c6f62616c20696e646578206f60008201527f7574206f6620626f756e64730000000000000000000000000000000000000000602082015250565b600061305f602c836125d1565b915061306a82613003565b604082019050919050565b6000602082019050818103600083015261308e81613052565b9050919050565b7f4e487b7100000000000000000000000000000000000000000000000000000000600052603260045260246000fd5b7f4f776e61626c653a2063616c6c6572206973206e6f7420746865206f776e6572600082015250565b60006130fa6020836125d1565b9150613105826130c4565b602082019050919050565b60006020820190508181036000830152613129816130ed565b9050919050565b7f4552433732313a206f776e657220717565727920666f72206e6f6e657869737460008201527f656e7420746f6b656e0000000000000000000000000000000000000000000000602082015250565b600061318c6029836125d1565b915061319782613130565b604082019050919050565b600060208201905081810360008301526131bb8161317f565b9050919050565b7f4552433732313a2062616c616e636520717565727920666f7220746865207a6560008201527f726f206164647265737300000000000000000000000000000000000000000000602082015250565b600061321e602a836125d1565b9150613229826131c2565b604082019050919050565b6000602082019050818103600083015261324d81613211565b9050919050565b7f45524337323155524953746f726167653a2055524920717565727920666f722060008201527f6e6f6e6578697374656e7420746f6b656e000000000000000000000000000000602082015250565b60006132b06031836125d1565b91506132bb82613254565b604082019050919050565b600060208201905081810360008301526132df816132a3565b9050919050565b6000815190506132f581612a65565b92915050565b60006020828403121561331157613310612501565b5b600061331f848285016132e6565b91505092915050565b600081905092915050565b7f697066733a2f2f00000000000000000000000000000000000000000000000000600082015250565b6000613369600783613328565b915061337482613333565b600782019050919050565b60008190508160005260206000209050919050565b600081546133a181612cf7565b6133ab8186613328565b945060018216600081146133c657600181146133d75761340a565b60ff1983168652818601935061340a565b6133e08561337f565b60005b83811015613402578154818901526001820191506020810190506133e3565b838801955050505b50505092915050565b7f2f00000000000000000000000000000000000000000000000000000000000000600082015250565b6000613449600183613328565b915061345482613413565b600182019050919050565b600061346a826125c6565b6134748185613328565b93506134848185602086016125e2565b80840191505092915050565b7f2e6a736f6e000000000000000000000000000000000000000000000000000000600082015250565b60006134c6600583613328565b91506134d182613490565b600582019050919050565b60006134e78261335c565b91506134f38285613394565b91506134fe8261343c565b915061350a828461345f565b9150613515826134b9565b91508190509392505050565b7f2f636f6c6c656374696f6e2d6d657461646174612e6a736f6e00000000000000600082015250565b6000613557601983613328565b915061356282613521565b601982019050919050565b60006135788261335c565b91506135848284613394565b915061358f8261354a565b915081905092915050565b7f4f776e61626c653a206e6577206f776e657220697320746865207a65726f206160008201527f6464726573730000000000000000000000000000000000000000000000000000602082015250565b60006135f66026836125d1565b91506136018261359a565b604082019050919050565b60006020820190508181036000830152613625816135e9565b9050919050565b7f4552433732313a206f70657261746f7220717565727920666f72206e6f6e657860008201527f697374656e7420746f6b656e0000000000000000000000000000000000000000602082015250565b6000613688602c836125d1565b91506136938261362c565b604082019050919050565b600060208201905081810360008301526136b78161367b565b9050919050565b7f4552433732313a207472616e73666572206f6620746f6b656e2074686174206960008201527f73206e6f74206f776e0000000000000000000000000000000000000000000000602082015250565b600061371a6029836125d1565b9150613725826136be565b604082019050919050565b600060208201905081810360008301526137498161370d565b9050919050565b7f4552433732313a207472616e7366657220746f20746865207a65726f2061646460008201527f7265737300000000000000000000000000000000000000000000000000000000602082015250565b60006137ac6024836125d1565b91506137b782613750565b604082019050919050565b600060208201905081810360008301526137db8161379f565b9050919050565b7f4e487b7100000000000000000000000000000000000000000000000000000000600052601160045260246000fd5b600061381c82612681565b915061382783612681565b92508282101561383a576138396137e2565b5b828203905092915050565b600061385082612681565b915061385b83612681565b9250827fffffffffffffffffffffffffffffffffffffffffffffffffffffffffffffffff038211156138905761388f6137e2565b5b828201905092915050565b7f4552433732313a20617070726f766520746f2063616c6c657200000000000000600082015250565b60006138d16019836125d1565b91506138dc8261389b565b602082019050919050565b60006020820190508181036000830152613900816138c4565b9050919050565b7f4552433732313a207472616e7366657220746f206e6f6e20455243373231526560008201527f63656976657220696d706c656d656e7465720000000000000000000000000000602082015250565b60006139636032836125d1565b915061396e82613907565b604082019050919050565b6000602082019050818103600083015261399281613956565b9050919050565b7f5f00000000000000000000000000000000000000000000000000000000000000600082015250565b60006139cf600183613328565b91506139da82613999565b600182019050919050565b60006139f1828761345f565b91506139fc826139c2565b9150613a08828661345f565b9150613a13826139c2565b9150613a1f828561345f565b9150613a2a826139c2565b9150613a36828461345f565b915081905095945050505050565b600081519050919050565b600082825260208201905092915050565b6000613a6b82613a44565b613a758185613a4f565b9350613a858185602086016125e2565b613a8e81612615565b840191505092915050565b6000608082019050613aae6000830187612716565b613abb6020830186612716565b613ac860408301856127ac565b8181036060830152613ada8184613a60565b905095945050505050565b600081519050613af481612537565b92915050565b600060208284031215613b1057613b0f612501565b5b6000613b1e84828501613ae5565b91505092915050565b6000613b3282612681565b91507fffffffffffffffffffffffffffffffffffffffffffffffffffffffffffffffff821415613b6557613b646137e2565b5b600182019050919050565b7f4e487b7100000000000000000000000000000000000000000000000000000000600052601260045260246000fd5b6000613baa82612681565b9150613bb583612681565b925082613bc557613bc4613b70565b5b828204905092915050565b6000613bdb82612681565b9150613be683612681565b925082613bf657613bf5613b70565b5b828206905092915050565b7f4e487b7100000000000000000000000000000000000000000000000000000000600052603160045260246000fd5b7f4552433732313a206d696e7420746f20746865207a65726f2061646472657373600082015250565b6000613c666020836125d1565b9150613c7182613c30565b602082019050919050565b60006020820190508181036000830152613c9581613c59565b9050919050565b7f4552433732313a20746f6b656e20616c7265616479206d696e74656400000000600082015250565b6000613cd2601c836125d1565b9150613cdd82613c9c565b602082019050919050565b60006020820190508181036000830152613d0181613cc5565b905091905056fea264697066735822122006a2e112dec5d6b0cacfb2151d8499160a7e337a14a913b69a5eb84b7aea863c64736f6c634300080900336261667962656964696e617a753372717661706e6432717935356b7061356b6a32743332786235647133627973726237366363637a763772647365",
  "linkReferences": {},
  "deployedLinkReferences": {}
}