{
  "_format": "hh-sol-artifact-1",
  "contractName": "PriceConsumer",
  "sourceName": "contracts/PriceConsumers.sol",
  "abi": [
    {
      "inputs": [
        {
          "internalType": "address",
          "name": "feedAddress",
          "type": "address"
        }
      ],
      "stateMutability": "nonpayable",
      "type": "constructor"
    },
    {
      "inputs": [],
      "name": "decimals",
      "outputs": [
        {
          "internalType": "uint8",
          "name": "",
          "type": "uint8"
        }
      ],
      "stateMutability": "view",
      "type": "function"
    },
    {
      "inputs": [],
      "name": "getLatestPrice",
      "outputs": [
        {
          "internalType": "int256",
          "name": "",
          "type": "int256"
        }
      ],
      "stateMutability": "view",
      "type": "function"
    }
  ],
  "bytecode": "0x60a060405234801561001057600080fd5b50604051610505380380610505833981810160405281019061003291906100cf565b8073ffffffffffffffffffffffffffffffffffffffff1660808173ffffffffffffffffffffffffffffffffffffffff1681525050506100fc565b600080fd5b600073ffffffffffffffffffffffffffffffffffffffff82169050919050565b600061009c82610071565b9050919050565b6100ac81610091565b81146100b757600080fd5b50565b6000815190506100c9816100a3565b92915050565b6000602082840312156100e5576100e461006c565b5b60006100f3848285016100ba565b91505092915050565b6080516103e861011d60003960008181607b015261012101526103e86000f3fe608060405234801561001057600080fd5b50600436106100365760003560e01c8063313ce5671461003b5780638e15f47314610059575b600080fd5b610043610077565b60405161005091906101e6565b60405180910390f35b61006161011c565b60405161006e919061021a565b60405180910390f35b60007f000000000000000000000000000000000000000000000000000000000000000073ffffffffffffffffffffffffffffffffffffffff1663313ce5676040518163ffffffff1660e01b815260040160206040518083038186803b1580156100df57600080fd5b505afa1580156100f3573d6000803e3d6000fd5b505050506040513d601f19601f820116820180604052508101906101179190610266565b905090565b6000807f000000000000000000000000000000000000000000000000000000000000000073ffffffffffffffffffffffffffffffffffffffff1663feaf968c6040518163ffffffff1660e01b815260040160a06040518083038186803b15801561018557600080fd5b505afa158015610199573d6000803e3d6000fd5b505050506040513d601f19601f820116820180604052508101906101bd9190610337565b5050509150508091505090565b600060ff82169050919050565b6101e0816101ca565b82525050565b60006020820190506101fb60008301846101d7565b92915050565b6000819050919050565b61021481610201565b82525050565b600060208201905061022f600083018461020b565b92915050565b600080fd5b610243816101ca565b811461024e57600080fd5b50565b6000815190506102608161023a565b92915050565b60006020828403121561027c5761027b610235565b5b600061028a84828501610251565b91505092915050565b600069ffffffffffffffffffff82169050919050565b6102b281610293565b81146102bd57600080fd5b50565b6000815190506102cf816102a9565b92915050565b6102de81610201565b81146102e957600080fd5b50565b6000815190506102fb816102d5565b92915050565b6000819050919050565b61031481610301565b811461031f57600080fd5b50565b6000815190506103318161030b565b92915050565b600080600080600060a0868803121561035357610352610235565b5b6000610361888289016102c0565b9550506020610372888289016102ec565b945050604061038388828901610322565b935050606061039488828901610322565b92505060806103a5888289016102c0565b915050929550929590935056fea264697066735822122052ab64531f1ffcd4349607b212b66a3bf24090ff5caf4871f07c7ca66981a12664736f6c63430008090033",
  "linkReferences": {},
  "deployedLinkReferences": {}
}