{
  "_format": "hh-sol-artifact-1",
  "contractName": "PriceConsumer",
  "sourceName": "contracts/PriceConsumers.sol",
  "abi": [
    {
      "inputs": [
        {
          "internalType": "address",
          "name": "feedAddress",
          "type": "address"
        }
      ],
      "stateMutability": "nonpayable",
      "type": "constructor"
    },
    {
      "inputs": [],
      "name": "decimals",
      "outputs": [
        {
          "internalType": "uint8",
          "name": "",
          "type": "uint8"
        }
      ],
      "stateMutability": "view",
      "type": "function"
    },
    {
      "inputs": [],
      "name": "getLatestPrice",
      "outputs": [
        {
          "internalType": "int256",
          "name": "",
          "type": "int256"
        }
      ],
      "stateMutability": "view",
      "type": "function"
    }
  ],
  "bytecode": "0x60a060405234801561001057600080fd5b50604051610513380380610513833981810160405281019061003291906100cf565b8073ffffffffffffffffffffffffffffffffffffffff1660808173ffffffffffffffffffffffffffffffffffffffff1681525050506100fc565b600080fd5b600073ffffffffffffffffffffffffffffffffffffffff82169050919050565b600061009c82610071565b9050919050565b6100ac81610091565b81146100b757600080fd5b50565b6000815190506100c9816100a3565b92915050565b6000602082840312156100e5576100e461006c565b5b60006100f3848285016100ba565b91505092915050565b6080516103f661011d60003960008181607b015261012701526103f66000f3fe608060405234801561001057600080fd5b50600436106100365760003560e01c8063313ce5671461003b5780638e15f47314610059575b600080fd5b610043610077565b60405161005091906101f4565b60405180910390f35b61006161011c565b60405161006e9190610228565b60405180910390f35b60007f000000000000000000000000000000000000000000000000000000000000000073ffffffffffffffffffffffffffffffffffffffff1663313ce5676040518163ffffffff1660e01b815260040160206040518083038186803b1580156100df57600080fd5b505afa1580156100f3573d6000803e3d6000fd5b505050506040513d601f19601f820116820180604052508101906101179190610274565b905090565b6000806000806000807f000000000000000000000000000000000000000000000000000000000000000073ffffffffffffffffffffffffffffffffffffffff1663feaf968c6040518163ffffffff1660e01b815260040160a06040518083038186803b15801561018b57600080fd5b505afa15801561019f573d6000803e3d6000fd5b505050506040513d601f19601f820116820180604052508101906101c39190610345565b94509450945094509450839550505050505090565b600060ff82169050919050565b6101ee816101d8565b82525050565b600060208201905061020960008301846101e5565b92915050565b6000819050919050565b6102228161020f565b82525050565b600060208201905061023d6000830184610219565b92915050565b600080fd5b610251816101d8565b811461025c57600080fd5b50565b60008151905061026e81610248565b92915050565b60006020828403121561028a57610289610243565b5b60006102988482850161025f565b91505092915050565b600069ffffffffffffffffffff82169050919050565b6102c0816102a1565b81146102cb57600080fd5b50565b6000815190506102dd816102b7565b92915050565b6102ec8161020f565b81146102f757600080fd5b50565b600081519050610309816102e3565b92915050565b6000819050919050565b6103228161030f565b811461032d57600080fd5b50565b60008151905061033f81610319565b92915050565b600080600080600060a0868803121561036157610360610243565b5b600061036f888289016102ce565b9550506020610380888289016102fa565b945050604061039188828901610330565b93505060606103a288828901610330565b92505060806103b3888289016102ce565b915050929550929590935056fea26469706673582212204145c8650460c63e8b9bb8060598ac43b57fb410c078fb04b6443da40957b59364736f6c63430008090033",
  "linkReferences": {},
  "deployedLinkReferences": {}
}