{
  "_format": "hh-sol-artifact-1",
  "contractName": "LotteryToken",
  "sourceName": "contracts/LotteryToken.sol",
  "abi": [
    {
      "inputs": [
        {
          "internalType": "contract Lottery",
          "name": "_lottery",
          "type": "address"
        },
        {
          "internalType": "string",
          "name": "_name",
          "type": "string"
        },
        {
          "internalType": "string",
          "name": "_symbol",
          "type": "string"
        },
        {
          "internalType": "string",
          "name": "_CID",
          "type": "string"
        }
      ],
      "stateMutability": "nonpayable",
      "type": "constructor"
    },
    {
      "anonymous": false,
      "inputs": [
        {
          "indexed": true,
          "internalType": "address",
          "name": "owner",
          "type": "address"
        },
        {
          "indexed": true,
          "internalType": "address",
          "name": "approved",
          "type": "address"
        },
        {
          "indexed": true,
          "internalType": "uint256",
          "name": "tokenId",
          "type": "uint256"
        }
      ],
      "name": "Approval",
      "type": "event"
    },
    {
      "anonymous": false,
      "inputs": [
        {
          "indexed": true,
          "internalType": "address",
          "name": "owner",
          "type": "address"
        },
        {
          "indexed": true,
          "internalType": "address",
          "name": "operator",
          "type": "address"
        },
        {
          "indexed": false,
          "internalType": "bool",
          "name": "approved",
          "type": "bool"
        }
      ],
      "name": "ApprovalForAll",
      "type": "event"
    },
    {
      "anonymous": false,
      "inputs": [
        {
          "indexed": true,
          "internalType": "address",
          "name": "previousOwner",
          "type": "address"
        },
        {
          "indexed": true,
          "internalType": "address",
          "name": "newOwner",
          "type": "address"
        }
      ],
      "name": "OwnershipTransferred",
      "type": "event"
    },
    {
      "anonymous": false,
      "inputs": [
        {
          "indexed": true,
          "internalType": "address",
          "name": "from",
          "type": "address"
        },
        {
          "indexed": true,
          "internalType": "address",
          "name": "to",
          "type": "address"
        },
        {
          "indexed": true,
          "internalType": "uint256",
          "name": "tokenId",
          "type": "uint256"
        }
      ],
      "name": "Transfer",
      "type": "event"
    },
    {
      "inputs": [],
      "name": "CID",
      "outputs": [
        {
          "internalType": "string",
          "name": "",
          "type": "string"
        }
      ],
      "stateMutability": "view",
      "type": "function"
    },
    {
      "inputs": [
        {
          "internalType": "address",
          "name": "to",
          "type": "address"
        },
        {
          "internalType": "uint256",
          "name": "tokenId",
          "type": "uint256"
        }
      ],
      "name": "approve",
      "outputs": [],
      "stateMutability": "nonpayable",
      "type": "function"
    },
    {
      "inputs": [
        {
          "internalType": "address",
          "name": "owner",
          "type": "address"
        }
      ],
      "name": "balanceOf",
      "outputs": [
        {
          "internalType": "uint256",
          "name": "",
          "type": "uint256"
        }
      ],
      "stateMutability": "view",
      "type": "function"
    },
    {
      "inputs": [],
      "name": "contractURI",
      "outputs": [
        {
          "internalType": "string",
          "name": "",
          "type": "string"
        }
      ],
      "stateMutability": "view",
      "type": "function"
    },
    {
      "inputs": [
        {
          "internalType": "uint256",
          "name": "tokenId",
          "type": "uint256"
        }
      ],
      "name": "getApproved",
      "outputs": [
        {
          "internalType": "address",
          "name": "",
          "type": "address"
        }
      ],
      "stateMutability": "view",
      "type": "function"
    },
    {
      "inputs": [
        {
          "internalType": "uint256",
          "name": "tokenId",
          "type": "uint256"
        }
      ],
      "name": "getShip",
      "outputs": [
        {
          "components": [
            {
              "components": [
                {
                  "internalType": "uint256",
                  "name": "body",
                  "type": "uint256"
                },
                {
                  "internalType": "uint256",
                  "name": "skin",
                  "type": "uint256"
                },
                {
                  "internalType": "uint256",
                  "name": "weapon",
                  "type": "uint256"
                },
                {
                  "internalType": "uint256",
                  "name": "booster",
                  "type": "uint256"
                }
              ],
              "internalType": "struct SpaceShips.ShipParts",
              "name": "parts",
              "type": "tuple"
            }
          ],
          "internalType": "struct SpaceShips.Ship",
          "name": "",
          "type": "tuple"
        }
      ],
      "stateMutability": "view",
      "type": "function"
    },
    {
      "inputs": [
        {
          "internalType": "address",
          "name": "owner",
          "type": "address"
        },
        {
          "internalType": "address",
          "name": "operator",
          "type": "address"
        }
      ],
      "name": "isApprovedForAll",
      "outputs": [
        {
          "internalType": "bool",
          "name": "",
          "type": "bool"
        }
      ],
      "stateMutability": "view",
      "type": "function"
    },
    {
      "inputs": [],
      "name": "lottery",
      "outputs": [
        {
          "internalType": "contract Lottery",
          "name": "",
          "type": "address"
        }
      ],
      "stateMutability": "view",
      "type": "function"
    },
    {
      "inputs": [
        {
          "internalType": "address",
          "name": "recipient",
          "type": "address"
        },
        {
          "components": [
            {
              "components": [
                {
                  "internalType": "uint256",
                  "name": "body",
                  "type": "uint256"
                },
                {
                  "internalType": "uint256",
                  "name": "skin",
                  "type": "uint256"
                },
                {
                  "internalType": "uint256",
                  "name": "weapon",
                  "type": "uint256"
                },
                {
                  "internalType": "uint256",
                  "name": "booster",
                  "type": "uint256"
                }
              ],
              "internalType": "struct SpaceShips.ShipParts",
              "name": "parts",
              "type": "tuple"
            }
          ],
          "internalType": "struct SpaceShips.Ship",
          "name": "spaceShip",
          "type": "tuple"
        }
      ],
      "name": "mint",
      "outputs": [
        {
          "internalType": "uint256",
          "name": "",
          "type": "uint256"
        }
      ],
      "stateMutability": "nonpayable",
      "type": "function"
    },
    {
      "inputs": [],
      "name": "name",
      "outputs": [
        {
          "internalType": "string",
          "name": "",
          "type": "string"
        }
      ],
      "stateMutability": "view",
      "type": "function"
    },
    {
      "inputs": [],
      "name": "owner",
      "outputs": [
        {
          "internalType": "address",
          "name": "",
          "type": "address"
        }
      ],
      "stateMutability": "view",
      "type": "function"
    },
    {
      "inputs": [
        {
          "internalType": "uint256",
          "name": "tokenId",
          "type": "uint256"
        }
      ],
      "name": "ownerOf",
      "outputs": [
        {
          "internalType": "address",
          "name": "",
          "type": "address"
        }
      ],
      "stateMutability": "view",
      "type": "function"
    },
    {
      "inputs": [],
      "name": "renounceOwnership",
      "outputs": [],
      "stateMutability": "nonpayable",
      "type": "function"
    },
    {
      "inputs": [
        {
          "internalType": "address",
          "name": "from",
          "type": "address"
        },
        {
          "internalType": "address",
          "name": "to",
          "type": "address"
        },
        {
          "internalType": "uint256",
          "name": "tokenId",
          "type": "uint256"
        }
      ],
      "name": "safeTransferFrom",
      "outputs": [],
      "stateMutability": "nonpayable",
      "type": "function"
    },
    {
      "inputs": [
        {
          "internalType": "address",
          "name": "from",
          "type": "address"
        },
        {
          "internalType": "address",
          "name": "to",
          "type": "address"
        },
        {
          "internalType": "uint256",
          "name": "tokenId",
          "type": "uint256"
        },
        {
          "internalType": "bytes",
          "name": "_data",
          "type": "bytes"
        }
      ],
      "name": "safeTransferFrom",
      "outputs": [],
      "stateMutability": "nonpayable",
      "type": "function"
    },
    {
      "inputs": [
        {
          "internalType": "address",
          "name": "operator",
          "type": "address"
        },
        {
          "internalType": "bool",
          "name": "approved",
          "type": "bool"
        }
      ],
      "name": "setApprovalForAll",
      "outputs": [],
      "stateMutability": "nonpayable",
      "type": "function"
    },
    {
      "inputs": [
        {
          "internalType": "bytes4",
          "name": "interfaceId",
          "type": "bytes4"
        }
      ],
      "name": "supportsInterface",
      "outputs": [
        {
          "internalType": "bool",
          "name": "",
          "type": "bool"
        }
      ],
      "stateMutability": "view",
      "type": "function"
    },
    {
      "inputs": [],
      "name": "symbol",
      "outputs": [
        {
          "internalType": "string",
          "name": "",
          "type": "string"
        }
      ],
      "stateMutability": "view",
      "type": "function"
    },
    {
      "inputs": [
        {
          "internalType": "uint256",
          "name": "index",
          "type": "uint256"
        }
      ],
      "name": "tokenByIndex",
      "outputs": [
        {
          "internalType": "uint256",
          "name": "",
          "type": "uint256"
        }
      ],
      "stateMutability": "view",
      "type": "function"
    },
    {
      "inputs": [
        {
          "internalType": "address",
          "name": "owner",
          "type": "address"
        },
        {
          "internalType": "uint256",
          "name": "index",
          "type": "uint256"
        }
      ],
      "name": "tokenOfOwnerByIndex",
      "outputs": [
        {
          "internalType": "uint256",
          "name": "",
          "type": "uint256"
        }
      ],
      "stateMutability": "view",
      "type": "function"
    },
    {
      "inputs": [
        {
          "internalType": "uint256",
          "name": "tokenId",
          "type": "uint256"
        }
      ],
      "name": "tokenURI",
      "outputs": [
        {
          "internalType": "string",
          "name": "",
          "type": "string"
        }
      ],
      "stateMutability": "view",
      "type": "function"
    },
    {
      "inputs": [],
      "name": "totalSupply",
      "outputs": [
        {
          "internalType": "uint256",
          "name": "",
          "type": "uint256"
        }
      ],
      "stateMutability": "view",
      "type": "function"
    },
    {
      "inputs": [
        {
          "internalType": "address",
          "name": "from",
          "type": "address"
        },
        {
          "internalType": "address",
          "name": "to",
          "type": "address"
        },
        {
          "internalType": "uint256",
          "name": "tokenId",
          "type": "uint256"
        }
      ],
      "name": "transferFrom",
      "outputs": [],
      "stateMutability": "nonpayable",
      "type": "function"
    },
    {
      "inputs": [
        {
          "internalType": "address",
          "name": "newOwner",
          "type": "address"
        }
      ],
      "name": "transferOwnership",
      "outputs": [],
      "stateMutability": "nonpayable",
      "type": "function"
    }
  ],
  "bytecode": "0x60806040523480156200001157600080fd5b50604051620043d1380380620043d18339818101604052810190620000379190620004cc565b828281600090805190602001906200005192919062000206565b5080600190805190602001906200006a92919062000206565b5050506200008d620000816200013860201b60201c565b6200014060201b60201c565b6000815111620000d4576040517f08c379a0000000000000000000000000000000000000000000000000000000008152600401620000cb90620005fc565b60405180910390fd5b80600b9080519060200190620000ec92919062000206565b5083600c60006101000a81548173ffffffffffffffffffffffffffffffffffffffff021916908373ffffffffffffffffffffffffffffffffffffffff1602179055505050505062000683565b600033905090565b6000600a60009054906101000a900473ffffffffffffffffffffffffffffffffffffffff16905081600a60006101000a81548173ffffffffffffffffffffffffffffffffffffffff021916908373ffffffffffffffffffffffffffffffffffffffff1602179055508173ffffffffffffffffffffffffffffffffffffffff168173ffffffffffffffffffffffffffffffffffffffff167f8be0079c531659141344cd1fd0a4f28419497f9722a3daafe3b4186f6b6457e060405160405180910390a35050565b82805462000214906200064d565b90600052602060002090601f01602090048101928262000238576000855562000284565b82601f106200025357805160ff191683800117855562000284565b8280016001018555821562000284579182015b828111156200028357825182559160200191906001019062000266565b5b50905062000293919062000297565b5090565b5b80821115620002b257600081600090555060010162000298565b5090565b6000604051905090565b600080fd5b600080fd5b600073ffffffffffffffffffffffffffffffffffffffff82169050919050565b6000620002f782620002ca565b9050919050565b60006200030b82620002ea565b9050919050565b6200031d81620002fe565b81146200032957600080fd5b50565b6000815190506200033d8162000312565b92915050565b600080fd5b600080fd5b6000601f19601f8301169050919050565b7f4e487b7100000000000000000000000000000000000000000000000000000000600052604160045260246000fd5b62000398826200034d565b810181811067ffffffffffffffff82111715620003ba57620003b96200035e565b5b80604052505050565b6000620003cf620002b6565b9050620003dd82826200038d565b919050565b600067ffffffffffffffff8211156200040057620003ff6200035e565b5b6200040b826200034d565b9050602081019050919050565b60005b83811015620004385780820151818401526020810190506200041b565b8381111562000448576000848401525b50505050565b6000620004656200045f84620003e2565b620003c3565b90508281526020810184848401111562000484576200048362000348565b5b6200049184828562000418565b509392505050565b600082601f830112620004b157620004b062000343565b5b8151620004c38482602086016200044e565b91505092915050565b60008060008060808587031215620004e957620004e8620002c0565b5b6000620004f9878288016200032c565b945050602085015167ffffffffffffffff8111156200051d576200051c620002c5565b5b6200052b8782880162000499565b935050604085015167ffffffffffffffff8111156200054f576200054e620002c5565b5b6200055d8782880162000499565b925050606085015167ffffffffffffffff811115620005815762000580620002c5565b5b6200058f8782880162000499565b91505092959194509250565b600082825260208201905092915050565b7f4e6f204349442070726f76696465640000000000000000000000000000000000600082015250565b6000620005e4600f836200059b565b9150620005f182620005ac565b602082019050919050565b600060208201905081810360008301526200061781620005d5565b9050919050565b7f4e487b7100000000000000000000000000000000000000000000000000000000600052602260045260246000fd5b600060028204905060018216806200066657607f821691505b602082108114156200067d576200067c6200061e565b5b50919050565b613d3e80620006936000396000f3fe608060405234801561001057600080fd5b50600436106101585760003560e01c806370a08231116100c3578063ba13a5721161007c578063ba13a572146103eb578063c098004c14610409578063c87b56dd14610427578063e8a3d48514610457578063e985e9c514610475578063f2fde38b146104a557610158565b806370a082311461033d578063715018a61461036d5780638da5cb5b1461037757806395d89b4114610395578063a22cb465146103b3578063b88d4fde146103cf57610158565b80632f745c59116101155780632f745c59146102315780634025b22d1461026157806342842e0e146102915780634f6ccce7146102ad5780635720a07c146102dd5780636352211e1461030d57610158565b806301ffc9a71461015d57806306fdde031461018d578063081812fc146101ab578063095ea7b3146101db57806318160ddd146101f757806323b872dd14610215575b600080fd5b61017760048036038101906101729190612563565b6104c1565b60405161018491906125ab565b60405180910390f35b61019561053b565b6040516101a2919061265f565b60405180910390f35b6101c560048036038101906101c091906126b7565b6105cd565b6040516101d29190612725565b60405180910390f35b6101f560048036038101906101f0919061276c565b610652565b005b6101ff61076a565b60405161020c91906127bb565b60405180910390f35b61022f600480360381019061022a91906127d6565b610777565b005b61024b6004803603810190610246919061276c565b6107d7565b60405161025891906127bb565b60405180910390f35b61027b600480360381019061027691906126b7565b61087c565b60405161028891906128a9565b60405180910390f35b6102ab60048036038101906102a691906127d6565b6108e5565b005b6102c760048036038101906102c291906126b7565b610905565b6040516102d491906127bb565b60405180910390f35b6102f760048036038101906102f291906129f8565b610976565b60405161030491906127bb565b60405180910390f35b610327600480360381019061032291906126b7565b610a6a565b6040516103349190612725565b60405180910390f35b61035760048036038101906103529190612a38565b610b1c565b60405161036491906127bb565b60405180910390f35b610375610bd4565b005b61037f610c5c565b60405161038c9190612725565b60405180910390f35b61039d610c86565b6040516103aa919061265f565b60405180910390f35b6103cd60048036038101906103c89190612a91565b610d18565b005b6103e960048036038101906103e49190612b8b565b610d2e565b005b6103f3610d90565b6040516104009190612c6d565b60405180910390f35b610411610db6565b60405161041e919061265f565b60405180910390f35b610441600480360381019061043c91906126b7565b610e44565b60405161044e919061265f565b60405180910390f35b61045f6110bc565b60405161046c919061265f565b60405180910390f35b61048f600480360381019061048a9190612c88565b6110e4565b60405161049c91906125ab565b60405180910390f35b6104bf60048036038101906104ba9190612a38565b611178565b005b60007f780e9d63000000000000000000000000000000000000000000000000000000007bffffffffffffffffffffffffffffffffffffffffffffffffffffffff1916827bffffffffffffffffffffffffffffffffffffffffffffffffffffffff19161480610534575061053382611270565b5b9050919050565b60606000805461054a90612cf7565b80601f016020809104026020016040519081016040528092919081815260200182805461057690612cf7565b80156105c35780601f10610598576101008083540402835291602001916105c3565b820191906000526020600020905b8154815290600101906020018083116105a657829003601f168201915b5050505050905090565b60006105d882611352565b610617576040517f08c379a000000000000000000000000000000000000000000000000000000000815260040161060e90612d9b565b60405180910390fd5b6004600083815260200190815260200160002060009054906101000a900473ffffffffffffffffffffffffffffffffffffffff169050919050565b600061065d82610a6a565b90508073ffffffffffffffffffffffffffffffffffffffff168373ffffffffffffffffffffffffffffffffffffffff1614156106ce576040517f08c379a00000000000000000000000000000000000000000000000000000000081526004016106c590612e2d565b60405180910390fd5b8073ffffffffffffffffffffffffffffffffffffffff166106ed6113be565b73ffffffffffffffffffffffffffffffffffffffff16148061071c575061071b816107166113be565b6110e4565b5b61075b576040517f08c379a000000000000000000000000000000000000000000000000000000000815260040161075290612ebf565b60405180910390fd5b61076583836113c6565b505050565b6000600880549050905090565b6107886107826113be565b8261147f565b6107c7576040517f08c379a00000000000000000000000000000000000000000000000000000000081526004016107be90612f51565b60405180910390fd5b6107d283838361155d565b505050565b60006107e283610b1c565b8210610823576040517f08c379a000000000000000000000000000000000000000000000000000000000815260040161081a90612fe3565b60405180910390fd5b600660008473ffffffffffffffffffffffffffffffffffffffff1673ffffffffffffffffffffffffffffffffffffffff168152602001908152602001600020600083815260200190815260200160002054905092915050565b6108846124b6565b600e600083815260200190815260200160002060405180602001604052908160008201604051806080016040529081600082015481526020016001820154815260200160028201548152602001600382015481525050815250509050919050565b61090083838360405180602001604052806000815250610d2e565b505050565b600061090f61076a565b8210610950576040517f08c379a000000000000000000000000000000000000000000000000000000000815260040161094790613075565b60405180910390fd5b6008828154811061096457610963613095565b5b90600052602060002001549050919050565b60006109806113be565b73ffffffffffffffffffffffffffffffffffffffff1661099e610c5c565b73ffffffffffffffffffffffffffffffffffffffff16146109f4576040517f08c379a00000000000000000000000000000000000000000000000000000000081526004016109eb90613110565b60405180910390fd5b6000610a00600d6117b9565b9050610a0c84826117c7565b82600e6000838152602001908152602001600020600082015181600001600082015181600001556020820151816001015560408201518160020155606082015181600301555050905050610a60600d6117e5565b8091505092915050565b6000806002600084815260200190815260200160002060009054906101000a900473ffffffffffffffffffffffffffffffffffffffff169050600073ffffffffffffffffffffffffffffffffffffffff168173ffffffffffffffffffffffffffffffffffffffff161415610b13576040517f08c379a0000000000000000000000000000000000000000000000000000000008152600401610b0a906131a2565b60405180910390fd5b80915050919050565b60008073ffffffffffffffffffffffffffffffffffffffff168273ffffffffffffffffffffffffffffffffffffffff161415610b8d576040517f08c379a0000000000000000000000000000000000000000000000000000000008152600401610b8490613234565b60405180910390fd5b600360008373ffffffffffffffffffffffffffffffffffffffff1673ffffffffffffffffffffffffffffffffffffffff168152602001908152602001600020549050919050565b610bdc6113be565b73ffffffffffffffffffffffffffffffffffffffff16610bfa610c5c565b73ffffffffffffffffffffffffffffffffffffffff1614610c50576040517f08c379a0000000000000000000000000000000000000000000000000000000008152600401610c4790613110565b60405180910390fd5b610c5a60006117fb565b565b6000600a60009054906101000a900473ffffffffffffffffffffffffffffffffffffffff16905090565b606060018054610c9590612cf7565b80601f0160208091040260200160405190810160405280929190818152602001828054610cc190612cf7565b8015610d0e5780601f10610ce357610100808354040283529160200191610d0e565b820191906000526020600020905b815481529060010190602001808311610cf157829003601f168201915b5050505050905090565b610d2a610d236113be565b83836118c1565b5050565b610d3f610d396113be565b8361147f565b610d7e576040517f08c379a0000000000000000000000000000000000000000000000000000000008152600401610d7590612f51565b60405180910390fd5b610d8a84848484611a2e565b50505050565b600c60009054906101000a900473ffffffffffffffffffffffffffffffffffffffff1681565b600b8054610dc390612cf7565b80601f0160208091040260200160405190810160405280929190818152602001828054610def90612cf7565b8015610e3c5780601f10610e1157610100808354040283529160200191610e3c565b820191906000526020600020905b815481529060010190602001808311610e1f57829003601f168201915b505050505081565b6060610e4f82611352565b610e8e576040517f08c379a0000000000000000000000000000000000000000000000000000000008152600401610e85906132c6565b60405180910390fd5b6060600c60009054906101000a900473ffffffffffffffffffffffffffffffffffffffff1673ffffffffffffffffffffffffffffffffffffffff1663b2fa1c9e6040518163ffffffff1660e01b815260040160206040518083038186803b158015610ef857600080fd5b505afa158015610f0c573d6000803e3d6000fd5b505050506040513d601f19601f82011682018060405250810190610f3091906132fb565b8015610fe45750600c60009054906101000a900473ffffffffffffffffffffffffffffffffffffffff1673ffffffffffffffffffffffffffffffffffffffff1663d84e29ea846040518263ffffffff1660e01b8152600401610f9291906127bb565b60206040518083038186803b158015610faa57600080fd5b505afa158015610fbe573d6000803e3d6000fd5b505050506040513d601f19601f82011682018060405250810190610fe291906132fb565b155b15611026576040518060400160405280600981526020017f64657374726f79656400000000000000000000000000000000000000000000008152509050611091565b6000600e60008581526020019081526020016000206040518060200160405290816000820160405180608001604052908160008201548152602001600182015481526020016002820154815260200160038201548152505081525050905061108d81611a8a565b9150505b600b816040516020016110a59291906134dc565b604051602081830303815290604052915050919050565b6060600b6040516020016110d0919061356d565b604051602081830303815290604052905090565b6000600560008473ffffffffffffffffffffffffffffffffffffffff1673ffffffffffffffffffffffffffffffffffffffff16815260200190815260200160002060008373ffffffffffffffffffffffffffffffffffffffff1673ffffffffffffffffffffffffffffffffffffffff16815260200190815260200160002060009054906101000a900460ff16905092915050565b6111806113be565b73ffffffffffffffffffffffffffffffffffffffff1661119e610c5c565b73ffffffffffffffffffffffffffffffffffffffff16146111f4576040517f08c379a00000000000000000000000000000000000000000000000000000000081526004016111eb90613110565b60405180910390fd5b600073ffffffffffffffffffffffffffffffffffffffff168173ffffffffffffffffffffffffffffffffffffffff161415611264576040517f08c379a000000000000000000000000000000000000000000000000000000000815260040161125b9061360c565b60405180910390fd5b61126d816117fb565b50565b60007f80ac58cd000000000000000000000000000000000000000000000000000000007bffffffffffffffffffffffffffffffffffffffffffffffffffffffff1916827bffffffffffffffffffffffffffffffffffffffffffffffffffffffff1916148061133b57507f5b5e139f000000000000000000000000000000000000000000000000000000007bffffffffffffffffffffffffffffffffffffffffffffffffffffffff1916827bffffffffffffffffffffffffffffffffffffffffffffffffffffffff1916145b8061134b575061134a82611af9565b5b9050919050565b60008073ffffffffffffffffffffffffffffffffffffffff166002600084815260200190815260200160002060009054906101000a900473ffffffffffffffffffffffffffffffffffffffff1673ffffffffffffffffffffffffffffffffffffffff1614159050919050565b600033905090565b816004600083815260200190815260200160002060006101000a81548173ffffffffffffffffffffffffffffffffffffffff021916908373ffffffffffffffffffffffffffffffffffffffff160217905550808273ffffffffffffffffffffffffffffffffffffffff1661143983610a6a565b73ffffffffffffffffffffffffffffffffffffffff167f8c5be1e5ebec7d5bd14f71427d1e84f3dd0314c0f7b2291e5b200ac8c7c3b92560405160405180910390a45050565b600061148a82611352565b6114c9576040517f08c379a00000000000000000000000000000000000000000000000000000000081526004016114c09061369e565b60405180910390fd5b60006114d483610a6a565b90508073ffffffffffffffffffffffffffffffffffffffff168473ffffffffffffffffffffffffffffffffffffffff16148061154357508373ffffffffffffffffffffffffffffffffffffffff1661152b846105cd565b73ffffffffffffffffffffffffffffffffffffffff16145b80611554575061155381856110e4565b5b91505092915050565b8273ffffffffffffffffffffffffffffffffffffffff1661157d82610a6a565b73ffffffffffffffffffffffffffffffffffffffff16146115d3576040517f08c379a00000000000000000000000000000000000000000000000000000000081526004016115ca90613730565b60405180910390fd5b600073ffffffffffffffffffffffffffffffffffffffff168273ffffffffffffffffffffffffffffffffffffffff161415611643576040517f08c379a000000000000000000000000000000000000000000000000000000000815260040161163a906137c2565b60405180910390fd5b61164e838383611b63565b6116596000826113c6565b6001600360008573ffffffffffffffffffffffffffffffffffffffff1673ffffffffffffffffffffffffffffffffffffffff16815260200190815260200160002060008282546116a99190613811565b925050819055506001600360008473ffffffffffffffffffffffffffffffffffffffff1673ffffffffffffffffffffffffffffffffffffffff16815260200190815260200160002060008282546117009190613845565b92505081905550816002600083815260200190815260200160002060006101000a81548173ffffffffffffffffffffffffffffffffffffffff021916908373ffffffffffffffffffffffffffffffffffffffff160217905550808273ffffffffffffffffffffffffffffffffffffffff168473ffffffffffffffffffffffffffffffffffffffff167fddf252ad1be2c89b69c2b068fc378daa952ba7f163c4a11628f55a4df523b3ef60405160405180910390a4505050565b600081600001549050919050565b6117e1828260405180602001604052806000815250611c77565b5050565b6001816000016000828254019250508190555050565b6000600a60009054906101000a900473ffffffffffffffffffffffffffffffffffffffff16905081600a60006101000a81548173ffffffffffffffffffffffffffffffffffffffff021916908373ffffffffffffffffffffffffffffffffffffffff1602179055508173ffffffffffffffffffffffffffffffffffffffff168173ffffffffffffffffffffffffffffffffffffffff167f8be0079c531659141344cd1fd0a4f28419497f9722a3daafe3b4186f6b6457e060405160405180910390a35050565b8173ffffffffffffffffffffffffffffffffffffffff168373ffffffffffffffffffffffffffffffffffffffff161415611930576040517f08c379a0000000000000000000000000000000000000000000000000000000008152600401611927906138e7565b60405180910390fd5b80600560008573ffffffffffffffffffffffffffffffffffffffff1673ffffffffffffffffffffffffffffffffffffffff16815260200190815260200160002060008473ffffffffffffffffffffffffffffffffffffffff1673ffffffffffffffffffffffffffffffffffffffff16815260200190815260200160002060006101000a81548160ff0219169083151502179055508173ffffffffffffffffffffffffffffffffffffffff168373ffffffffffffffffffffffffffffffffffffffff167f17307eab39ab6107e8899845ad3d59bd9653f200f220920489ca2b5937696c3183604051611a2191906125ab565b60405180910390a3505050565b611a3984848461155d565b611a4584848484611cd2565b611a84576040517f08c379a0000000000000000000000000000000000000000000000000000000008152600401611a7b90613979565b60405180910390fd5b50505050565b6060611a9d826000015160000151611e69565b611aae836000015160200151611e69565b611abf846000015160400151611e69565b611ad0856000015160600151611e69565b604051602001611ae394939291906139e5565b6040516020818303038152906040529050919050565b60007f01ffc9a7000000000000000000000000000000000000000000000000000000007bffffffffffffffffffffffffffffffffffffffffffffffffffffffff1916827bffffffffffffffffffffffffffffffffffffffffffffffffffffffff1916149050919050565b611b6e838383611fca565b600073ffffffffffffffffffffffffffffffffffffffff168373ffffffffffffffffffffffffffffffffffffffff161415611bb157611bac81611fcf565b611bf0565b8173ffffffffffffffffffffffffffffffffffffffff168373ffffffffffffffffffffffffffffffffffffffff1614611bef57611bee8382612018565b5b5b600073ffffffffffffffffffffffffffffffffffffffff168273ffffffffffffffffffffffffffffffffffffffff161415611c3357611c2e81612185565b611c72565b8273ffffffffffffffffffffffffffffffffffffffff168273ffffffffffffffffffffffffffffffffffffffff1614611c7157611c708282612256565b5b5b505050565b611c8183836122d5565b611c8e6000848484611cd2565b611ccd576040517f08c379a0000000000000000000000000000000000000000000000000000000008152600401611cc490613979565b60405180910390fd5b505050565b6000611cf38473ffffffffffffffffffffffffffffffffffffffff166124a3565b15611e5c578373ffffffffffffffffffffffffffffffffffffffff1663150b7a02611d1c6113be565b8786866040518563ffffffff1660e01b8152600401611d3e9493929190613a99565b602060405180830381600087803b158015611d5857600080fd5b505af1925050508015611d8957506040513d601f19601f82011682018060405250810190611d869190613afa565b60015b611e0c573d8060008114611db9576040519150601f19603f3d011682016040523d82523d6000602084013e611dbe565b606091505b50600081511415611e04576040517f08c379a0000000000000000000000000000000000000000000000000000000008152600401611dfb90613979565b60405180910390fd5b805181602001fd5b63150b7a0260e01b7bffffffffffffffffffffffffffffffffffffffffffffffffffffffff1916817bffffffffffffffffffffffffffffffffffffffffffffffffffffffff191614915050611e61565b600190505b949350505050565b60606000821415611eb1576040518060400160405280600181526020017f30000000000000000000000000000000000000000000000000000000000000008152509050611fc5565b600082905060005b60008214611ee3578080611ecc90613b27565b915050600a82611edc9190613b9f565b9150611eb9565b60008167ffffffffffffffff811115611eff57611efe6128c9565b5b6040519080825280601f01601f191660200182016040528015611f315781602001600182028036833780820191505090505b5090505b60008514611fbe57600182611f4a9190613811565b9150600a85611f599190613bd0565b6030611f659190613845565b60f81b818381518110611f7b57611f7a613095565b5b60200101907effffffffffffffffffffffffffffffffffffffffffffffffffffffffffffff1916908160001a905350600a85611fb79190613b9f565b9450611f35565b8093505050505b919050565b505050565b6008805490506009600083815260200190815260200160002081905550600881908060018154018082558091505060019003906000526020600020016000909190919091505550565b6000600161202584610b1c565b61202f9190613811565b9050600060076000848152602001908152602001600020549050818114612114576000600660008673ffffffffffffffffffffffffffffffffffffffff1673ffffffffffffffffffffffffffffffffffffffff168152602001908152602001600020600084815260200190815260200160002054905080600660008773ffffffffffffffffffffffffffffffffffffffff1673ffffffffffffffffffffffffffffffffffffffff168152602001908152602001600020600084815260200190815260200160002081905550816007600083815260200190815260200160002081905550505b6007600084815260200190815260200160002060009055600660008573ffffffffffffffffffffffffffffffffffffffff1673ffffffffffffffffffffffffffffffffffffffff16815260200190815260200160002060008381526020019081526020016000206000905550505050565b600060016008805490506121999190613811565b90506000600960008481526020019081526020016000205490506000600883815481106121c9576121c8613095565b5b9060005260206000200154905080600883815481106121eb576121ea613095565b5b90600052602060002001819055508160096000838152602001908152602001600020819055506009600085815260200190815260200160002060009055600880548061223a57612239613c01565b5b6001900381819060005260206000200160009055905550505050565b600061226183610b1c565b905081600660008573ffffffffffffffffffffffffffffffffffffffff1673ffffffffffffffffffffffffffffffffffffffff168152602001908152602001600020600083815260200190815260200160002081905550806007600084815260200190815260200160002081905550505050565b600073ffffffffffffffffffffffffffffffffffffffff168273ffffffffffffffffffffffffffffffffffffffff161415612345576040517f08c379a000000000000000000000000000000000000000000000000000000000815260040161233c90613c7c565b60405180910390fd5b61234e81611352565b1561238e576040517f08c379a000000000000000000000000000000000000000000000000000000000815260040161238590613ce8565b60405180910390fd5b61239a60008383611b63565b6001600360008473ffffffffffffffffffffffffffffffffffffffff1673ffffffffffffffffffffffffffffffffffffffff16815260200190815260200160002060008282546123ea9190613845565b92505081905550816002600083815260200190815260200160002060006101000a81548173ffffffffffffffffffffffffffffffffffffffff021916908373ffffffffffffffffffffffffffffffffffffffff160217905550808273ffffffffffffffffffffffffffffffffffffffff16600073ffffffffffffffffffffffffffffffffffffffff167fddf252ad1be2c89b69c2b068fc378daa952ba7f163c4a11628f55a4df523b3ef60405160405180910390a45050565b600080823b905060008111915050919050565b60405180602001604052806124c96124cf565b81525090565b6040518060800160405280600081526020016000815260200160008152602001600081525090565b6000604051905090565b600080fd5b600080fd5b60007fffffffff0000000000000000000000000000000000000000000000000000000082169050919050565b6125408161250b565b811461254b57600080fd5b50565b60008135905061255d81612537565b92915050565b60006020828403121561257957612578612501565b5b60006125878482850161254e565b91505092915050565b60008115159050919050565b6125a581612590565b82525050565b60006020820190506125c0600083018461259c565b92915050565b600081519050919050565b600082825260208201905092915050565b60005b838110156126005780820151818401526020810190506125e5565b8381111561260f576000848401525b50505050565b6000601f19601f8301169050919050565b6000612631826125c6565b61263b81856125d1565b935061264b8185602086016125e2565b61265481612615565b840191505092915050565b600060208201905081810360008301526126798184612626565b905092915050565b6000819050919050565b61269481612681565b811461269f57600080fd5b50565b6000813590506126b18161268b565b92915050565b6000602082840312156126cd576126cc612501565b5b60006126db848285016126a2565b91505092915050565b600073ffffffffffffffffffffffffffffffffffffffff82169050919050565b600061270f826126e4565b9050919050565b61271f81612704565b82525050565b600060208201905061273a6000830184612716565b92915050565b61274981612704565b811461275457600080fd5b50565b60008135905061276681612740565b92915050565b6000806040838503121561278357612782612501565b5b600061279185828601612757565b92505060206127a2858286016126a2565b9150509250929050565b6127b581612681565b82525050565b60006020820190506127d060008301846127ac565b92915050565b6000806000606084860312156127ef576127ee612501565b5b60006127fd86828701612757565b935050602061280e86828701612757565b925050604061281f868287016126a2565b9150509250925092565b61283281612681565b82525050565b60808201600082015161284e6000850182612829565b5060208201516128616020850182612829565b5060408201516128746040850182612829565b5060608201516128876060850182612829565b50505050565b6080820160008201516128a36000850182612838565b50505050565b60006080820190506128be600083018461288d565b92915050565b600080fd5b7f4e487b7100000000000000000000000000000000000000000000000000000000600052604160045260246000fd5b61290182612615565b810181811067ffffffffffffffff821117156129205761291f6128c9565b5b80604052505050565b60006129336124f7565b905061293f82826128f8565b919050565b60006080828403121561295a576129596128c4565b5b6129646080612929565b90506000612974848285016126a2565b6000830152506020612988848285016126a2565b602083015250604061299c848285016126a2565b60408301525060606129b0848285016126a2565b60608301525092915050565b6000608082840312156129d2576129d16128c4565b5b6129dc6020612929565b905060006129ec84828501612944565b60008301525092915050565b60008060a08385031215612a0f57612a0e612501565b5b6000612a1d85828601612757565b9250506020612a2e858286016129bc565b9150509250929050565b600060208284031215612a4e57612a4d612501565b5b6000612a5c84828501612757565b91505092915050565b612a6e81612590565b8114612a7957600080fd5b50565b600081359050612a8b81612a65565b92915050565b60008060408385031215612aa857612aa7612501565b5b6000612ab685828601612757565b9250506020612ac785828601612a7c565b9150509250929050565b600080fd5b600080fd5b600067ffffffffffffffff821115612af657612af56128c9565b5b612aff82612615565b9050602081019050919050565b82818337600083830152505050565b6000612b2e612b2984612adb565b612929565b905082815260208101848484011115612b4a57612b49612ad6565b5b612b55848285612b0c565b509392505050565b600082601f830112612b7257612b71612ad1565b5b8135612b82848260208601612b1b565b91505092915050565b60008060008060808587031215612ba557612ba4612501565b5b6000612bb387828801612757565b9450506020612bc487828801612757565b9350506040612bd5878288016126a2565b925050606085013567ffffffffffffffff811115612bf657612bf5612506565b5b612c0287828801612b5d565b91505092959194509250565b6000819050919050565b6000612c33612c2e612c29846126e4565b612c0e565b6126e4565b9050919050565b6000612c4582612c18565b9050919050565b6000612c5782612c3a565b9050919050565b612c6781612c4c565b82525050565b6000602082019050612c826000830184612c5e565b92915050565b60008060408385031215612c9f57612c9e612501565b5b6000612cad85828601612757565b9250506020612cbe85828601612757565b9150509250929050565b7f4e487b7100000000000000000000000000000000000000000000000000000000600052602260045260246000fd5b60006002820490506001821680612d0f57607f821691505b60208210811415612d2357612d22612cc8565b5b50919050565b7f4552433732313a20617070726f76656420717565727920666f72206e6f6e657860008201527f697374656e7420746f6b656e0000000000000000000000000000000000000000602082015250565b6000612d85602c836125d1565b9150612d9082612d29565b604082019050919050565b60006020820190508181036000830152612db481612d78565b9050919050565b7f4552433732313a20617070726f76616c20746f2063757272656e74206f776e6560008201527f7200000000000000000000000000000000000000000000000000000000000000602082015250565b6000612e176021836125d1565b9150612e2282612dbb565b604082019050919050565b60006020820190508181036000830152612e4681612e0a565b9050919050565b7f4552433732313a20617070726f76652063616c6c6572206973206e6f74206f7760008201527f6e6572206e6f7220617070726f76656420666f7220616c6c0000000000000000602082015250565b6000612ea96038836125d1565b9150612eb482612e4d565b604082019050919050565b60006020820190508181036000830152612ed881612e9c565b9050919050565b7f4552433732313a207472616e736665722063616c6c6572206973206e6f74206f60008201527f776e6572206e6f7220617070726f766564000000000000000000000000000000602082015250565b6000612f3b6031836125d1565b9150612f4682612edf565b604082019050919050565b60006020820190508181036000830152612f6a81612f2e565b9050919050565b7f455243373231456e756d657261626c653a206f776e657220696e646578206f7560008201527f74206f6620626f756e6473000000000000000000000000000000000000000000602082015250565b6000612fcd602b836125d1565b9150612fd882612f71565b604082019050919050565b60006020820190508181036000830152612ffc81612fc0565b9050919050565b7f455243373231456e756d657261626c653a20676c6f62616c20696e646578206f60008201527f7574206f6620626f756e64730000000000000000000000000000000000000000602082015250565b600061305f602c836125d1565b915061306a82613003565b604082019050919050565b6000602082019050818103600083015261308e81613052565b9050919050565b7f4e487b7100000000000000000000000000000000000000000000000000000000600052603260045260246000fd5b7f4f776e61626c653a2063616c6c6572206973206e6f7420746865206f776e6572600082015250565b60006130fa6020836125d1565b9150613105826130c4565b602082019050919050565b60006020820190508181036000830152613129816130ed565b9050919050565b7f4552433732313a206f776e657220717565727920666f72206e6f6e657869737460008201527f656e7420746f6b656e0000000000000000000000000000000000000000000000602082015250565b600061318c6029836125d1565b915061319782613130565b604082019050919050565b600060208201905081810360008301526131bb8161317f565b9050919050565b7f4552433732313a2062616c616e636520717565727920666f7220746865207a6560008201527f726f206164647265737300000000000000000000000000000000000000000000602082015250565b600061321e602a836125d1565b9150613229826131c2565b604082019050919050565b6000602082019050818103600083015261324d81613211565b9050919050565b7f45524337323155524953746f726167653a2055524920717565727920666f722060008201527f6e6f6e6578697374656e7420746f6b656e000000000000000000000000000000602082015250565b60006132b06031836125d1565b91506132bb82613254565b604082019050919050565b600060208201905081810360008301526132df816132a3565b9050919050565b6000815190506132f581612a65565b92915050565b60006020828403121561331157613310612501565b5b600061331f848285016132e6565b91505092915050565b600081905092915050565b7f697066733a2f2f00000000000000000000000000000000000000000000000000600082015250565b6000613369600783613328565b915061337482613333565b600782019050919050565b60008190508160005260206000209050919050565b600081546133a181612cf7565b6133ab8186613328565b945060018216600081146133c657600181146133d75761340a565b60ff1983168652818601935061340a565b6133e08561337f565b60005b83811015613402578154818901526001820191506020810190506133e3565b838801955050505b50505092915050565b7f2f00000000000000000000000000000000000000000000000000000000000000600082015250565b6000613449600183613328565b915061345482613413565b600182019050919050565b600061346a826125c6565b6134748185613328565b93506134848185602086016125e2565b80840191505092915050565b7f2e6a736f6e000000000000000000000000000000000000000000000000000000600082015250565b60006134c6600583613328565b91506134d182613490565b600582019050919050565b60006134e78261335c565b91506134f38285613394565b91506134fe8261343c565b915061350a828461345f565b9150613515826134b9565b91508190509392505050565b7f2f636f6c6c656374696f6e2d6d657461646174612e6a736f6e00000000000000600082015250565b6000613557601983613328565b915061356282613521565b601982019050919050565b60006135788261335c565b91506135848284613394565b915061358f8261354a565b915081905092915050565b7f4f776e61626c653a206e6577206f776e657220697320746865207a65726f206160008201527f6464726573730000000000000000000000000000000000000000000000000000602082015250565b60006135f66026836125d1565b91506136018261359a565b604082019050919050565b60006020820190508181036000830152613625816135e9565b9050919050565b7f4552433732313a206f70657261746f7220717565727920666f72206e6f6e657860008201527f697374656e7420746f6b656e0000000000000000000000000000000000000000602082015250565b6000613688602c836125d1565b91506136938261362c565b604082019050919050565b600060208201905081810360008301526136b78161367b565b9050919050565b7f4552433732313a207472616e73666572206f6620746f6b656e2074686174206960008201527f73206e6f74206f776e0000000000000000000000000000000000000000000000602082015250565b600061371a6029836125d1565b9150613725826136be565b604082019050919050565b600060208201905081810360008301526137498161370d565b9050919050565b7f4552433732313a207472616e7366657220746f20746865207a65726f2061646460008201527f7265737300000000000000000000000000000000000000000000000000000000602082015250565b60006137ac6024836125d1565b91506137b782613750565b604082019050919050565b600060208201905081810360008301526137db8161379f565b9050919050565b7f4e487b7100000000000000000000000000000000000000000000000000000000600052601160045260246000fd5b600061381c82612681565b915061382783612681565b92508282101561383a576138396137e2565b5b828203905092915050565b600061385082612681565b915061385b83612681565b9250827fffffffffffffffffffffffffffffffffffffffffffffffffffffffffffffffff038211156138905761388f6137e2565b5b828201905092915050565b7f4552433732313a20617070726f766520746f2063616c6c657200000000000000600082015250565b60006138d16019836125d1565b91506138dc8261389b565b602082019050919050565b60006020820190508181036000830152613900816138c4565b9050919050565b7f4552433732313a207472616e7366657220746f206e6f6e20455243373231526560008201527f63656976657220696d706c656d656e7465720000000000000000000000000000602082015250565b60006139636032836125d1565b915061396e82613907565b604082019050919050565b6000602082019050818103600083015261399281613956565b9050919050565b7f5f00000000000000000000000000000000000000000000000000000000000000600082015250565b60006139cf600183613328565b91506139da82613999565b600182019050919050565b60006139f1828761345f565b91506139fc826139c2565b9150613a08828661345f565b9150613a13826139c2565b9150613a1f828561345f565b9150613a2a826139c2565b9150613a36828461345f565b915081905095945050505050565b600081519050919050565b600082825260208201905092915050565b6000613a6b82613a44565b613a758185613a4f565b9350613a858185602086016125e2565b613a8e81612615565b840191505092915050565b6000608082019050613aae6000830187612716565b613abb6020830186612716565b613ac860408301856127ac565b8181036060830152613ada8184613a60565b905095945050505050565b600081519050613af481612537565b92915050565b600060208284031215613b1057613b0f612501565b5b6000613b1e84828501613ae5565b91505092915050565b6000613b3282612681565b91507fffffffffffffffffffffffffffffffffffffffffffffffffffffffffffffffff821415613b6557613b646137e2565b5b600182019050919050565b7f4e487b7100000000000000000000000000000000000000000000000000000000600052601260045260246000fd5b6000613baa82612681565b9150613bb583612681565b925082613bc557613bc4613b70565b5b828204905092915050565b6000613bdb82612681565b9150613be683612681565b925082613bf657613bf5613b70565b5b828206905092915050565b7f4e487b7100000000000000000000000000000000000000000000000000000000600052603160045260246000fd5b7f4552433732313a206d696e7420746f20746865207a65726f2061646472657373600082015250565b6000613c666020836125d1565b9150613c7182613c30565b602082019050919050565b60006020820190508181036000830152613c9581613c59565b9050919050565b7f4552433732313a20746f6b656e20616c7265616479206d696e74656400000000600082015250565b6000613cd2601c836125d1565b9150613cdd82613c9c565b602082019050919050565b60006020820190508181036000830152613d0181613cc5565b905091905056fea264697066735822122006a2e112dec5d6b0cacfb2151d8499160a7e337a14a913b69a5eb84b7aea863c64736f6c63430008090033",
  "linkReferences": {},
  "deployedLinkReferences": {}
}