{
  "_format": "hh-sol-artifact-1",
  "contractName": "LotteryToken",
  "sourceName": "contracts/LotteryToken.sol",
  "abi": [
    {
      "inputs": [
        {
          "internalType": "contract Lottery",
          "name": "_lottery",
          "type": "address"
        },
        {
          "internalType": "string",
          "name": "_name",
          "type": "string"
        },
        {
          "internalType": "string",
          "name": "_symbol",
          "type": "string"
        },
        {
          "internalType": "string",
          "name": "_CID",
          "type": "string"
        }
      ],
      "stateMutability": "nonpayable",
      "type": "constructor"
    },
    {
      "anonymous": false,
      "inputs": [
        {
          "indexed": true,
          "internalType": "address",
          "name": "owner",
          "type": "address"
        },
        {
          "indexed": true,
          "internalType": "address",
          "name": "approved",
          "type": "address"
        },
        {
          "indexed": true,
          "internalType": "uint256",
          "name": "tokenId",
          "type": "uint256"
        }
      ],
      "name": "Approval",
      "type": "event"
    },
    {
      "anonymous": false,
      "inputs": [
        {
          "indexed": true,
          "internalType": "address",
          "name": "owner",
          "type": "address"
        },
        {
          "indexed": true,
          "internalType": "address",
          "name": "operator",
          "type": "address"
        },
        {
          "indexed": false,
          "internalType": "bool",
          "name": "approved",
          "type": "bool"
        }
      ],
      "name": "ApprovalForAll",
      "type": "event"
    },
    {
      "anonymous": false,
      "inputs": [
        {
          "indexed": true,
          "internalType": "address",
          "name": "previousOwner",
          "type": "address"
        },
        {
          "indexed": true,
          "internalType": "address",
          "name": "newOwner",
          "type": "address"
        }
      ],
      "name": "OwnershipTransferred",
      "type": "event"
    },
    {
      "anonymous": false,
      "inputs": [
        {
          "indexed": true,
          "internalType": "address",
          "name": "from",
          "type": "address"
        },
        {
          "indexed": true,
          "internalType": "address",
          "name": "to",
          "type": "address"
        },
        {
          "indexed": true,
          "internalType": "uint256",
          "name": "tokenId",
          "type": "uint256"
        }
      ],
      "name": "Transfer",
      "type": "event"
    },
    {
      "inputs": [],
      "name": "CID",
      "outputs": [
        {
          "internalType": "string",
          "name": "",
          "type": "string"
        }
      ],
      "stateMutability": "view",
      "type": "function"
    },
    {
      "inputs": [
        {
          "internalType": "address",
          "name": "to",
          "type": "address"
        },
        {
          "internalType": "uint256",
          "name": "tokenId",
          "type": "uint256"
        }
      ],
      "name": "approve",
      "outputs": [],
      "stateMutability": "nonpayable",
      "type": "function"
    },
    {
      "inputs": [
        {
          "internalType": "address",
          "name": "owner",
          "type": "address"
        }
      ],
      "name": "balanceOf",
      "outputs": [
        {
          "internalType": "uint256",
          "name": "",
          "type": "uint256"
        }
      ],
      "stateMutability": "view",
      "type": "function"
    },
    {
      "inputs": [],
      "name": "contractURI",
      "outputs": [
        {
          "internalType": "string",
          "name": "",
          "type": "string"
        }
      ],
      "stateMutability": "view",
      "type": "function"
    },
    {
      "inputs": [
        {
          "internalType": "uint256",
          "name": "tokenId",
          "type": "uint256"
        }
      ],
      "name": "getApproved",
      "outputs": [
        {
          "internalType": "address",
          "name": "",
          "type": "address"
        }
      ],
      "stateMutability": "view",
      "type": "function"
    },
    {
      "inputs": [
        {
          "internalType": "uint256",
          "name": "tokenId",
          "type": "uint256"
        }
      ],
      "name": "getShip",
      "outputs": [
        {
          "components": [
            {
              "components": [
                {
                  "internalType": "uint256",
                  "name": "body",
                  "type": "uint256"
                },
                {
                  "internalType": "uint256",
                  "name": "bodySkin",
                  "type": "uint256"
                },
                {
                  "internalType": "uint256",
                  "name": "reactor",
                  "type": "uint256"
                },
                {
                  "internalType": "uint256",
                  "name": "reactorSkin",
                  "type": "uint256"
                },
                {
                  "internalType": "uint256",
                  "name": "weapon",
                  "type": "uint256"
                },
                {
                  "internalType": "uint256",
                  "name": "weaponSkin",
                  "type": "uint256"
                }
              ],
              "internalType": "struct SpaceShips.ShipParts",
              "name": "parts",
              "type": "tuple"
            }
          ],
          "internalType": "struct SpaceShips.Ship",
          "name": "",
          "type": "tuple"
        }
      ],
      "stateMutability": "view",
      "type": "function"
    },
    {
      "inputs": [
        {
          "internalType": "address",
          "name": "owner",
          "type": "address"
        },
        {
          "internalType": "address",
          "name": "operator",
          "type": "address"
        }
      ],
      "name": "isApprovedForAll",
      "outputs": [
        {
          "internalType": "bool",
          "name": "",
          "type": "bool"
        }
      ],
      "stateMutability": "view",
      "type": "function"
    },
    {
      "inputs": [],
      "name": "lottery",
      "outputs": [
        {
          "internalType": "contract Lottery",
          "name": "",
          "type": "address"
        }
      ],
      "stateMutability": "view",
      "type": "function"
    },
    {
      "inputs": [
        {
          "internalType": "address",
          "name": "recipient",
          "type": "address"
        },
        {
          "components": [
            {
              "components": [
                {
                  "internalType": "uint256",
                  "name": "body",
                  "type": "uint256"
                },
                {
                  "internalType": "uint256",
                  "name": "bodySkin",
                  "type": "uint256"
                },
                {
                  "internalType": "uint256",
                  "name": "reactor",
                  "type": "uint256"
                },
                {
                  "internalType": "uint256",
                  "name": "reactorSkin",
                  "type": "uint256"
                },
                {
                  "internalType": "uint256",
                  "name": "weapon",
                  "type": "uint256"
                },
                {
                  "internalType": "uint256",
                  "name": "weaponSkin",
                  "type": "uint256"
                }
              ],
              "internalType": "struct SpaceShips.ShipParts",
              "name": "parts",
              "type": "tuple"
            }
          ],
          "internalType": "struct SpaceShips.Ship",
          "name": "spaceShip",
          "type": "tuple"
        }
      ],
      "name": "mint",
      "outputs": [
        {
          "internalType": "uint256",
          "name": "",
          "type": "uint256"
        }
      ],
      "stateMutability": "nonpayable",
      "type": "function"
    },
    {
      "inputs": [],
      "name": "name",
      "outputs": [
        {
          "internalType": "string",
          "name": "",
          "type": "string"
        }
      ],
      "stateMutability": "view",
      "type": "function"
    },
    {
      "inputs": [],
      "name": "owner",
      "outputs": [
        {
          "internalType": "address",
          "name": "",
          "type": "address"
        }
      ],
      "stateMutability": "view",
      "type": "function"
    },
    {
      "inputs": [
        {
          "internalType": "uint256",
          "name": "tokenId",
          "type": "uint256"
        }
      ],
      "name": "ownerOf",
      "outputs": [
        {
          "internalType": "address",
          "name": "",
          "type": "address"
        }
      ],
      "stateMutability": "view",
      "type": "function"
    },
    {
      "inputs": [],
      "name": "renounceOwnership",
      "outputs": [],
      "stateMutability": "nonpayable",
      "type": "function"
    },
    {
      "inputs": [
        {
          "internalType": "address",
          "name": "from",
          "type": "address"
        },
        {
          "internalType": "address",
          "name": "to",
          "type": "address"
        },
        {
          "internalType": "uint256",
          "name": "tokenId",
          "type": "uint256"
        }
      ],
      "name": "safeTransferFrom",
      "outputs": [],
      "stateMutability": "nonpayable",
      "type": "function"
    },
    {
      "inputs": [
        {
          "internalType": "address",
          "name": "from",
          "type": "address"
        },
        {
          "internalType": "address",
          "name": "to",
          "type": "address"
        },
        {
          "internalType": "uint256",
          "name": "tokenId",
          "type": "uint256"
        },
        {
          "internalType": "bytes",
          "name": "_data",
          "type": "bytes"
        }
      ],
      "name": "safeTransferFrom",
      "outputs": [],
      "stateMutability": "nonpayable",
      "type": "function"
    },
    {
      "inputs": [
        {
          "internalType": "address",
          "name": "operator",
          "type": "address"
        },
        {
          "internalType": "bool",
          "name": "approved",
          "type": "bool"
        }
      ],
      "name": "setApprovalForAll",
      "outputs": [],
      "stateMutability": "nonpayable",
      "type": "function"
    },
    {
      "inputs": [
        {
          "internalType": "bytes4",
          "name": "interfaceId",
          "type": "bytes4"
        }
      ],
      "name": "supportsInterface",
      "outputs": [
        {
          "internalType": "bool",
          "name": "",
          "type": "bool"
        }
      ],
      "stateMutability": "view",
      "type": "function"
    },
    {
      "inputs": [],
      "name": "symbol",
      "outputs": [
        {
          "internalType": "string",
          "name": "",
          "type": "string"
        }
      ],
      "stateMutability": "view",
      "type": "function"
    },
    {
      "inputs": [
        {
          "internalType": "uint256",
          "name": "index",
          "type": "uint256"
        }
      ],
      "name": "tokenByIndex",
      "outputs": [
        {
          "internalType": "uint256",
          "name": "",
          "type": "uint256"
        }
      ],
      "stateMutability": "view",
      "type": "function"
    },
    {
      "inputs": [
        {
          "internalType": "address",
          "name": "owner",
          "type": "address"
        },
        {
          "internalType": "uint256",
          "name": "index",
          "type": "uint256"
        }
      ],
      "name": "tokenOfOwnerByIndex",
      "outputs": [
        {
          "internalType": "uint256",
          "name": "",
          "type": "uint256"
        }
      ],
      "stateMutability": "view",
      "type": "function"
    },
    {
      "inputs": [
        {
          "internalType": "uint256",
          "name": "tokenId",
          "type": "uint256"
        }
      ],
      "name": "tokenURI",
      "outputs": [
        {
          "internalType": "string",
          "name": "",
          "type": "string"
        }
      ],
      "stateMutability": "view",
      "type": "function"
    },
    {
      "inputs": [],
      "name": "totalSupply",
      "outputs": [
        {
          "internalType": "uint256",
          "name": "",
          "type": "uint256"
        }
      ],
      "stateMutability": "view",
      "type": "function"
    },
    {
      "inputs": [
        {
          "internalType": "address",
          "name": "from",
          "type": "address"
        },
        {
          "internalType": "address",
          "name": "to",
          "type": "address"
        },
        {
          "internalType": "uint256",
          "name": "tokenId",
          "type": "uint256"
        }
      ],
      "name": "transferFrom",
      "outputs": [],
      "stateMutability": "nonpayable",
      "type": "function"
    },
    {
      "inputs": [
        {
          "internalType": "address",
          "name": "newOwner",
          "type": "address"
        }
      ],
      "name": "transferOwnership",
      "outputs": [],
      "stateMutability": "nonpayable",
      "type": "function"
    }
  ],
  "bytecode": "0x60806040523480156200001157600080fd5b5060405162004507380380620045078339818101604052810190620000379190620004cc565b828281600090805190602001906200005192919062000206565b5080600190805190602001906200006a92919062000206565b5050506200008d620000816200013860201b60201c565b6200014060201b60201c565b6000815111620000d4576040517f08c379a0000000000000000000000000000000000000000000000000000000008152600401620000cb90620005fc565b60405180910390fd5b80600b9080519060200190620000ec92919062000206565b5083600c60006101000a81548173ffffffffffffffffffffffffffffffffffffffff021916908373ffffffffffffffffffffffffffffffffffffffff1602179055505050505062000683565b600033905090565b6000600a60009054906101000a900473ffffffffffffffffffffffffffffffffffffffff16905081600a60006101000a81548173ffffffffffffffffffffffffffffffffffffffff021916908373ffffffffffffffffffffffffffffffffffffffff1602179055508173ffffffffffffffffffffffffffffffffffffffff168173ffffffffffffffffffffffffffffffffffffffff167f8be0079c531659141344cd1fd0a4f28419497f9722a3daafe3b4186f6b6457e060405160405180910390a35050565b82805462000214906200064d565b90600052602060002090601f01602090048101928262000238576000855562000284565b82601f106200025357805160ff191683800117855562000284565b8280016001018555821562000284579182015b828111156200028357825182559160200191906001019062000266565b5b50905062000293919062000297565b5090565b5b80821115620002b257600081600090555060010162000298565b5090565b6000604051905090565b600080fd5b600080fd5b600073ffffffffffffffffffffffffffffffffffffffff82169050919050565b6000620002f782620002ca565b9050919050565b60006200030b82620002ea565b9050919050565b6200031d81620002fe565b81146200032957600080fd5b50565b6000815190506200033d8162000312565b92915050565b600080fd5b600080fd5b6000601f19601f8301169050919050565b7f4e487b7100000000000000000000000000000000000000000000000000000000600052604160045260246000fd5b62000398826200034d565b810181811067ffffffffffffffff82111715620003ba57620003b96200035e565b5b80604052505050565b6000620003cf620002b6565b9050620003dd82826200038d565b919050565b600067ffffffffffffffff8211156200040057620003ff6200035e565b5b6200040b826200034d565b9050602081019050919050565b60005b83811015620004385780820151818401526020810190506200041b565b8381111562000448576000848401525b50505050565b6000620004656200045f84620003e2565b620003c3565b90508281526020810184848401111562000484576200048362000348565b5b6200049184828562000418565b509392505050565b600082601f830112620004b157620004b062000343565b5b8151620004c38482602086016200044e565b91505092915050565b60008060008060808587031215620004e957620004e8620002c0565b5b6000620004f9878288016200032c565b945050602085015167ffffffffffffffff8111156200051d576200051c620002c5565b5b6200052b8782880162000499565b935050604085015167ffffffffffffffff8111156200054f576200054e620002c5565b5b6200055d8782880162000499565b925050606085015167ffffffffffffffff811115620005815762000580620002c5565b5b6200058f8782880162000499565b91505092959194509250565b600082825260208201905092915050565b7f4e6f204349442070726f76696465640000000000000000000000000000000000600082015250565b6000620005e4600f836200059b565b9150620005f182620005ac565b602082019050919050565b600060208201905081810360008301526200061781620005d5565b9050919050565b7f4e487b7100000000000000000000000000000000000000000000000000000000600052602260045260246000fd5b600060028204905060018216806200066657607f821691505b602082108114156200067d576200067c6200061e565b5b50919050565b613e7480620006936000396000f3fe608060405234801561001057600080fd5b50600436106101585760003560e01c8063715018a6116100c3578063c098004c1161007c578063c098004c146103d9578063c6ab6f43146103f7578063c87b56dd14610427578063e8a3d48514610457578063e985e9c514610475578063f2fde38b146104a557610158565b8063715018a61461033d5780638da5cb5b1461034757806395d89b4114610365578063a22cb46514610383578063b88d4fde1461039f578063ba13a572146103bb57610158565b80632f745c59116101155780632f745c59146102315780634025b22d1461026157806342842e0e146102915780634f6ccce7146102ad5780636352211e146102dd57806370a082311461030d57610158565b806301ffc9a71461015d57806306fdde031461018d578063081812fc146101ab578063095ea7b3146101db57806318160ddd146101f757806323b872dd14610215575b600080fd5b610177600480360381019061017291906125cf565b6104c1565b6040516101849190612617565b60405180910390f35b61019561053b565b6040516101a291906126cb565b60405180910390f35b6101c560048036038101906101c09190612723565b6105cd565b6040516101d29190612791565b60405180910390f35b6101f560048036038101906101f091906127d8565b610652565b005b6101ff61076a565b60405161020c9190612827565b60405180910390f35b61022f600480360381019061022a9190612842565b610777565b005b61024b600480360381019061024691906127d8565b6107d7565b6040516102589190612827565b60405180910390f35b61027b60048036038101906102769190612723565b61087c565b604051610288919061293b565b60405180910390f35b6102ab60048036038101906102a69190612842565b6108f9565b005b6102c760048036038101906102c29190612723565b610919565b6040516102d49190612827565b60405180910390f35b6102f760048036038101906102f29190612723565b61098a565b6040516103049190612791565b60405180910390f35b61032760048036038101906103229190612956565b610a3c565b6040516103349190612827565b60405180910390f35b610345610af4565b005b61034f610b7c565b60405161035c9190612791565b60405180910390f35b61036d610ba6565b60405161037a91906126cb565b60405180910390f35b61039d600480360381019061039891906129af565b610c38565b005b6103b960048036038101906103b49190612b24565b610db9565b005b6103c3610e1b565b6040516103d09190612c06565b60405180910390f35b6103e1610e41565b6040516103ee91906126cb565b60405180910390f35b610411600480360381019061040c9190612d02565b610ecf565b60405161041e9190612827565b60405180910390f35b610441600480360381019061043c9190612723565b610fd7565b60405161044e91906126cb565b60405180910390f35b61045f611263565b60405161046c91906126cb565b60405180910390f35b61048f600480360381019061048a9190612d42565b61128b565b60405161049c9190612617565b60405180910390f35b6104bf60048036038101906104ba9190612956565b61131f565b005b60007f780e9d63000000000000000000000000000000000000000000000000000000007bffffffffffffffffffffffffffffffffffffffffffffffffffffffff1916827bffffffffffffffffffffffffffffffffffffffffffffffffffffffff19161480610534575061053382611417565b5b9050919050565b60606000805461054a90612db1565b80601f016020809104026020016040519081016040528092919081815260200182805461057690612db1565b80156105c35780601f10610598576101008083540402835291602001916105c3565b820191906000526020600020905b8154815290600101906020018083116105a657829003601f168201915b5050505050905090565b60006105d8826114f9565b610617576040517f08c379a000000000000000000000000000000000000000000000000000000000815260040161060e90612e55565b60405180910390fd5b6004600083815260200190815260200160002060009054906101000a900473ffffffffffffffffffffffffffffffffffffffff169050919050565b600061065d8261098a565b90508073ffffffffffffffffffffffffffffffffffffffff168373ffffffffffffffffffffffffffffffffffffffff1614156106ce576040517f08c379a00000000000000000000000000000000000000000000000000000000081526004016106c590612ee7565b60405180910390fd5b8073ffffffffffffffffffffffffffffffffffffffff166106ed611565565b73ffffffffffffffffffffffffffffffffffffffff16148061071c575061071b81610716611565565b61128b565b5b61075b576040517f08c379a000000000000000000000000000000000000000000000000000000000815260040161075290612f79565b60405180910390fd5b610765838361156d565b505050565b6000600880549050905090565b610788610782611565565b82611626565b6107c7576040517f08c379a00000000000000000000000000000000000000000000000000000000081526004016107be9061300b565b60405180910390fd5b6107d2838383611704565b505050565b60006107e283610a3c565b8210610823576040517f08c379a000000000000000000000000000000000000000000000000000000000815260040161081a9061309d565b60405180910390fd5b600660008473ffffffffffffffffffffffffffffffffffffffff1673ffffffffffffffffffffffffffffffffffffffff168152602001908152602001600020600083815260200190815260200160002054905092915050565b610884612514565b600e6000838152602001908152602001600020604051806020016040529081600082016040518060c00160405290816000820154815260200160018201548152602001600282015481526020016003820154815260200160048201548152602001600582015481525050815250509050919050565b61091483838360405180602001604052806000815250610db9565b505050565b600061092361076a565b8210610964576040517f08c379a000000000000000000000000000000000000000000000000000000000815260040161095b9061312f565b60405180910390fd5b600882815481106109785761097761314f565b5b90600052602060002001549050919050565b6000806002600084815260200190815260200160002060009054906101000a900473ffffffffffffffffffffffffffffffffffffffff169050600073ffffffffffffffffffffffffffffffffffffffff168173ffffffffffffffffffffffffffffffffffffffff161415610a33576040517f08c379a0000000000000000000000000000000000000000000000000000000008152600401610a2a906131f0565b60405180910390fd5b80915050919050565b60008073ffffffffffffffffffffffffffffffffffffffff168273ffffffffffffffffffffffffffffffffffffffff161415610aad576040517f08c379a0000000000000000000000000000000000000000000000000000000008152600401610aa490613282565b60405180910390fd5b600360008373ffffffffffffffffffffffffffffffffffffffff1673ffffffffffffffffffffffffffffffffffffffff168152602001908152602001600020549050919050565b610afc611565565b73ffffffffffffffffffffffffffffffffffffffff16610b1a610b7c565b73ffffffffffffffffffffffffffffffffffffffff1614610b70576040517f08c379a0000000000000000000000000000000000000000000000000000000008152600401610b67906132ee565b60405180910390fd5b610b7a6000611960565b565b6000600a60009054906101000a900473ffffffffffffffffffffffffffffffffffffffff16905090565b606060018054610bb590612db1565b80601f0160208091040260200160405190810160405280929190818152602001828054610be190612db1565b8015610c2e5780601f10610c0357610100808354040283529160200191610c2e565b820191906000526020600020905b815481529060010190602001808311610c1157829003601f168201915b5050505050905090565b610c40611565565b73ffffffffffffffffffffffffffffffffffffffff168273ffffffffffffffffffffffffffffffffffffffff161415610cae576040517f08c379a0000000000000000000000000000000000000000000000000000000008152600401610ca59061335a565b60405180910390fd5b8060056000610cbb611565565b73ffffffffffffffffffffffffffffffffffffffff1673ffffffffffffffffffffffffffffffffffffffff16815260200190815260200160002060008473ffffffffffffffffffffffffffffffffffffffff1673ffffffffffffffffffffffffffffffffffffffff16815260200190815260200160002060006101000a81548160ff0219169083151502179055508173ffffffffffffffffffffffffffffffffffffffff16610d68611565565b73ffffffffffffffffffffffffffffffffffffffff167f17307eab39ab6107e8899845ad3d59bd9653f200f220920489ca2b5937696c3183604051610dad9190612617565b60405180910390a35050565b610dca610dc4611565565b83611626565b610e09576040517f08c379a0000000000000000000000000000000000000000000000000000000008152600401610e009061300b565b60405180910390fd5b610e1584848484611a26565b50505050565b600c60009054906101000a900473ffffffffffffffffffffffffffffffffffffffff1681565b600b8054610e4e90612db1565b80601f0160208091040260200160405190810160405280929190818152602001828054610e7a90612db1565b8015610ec75780601f10610e9c57610100808354040283529160200191610ec7565b820191906000526020600020905b815481529060010190602001808311610eaa57829003601f168201915b505050505081565b6000610ed9611565565b73ffffffffffffffffffffffffffffffffffffffff16610ef7610b7c565b73ffffffffffffffffffffffffffffffffffffffff1614610f4d576040517f08c379a0000000000000000000000000000000000000000000000000000000008152600401610f44906132ee565b60405180910390fd5b6000610f59600d611a82565b9050610f658482611a90565b82600e6000838152602001908152602001600020600082015181600001600082015181600001556020820151816001015560408201518160020155606082015181600301556080820151816004015560a082015181600501555050905050610fcd600d611aae565b8091505092915050565b6060610fe2826114f9565b611021576040517f08c379a0000000000000000000000000000000000000000000000000000000008152600401611018906133ec565b60405180910390fd5b6060600c60009054906101000a900473ffffffffffffffffffffffffffffffffffffffff1673ffffffffffffffffffffffffffffffffffffffff1663b2fa1c9e6040518163ffffffff1660e01b815260040160206040518083038186803b15801561108b57600080fd5b505afa15801561109f573d6000803e3d6000fd5b505050506040513d601f19601f820116820180604052508101906110c39190613421565b80156111775750600c60009054906101000a900473ffffffffffffffffffffffffffffffffffffffff1673ffffffffffffffffffffffffffffffffffffffff1663d84e29ea846040518263ffffffff1660e01b81526004016111259190612827565b60206040518083038186803b15801561113d57600080fd5b505afa158015611151573d6000803e3d6000fd5b505050506040513d601f19601f820116820180604052508101906111759190613421565b155b156111b9576040518060400160405280600981526020017f64657374726f79656400000000000000000000000000000000000000000000008152509050611238565b6000600e6000858152602001908152602001600020604051806020016040529081600082016040518060c0016040529081600082015481526020016001820154815260200160028201548152602001600382015481526020016004820154815260200160058201548152505081525050905061123481611ac4565b9150505b600b8160405160200161124c929190613602565b604051602081830303815290604052915050919050565b6060600b6040516020016112779190613693565b604051602081830303815290604052905090565b6000600560008473ffffffffffffffffffffffffffffffffffffffff1673ffffffffffffffffffffffffffffffffffffffff16815260200190815260200160002060008373ffffffffffffffffffffffffffffffffffffffff1673ffffffffffffffffffffffffffffffffffffffff16815260200190815260200160002060009054906101000a900460ff16905092915050565b611327611565565b73ffffffffffffffffffffffffffffffffffffffff16611345610b7c565b73ffffffffffffffffffffffffffffffffffffffff161461139b576040517f08c379a0000000000000000000000000000000000000000000000000000000008152600401611392906132ee565b60405180910390fd5b600073ffffffffffffffffffffffffffffffffffffffff168173ffffffffffffffffffffffffffffffffffffffff16141561140b576040517f08c379a000000000000000000000000000000000000000000000000000000000815260040161140290613732565b60405180910390fd5b61141481611960565b50565b60007f80ac58cd000000000000000000000000000000000000000000000000000000007bffffffffffffffffffffffffffffffffffffffffffffffffffffffff1916827bffffffffffffffffffffffffffffffffffffffffffffffffffffffff191614806114e257507f5b5e139f000000000000000000000000000000000000000000000000000000007bffffffffffffffffffffffffffffffffffffffffffffffffffffffff1916827bffffffffffffffffffffffffffffffffffffffffffffffffffffffff1916145b806114f257506114f182611b57565b5b9050919050565b60008073ffffffffffffffffffffffffffffffffffffffff166002600084815260200190815260200160002060009054906101000a900473ffffffffffffffffffffffffffffffffffffffff1673ffffffffffffffffffffffffffffffffffffffff1614159050919050565b600033905090565b816004600083815260200190815260200160002060006101000a81548173ffffffffffffffffffffffffffffffffffffffff021916908373ffffffffffffffffffffffffffffffffffffffff160217905550808273ffffffffffffffffffffffffffffffffffffffff166115e08361098a565b73ffffffffffffffffffffffffffffffffffffffff167f8c5be1e5ebec7d5bd14f71427d1e84f3dd0314c0f7b2291e5b200ac8c7c3b92560405160405180910390a45050565b6000611631826114f9565b611670576040517f08c379a0000000000000000000000000000000000000000000000000000000008152600401611667906137c4565b60405180910390fd5b600061167b8361098a565b90508073ffffffffffffffffffffffffffffffffffffffff168473ffffffffffffffffffffffffffffffffffffffff1614806116ea57508373ffffffffffffffffffffffffffffffffffffffff166116d2846105cd565b73ffffffffffffffffffffffffffffffffffffffff16145b806116fb57506116fa818561128b565b5b91505092915050565b8273ffffffffffffffffffffffffffffffffffffffff166117248261098a565b73ffffffffffffffffffffffffffffffffffffffff161461177a576040517f08c379a000000000000000000000000000000000000000000000000000000000815260040161177190613856565b60405180910390fd5b600073ffffffffffffffffffffffffffffffffffffffff168273ffffffffffffffffffffffffffffffffffffffff1614156117ea576040517f08c379a00000000000000000000000000000000000000000000000000000000081526004016117e1906138e8565b60405180910390fd5b6117f5838383611bc1565b61180060008261156d565b6001600360008573ffffffffffffffffffffffffffffffffffffffff1673ffffffffffffffffffffffffffffffffffffffff16815260200190815260200160002060008282546118509190613937565b925050819055506001600360008473ffffffffffffffffffffffffffffffffffffffff1673ffffffffffffffffffffffffffffffffffffffff16815260200190815260200160002060008282546118a7919061396b565b92505081905550816002600083815260200190815260200160002060006101000a81548173ffffffffffffffffffffffffffffffffffffffff021916908373ffffffffffffffffffffffffffffffffffffffff160217905550808273ffffffffffffffffffffffffffffffffffffffff168473ffffffffffffffffffffffffffffffffffffffff167fddf252ad1be2c89b69c2b068fc378daa952ba7f163c4a11628f55a4df523b3ef60405160405180910390a4505050565b6000600a60009054906101000a900473ffffffffffffffffffffffffffffffffffffffff16905081600a60006101000a81548173ffffffffffffffffffffffffffffffffffffffff021916908373ffffffffffffffffffffffffffffffffffffffff1602179055508173ffffffffffffffffffffffffffffffffffffffff168173ffffffffffffffffffffffffffffffffffffffff167f8be0079c531659141344cd1fd0a4f28419497f9722a3daafe3b4186f6b6457e060405160405180910390a35050565b611a31848484611704565b611a3d84848484611cd5565b611a7c576040517f08c379a0000000000000000000000000000000000000000000000000000000008152600401611a7390613a33565b60405180910390fd5b50505050565b600081600001549050919050565b611aaa828260405180602001604052806000815250611e6c565b5050565b6001816000016000828254019250508190555050565b6060611ad7826000015160000151611ec7565b611ae8836000015160200151611ec7565b611af9846000015160400151611ec7565b611b0a856000015160600151611ec7565b611b1b866000015160800151611ec7565b611b2c876000015160a00151611ec7565b604051602001611b4196959493929190613aeb565b6040516020818303038152906040529050919050565b60007f01ffc9a7000000000000000000000000000000000000000000000000000000007bffffffffffffffffffffffffffffffffffffffffffffffffffffffff1916827bffffffffffffffffffffffffffffffffffffffffffffffffffffffff1916149050919050565b611bcc838383612028565b600073ffffffffffffffffffffffffffffffffffffffff168373ffffffffffffffffffffffffffffffffffffffff161415611c0f57611c0a8161202d565b611c4e565b8173ffffffffffffffffffffffffffffffffffffffff168373ffffffffffffffffffffffffffffffffffffffff1614611c4d57611c4c8382612076565b5b5b600073ffffffffffffffffffffffffffffffffffffffff168273ffffffffffffffffffffffffffffffffffffffff161415611c9157611c8c816121e3565b611cd0565b8273ffffffffffffffffffffffffffffffffffffffff168273ffffffffffffffffffffffffffffffffffffffff1614611ccf57611cce82826122b4565b5b5b505050565b6000611cf68473ffffffffffffffffffffffffffffffffffffffff16612333565b15611e5f578373ffffffffffffffffffffffffffffffffffffffff1663150b7a02611d1f611565565b8786866040518563ffffffff1660e01b8152600401611d419493929190613bcf565b602060405180830381600087803b158015611d5b57600080fd5b505af1925050508015611d8c57506040513d601f19601f82011682018060405250810190611d899190613c30565b60015b611e0f573d8060008114611dbc576040519150601f19603f3d011682016040523d82523d6000602084013e611dc1565b606091505b50600081511415611e07576040517f08c379a0000000000000000000000000000000000000000000000000000000008152600401611dfe90613a33565b60405180910390fd5b805181602001fd5b63150b7a0260e01b7bffffffffffffffffffffffffffffffffffffffffffffffffffffffff1916817bffffffffffffffffffffffffffffffffffffffffffffffffffffffff191614915050611e64565b600190505b949350505050565b611e768383612346565b611e836000848484611cd5565b611ec2576040517f08c379a0000000000000000000000000000000000000000000000000000000008152600401611eb990613a33565b60405180910390fd5b505050565b60606000821415611f0f576040518060400160405280600181526020017f30000000000000000000000000000000000000000000000000000000000000008152509050612023565b600082905060005b60008214611f41578080611f2a90613c5d565b915050600a82611f3a9190613cd5565b9150611f17565b60008167ffffffffffffffff811115611f5d57611f5c6129f9565b5b6040519080825280601f01601f191660200182016040528015611f8f5781602001600182028036833780820191505090505b5090505b6000851461201c57600182611fa89190613937565b9150600a85611fb79190613d06565b6030611fc3919061396b565b60f81b818381518110611fd957611fd861314f565b5b60200101907effffffffffffffffffffffffffffffffffffffffffffffffffffffffffffff1916908160001a905350600a856120159190613cd5565b9450611f93565b8093505050505b919050565b505050565b6008805490506009600083815260200190815260200160002081905550600881908060018154018082558091505060019003906000526020600020016000909190919091505550565b6000600161208384610a3c565b61208d9190613937565b9050600060076000848152602001908152602001600020549050818114612172576000600660008673ffffffffffffffffffffffffffffffffffffffff1673ffffffffffffffffffffffffffffffffffffffff168152602001908152602001600020600084815260200190815260200160002054905080600660008773ffffffffffffffffffffffffffffffffffffffff1673ffffffffffffffffffffffffffffffffffffffff168152602001908152602001600020600084815260200190815260200160002081905550816007600083815260200190815260200160002081905550505b6007600084815260200190815260200160002060009055600660008573ffffffffffffffffffffffffffffffffffffffff1673ffffffffffffffffffffffffffffffffffffffff16815260200190815260200160002060008381526020019081526020016000206000905550505050565b600060016008805490506121f79190613937565b90506000600960008481526020019081526020016000205490506000600883815481106122275761222661314f565b5b9060005260206000200154905080600883815481106122495761224861314f565b5b90600052602060002001819055508160096000838152602001908152602001600020819055506009600085815260200190815260200160002060009055600880548061229857612297613d37565b5b6001900381819060005260206000200160009055905550505050565b60006122bf83610a3c565b905081600660008573ffffffffffffffffffffffffffffffffffffffff1673ffffffffffffffffffffffffffffffffffffffff168152602001908152602001600020600083815260200190815260200160002081905550806007600084815260200190815260200160002081905550505050565b600080823b905060008111915050919050565b600073ffffffffffffffffffffffffffffffffffffffff168273ffffffffffffffffffffffffffffffffffffffff1614156123b6576040517f08c379a00000000000000000000000000000000000000000000000000000000081526004016123ad90613db2565b60405180910390fd5b6123bf816114f9565b156123ff576040517f08c379a00000000000000000000000000000000000000000000000000000000081526004016123f690613e1e565b60405180910390fd5b61240b60008383611bc1565b6001600360008473ffffffffffffffffffffffffffffffffffffffff1673ffffffffffffffffffffffffffffffffffffffff168152602001908152602001600020600082825461245b919061396b565b92505081905550816002600083815260200190815260200160002060006101000a81548173ffffffffffffffffffffffffffffffffffffffff021916908373ffffffffffffffffffffffffffffffffffffffff160217905550808273ffffffffffffffffffffffffffffffffffffffff16600073ffffffffffffffffffffffffffffffffffffffff167fddf252ad1be2c89b69c2b068fc378daa952ba7f163c4a11628f55a4df523b3ef60405160405180910390a45050565b604051806020016040528061252761252d565b81525090565b6040518060c001604052806000815260200160008152602001600081526020016000815260200160008152602001600081525090565b6000604051905090565b600080fd5b600080fd5b60007fffffffff0000000000000000000000000000000000000000000000000000000082169050919050565b6125ac81612577565b81146125b757600080fd5b50565b6000813590506125c9816125a3565b92915050565b6000602082840312156125e5576125e461256d565b5b60006125f3848285016125ba565b91505092915050565b60008115159050919050565b612611816125fc565b82525050565b600060208201905061262c6000830184612608565b92915050565b600081519050919050565b600082825260208201905092915050565b60005b8381101561266c578082015181840152602081019050612651565b8381111561267b576000848401525b50505050565b6000601f19601f8301169050919050565b600061269d82612632565b6126a7818561263d565b93506126b781856020860161264e565b6126c081612681565b840191505092915050565b600060208201905081810360008301526126e58184612692565b905092915050565b6000819050919050565b612700816126ed565b811461270b57600080fd5b50565b60008135905061271d816126f7565b92915050565b6000602082840312156127395761273861256d565b5b60006127478482850161270e565b91505092915050565b600073ffffffffffffffffffffffffffffffffffffffff82169050919050565b600061277b82612750565b9050919050565b61278b81612770565b82525050565b60006020820190506127a66000830184612782565b92915050565b6127b581612770565b81146127c057600080fd5b50565b6000813590506127d2816127ac565b92915050565b600080604083850312156127ef576127ee61256d565b5b60006127fd858286016127c3565b925050602061280e8582860161270e565b9150509250929050565b612821816126ed565b82525050565b600060208201905061283c6000830184612818565b92915050565b60008060006060848603121561285b5761285a61256d565b5b6000612869868287016127c3565b935050602061287a868287016127c3565b925050604061288b8682870161270e565b9150509250925092565b61289e816126ed565b82525050565b60c0820160008201516128ba6000850182612895565b5060208201516128cd6020850182612895565b5060408201516128e06040850182612895565b5060608201516128f36060850182612895565b5060808201516129066080850182612895565b5060a082015161291960a0850182612895565b50505050565b60c08201600082015161293560008501826128a4565b50505050565b600060c082019050612950600083018461291f565b92915050565b60006020828403121561296c5761296b61256d565b5b600061297a848285016127c3565b91505092915050565b61298c816125fc565b811461299757600080fd5b50565b6000813590506129a981612983565b92915050565b600080604083850312156129c6576129c561256d565b5b60006129d4858286016127c3565b92505060206129e58582860161299a565b9150509250929050565b600080fd5b600080fd5b7f4e487b7100000000000000000000000000000000000000000000000000000000600052604160045260246000fd5b612a3182612681565b810181811067ffffffffffffffff82111715612a5057612a4f6129f9565b5b80604052505050565b6000612a63612563565b9050612a6f8282612a28565b919050565b600067ffffffffffffffff821115612a8f57612a8e6129f9565b5b612a9882612681565b9050602081019050919050565b82818337600083830152505050565b6000612ac7612ac284612a74565b612a59565b905082815260208101848484011115612ae357612ae26129f4565b5b612aee848285612aa5565b509392505050565b600082601f830112612b0b57612b0a6129ef565b5b8135612b1b848260208601612ab4565b91505092915050565b60008060008060808587031215612b3e57612b3d61256d565b5b6000612b4c878288016127c3565b9450506020612b5d878288016127c3565b9350506040612b6e8782880161270e565b925050606085013567ffffffffffffffff811115612b8f57612b8e612572565b5b612b9b87828801612af6565b91505092959194509250565b6000819050919050565b6000612bcc612bc7612bc284612750565b612ba7565b612750565b9050919050565b6000612bde82612bb1565b9050919050565b6000612bf082612bd3565b9050919050565b612c0081612be5565b82525050565b6000602082019050612c1b6000830184612bf7565b92915050565b600080fd5b600060c08284031215612c3c57612c3b612c21565b5b612c4660c0612a59565b90506000612c568482850161270e565b6000830152506020612c6a8482850161270e565b6020830152506040612c7e8482850161270e565b6040830152506060612c928482850161270e565b6060830152506080612ca68482850161270e565b60808301525060a0612cba8482850161270e565b60a08301525092915050565b600060c08284031215612cdc57612cdb612c21565b5b612ce66020612a59565b90506000612cf684828501612c26565b60008301525092915050565b60008060e08385031215612d1957612d1861256d565b5b6000612d27858286016127c3565b9250506020612d3885828601612cc6565b9150509250929050565b60008060408385031215612d5957612d5861256d565b5b6000612d67858286016127c3565b9250506020612d78858286016127c3565b9150509250929050565b7f4e487b7100000000000000000000000000000000000000000000000000000000600052602260045260246000fd5b60006002820490506001821680612dc957607f821691505b60208210811415612ddd57612ddc612d82565b5b50919050565b7f4552433732313a20617070726f76656420717565727920666f72206e6f6e657860008201527f697374656e7420746f6b656e0000000000000000000000000000000000000000602082015250565b6000612e3f602c8361263d565b9150612e4a82612de3565b604082019050919050565b60006020820190508181036000830152612e6e81612e32565b9050919050565b7f4552433732313a20617070726f76616c20746f2063757272656e74206f776e6560008201527f7200000000000000000000000000000000000000000000000000000000000000602082015250565b6000612ed160218361263d565b9150612edc82612e75565b604082019050919050565b60006020820190508181036000830152612f0081612ec4565b9050919050565b7f4552433732313a20617070726f76652063616c6c6572206973206e6f74206f7760008201527f6e6572206e6f7220617070726f76656420666f7220616c6c0000000000000000602082015250565b6000612f6360388361263d565b9150612f6e82612f07565b604082019050919050565b60006020820190508181036000830152612f9281612f56565b9050919050565b7f4552433732313a207472616e736665722063616c6c6572206973206e6f74206f60008201527f776e6572206e6f7220617070726f766564000000000000000000000000000000602082015250565b6000612ff560318361263d565b915061300082612f99565b604082019050919050565b6000602082019050818103600083015261302481612fe8565b9050919050565b7f455243373231456e756d657261626c653a206f776e657220696e646578206f7560008201527f74206f6620626f756e6473000000000000000000000000000000000000000000602082015250565b6000613087602b8361263d565b91506130928261302b565b604082019050919050565b600060208201905081810360008301526130b68161307a565b9050919050565b7f455243373231456e756d657261626c653a20676c6f62616c20696e646578206f60008201527f7574206f6620626f756e64730000000000000000000000000000000000000000602082015250565b6000613119602c8361263d565b9150613124826130bd565b604082019050919050565b600060208201905081810360008301526131488161310c565b9050919050565b7f4e487b7100000000000000000000000000000000000000000000000000000000600052603260045260246000fd5b7f4552433732313a206f776e657220717565727920666f72206e6f6e657869737460008201527f656e7420746f6b656e0000000000000000000000000000000000000000000000602082015250565b60006131da60298361263d565b91506131e58261317e565b604082019050919050565b60006020820190508181036000830152613209816131cd565b9050919050565b7f4552433732313a2062616c616e636520717565727920666f7220746865207a6560008201527f726f206164647265737300000000000000000000000000000000000000000000602082015250565b600061326c602a8361263d565b915061327782613210565b604082019050919050565b6000602082019050818103600083015261329b8161325f565b9050919050565b7f4f776e61626c653a2063616c6c6572206973206e6f7420746865206f776e6572600082015250565b60006132d860208361263d565b91506132e3826132a2565b602082019050919050565b60006020820190508181036000830152613307816132cb565b9050919050565b7f4552433732313a20617070726f766520746f2063616c6c657200000000000000600082015250565b600061334460198361263d565b915061334f8261330e565b602082019050919050565b6000602082019050818103600083015261337381613337565b9050919050565b7f45524337323155524953746f726167653a2055524920717565727920666f722060008201527f6e6f6e6578697374656e7420746f6b656e000000000000000000000000000000602082015250565b60006133d660318361263d565b91506133e18261337a565b604082019050919050565b60006020820190508181036000830152613405816133c9565b9050919050565b60008151905061341b81612983565b92915050565b6000602082840312156134375761343661256d565b5b60006134458482850161340c565b91505092915050565b600081905092915050565b7f697066733a2f2f00000000000000000000000000000000000000000000000000600082015250565b600061348f60078361344e565b915061349a82613459565b600782019050919050565b60008190508160005260206000209050919050565b600081546134c781612db1565b6134d1818661344e565b945060018216600081146134ec57600181146134fd57613530565b60ff19831686528186019350613530565b613506856134a5565b60005b8381101561352857815481890152600182019150602081019050613509565b838801955050505b50505092915050565b7f2f00000000000000000000000000000000000000000000000000000000000000600082015250565b600061356f60018361344e565b915061357a82613539565b600182019050919050565b600061359082612632565b61359a818561344e565b93506135aa81856020860161264e565b80840191505092915050565b7f2e6a736f6e000000000000000000000000000000000000000000000000000000600082015250565b60006135ec60058361344e565b91506135f7826135b6565b600582019050919050565b600061360d82613482565b915061361982856134ba565b915061362482613562565b91506136308284613585565b915061363b826135df565b91508190509392505050565b7f2f636f6c6c656374696f6e2d6d657461646174612e6a736f6e00000000000000600082015250565b600061367d60198361344e565b915061368882613647565b601982019050919050565b600061369e82613482565b91506136aa82846134ba565b91506136b582613670565b915081905092915050565b7f4f776e61626c653a206e6577206f776e657220697320746865207a65726f206160008201527f6464726573730000000000000000000000000000000000000000000000000000602082015250565b600061371c60268361263d565b9150613727826136c0565b604082019050919050565b6000602082019050818103600083015261374b8161370f565b9050919050565b7f4552433732313a206f70657261746f7220717565727920666f72206e6f6e657860008201527f697374656e7420746f6b656e0000000000000000000000000000000000000000602082015250565b60006137ae602c8361263d565b91506137b982613752565b604082019050919050565b600060208201905081810360008301526137dd816137a1565b9050919050565b7f4552433732313a207472616e73666572206f6620746f6b656e2074686174206960008201527f73206e6f74206f776e0000000000000000000000000000000000000000000000602082015250565b600061384060298361263d565b915061384b826137e4565b604082019050919050565b6000602082019050818103600083015261386f81613833565b9050919050565b7f4552433732313a207472616e7366657220746f20746865207a65726f2061646460008201527f7265737300000000000000000000000000000000000000000000000000000000602082015250565b60006138d260248361263d565b91506138dd82613876565b604082019050919050565b60006020820190508181036000830152613901816138c5565b9050919050565b7f4e487b7100000000000000000000000000000000000000000000000000000000600052601160045260246000fd5b6000613942826126ed565b915061394d836126ed565b9250828210156139605761395f613908565b5b828203905092915050565b6000613976826126ed565b9150613981836126ed565b9250827fffffffffffffffffffffffffffffffffffffffffffffffffffffffffffffffff038211156139b6576139b5613908565b5b828201905092915050565b7f4552433732313a207472616e7366657220746f206e6f6e20455243373231526560008201527f63656976657220696d706c656d656e7465720000000000000000000000000000602082015250565b6000613a1d60328361263d565b9150613a28826139c1565b604082019050919050565b60006020820190508181036000830152613a4c81613a10565b9050919050565b7f2d00000000000000000000000000000000000000000000000000000000000000600082015250565b6000613a8960018361344e565b9150613a9482613a53565b600182019050919050565b7f5f00000000000000000000000000000000000000000000000000000000000000600082015250565b6000613ad560018361344e565b9150613ae082613a9f565b600182019050919050565b6000613af78289613585565b9150613b0282613a7c565b9150613b0e8288613585565b9150613b1982613ac8565b9150613b258287613585565b9150613b3082613a7c565b9150613b3c8286613585565b9150613b4782613ac8565b9150613b538285613585565b9150613b5e82613a7c565b9150613b6a8284613585565b9150819050979650505050505050565b600081519050919050565b600082825260208201905092915050565b6000613ba182613b7a565b613bab8185613b85565b9350613bbb81856020860161264e565b613bc481612681565b840191505092915050565b6000608082019050613be46000830187612782565b613bf16020830186612782565b613bfe6040830185612818565b8181036060830152613c108184613b96565b905095945050505050565b600081519050613c2a816125a3565b92915050565b600060208284031215613c4657613c4561256d565b5b6000613c5484828501613c1b565b91505092915050565b6000613c68826126ed565b91507fffffffffffffffffffffffffffffffffffffffffffffffffffffffffffffffff821415613c9b57613c9a613908565b5b600182019050919050565b7f4e487b7100000000000000000000000000000000000000000000000000000000600052601260045260246000fd5b6000613ce0826126ed565b9150613ceb836126ed565b925082613cfb57613cfa613ca6565b5b828204905092915050565b6000613d11826126ed565b9150613d1c836126ed565b925082613d2c57613d2b613ca6565b5b828206905092915050565b7f4e487b7100000000000000000000000000000000000000000000000000000000600052603160045260246000fd5b7f4552433732313a206d696e7420746f20746865207a65726f2061646472657373600082015250565b6000613d9c60208361263d565b9150613da782613d66565b602082019050919050565b60006020820190508181036000830152613dcb81613d8f565b9050919050565b7f4552433732313a20746f6b656e20616c7265616479206d696e74656400000000600082015250565b6000613e08601c8361263d565b9150613e1382613dd2565b602082019050919050565b60006020820190508181036000830152613e3781613dfb565b905091905056fea26469706673582212204be45416603a3c278d16d67f1fb5052b200981202dbbd8e649c26f7d990131a664736f6c63430008090033",
  "linkReferences": {},
  "deployedLinkReferences": {}
}